:100000000C9410020C945B1F0C948D1F0C94BF1F5A
:100010000C942F020C942F020C942F020C942F029C
:100020000C942F020C94291F0C942F020C942F0275
:100030000C942F020C94881D0C942F020C94881D94
:100040000C942F020C942F020C942F020C942F026C
:100050000C942F020C942F020C942F020C942F025C
:100060000C942F020C942F020C942F020C942F024C
:100070000C942F020C942F020C942F020C942F023C
:100080000C94BB1D0C942F020C942F020C942F0285
:100090000C942F020C942F020C942F020C942F021C
:1000A0000C942F020C942F020C942F020C942F020C
:1000B0000C942F020C942F020C942F020C942F02FC
:1000C0000C942F020C942F020C942F020C942F02EC
:1000D0000C942F020C942F020C942F020C942F02DC
:1000E0000C942F020C94A7050C9498050C946805A9
:1000F0000C9458060C9459050C944A050C94380538
:100100000C9429050C942F020C942F020C942F02AE
:100110000C942F020C942F020C942F020C942F029B
:10012000D807E507F207FF070C0819082608490851
:1001300057086508730881088F089D08C008C20821
:10014000C408C608C808CA08CC08EB080E0932095A
:10015000550978099B09BE09F809050A120A1F0A00
:100160002C0A390A460A5F0A6C0A790A860A930A37
:10017000A00AAD0A1A0E200E230E260E290E2C0EF2
:10018000320E2F0E350E380E3B0E440E470E4A0E21
:100190004D0E410E170E1D0E500E530E3E0E140E38
:1001A0000A0F0D0F180F1D0F240F2D0F300F350FD5
:1001B0003C0F450F554E4B4F574E004578746572B6
:1001C0006E616C2052657365740042726F776E20A9
:1001D0004F757420446574656374004661696C658D
:1001E0006420746F206372656174652053656D616E
:1001F00070686F7265004661696C656420746F2079
:10020000637265617465205369676E616C004B654C
:10021000726E656C2066756E6374696F6E206E6FAA
:100220007420696D706C656D656E746564004465FD
:100230007669636520447269766572204572726FD3
:1002400072005761746368646F67205265737461EC
:100250007274005357205761746368646F6720524B
:100260006573746172740054696D6572204F7665B0
:1002700072666C6F7700556E68616E646C656420A1
:10028000496E7465727275707420566563746F720E
:10029000004C6F7720566F6C746167650045787409
:1002A0007261205461736B20737461727465642C85
:1002B000206973206E726B5F6366672E68206F6BB8
:1002C0003F0049646C65206F72204B65726E656CEF
:1002D00020537461636B204F766572666C6F770094
:1002E000556E6578706563746564205265737461DA
:1002F0007274004475706C69636174656420546144
:10030000736B204944005363686564756C657220A3
:100310004D69737365642057616B65757000546136
:10032000736B20526573657276652056696F6C61D8
:100330007465640052657365727665204572726FEC
:100340007220696E205363686564756C657200493C
:100350006E76616C696420537461636B20506F69C1
:100360006E746572005461736B20537461636B200B
:100370004F766572666C6F7700537461636B20779C
:100380006173206E6F7420646566696E65642061B8
:1003900073206C6172676520656E6F7567682100F8
:1003A0005461736B20706572696F6420746F6F2085
:1003B0006C617267652E20506572696F64206D757F
:1003C0007374206265206C657373207468616E209D
:1003D0003631207365636F6E64732E00293A2000F6
:1003E0002A4E524B204552524F5228004E524B201B
:1003F00048616C742E2E2E0D0A000D0A5354414391
:100400004B2044554D500D0A004546476566670030
:10041000202B2D2E303132333435363738396800C1
:1004200011241FBECFEFD1E4DEBFCDBF13E0A0E0AB
:10043000B2E0E4E2FCE400E00BBF02C007900D92E2
:10044000A436B107D9F716E0A4E6B3E001C01D92C7
:10045000AF31B107E1F70E94D4200C9410260C9420
:100460007E1D0895909141019F719F31D9F3809332
:100470004201089580936403089581E0809370049D
:100480000895109270040895809141018F718F3109
:10049000D9F3809141018F71E1F08F30D1F08091DB
:1004A00041018F71883031F48091390182608093ED
:1004B00039010BC088E00E943202809141018F71A6
:1004C0008830D9F7F1CF8F3021F0809141018F71C1
:1004D000D1F70895809141018F718F31D9F38091C7
:1004E00041018F7111F08F3051F4809139018D7F6E
:1004F00080933901809141018F718830D9F7089537
:1005000089E00C943202E5E4F1E09081907F9083E1
:1005100090818F70982B90830895E7E5F1E08081BA
:100520008D7F80830895E7E5F1E08081826080839C
:100530000895EEE6F1E080818F7E80830895EEE6F7
:10054000F1E08081806180830895809360019093C1
:10055000610190937B0480937A04089590937504CD
:1005600080937404E8E4F1E08081807E8083808160
:10057000682B6083089590936803809367030895C0
:10058000909366038093650308950F931F93CF9311
:10059000DF93FC01D90180E28093440180EC8093D9
:1005A000450160626093480185EC8093490187EAC8
:1005B00080934B0180E880934C0120936001B093BD
:1005C00061014093620150936301C6E4D1E0088168
:1005D000888198812881302F32953695377060E474
:1005E000369F80011124229526952370622F602B5F
:1005F00082958695837070E1879F90011124262B48
:1006000092959695937084E0989FB0011124622B87
:1006100060936D0188819881929596959370392F9A
:100620003064982F92959670932B90936E01109250
:100630006C018FEF80934E01C4E7D4E0F983E88327
:100640001A821B825D834C83BF83AE83188681E050
:1006500080938F041092AB0410927E041092700469
:10066000DF91CF911F910F91089586E10C94320292
:1006700086E10C94320288E00E9432021092AB04B0
:1006800008950F931F93CF93DF93FC0180918F0404
:10069000811102C08FEFABC02681809176048F5FFD
:1006A0008093760490918101907E916020FB95F972
:1006B0009F7390649093810188E880938201809178
:1006C0007004882361F08FEF809383018AEA9AEAAD
:1006D00090938901809388018FEF9FEF10C08091E4
:1006E000760480938301209161018091600190E004
:1006F000922B9093890180938801808191819093BE
:10070000870180938601209163018091620190E0CE
:10071000922B90938501809384018F01428155270C
:1007200047FD5095638174818AE891E00E943123EE
:10073000F8018281855F8093800180914101D82FEB
:10074000DF719FEF9D0F9230C0F3D131B1F3D23101
:10075000A1F3DF3191F398EF9D0F923020F08F706D
:10076000863009F097CF86E10E943202F801858138
:1007700081110BC089E00E943202F8018681882332
:1007800091F089E10E9432020EC080914801806898
:10079000809348018091410187FFFCCF8091410106
:1007A00086FF78CFE7CF10927E0482E00E9432026B
:1007B00080E090E020917E04211105C00196883EE2
:1007C000FDEF9F07B9F7F8012681222331F0209130
:1007D000420122952695277029F4883E9D4F11F0FD
:1007E000C1E001C0CFEF8D2F0E9432028C2FDF912C
:1007F000CF911F910F91089510927E0482E00E9484
:10080000320288EE9DEF20917E04211104C00197F1
:10081000D1F78FEF089581E00895CF93DF93809112
:100820008F04882341F180914101C82FCF719FEF40
:100830009C0F9230C0F3C131B1F3C231A1F3CF317B
:1008400091F3C83019F08F708630A9F486E10E94C8
:100850003202809148018068809348018091410173
:1008600087FFFCCFD09141018C2F0E943202D6FB32
:10087000882780F901C08FEFDF91CF910895809193
:100880008F04882309F4E3C08091AB04882309F422
:10089000DCC080917B01E0917404F091750490E0DC
:1008A00002972481332727FD3095281739070CF448
:1008B000CEC0E0917404F091750480918201808330
:1008C000E0917404F0917504809187019091880102
:1008D00092838183E0917404F091750480917B018F
:1008E0008B508383A0917404B0917504E0917404DB
:1008F000F091750413969C91848189173CF0E091E6
:100900007404F0917504838187FF0DC01092AB04CD
:1009100080914C018F7780934C0180914C018068CD
:1009200080934C0194C0A0917404B0917504E0913F
:100930007404F091750413964C91552747FD50951A
:1009400069E871E0858196810E943123809164037A
:10095000882309F43EC0E0917404F091750483810A
:100960008031B9F5E0917404F09175046581768168
:1009700044E050E080E092E00E944123892B49F559
:10098000E0917404F09175046581768140E150E056
:1009900080E092E00E944123892BD9F49DE088E118
:1009A0000FB6F894A895809360000FBE90936000F6
:1009B00080E090E00E94F50A81E090E00E94F50A54
:1009C00082E090E00E94F50A83E090E00E94F50A40
:1009D000FFCFE0917404F09175048091800185FB54
:1009E000882780F98783E0917404F09175048091E1
:1009F00047018087E0917404F0917504809146016D
:100A00008695869586958187E0917404F0917504AA
:100A1000809147018287A0917404B0917504E091A0
:100A20007B01F0E0E058FE4F80811B968C93109282
:100A3000AB0480914C018F7780934C0180914C01E5
:100A4000806880934C0181E0089580E008958FEFE5
:100A500008951F920F920FB60F9211248F9380E882
:100A600080934F018F910F900FBE0F901F9018959C
:100A70001F920F920FB60F9211248F9381E08093F3
:100A80007E0480E480934F018F910F900FBE0F90F2
:100A90001F9018951F920F920FB60F9211248F93EB
:100AA00080E280934F018F910F900FBE0F901F90A7
:100AB00018951F920F920FB60F9211248F9380E119
:100AC00080934F018F910F900FBE0F901F9018953C
:100AD0001F920F920FB60F9211240BB60F922F9305
:100AE0003F934F935F936F937F938F939F93AF93B6
:100AF000BF93EF93FF9384E080934F01E0916703EE
:100B0000F0916803309709F00995FF91EF91BF913B
:100B1000AF919F918F917F916F915F914F913F9195
:100B20002F910F900BBE0F900FBE0F901F90189536
:100B30001F920F920FB60F9211248F9382E0809331
:100B40004F018F910F900FBE0F901F9018951F921D
:100B50000F920FB60F9211248F9381E080934F0173
:100B60008F910F900FBE0F901F901895E9E4F1E060
:100B70009081907F908390818F70982B90830895BF
:100B80008FEF08950895089508958FEF0895809147
:100B90006E0490916F040895089581E0089581E0B6
:100BA000089581E008950895089508950895089599
:100BB00008950895089598988DB1806E8DB98EB17D
:100BC000806A8EB9089598988DB1806E8DB98EB176
:100BD00080668EB90895CF92DF92EF92FF920F93C5
:100BE0001F93CF93DF93CDB7DEB727970FB6F89457
:100BF000DEBF0FBECDBF0E94120CE0917404F091D5
:100C00007504C080D380E580F68000850E943F0493
:100C100018161CF08CE992E006C0F7011081111142
:100C200007C08BEB92E00E94EC230E94140C31C0B1
:100C3000153021F48AE090E00E94E623C701019676
:100C40009F938F93802F992787FD90959F930F9364
:100C50001F921F931F92CF928DED92E09F938F93DF
:100C60000E94D223FD82EC821150F7011083DB82B7
:100C70001E821F828FEF9FEF9A8389830E94140C3C
:100C8000CE0101960E9441030FB6F894DEBF0FBE5D
:100C9000CDBF27960FB6F894DEBF0FBECDBFDF9154
:100CA000CF911F910F91FF90EF90DF90CF9008951B
:100CB0001F920F920FB60F9211240BB60F922F9323
:100CC0003F934F935F936F937F938F939F93AF93D4
:100CD000BF93EF93FF9380E090917B01891710F40D
:100CE0008F5FFACF8091460187FF04C081E0809337
:100CF000AB0404C086E093E00E94EC2388E080937C
:100D00004F018091460187FF05C0809170048111D9
:100D10000E94EB05E0916503F0916603309709F0BE
:100D20000995FF91EF91BF91AF919F918F917F9125
:100D30006F915F914F913F912F910F900BBE0F904C
:100D40000FBE0F901F901895AFE7B4E0FC014096DE
:100D500020812D93219120933F01E817F907C1F7D6
:100D600080E110923E018150E1F780E880933C01E0
:100D700080913D0180FFFCCFE2E9F4E080E18E0F3D
:100D800090913F0191938E13FBCF0895CF93DF9302
:100D9000DC01662309F445C0862F8F7009F041C03D
:100DA000EFE7F4E090E19E0F219120933F019E1325
:100DB000FBCF90E070E0E0E240E1949F90011124CD
:100DC000261737077CF5911103C010923C0102C031
:100DD000E0933C0140E050E02A0F3B1FE901C40FC3
:100DE000D51FF881F0933E014F5F5F4F40315105B1
:100DF000A9F740913C01406840933C0140913D017E
:100E000040FFFCCF40E050E0F0913E01E901C40F0B
:100E1000D51FF8834F5F5F4F40315105A9F79F5FA2
:100E2000CBCF81E0DF91CF9108950F931F93CF93A4
:100E3000DF93DC01613009F458C0862F8F7009F010
:100E400054C0E2E9F4E090E19E0F219120933F012C
:100E50009E13FBCF62956F70615078E06F3F09F48D
:100E600045C070933C01462F552747FD509520E023
:100E700030E0ED0190E16902C00DD11D1124FE01A9
:100E8000E20FF31F908190933E012F5F3F4F20317F
:100E90003105A9F790913C01906890933C019091A5
:100EA0003D0190FFFCCF4150510994E0440F551F84
:100EB0009A95E1F720E030E090913E018E01020F1B
:100EC000131FF8019083662349F0F901E40FF51F21
:100ED000EA0FFB1FE0819E27F80190832F5F3F4FB1
:100EE0002031310549F76150B9CF81E0DF91CF91D1
:100EF0001F910F9108958091C00087FFFCCF8091D2
:100F0000C0008F778093C0008091C60008959091B3
:100F1000C00095FFFCCF9091C0009F7D9093C000D2
:100F20008093C60008958FEF0895813019F4809161
:100F3000C80004C0811106C08091C000881F8827A6
:100F4000881F089580E00895CF93DF93FC012491DA
:100F5000EC012196222351F060911706709118063A
:100F6000822F90E00E949A23CE01F0CFDF91CF91A3
:100F7000089586E084B985B988EF8AB980EF8BB986
:100F800082E08DB908950C94B9078F3F09F46CC0C5
:100F9000E82FE7704E2F50E04730510508F064C04D
:100FA000FA01E057FF4F8695869586950C940E239F
:100FB00042B121E030E0B90102C0660F771F8A9587
:100FC000E2F7CB01842B82B94DC045B121E030E07E
:100FD000B90102C0660F771F8A95E2F7CB01842B17
:100FE00085B940C048B121E030E0B90102C0660FC8
:100FF000771F8A95E2F7CB01842B88B933C04BB1B8
:1010000021E030E0B90102C0660F771F8A95E2F750
:10101000CB01842B8BB926C04EB121E030E0B90161
:1010200002C0660F771F8A95E2F7CB01842B8EB939
:1010300019C041B321E030E0B90102C0660F771F4B
:101040008A95E2F7CB01842B81BB0CC044B321E02D
:1010500030E0B90102C0660F771F8A95E2F7CB0135
:10106000842B84BB81E008958FEF08958F3F09F4AE
:1010700073C0E82FE7704E2F50E04730510508F05D
:101080006BC0FA01E956FF4F8695869586950C94BC
:101090000E2342B121E030E0B90102C0660F771F94
:1010A0008A95E2F7CB018095842382B953C045B17C
:1010B00021E030E0B90102C0660F771F8A95E2F7A0
:1010C000CB018095842385B945C048B121E030E04B
:1010D000B90102C0660F771F8A95E2F7CB018095B0
:1010E000842388B937C04BB121E030E0B90102C098
:1010F000660F771F8A95E2F7CB01809584238BB921
:1011000029C04EB121E030E0B90102C0660F771F5F
:101110008A95E2F7CB01809584238EB91BC041B339
:1011200021E030E0B90102C0660F771F8A95E2F72F
:10113000CB018095842381BB0DC044B321E030E016
:10114000B90102C0660F771F8A95E2F7CB0180953F
:10115000842384BB81E008958FEF08958F3F31F1A0
:10116000E82FE7704E2F50E047305105F8F4FA01B0
:10117000E256FF4F282F2695269526950C940E2390
:1011800090B10BC093B109C096B107C099B105C029
:101190009CB103C09FB101C092B3892F90E002C0FF
:1011A000959587952A95E2F7817008958FEF0895B8
:1011B0008F3F09F406C1E82FE7704E2F50E047300B
:1011C000510508F0FEC0FA01EB55FF4F8695869554
:1011D00086950C940E2320B130E0082E02C0359580
:1011E00027950A94E2F742B120FD0BC021E030E0E0
:1011F000B90102C0660F771F8A95E2F7CB01842BF5
:101200000BC021E030E0B90102C0660F771F8A955C
:10121000E2F7CB018095842382B916C023B130E078
:10122000082E02C0359527950A94E2F745B120FDB6
:101230000DC021E030E0B90102C0660F771F8A952A
:10124000E2F7CB01842B85B981E0089521E030E0FD
:10125000B90102C0660F771F8A95E2F7CB0180952E
:101260008423F1CF26B130E0082E02C035952795B2
:101270000A94E2F748B120FD0BC021E030E0B9014B
:1012800002C0660F771F8A95E2F7CB01842B0BC053
:1012900021E030E0B90102C0660F771F8A95E2F7BE
:1012A000CB018095842388B9CFCF29B130E0082EB7
:1012B00002C0359527950A94E2F74BB120FD0BC08B
:1012C00021E030E0B90102C0660F771F8A95E2F78E
:1012D000CB01842B0BC021E030E0B90102C0660FC6
:1012E000771F8A95E2F7CB01809584238BB9ACCF29
:1012F0002CB130E0082E02C0359527950A94E2F70C
:101300004EB120FD0BC021E030E0B90102C0660FF4
:10131000771F8A95E2F7CB01842B0BC021E030E0E8
:10132000B90102C0660F771F8A95E2F7CB0180955D
:1013300084238EB989CF2FB130E0082E02C03595B5
:1013400027950A94E2F741B320FD0BC021E030E07D
:10135000B90102C0660F771F8A95E2F7CB01842B93
:101360000BC021E030E0B90102C0660F771F8A95FB
:10137000E2F7CB018095842381BB66CF22B330E0B6
:10138000082E02C0359527950A94E2F744B320FD54
:101390000BC021E030E0B90102C0660F771F8A95CB
:1013A000E2F7CB01842B0BC021E030E0B90102C091
:1013B000660F771F8A95E2F7CB018095842384BB63
:1013C00043CF8FEF08958F3F09F4D5C0E82FE77022
:1013D0004E2F50E0611167C04730510508F0CBC077
:1013E000FA01E455FF4F8695869586950C940E2359
:1013F00041B121E030E0B90102C0660F771F8A9544
:10140000E2F7CB018095842365C044B121E030E050
:10141000B90102C0660F771F8A95E2F7CB0180956C
:10142000842365C047B121E030E0B90102C0660FF6
:10143000771F8A95E2F7CB018095842365C04AB176
:1014400021E030E0B90102C0660F771F8A95E2F70C
:10145000CB018095842365C04DB121E030E0B90116
:1014600002C0660F771F8A95E2F7CB01809584232F
:1014700065C040B321E030E0B90102C0660F771FBC
:101480008A95E2F7CB018095842365C043B321E0C0
:1014900030E0B90102C0660F771F8A95E2F7CB01F1
:1014A0008095842365C04730510508F064C0FA0177
:1014B000ED54FF4F8695869586950C940E2341B189
:1014C00021E030E0B90102C0660F771F8A95E2F78C
:1014D000CB01842B81B94DC044B121E030E0B9018A
:1014E00002C0660F771F8A95E2F7CB01842B84B97F
:1014F00040C047B121E030E0B90102C0660F771F5C
:101500008A95E2F7CB01842B87B933C04AB121E039
:1015100030E0B90102C0660F771F8A95E2F7CB0170
:10152000842B8AB926C04DB121E030E0B90102C058
:10153000660F771F8A95E2F7CB01842B8DB919C00E
:1015400040B321E030E0B90102C0660F771F8A95F1
:10155000E2F7CB01842B80BB0CC043B321E030E029
:10156000B90102C0660F771F8A95E2F7CB01842B81
:1015700083BB81E008958FEF0895811106C080B18B
:101580008695817091E0892708958FEF08950097DF
:1015900011F483E20DC08130910511F48BE208C093
:1015A0008230910511F483E303C0039729F48BE3A0
:1015B0000E94D80881E008958FEF0895009711F4F4
:1015C00083E20DC08130910511F48BE208C08230B6
:1015D000910511F483E303C0039729F48BE30E9480
:1015E000C50781E008958FEF0895009711F483E215
:1015F0000DC08130910511F48BE208C08230910555
:1016000011F483E303C0039729F48BE30E943608A7
:1016100081E008958FEF0895882319F085B78F7EB4
:1016200002C085B7806185BF81E008959091C800B0
:1016300095FFFCCF8093CE0008959093C5008093D2
:10164000C40086E08093C200E1ECF0E080818B7FF3
:101650008083A0ECB0E08C9182608C938081886163
:10166000808308959093CD008093CC0086E0809392
:10167000CA00E9ECF0E080818B7F8083A8ECB0E0C9
:101680008C9182608C938081886180830895CF9350
:10169000DF930E941D0B6BE777E087E897E00E94DD
:1016A0004F23C5E1D6E09B838A836BE777E087E829
:1016B00097E00E944F2399838883DF91CF9108950B
:1016C0008091C80087FFFCCF8091C8008F778093FE
:1016D000C8008091CE0008950000000000000000C6
:1016E0000197D1F708950C94AA240E94B22408957A
:1016F000EF92FF920F931F93CF93DF937C0180E0D3
:1017000090E00E94AA24182FF701838381E090E0E3
:101710000E94AA24082FF701828382E090E00E94B1
:10172000AA24D82FF701818383E090E00E94AA24A5
:10173000C82FF701808384E090E00E94AA24100F54
:10174000D10FCD0F8C1711F08FEF01C081E0DF9129
:10175000CF911F910F91FF90EF900895CF93DF935A
:10176000EC0185E090E00E94AA24888381E0DF916B
:10177000CF910895FC01608186E090E00E94B22440
:1017800081E00895CF93DF93EC0186E090E00E9422
:10179000AA24888381E0DF91CF9108950F931F934E
:1017A000CF93DF938C01C0E0D0E0CE0108960E9479
:1017B000AA24F80181938F012196C031D105A9F7A0
:1017C00081E0DF91CF911F910F9108950F931F93A7
:1017D000CF93DF938C01C0E0D0E0F80161918F01DD
:1017E000CE0108960E94B2242196C031D105A9F7F6
:1017F00081E0DF91CF911F910F910895CF93DF93F7
:10180000EC0187E090E00E94AA24888381E0DF91C8
:10181000CF910895FC01608187E090E00E94B2249E
:1018200081E00895F8940895789408950E94120C28
:10183000FFCFCF93DF93CDB7DEB7A3970FB6F89462
:10184000DEBF0FBECDBF0E94AC108093E0058F3F7E
:1018500021F460E08EE00E94B70F0E94F71D80FF28
:1018600004C060E086E00E94B70F1092E30510927A
:10187000F1051092F0051092E2051092E105109228
:10188000F2051092EF058FEF8093DC058093DE0563
:101890008093DD0593E69093380580933605909309
:1018A00063058093610590938E0580938C059093DA
:1018B000B9058093B70583EF95E028EF35E03093C5
:1018C000F7052093F6059093FA058093F9054DEFFF
:1018D00055E05093FC054093FB053093FF052093A2
:1018E000FE0522E036E03093010620930006509377
:1018F00004064093030647E056E0509306064093E3
:10190000050630930906209308061092F5051092FB
:10191000F40510920B0610920A061092E60510923A
:10192000E50590932D0580932C056EE679E1CE01B7
:1019300001960E942F2040E850E06CEA74E0CE014E
:1019400001960E94332085E58093AC0419861C869D
:101950001D861E861F86188A198A1A8A1B8A1C8A67
:101960001D8A1E8A1F8A188E198E1A8E1B8E1C8E37
:101970001D8E1E8E1F8E18A219A21AA21BA281E014
:10198000888792E09A878B87CE0101960E94AB14DC
:10199000A3960FB6F894DEBF0FBECDBFDF91CF91F7
:1019A000089506E315E0C0E0F801D080FFEFDF12F4
:1019B00022C0CF5F055D1F4FC430B1F70E949E1358
:1019C0002BE28202C0011124FC01E25DFA4F828504
:1019D0008093F205F093F105E093F005F093E205B2
:1019E000E093E1058093E3050E94A5200E948F20EB
:1019F0000E94A92016C086E3E82E85E0F82ED0E0EC
:101A0000CD1741F0F7018081D81204C06D2D85E01B
:101A10000E94B70FDF5FFBE2EF0EF11CD43081F7BD
:101A2000C8CFFFCFCF92DF92EF92FF920F931F9319
:101A3000CF93DF93EC018B017A018985823021F00D
:101A40008091DF05888301C018828091DF05843092
:101A500020F060E087E00E94B70F8985823029F08E
:101A60008091DF058F5F8093DF058091DF05811115
:101A700003C081E08093DF0538812BE23203F0015F
:101A80001124E25DFA4F11830083888582873881B3
:101A90003203F0011124E25DFA4F83E0818738813F
:101AA0003203F0011124E25DFA4F3087088102030E
:101AB00080011124025D1A4FF8011582CE010B96A8
:101AC0000E940419F80161A372A383A394A38B85D8
:101AD0009C85AD85BE8588339948A144B10520F029
:101AE000688186E10E94B70FC880DD24C7FCD094CE
:101AF000CE014B960E9404191BE21C9DF0011D9D16
:101B0000F00D1124E25DFA4F658B768B878B908FF9
:101B100028812103C00111249C01225D3A4F6901F3
:101B2000F901458956896789708D81A192A1A3A188
:101B3000B4A1840F951FA61FB71F818F928FA38F0B
:101B4000B48FCE0143960E940419F60165A376A3D3
:101B500087A390A728812103F0011124E25DFA4FA9
:101B600085A196A1A7A1B0A5858F968FA78FB0A3B9
:101B700081E090E092A781A7F382E2828487DF91DF
:101B8000CF911F910F91FF90EF90DF90CF9008952C
:101B90000C94881985E690E00895E091F005F091A5
:101BA000F10584870895E091F005F091F1058485B1
:101BB0000895FC018091AA04882331F0DB018C9305
:101BC00080917104808381E008958091AA04882324
:101BD00009F483C080EE93E00E94A4078091710411
:101BE0001F928F938FE193E09F938F930E94D22354
:101BF0008CED93E00E94A4070F900F900F900F9030
:101C00008091AA04883110F01092AA04E091AA04ED
:101C10008E2F90E0FC013197E631F10508F046C0C7
:101C2000E654FF4F0C940E2380EA93E041C089E70D
:101C300093E03EC085E693E03BC08FE493E038C07C
:101C400084E393E035C08EE193E032C086E093E018
:101C50002FC083EF92E02CC080EE92E029C082EC8E
:101C600092E026C08DE992E023C081E992E020C095
:101C700086E792E01DC087E692E01AC083E592E015
:101C800017C082E492E014C08EE292E011C08EE0B0
:101C900092E00EC086EF91E00BC08BED91E008C0A2
:101CA0008AEC91E005C08BEB91E002C084EB91E0FF
:101CB0000E94A40760911706709118068DE090E0CD
:101CC0000E949A2360911706709118068AE090E0AE
:101CD0000E949A238091AA04089580E0089513BC7D
:101CE0001092B60018BC17BC16BC15BC14BC1DBAAB
:101CF0001CBA1BBA10929B0010929A001092990085
:101D000010929800109295001092940010929100F9
:101D10001092900018BA109271001092B4001092B4
:101D2000B3001092B2001092B100E0EBF0E010822C
:101D3000108217BA109270008FEF84BF0895CF936E
:101D4000DF931F92CDB7DEB719828981843640F4C4
:101D500080ED97E00E942D1C89818F5F8983F5CFEC
:101D60000F90DF91CF91089581E090E00E94F50AF5
:101D70000E949F0E0E949F0E0E949F0E81E090E0A5
:101D80000E94DE0A0C949F0E81E090E00E94F50A0A
:101D90000E949F0E81E090E00E94DE0A0C949F0E4C
:101DA000FF920F931F93CF93DF9300D01F92CDB775
:101DB000DEB71F928F938FE193E09F938F938E01F5
:101DC0000F5F1F4F1F930F930E941C240F900F90C3
:101DD0000F900F900F900F90F12CF80101900020C0
:101DE000E9F73197E01BF10B8F2D90E08E179F07DD
:101DF00008F05DC0F801E80FF91FE0818E2F90E038
:101E0000FC01F097EA30F10508F049C0E053FF4FBC
:101E10000C940E230E94B40E02C00E94C40E0E94B5
:101E2000B40E0E94B40E0E94B40E0E94B40E37C0CD
:101E30000E94C40E0E94C40EF4CF0E94C40E0E94E1
:101E4000C40E0E94C40EEFCF0E94C40E0E94C40EA6
:101E50000E94C40E0E94C40EE8CF0E94C40E02C0AD
:101E60000E94B40E0E94C40E04C00E94B40E0E94D0
:101E7000B40E0E94C40E06C00E94B40E0E94B40E9E
:101E80000E94B40E0E94C40E08C00E94B40E0E94AC
:101E9000B40E0E94B40E0E94B40E0E94C40E0E94A2
:101EA0009F0E0E949F0E0E949F0EF39496CF0F905C
:101EB0000F900F90DF91CF911F910F91FF90089598
:101EC0000E94120C0E94F11F0E94120C8CEE93E0F3
:101ED0000E94A407C4E182E090E00E94F50A83E03A
:101EE00090E00E94DE0AD4E688EE93E00E942D1C6A
:101EF000D150D1F783E090E00E94F50A82E090E0B3
:101F00000E94DE0AD4E688EE93E00E942D1CD15098
:101F1000D1F7C15001F783E090E00E94DE0A82E031
:101F200090E00E94DE0A809171040E94D00E0E940F
:101F30009F0E82E090E00E94F50A0E949F0E82E0D0
:101F400090E00E94DE0A0E949F0E8091AA040E94E7
:101F5000D00EC0CF8093AA04E091F005F091F10576
:101F60008085809371040E94E50D0E94600F80932C
:101F7000AA04609371040E94E50D0E94600F6F92A5
:101F80007F928F929F92AF92BF92CF92DF92EF9209
:101F9000FF920F931F93CF93DF938AEF93E00E94FA
:101FA000A407E091F005F091F1058085282F3327F3
:101FB00027FD30953F938F9382E293E09F938F9319
:101FC0000E94D223E091F005F091F105C281D38106
:101FD000DF93CF9386E593E09F938F930E94D22364
:101FE00088811F928F938BE293E09F938F930E943F
:101FF000D223E091F005F091F10581818F938081EA
:102000008F9388E393E09F938F930E94D2238091D4
:10201000F1058F938091F0058F9382E493E09F9375
:102020008F930E94D223CEE2D5E0EDB7FEB774962F
:102030000FB6F894FEBF0FBEEDBF00E010E082E5E2
:10204000682E83E0782E9BE2892E93E0992E28E378
:10205000A22E23E0B22E32E4C32E33E0D32EEA8048
:10206000FB80FF92EF921F930F937F926F920E94DB
:10207000D223F70180811F928F939F928F920E94AB
:10208000D22389818F9388818F93BF92AF920E94D0
:10209000D223DF93CF93DF92CF920E94D2230F5FA0
:1020A0001F4FAB96EDB7FEB772960FB6F894FEBF12
:1020B0000FBEEDBF0430110591F6DF91CF911F9156
:1020C0000F91FF90EF90DF90CF90BF90AF909F90D7
:1020D0008F907F906F900895CF93DF93E091F005FC
:1020E000F091F105C281D3818881853539F00E9454
:1020F000BF0F81E00E94AA0F85E58883E091F0057B
:10210000F091F105808191818115924438F00E940F
:10211000BF0F82E1DF91CF910C94AA0FDF91CF9195
:1021200008952BE28202C0011124FC01E25DFA4F06
:10213000A281B3818C91853519F085E58C9308C017
:10214000808191818115924428F082E10E94AA0F3A
:102150008FEF089581E008950F931F9340917503C9
:1021600050917603609177037091780380E090E05E
:102170008A019B01082E04C036952795179507956F
:102180000A94D2F700FD19C001E010E020E030E031
:10219000082E04C0000F111F221F331F0A94D2F70C
:1021A000402B512B622B732B409375035093760376
:1021B000609377037093780305C001968032910590
:1021C000B9F68FEF1F910F910895E091F005F0910E
:1021D000F10565857685878590890895CF92DF9290
:1021E000EF92FF920F931F93CF93DF93C12CD12CCB
:1021F0007601C394082E04C0CC0CDD1CEE1CFF1C21
:102200000A94D2F740917503509176036091770359
:10221000709178034C215D216E217F21452B462B47
:10222000472B09F460C0082F0E94120CE7E3F5E089
:10223000B701A601409550956095709513E0DF01B8
:1022400011978C918F3F39F184819581A681B78157
:102250008C159D05AE05BF0551F4108611861286BA
:1022600013869F0122503109E901188210838423CB
:102270009523A623B72384839583A683B78380857C
:102280009185A285B38584239523A623B7238087D0
:102290009187A287B387BB96D5E0E33EFD0779F629
:1022A0008EEF9FEFAFEFBFEF04C0880F991FAA1FFB
:1022B000BB1F0A95D2F74091750350917603609148
:1022C00077037091780384239523A623B723809303
:1022D000750390937603A0937703B09378030E94DD
:1022E000140C81E001C08FEFDF91CF911F910F910E
:1022F000FF90EF90DF90CF9008950F931F9341E0F0
:1023000050E060E070E08A019B0104C0000F111FE3
:10231000221F331F8A95D2F7D901C801E091F00539
:10232000F091F1054585568567857089042315234D
:1023300026233723012B022B032BD1F08095909578
:10234000A095B095482359236A237B234587568758
:102350006787708B418952896389748984239523A7
:10236000A623B723818B928BA38BB48B81E001C012
:102370008FEF1F910F910895282F40917503509171
:1023800076036091770370917803082E04C07695E8
:102390006795579547950A94D2F740FF1DC0E09185
:1023A000F005F091F10581E090E0A0E0B0E004C01C
:1023B000880F991FAA1FBB1F2A95D2F745855685FE
:1023C00067857089842B952BA62BB72B85879687DD
:1023D000A787B08B81E008958FEF0895CF92DF92A9
:1023E000EF92FF92CF93C12CD12C7601C39404C0FD
:1023F000CC0CDD1CEE1CFF1C8A95D2F78091750376
:1024000090917603A0917703B09178038C219D2160
:10241000AE21BF21892B8A2B8B2B11F481E044C084
:102420000E94120CE5E3F5E0A7E3B5E0C0E083E02D
:1024300090819130B9F442855385648575854C212E
:102440005D216E217F21452B462B472B59F08C9324
:1024500016861786108A118A1082C286D386E48671
:10246000F586C1E090819230A1F442855385648560
:1024700075854C155D056E057F0559F48C931686A0
:102480001786108A118A1082128613861486158682
:10249000C1E0BB969B9695E0E13EF90749F60E94A4
:1024A000140CC11105C082E00E94CD0D8FEF01C058
:1024B00081E0CF91FF90EF90DF90CF9008950F9340
:1024C0001F93E091F005F091F105058516852785AC
:1024D00030890623172328233923011511052105E7
:1024E000310511F1DC01CB01818B928BA38BB48B75
:1024F00021E027830090E00504C0B695A795979545
:1025000087950A94D2F780FF03C00E94131604C077
:1025100080E090E00E94E415E091F005F091F10573
:102520000189128923893489C901B8011F910F914A
:10253000089580E090E0089521E08C5D954009F4D5
:1025400020E0822F819508950E949C128F3F11F404
:1025500081E003C0813029F482E00E94CD0D8FEF2D
:102560000895992787FD9095FC01EE0FFF1F8E0FB0
:102570009F1FFC01E452FA4F82810895EF92FF926F
:102580000F931F93CF93DF931F92CDB7DEB70E94B7
:102590009C128F3F11F481E003C0813029F482E066
:1025A0000E94CD0D8FEF41C089830E94120C89815A
:1025B000E82EFF24E7FCF0948701000F111FF801BB
:1025C000EE0DFF1DE452FA4F9281911116C0E09179
:1025D000F005F091F105978192609783992787FD27
:1025E0009095A92FB92F818B928BA38BB48B0E94CE
:1025F000140C80E090E00E94E4150E0D1F1DD80120
:10260000A452BA4F12968C911297815012968C93C5
:102610001297E091F005F091F10511968C91838766
:1026200081E084830E94140C81E00F90DF91CF91B0
:102630001F910F91FF90EF9008950F931F93CF93E9
:10264000DF931F92CDB7DEB70E949C128F3F11F42B
:1026500081E003C0813029F482E00E94CD0D8FEF2C
:1026600044C0482F552747FD50959A01220F331F2C
:10267000240F351F890104521A4FF80122819081DD
:10268000291794F589830E94120CF80192819F5FAB
:102690009283E091F005F091F1051482E5E3F5E015
:1026A0008981992787FD9095A92FB92F23E0308143
:1026B000323099F4428553856485758548175907EA
:1026C0006A077B0751F4228316861786108A118ABF
:1026D00010821286138614861586BB9635E0E13E7D
:1026E000F30729F70E94140C81E00F90DF91CF913E
:1026F0001F910F9108950E949C128F3F11F481E069
:1027000003C0813029F482E00E94CD0D8FEF08953F
:10271000992787FD9095FC01EE0FFF1F8E0F9F1FDD
:10272000FC01E452FA4F8FEF808382838183809192
:10273000EF0581508093EF0581E00895E091E50574
:10274000F091E60580810895E091E505F091E605B8
:10275000309721F00380F481E02DFACF0895AF92F5
:10276000BF92CF92DF92EF92FF920F931F93CF937E
:10277000DF93E0912C05F0912D05309709F490C07E
:102780000091E5051091E6050115110509F44CC00D
:10279000D8014BE2582F540390011124225D3A4F87
:1027A00079019AE0E90EF11C6901C4E0CC0ED11C5C
:1027B0005901DBE0AD0EB11C2C9130E0429FB0011D
:1027C000439F700D1124625D7A4FEB019C81992328
:1027D00029F05B85E7019881591740F1E60198815E
:1027E000992369F0429FB001439F700D1124625DEF
:1027F0007A4FEB015A85E50198815917B8F0429F4D
:10280000B001439F700D11249B01225D3A4FE901F5
:102810002A85E7019881291748F013960D90BC91FD
:10282000A02D109749F602C0A0E0B0E08083C381DC
:10283000D481D0932D05C0932C05A017B107B1F416
:10284000109749F0B483A383128211821296FC93ED
:10285000EE93119706C01482138212821182FA83BA
:10286000E983F093E605E093E5051AC011968D9192
:102870009C911297AC17BD0759F092838183B48362
:10288000A3831196CD91DC911297FC83EB8304C056
:1028900014821382928381831296FC93EE93119794
:1028A000DF91CF911F910F91FF90EF90DF90CF902C
:1028B000BF90AF900895CF93DF93E091E505F0913D
:1028C000E605309709F444C0992787FD909520814B
:1028D00030E02817390781F4A381B481B093E6056D
:1028E000A093E50512961C921E92119718C00380C2
:1028F000F481E02D309761F1208130E0281739070D
:10290000B1F7C181D281838194819C838B83A38120
:10291000B481109721F01296DC93CE931197A09179
:102920002C05B0912D05109739F4F0932D05E09307
:102930002C05148213820AC0B483A3831296FC93DD
:10294000EE931197F0932D05E0932C0512821182DE
:10295000DF91CF910895EF92FF920F931F93CF9342
:10296000DF93EC014B815C8169817A818D819E814D
:102970000E9451202F81222371F04B815C81E12C38
:10298000F12C00E010E020E030E0BC01CE010E941C
:10299000120D1F820CC0E8812BE2E202F00111242B
:1029A000E25DFA4F21852330B9F491838083E88179
:1029B0008BE2E802F0011124E25DFA4F85899689E5
:1029C000A789B08D892B8A2B8B2B41F482E08187DC
:1029D00088810E94AF1302C08FEF01C081E0DF91B8
:1029E000CF911F910F91FF90EF9008951F93CF9378
:1029F000DF93CDB7DEB728970FB6F894DEBF0FBED2
:102A0000CDBF29833A834B835C836D837E838F8321
:102A100098870E94120C0E947B1D182FCE010196F0
:102A20000E9404196330710598F0E091F005F0916F
:102A3000F105212F30E0620F731FCB01A0E0B0E061
:102A4000858B968BA78BB08F0E94140C81E001C000
:102A50008FEF28960FB6F894DEBF0FBECDBFDF9183
:102A6000CF911F9108950E942420E091F005F091EC
:102A7000F10585818111F7CF0895CF930E946C10E5
:102A80000E94120CE091F005F091F10581E090E0D8
:102A900092A781A785830E947B1DC82F883F80F461
:102AA0000E94151D2C2F30E02F5F3F4F90E028171C
:102AB000390734F482E08C0F8093A9040E94191D19
:102AC0000E94140C0E94331581E0CF910895E0918B
:102AD000F005F091F10580850E945B14E091F0050E
:102AE000F091F10584E081870E943D1581E0089511
:102AF000CF93DF93EC010E946C10209711F4C1E09A
:102B0000D0E00E94120CE091F005F091F10581E017
:102B10008583D2A7C1A70E947B1DC82F883F80F460
:102B20000E94151D2C2F30E02F5F3F4F90E028179B
:102B3000390734F482E08C0F8093A9040E94191D98
:102B40000E94140C0E94331581E0DF91CF9108950B
:102B5000EF92FF920F931F93CF938C010E94120C60
:102B6000E091F005F091F10581E085830E947B1DE5
:102B7000C82FE091F005F091F105E82EF12CC70186
:102B8000800F911FA0E0B0E0858B968BA78BB08F54
:102B9000C83F78F40E94151D9FEFE91AF90A90E0EA
:102BA000E816F90634F482E08C0F8093A9040E94A1
:102BB000191D0E94140C0E94331581E0CF911F91C2
:102BC0000F91FF90EF900895CF93DF93EC010E9457
:102BD000120CE091F005F091F10521E02583CE0182
:102BE000A0E0B0E0858B968BA78BB08F0E947B1DF9
:102BF000C82F883F80F40E94151D2C2F30E02F5FD6
:102C00003F4F90E02817390734F482E08C0F80930F
:102C1000A9040E94191D0E94140C0E94331581E022
:102C2000DF91CF910895CF930E94120CE091F005AF
:102C3000F091F10581E0858386830E947B1DC82F7A
:102C4000883F80F40E94151D2C2F30E02F5F3F4FEE
:102C500090E02817390734F482E08C0F8093A904A0
:102C60000E94191D0E94140C0E94331581E0CF911F
:102C700008951F93CF93DF93CDB7DEB728970FB694
:102C8000F894DEBF0FBECDBF29833A834B835C83AC
:102C90006D837E838F8398870E946C100E94120C34
:102CA000E091F005F091F10581E0858381E090E00D
:102CB00092A781A70E947B1D182FCE0101960E942A
:102CC0000419E091F005F091F105DC01CB01810FD1
:102CD000911DA11DB11D858B968BA78BB08F183FC1
:102CE00080F40E94151D212F30E02F5F3F4F90E0B0
:102CF0002817390734F482E0810F8093A9040E94D9
:102D0000191D0E94140C0E94331581E028960FB6FD
:102D1000F894DEBF0FBECDBFDF91CF911F91089514
:102D20008F929F92AF92BF92CF92DF92EF92FF92DB
:102D30000F931F93CF93DF93CDB7DEB760970FB696
:102D4000F894DEBF0FBECDBF29873A874B875C87DB
:102D50006D877E878F87988BCE0101960E94EC1637
:102D600089809A80AB80BC80CD80DE80EF80F88443
:102D700009851A852B853C854D855E856F8578890B
:102D8000CE0109960E9449178F3F61F029853A8547
:102D90004B855C856D857E858F8598890E94391667
:102DA00081E001C08FEF60960FB6F894DEBF0FBED2
:102DB000CDBFDF91CF911F910F91FF90EF90DF90EA
:102DC000CF90BF90AF909F908F900895E091F005C5
:102DD000F091F105808508950F931F93CF93DF93B2
:102DE000EC011C821D821E821F828091E70590915A
:102DF000E805A091E905B091EA0588839983AA8343
:102E0000BB838091EB059091EC05A091ED05B0910D
:102E1000EE058C839D83AE83BF830E947B1DA82F0C
:102E2000B0E023EB36EE4EE050E00E9472220C81BF
:102E30001D812E813F81DC01CB01800F911FA21FDC
:102E4000B31F8C839D83AE83BF838C819D81AE81B4
:102E5000BF8181152AEC92072AE9A2072BE3B2076A
:102E600098F09A5CAA49BB438C839D83AE83BF8351
:102E700088819981AA81BB810196A11DB11D88839A
:102E80009983AA83BB83E1CFDF91CF911F910F91EB
:102E900008958F929F92AF92BF92CF92DF92EF925E
:102EA000FF920F931F93CF93DF93CDB7DEB7609759
:102EB0000FB6F894DEBF0FBECDBFFC0109831A83A5
:102EC0002B833C834D835E836F83788789869A86C4
:102ED000AB86BC86CD86DE86EF86F88A09811A81AC
:102EE0002B813C814D815E816F817885C984DA8434
:102EF000EB84FC848D859E85AF85B8890C151D05F6
:102F00002E053F05F0F1C016D106E206F30691F456
:102F1000481759076A077B07A0F1481B590B6A0B32
:102F20007B0B4483558366837783108211821282E0
:102F3000138225C0481759076A077B0780F40150A0
:102F40001109210931090C191D092E093F090083B6
:102F500011832283338356536546744C08C00C1981
:102F60001D092E093F090083118322833383481BE7
:102F7000590B6A0B7B0B448355836683778381E00F
:102F800001C08FEF60960FB6F894DEBF0FBECDBFC5
:102F9000DF91CF911F910F91FF90EF90DF90CF9035
:102FA000BF90AF909F908F900895FC014481558110
:102FB0006681778141158AEC58078AE968078BE3B7
:102FC000780798F05A5C6A497B434483558366834B
:102FD000778380819181A281B3810196A11DB11D6A
:102FE00080839183A283B383E1CF08958F929F92D0
:102FF000AF92BF92CF92DF92EF92FF920F931F9307
:10300000CF93DF93CDB7DEB760970FB6F894DEBFEE
:103010000FBECDBF09831A832B833C834D835E8310
:103020006F83788789869A86AB86BC86CD86DE8656
:10303000EF86F88A09851A852B853C8549815A8156
:103040006B817C81400F511F621F731FFC01408305
:103050005183628373830D851E852F8538894D8149
:103060005E816F817885400F511F621F731F4483FB
:103070005583668377830E94D51781E060960FB6EB
:10308000F894DEBF0FBECDBFDF91CF911F910F919E
:10309000FF90EF90DF90CF90BF90AF909F908F9078
:1030A0000895E7EEF5E06083718382839383248340
:1030B00035834683578308952F923F924F925F92B4
:1030C0006F927F928F929F92AF92BF92CF92DF9238
:1030D000EF92FF920F931F93FC01C080D180E2809A
:1030E000F3806481758186819781C114D104E104E4
:1030F000F104C1F1F2E4CF16D104E104F104D0F5FA
:103100001B012C01612C712C4301E0E08E2F90E01B
:10311000A0E0B0E08C159D05AE05BF0588F49101D7
:10312000A201B301C40136534546544C6F4F7F4F43
:103130008F4F9F4F19012A013B014C01EF5FE6CFF2
:1031400083EBA82E96EEB92E2EE0C22ED12CE12CC8
:10315000F12C00E010E09101A201B301C4010E9432
:10316000B12206C023EB36EE4EE050E00E948D22E5
:10317000C90102C080E090E01F910F91FF90EF9095
:10318000DF90CF90BF90AF909F908F907F906F9087
:103190005F904F903F902F900895CF92DF92EF92E3
:1031A000FF92CF93DF93CDB7DEB728970FB6F89491
:1031B000DEBF0FBECDBF6B017C012AE0F694E79421
:1031C000D794C7942A95D1F7C982DA82EB82FC8220
:1031D0009B01AC0133704427552763EB76EE8EE0FC
:1031E00090E00E947D222C2D3A814B815C812896B3
:1031F0000FB6F894DEBF0FBECDBFDF91CF91FF9029
:10320000EF90DF90CF9008952F923F924F925F9270
:103210006F927F928F929F92AF92BF92CF92DF92E6
:10322000EF92FF920F931F93FC01C080D180E28048
:10323000F3806481758186819781C114D104E10492
:10324000F10499F11B012C01612C712C4301E0E088
:103250008E2F90E0A0E0B0E08C159D05AE05BF0577
:1032600088F49101A201B301C40136534546544C80
:103270006F4F7F4F8F4F9F4F19012A013B014C0128
:10328000EF5FE6CF83EBA82E96EEB92E2EE0C22E8E
:10329000D12CE12CF12C00E010E09101A201B3014E
:1032A000C4010E94B122CA0107C023EB36EE4EE0F2
:1032B00050E00E948D22CA01B9011F910F91FF9029
:1032C000EF90DF90CF90BF90AF909F908F907F90C6
:1032D0006F905F904F903F902F900895C1E00E94B3
:1032E0006C100E94151D843010F4C093E4050E94F8
:1032F00024208091AC04853519F088E00E94AA0F43
:1033000080917E41853559F388E00E94AA0FE7CF6E
:103310002F923F924F925F926F927F928F929F92E5
:10332000AF92BF92CF92DF92EF92FF920F931F93D3
:10333000CF93DF9300D000D01F92CDB7DEB70E94AD
:10334000140C0E94491C0E94671C0E946F1C9B83E6
:103350008A838AEF0E94191DA091A904B0E023EB93
:1033600036EE4EE050E00E9472220091EB05109183
:10337000EC052091ED053091EE056B017C01C00E4E
:10338000D11EE21EF31EC701B60123EB36EE4EE05E
:1033900050E00E948D2226013701461A570A680A1A
:1033A000790AD301C2010091E7051091E805209147
:1033B000E9053091EA0543EB842E46EE942E4EE06B
:1033C000A42EB12C680179014FEFC41AD40AE40A83
:1033D000F40A81155AEC95075AE9A5075BE3B5078E
:1033E000C8F02C013D012AEC521A2AE9620A2BE3AB
:1033F000720AC301B201A50194010E948D22A301AA
:103400009201261B370B480B590BDA01C9019701B2
:103410008601D8CF8093EB059093EC05A093ED0542
:10342000B093EE050093E7051093E8052093E905B6
:103430003093EA05E091F005F091F105858188234C
:1034400039F18185843021F18781823029F0882308
:1034500041F08681811102C085E001C083E081874F
:1034600014C083E081871782168285899689A7898F
:10347000B08D892B8A2B8B2B41F4818D928DA38D5E
:10348000B48D858B968BA78BB08F80850E945B1443
:10349000E091F005F091F10585A196A1A7A1B0A555
:1034A000892B8A2B8B2B09F444C02085222309F415
:1034B00040C081858430E9F1858D968DA78DB0A1BE
:1034C0004091A90450E060E070E084179507A607DA
:1034D000B70768F4622F82E00E94B70FE091F00511
:1034E000F091F105158E168E178E10A208C0841B60
:1034F000950BA60BB70B858F968FA78FB0A3E09186
:10350000F005F091F1051085858D968DA78DB0A100
:10351000892B8A2B8B2B69F4612F83E00E94B70FD4
:10352000E091F005F091F10583E08187812F0E9401
:103530005B1487E395E09D838C8300E61AEE312CC3
:103540009AEFC92ED12CE12CF12C22E0222E812CD5
:10355000912C54018394EC81FD81319780818F3FC0
:1035600009F4FFC0EC81FD8134971082EC81FD816C
:10357000F081F983882309F468C0F43009F4F1C0BC
:10358000EC81FD8144845584668477846091A9042C
:1035900070E080E090E0461657066806790648F02D
:1035A000461A570A680A790A4486558666867786D7
:1035B00006C0EC81FD811486158616861786EC817F
:1035C000FD814088518862887388461657066806D0
:1035D000790648F0A3019201261B370B480B590BC3
:1035E000DA01C90113C0EC81FD81208D318D428D3E
:1035F000538D621773078407950768F429013A0110
:10360000461A570A680A790AD301C201808B918B46
:10361000A28BB38B08C00E948D22EC81FD81608B50
:10362000718B828B938BEC81FD8180899189A2893A
:10363000B389892B8A2B8B2B41F4808D918DA28DA0
:10364000B38D808B918BA28BB38BF981F33009F012
:1036500088C0EC81FD8184859585A685B785892BF9
:103660008A2B8B2B09F06AC0DF0112978C919F0186
:10367000235031098823A9F0F9018081882389F03A
:10368000B501A4010090E00504C0440F551F661F5A
:10369000771F0A94D2F7EC81FD81408751876287BA
:1036A00073871C92F9011082EC81FD81A0A1B1A168
:1036B000408C518C628C738C448D558D668D778DCA
:1036C000A130B105C9F4448B558B668B778B208272
:1036D00080899189A289B38984879587A687B787CE
:1036E00045284628472821F4C486D586E686F786ED
:1036F000832D0E94AF1322C0EC81FD81448B558B3A
:10370000668B778B1197A30192010E9472226487C6
:10371000758786879787608B718B828B938B452803
:103720004628472821F4C486D586E686F7864424B1
:103730004394512CEC81FD8151A240A2EC81FD818A
:1037400084859585A685B7850097A105B10549F0C3
:10375000A80160E070E084179507A607B70708F492
:103760008C0133942C813D81255D3F4F3D832C831B
:1037700034E03312F0CE0E949E13F82E4BE2840206
:10378000F0011124E25DFA4F22852093F205F093B7
:10379000E205E093E1058823D9F085A196A1A7A1D0
:1037A000B0A5892B8A2B8B2B99F0858D968DA78DB3
:1037B000B0A18A3F9105A105B10550F4A80160E0D0
:1037C00070E084179507A607B70710F48C0105C0B1
:1037D0000B3F110510F00AEF10E02093E305F09382
:1037E000F105E093F0050093A9040E947B1D282FAA
:1037F00030E02F5F3F4F2017310740F00E947B1DC4
:10380000082F10E00E5F1F4F0093A904F1101092D3
:10381000E405802F0E94191D6CED75E08A819B8163
:103820000E94811C0E949E200F900F900F900F907D
:103830000F90DF91CF911F910F91FF90EF90DF904C
:10384000CF90BF90AF909F908F907F906F905F9040
:103850004F903F902F900C94A92000000000000092
:103860000000000000000000000000000000000058
:103870000000019791F7089510922101089589E0C1
:10388000809321018DE89CE3909329018093280186
:10389000089510922501109224010895CF93DF938B
:1038A00000D0CDB7DEB780912401909125019A8395
:1038B000898389819A810F900F90DF91CF9108952C
:1038C00010928100089581E080938100089583B56E
:1038D000816083BD10928500109284000895CF937B
:1038E000DF9300D0CDB7DEB7809184009091850042
:1038F0009A83898389819A810F900F90DF91CF916C
:103900000895CF92DF92EF92FF92CF93DF93EC0175
:10391000CC0FDD1FC9378FEFD80710F0C0E0D0E023
:103920006B01E12CF12CCC0EDD1EE11CF11C81E0C1
:10393000C816D104E806F10440F081E0E81AF10865
:103940000E946F1CC817D907D8F30E946F1C8C15F2
:103950009D05D8F3DF91CF91FF90EF90DF90CF904E
:1039600008951092B100E0E7F0E080818D7F8083C0
:1039700080818E7F808308958093B2000895E0E770
:10398000F0E080818360808383E08093B1000895BC
:1039900083B5826083BD1092B20010927D041092B4
:1039A000A9040895CF93DF938EEF8093A90480E25A
:1039B0008093B6008091A9048093B30083E087BB15
:1039C00092E09093B0008093B10093B5926093BD64
:1039D00087BB84BD83B5826083BD1092800081E087
:1039E00080938100109285001092840083B58260DC
:1039F00083BD83B5816083BD10922001C4E2D1E014
:103A00001982188283B5826083BD83B5816083BDCE
:103A10000E94C81C198218820E94BF1C0E943F1C71
:103A200010927D04DF91CF9108958091B3008F5F54
:103A3000089581508093B3000895811102C01092BF
:103A400071008FEF0895811106C0109295001092B9
:103A5000940081E008958FEF0895811105C0809151
:103A6000940090919500089580E090E00895811170
:103A700005C082E08093710081E008958FEF089582
:103A8000811135C0CB010197059710F46093A20412
:103A90001092900088E08093910050939900409399
:103AA000980030936D0420936C048091A2048130BF
:103AB00021F480919100816011C0823021F48091C5
:103AC000910082600BC0833021F48091910083606B
:103AD00005C0843031F4809191008460809391001E
:103AE00008C0853031F4809191008560F7CF8FEF69
:103AF000089581E008958091B20008951F920F9279
:103B00000FB60F92112460E08AE00E94B70FFFCF3A
:103B10000F920FB60F921F922F923F924F925F9289
:103B20006F927F928F929F92AF92BF92CF92DF92CD
:103B3000EF92FF920F931F932F933F934F935F93B7
:103B40006F937F938F939F93AF93BF93CF93DF93A5
:103B5000EF93FF93A091F005B091F1050DB60D9292
:103B60000EB60D921F92A0919004B09191041E90F8
:103B7000BEBFADBF08951F920F920FB60F921124D2
:103B80000BB60F922F933F934F935F936F937F9357
:103B90008F939F93AF93BF93EF93FF93E0916C0448
:103BA000F0916D04309711F0099504C060E08AE04F
:103BB0000E94B70FFF91EF91BF91AF919F918F91AD
:103BC0007F916F915F914F913F912F910F900BBE1D
:103BD0000F900FBE0F901F9018951F920F920FB667
:103BE0000F9211240F900FBE0F901F90189504B6DE
:103BF00003FE02C080E101C080E004B602FE06C000
:103C000094B79B7F94BF04B600FE846004B601FEA7
:103C100005C094B79D7F94BF8260089581110CC048
:103C200004B600FE04C094B79E7F94BF01C081E03B
:103C30009091B000911181E00895811102C0E89A3D
:103C400039C0813011F4E99A0895823011F4EA9A6A
:103C500031C0833021F480916B00816029C08430B1
:103C600021F480916B00826023C0853021F4809123
:103C70006B0084601DC0863021F480916B008860E9
:103C800017C0873021F480916B00806111C08830AB
:103C900021F480916B0080620BC0893021F4809107
:103CA0006B00806405C08A3039F480916B008068B5
:103CB00080936B0081E008958FEF0895811102C019
:103CC000E89839C0813011F4E9980895823011F4F0
:103CD000E99831C0833021F480916B008E7F29C038
:103CE000843021F480916B008D7F23C0853021F4D6
:103CF00080916B008B7F1DC0863021F480916B001A
:103D0000877F17C0873021F480916B008F7E11C0B0
:103D1000883021F480916B008F7D0BC0893021F4B5
:103D200080916B008F7B05C08A3039F480916B00E5
:103D30008F7780936B0081E008958FEF0895811154
:103D400026C05093100640930F06611104C0809165
:103D500069008C7F3DC0613049F4809169008D7F9E
:103D60008093690080916900816032C0623049F4BB
:103D700080916900826080936900809169008E7FE4
:103D800027C0633039F580916900836021C081309C
:103D900049F550930E0640930D06611104C08091C1
:103DA0006900837F15C0613049F480916900877F85
:103DB000809369008091690084600AC0623061F478
:103DC00080916900886080936900809169008B7F91
:103DD0008093690081E008956330E1F78091690084
:103DE0008C60F6CF823031F5509312064093110665
:103DF000611104C0809169008F7CEACF613049F481
:103E0000809169008F7D8093690080916900806155
:103E1000DFCF623049F4809169008062809369004D
:103E2000809169008F7ED4CF6330A1F680916900C4
:103E30008063CECF8350883050F4809168008160D9
:103E4000809368005093140640931306C3CF8FEFFE
:103E500008951F920F920FB60F9211240BB60F9276
:103E60002F933F934F935F936F937F938F939F9382
:103E7000AF93BF93EF93FF93E0911306F091140675
:103E8000309711F0099504C060E08AE00E94B70FF6
:103E9000FF91EF91BF91AF919F918F917F916F9122
:103EA0005F914F913F912F910F900BBE0F900FBEDE
:103EB0000F901F9018951F920F920FB60F9211241A
:103EC0000BB60F922F933F934F935F936F937F9314
:103ED0008F939F93AF93BF93EF93FF93E0910F0660
:103EE000F0911006309711F0099504C060E08AE067
:103EF0000E94B70FFF91EF91BF91AF919F918F916A
:103F00007F916F915F914F913F912F910F900BBED9
:103F10000F900FBE0F901F9018951F920F920FB623
:103F20000F9211240BB60F922F933F934F935F93F1
:103F30006F937F938F939F93AF93BF93EF93FF9371
:103F4000E0910D06F0910E06309711F0099504C02E
:103F500060E08AE00E94B70FFF91EF91BF91AF91AF
:103F60009F918F917F916F915F914F913F912F9191
:103F70000F900BBE0F900FBE0F901F9018951F92C1
:103F80000F920FB60F9211240BB60F922F933F93FF
:103F90004F935F936F937F938F939F93AF93BF9351
:103FA000EF93FF93E0911106F0911206309711F014
:103FB000099504C060E08AE00E94B70FFF91EF917D
:103FC000BF91AF919F918F917F916F915F914F9131
:103FD0003F912F910F900BBE0F900FBE0F901F902F
:103FE0001895A8959FB7F89484B7877F84BFE0E6BB
:103FF000F0E080818861808310829FBF08959FB721
:10400000F894A89584B7877F84BFE0E6F0E08081CC
:10401000886180838DE080839FBF089504B603FE8E
:1040200002C08FEF089581E00895A895089508953E
:1040300083B7817F866083BF83B7816083BF8895A4
:1040400083B78E7F83BF089583B7817F83BF83B794
:10405000816083BF889583B78E7F83BF0895FC01FD
:10406000768365830895EF92FF920F931F93CF930A
:10407000DF938C017B01EA014032510518F481E1A4
:104080000E94AA0F2197CE0DDF1DF801D283C183B4
:10409000F482E382DF91CF911F910F91FF90EF9017
:1040A000089525E5FA012083FB013297908331962C
:1040B0008083339711821082329711821082329757
:1040C00011821082329711821082329711821082EF
:1040D00032971182108232971182108232971182A8
:1040E0001082329711821082329711821082329799
:1040F00011821082329711821082329711821082BF
:104100003297118210823297118210823297118277
:104110001082CB018497FC0111821082089585E5FD
:1041200080937E41EEEFF1E4F0939104E0939004EC
:1041300088EC9DE090838093FF41089588EC9DE09A
:104140009093FE418093FF4108950E94D21C0C94ED
:10415000140CA091E105B091E205CD91CDBFDD91A8
:10416000DEBFFF91EF91DF91CF91BF91AF919F9112
:104170008F917F916F915F914F913F912F911F91FF
:104180000F91FF90EF90DF90CF90BF90AF909F90F6
:104190008F907F906F905F904F903F902F901F90E7
:1041A0000F900FBE0F9018950E94C30780E190E01A
:1041B0000E94470B89E793E090936F0380936E030F
:1041C00084E780936D030E94140C20E030E04FEFF1
:1041D0005FEF6DE089E693E00E94C5020DEE13E00B
:1041E00080913701836080933701109365040093B9
:1041F000640467E672E08DEE93E00E943A23F801D2
:1042000001900020E9F73197ED5EF340EF5FE09316
:10421000630410926204109261041092660410927A
:1042200067048EE792E00E94EC2381E694E00E940E
:104230004103813021F087E892E00E94EC23CAE03C
:1042400080E197E20E946C0BC150D1F780E090E0D2
:104250000E94C70AC5CF6F927F928F929F92AF92B2
:10426000BF92CF92DF92EF92FF920F931F93CF9363
:10427000DF93CDB7DEB72C970FB6F894DEBF0FBE35
:10428000CDBF6C015B017A01FC011782168283812C
:1042900081FF0EC1CE0101964C01F6010381F501AB
:1042A00003FD159103FF11915F01112309F4FCC077
:1042B000153249F403FD159103FF11915F01153289
:1042C00011F020E01BC0B601812F90E00E949A23DC
:1042D00037017301E2CF112309F4E6C0612F70E0CA
:1042E00080E194E02C870E9426232C85892B49F0BD
:1042F000F50103FD159103FF11915F0127FFEBCF3E
:1043000009C0133229F01C3609F0D5C02068F0CF5F
:1043100020E1EECF022F112309F4C6C0612F70E017
:1043200089E094E02C870E9426232C85892B41F07C
:104330003701F4E06F0E711CB6018FE390E011C0FD
:10434000133639F0133781F0133519F5022F016058
:104350000BC0370182E0680E711CB601F701808145
:1043600091810E949A23B5CF3701F2E06F0E711C44
:10437000F701E080F180F70100FD859100FF819158
:104380007F01882309F4A5CFB60190E00E949A230B
:10439000F2CF143611F0193629F5370127FF09C07D
:1043A000F4E06F0E711CF70160817181828193814D
:1043B0000AC0F2E06F0E711CF701608171818827DD
:1043C00077FD8095982F022F0F7E97FF08C090955C
:1043D0008095709561957F4F8F4F9F4F00642AE0C5
:1043E00030E033C0103799F040F41835B1F01F3683
:1043F00009F05AC028E030E014C0153719F018371A
:1044000041F052C0022F0F7E2AE030E00AC0022F96
:104410000061046220E130E004C0022F046020E16A
:1044200032E0370107FF09C0F4E06F0E711CF7019D
:10443000608171818281938108C0F2E06F0E711CEE
:10444000F7016081718180E090E0A4010E944C241A
:10445000182F181906FF05C0B6018DE290E00E94E2
:104460009A2304FF15C0FE01E10FF11D8081803306
:1044700079F0B60180E390E00E949A2302FF08C021
:104480000072802F90E0B601885A9F4F0E949A23B5
:104490001150F401E10FF11D8081B60190E00E94FE
:1044A0009A231111F5CF15CFF6018681978105C0AA
:1044B0008FEF9FEF02C0022F31CF2C960FB6F894EA
:1044C000DEBF0FBECDBFDF91CF911F910F91FF9047
:1044D000EF90DF90CF90BF90AF909F908F907F90A4
:1044E0006F9008950E941723A59F900DB49F900D83
:1044F000A49F800D911D11240895DB018F939F933C
:104500000E947222BF91AF91A29F800D911DA39F27
:10451000900DB29F900D11240895A1E21A2EAA1BAE
:10452000BB1BFD010DC0AA1FBB1FEE1FFF1FA21763
:10453000B307E407F50720F0A21BB30BE40BF50B60
:10454000661F771F881F991F1A9469F760957095E9
:10455000809590959B01AC01BD01CF0108956894B1
:1045600001C0E8948F929F92CF93DF930E94BD2267
:10457000DF91CF919F908F90089588249924F40122
:10458000E401B0E49F93AA279A158B049C04ED05DF
:10459000FE05CF05D007A10798F4AD2FDC2FCF2F54
:1045A000FE2FE92D982C892E982F872F762F652F97
:1045B000542F432F322F2227B85031F7BF9127C0F5
:1045C0001B2EBF91BB27220F331F441F551F661F91
:1045D000771F881F991F881C991CEE1FFF1FCC1F77
:1045E000DD1FAA1FBB1F8A149B04EC05FD05CE0529
:1045F000DF05A007B10748F08A189B08EC09FD0900
:10460000CE09DF09A00BB10B21601A94E1F62EF45C
:104610009401AF01BE01CD01000C0895EE0FFF1F04
:104620000024001C0BBE0790F691E02D0994A29F78
:10463000B001B39FC001A39F700D811D1124911D76
:10464000B29F700D811D1124911D0895FC010590EC
:10465000061621F00020D9F7C00108953197CF0147
:104660000895FB01DC0102C001900D9241505040C1
:10467000D8F70895FB01DC0101900D920020E1F7CD
:104680000895FB01DC014150504030F08D910190C4
:10469000801919F40020B9F7881B990B08950F931E
:1046A0001F93CF93DF93009731F46115710519F4CF
:1046B00080E090E03AC08B01EC016EE070E081E0B8
:1046C00090E00E94C024FC01009791F380E883836E
:1046D0000115110571F01387028781E883838091AA
:1046E000150690911606892B21F4F0931606E09397
:1046F00015062097C9F0D187C087838182608383A4
:104700008091170690911806892B71F4F093180682
:10471000E09317068091190690911A06892B21F4CF
:10472000F0931A06E0931906CF01DF91CF911F9104
:104730000F9108950F931F93CF93DF93FB01238174
:1047400021FD03C08FEF9FEF28C022FF16C04681D6
:104750005781248135814217530744F4A081B181E8
:104760009D012F5F3F4F318320838C9326813781BA
:104770002F5F3F4F3783268310C0EB01092F182F7F
:104780000084F185E02D0995892BE1F68E819F81CA
:1047900001969F838E83812F902FDF91CF911F9160
:1047A0000F910895CF93DF93CDB7DEB7AE014B5F86
:1047B0005F4FFA0161917191AF018091170690915D
:1047C00018060E942B21DF91CF9108956091170662
:1047D000709118060C949A230F931F93CF93DF9335
:1047E000E0911706F0911806238121FF1BC08C0170
:1047F000D0E0C0E0F80181918F01609117067091BF
:104800001806DB011896ED91FC911997882331F079
:104810000995892B79F3DFEFCFEFECCF8AE009958B
:10482000892B19F08FEF9FEF02C08D2F9C2FDF9106
:10483000CF911F910F9108950F931F93CF93DF9303
:10484000CDB7DEB72E970FB6F894DEBF0FBECDBF43
:104850000D891E8986E08C831A8309838FEF9FE779
:104860009E838D83AE01475E5F4F6F89788DCE0149
:1048700001960E942B212F813885F801E20FF31F4A
:1048800010822E960FB6F894DEBF0FBECDBFDF911B
:10489000CF911F910F910895FA01AA27283051F165
:1048A000203181F1E8946F936E7F6E5F7F4F8F4F61
:1048B0009F4FAF4FB1E03ED0B4E03CD0670F781FC0
:1048C000891F9A1FA11D680F791F8A1F911DA11DA5
:1048D0006A0F711D811D911DA11D20D009F46894DE
:1048E0003F912AE0269F11243019305D3193DEF686
:1048F000CF010895462F4770405D4193B3E00FD03C
:10490000C9F7F6CF462F4F70405D4A3318F0495D26
:1049100031FD4052419302D0A9F7EACFB4E0A69509
:104920009795879577956795BA95C9F7009761052B
:10493000710508959B01AC010A2E06945795479581
:1049400037952795BA95C9F7620F731F841F951F76
:10495000A01D0895F999FECF92BD81BDF89A9927BF
:1049600080B50895262FF999FECF1FBA92BD81BD5B
:1049700020BD0FB6F894FA9AF99A0FBE01960895E1
:104980000F931F93CF93DF93869F8001879F100D16
:10499000969F100D1124C8010E94DC24EC010097A1
:1049A00029F0A80160E070E00E940926CE01DF91A5
:1049B000CF911F910F910895CF93DF93823091058E
:1049C00010F482E090E0E0911D06F0911E0620E0D8
:1049D00030E0C0E0D0E0309711F1408151814817BC
:1049E0005907C0F04817590761F4828193812097D5
:1049F00019F09B838A832BC090931E0680931D061B
:104A000026C02115310519F04217530718F49A01F1
:104A1000BE01DF01EF010280F381E02DDCCF211523
:104A2000310509F1281B390B2430310590F4129619
:104A30008D919C9113976115710521F0FB01938372
:104A4000828304C090931E0680931D06FD0132965A
:104A500044C0FD01E20FF31F81939193225031096D
:104A60002D933C933AC020911B0630911C06232BBA
:104A700041F4209112023091130230931C062093CE
:104A80001B0620911002309111022115310541F4CD
:104A90002DB73EB74091140250911502241B350BDF
:104AA000E0911B06F0911C06E217F307A0F42E1B01
:104AB0003F0B2817390778F0AC014E5F5F4F241782
:104AC000350748F04E0F5F1F50931C0640931B069E
:104AD0008193919302C0E0E0F0E0CF01DF91CF91AC
:104AE00008950F931F93CF93DF93009709F48CC021
:104AF000FC0132971382128200911D0610911E064E
:104B00000115110581F420813181820F931F2091BD
:104B10001B0630911C062817390779F5F0931C06FF
:104B2000E0931B0671C0D80140E050E0AE17BF070C
:104B300050F412962D913C911397AD01211531053A
:104B400009F1D901F3CF9D01DA013383228360811A
:104B50007181860F971F8217930769F4EC012881F2
:104B60003981260F371F2E5F3F4F318320838A8183
:104B70009B8193838283452B29F4F0931E06E09357
:104B80001D0642C01396FC93EE931297ED014991D6
:104B900059919E01240F351FE217F30771F48081AC
:104BA0009181840F951F029611969C938E9382811A
:104BB000938113969C938E931297E0E0F0E0D801D6
:104BC00012968D919C911397009719F0F8018C0122
:104BD000F6CF8D919C9198012E5F3F4F820F931FCE
:104BE00020911B0630911C062817390769F430976D
:104BF00029F410921E0610921D0602C01382128222
:104C000010931C0600931B06DF91CF911F910F910B
:104C10000895DC0101C06D9341505040E0F70895C4
:044C2000F894FFCF36
:104C24004315A6D93D3182F18CA74FC5999704ACA1
:104C340000001F0620003D352D251D150D053D35B1
:104C44002D251D150D052E261E160E06FFFF0C0420
:104C54003C342C241C140C043B332B231B130B3B20
:104C6400332B231B130B03FFFFFFFFFFFFFFFF3952
:104C74003129211911090119110901FFFFFFFFFF52
:104C8400FFFFFFFFFFFFFF746869732069732061F2
:104C94002074657374206D65737361676500536573
:104CA4006E64696E670D002D2D2D2052465F545899
:104CB400204552524F52202D2D2D0D0072665F72E9
:104CC400785F7061636B65745F6E6F6E626C6F6347
:104CD4006B206661696C65645D0D005061636B6592
:104CE4007420697320646F6E6520626F756E6369EA
:104CF4006E672061726F756E64210D0A0053455111
:104D04003A2534750954544C3A25326409525353A4
:104D1400493A253464095061796C6F61643A205BC7
:104D240025735D0D0A00525820656E642066616922
:104D34006C656420636865636B73756D210D002574
:104D440064006375723A202564200063616E6172A9
:104D540079203D202578200073746B203D20257830
:104D640020007463622061646472203D2025780D04
:104D74000A0025643A20626F74746F6D203D20250B
:044D84007820000093
:00000001FF
