:100000000C9414020C94A7210C94D9210C940B226B
:100010000C9433020C9433020C9433020C9433028C
:100020000C9433020C9475210C9433020C9433021B
:100030000C9433020C94D41F0C9433020C94D41FF0
:100040000C9433020C9433020C9433020C9433025C
:100050000C9433020C9433020C9433020C9433024C
:100060000C9433020C94B6070C9433020C943302B4
:100070000C9433020C9433020C9433020C9433022C
:100080000C9407200C9433020C9433020C9433022A
:100090000C9433020C9433020C9433020C9433020C
:1000A0000C9433020C9433020C9433020C943302FC
:1000B0000C9433020C9433020C9433020C943302EC
:1000C0000C9433020C9433020C9433020C943302DC
:1000D0000C9433020C9433020C9433020C943302CC
:1000E0000C9433020C94D6050C94C7050C94970518
:1000F0000C9487060C9488050C9479050C9467057C
:100100000C9458050C9433020C9433020C94330273
:100110000C9433020C9433020C9433020C9433028B
:100120009508A208AF08BC08C908D608E308060964
:100130001409220930093E094C095A097D097F0931
:1001400081098309850987098909A809CB09EF096C
:10015000120A350A580A7B0AB50AC20ACF0ADC0A13
:10016000E90AF60A030B1C0B290B360B430B500B49
:100170005D0B6A0B3E0F410F4C0F510F580F610F73
:10018000640F690F700F790FCF0FD50FD80FDB0FEA
:10019000DE0FE10FE70FE40FEA0FED0FF00FF90F9D
:1001A000FC0FFF0F0210F60FCC0FD20F0510081036
:1001B000F30FC90F7561727420727820736967201C
:1001C0006661696C65640D0A00554E4B4F574E00D1
:1001D00045787465726E616C205265736574004277
:1001E000726F776E204F7574204465746563740078
:1001F0004661696C656420746F2063726561746523
:100200002053656D6170686F7265004661696C6549
:100210006420746F20637265617465205369676E32
:10022000616C004B65726E656C2066756E637469F7
:100230006F6E206E6F7420696D706C656D656E7485
:100240006564004465766963652044726976657209
:10025000204572726F72005761746368646F672023
:1002600052657374617274005357205761746368E8
:10027000646F6720526573746172740054696D65B0
:1002800072204F766572666C6F7700556E68616E8E
:10029000646C656420496E74657272757074205662
:1002A0006563746F72004C6F7720566F6C74616772
:1002B00065004578747261205461736B20737461BA
:1002C000727465642C206973206E726B5F6366675D
:1002D0002E68206F6B3F0049646C65206F72204B65
:1002E00065726E656C20537461636B204F76657226
:1002F000666C6F7700556E65787065637465642011
:1003000052657374617274004475706C69636174D2
:100310006564205461736B204944005363686564CD
:10032000756C6572204D69737365642057616B65E8
:100330007570005461736B20526573657276652029
:1003400056696F6C61746564005265736572766599
:10035000204572726F7220696E2053636865647500
:100360006C657200496E76616C69642053746163D8
:100370006B20506F696E746572005461736B20530B
:100380007461636B204F766572666C6F770053748F
:1003900061636B20776173206E6F7420646566699A
:1003A0006E6564206173206C6172676520656E6F95
:1003B00075676821005461736B20706572696F64A2
:1003C00020746F6F206C617267652E2050657269B2
:1003D0006F64206D757374206265206C6573732083
:1003E0007468616E203631207365636F6E64732E9E
:1003F00000293A20002A4E524B204552524F522893
:10040000000D0A535441434B2044554D500D0A00F2
:1004100045464765666700202B2D2E303132333438
:10042000353637383968000011241FBECFEFD1E4CC
:10043000DEBFCDBF13E0A0E0B2E0EAE5F0E500E00A
:100440000BBF02C007900D92AA3CB107D9F716E086
:10045000AAECB3E001C01D92A73DB107E1F70E94ED
:1004600020230C942B280C94CA1F87E692E00E944C
:10047000072683E090E00C94840B0E946404813092
:1004800021F089E792E00E9407260E9452030C9413
:100490004C03909141019F719F31D9F380934201A8
:1004A00008958093CA03089581E08093E704089536
:1004B0001092E7040895809141018F718F31D9F333
:1004C000809141018F71E1F08F30D1F08091410135
:1004D0008F71883031F480913901826080933901C5
:1004E0000BC088E00E944902809141018F718830E1
:1004F000D9F7F1CF8F3021F0809141018F71D1F781
:100500000895809141018F718F31D9F3809141011C
:100510008F7111F08F3051F4809139018D7F80936C
:100520003901809141018F718830D9F7089589E0B0
:100530000C944902E5E4F1E09081907F90839081F2
:100540008F70982B90830895E7E5F1E080818D7F8F
:1005500080830895E7E5F1E08081826080830895DB
:10056000EEE6F1E080818F7E80830895EEE6F1E093
:100570008081806180830895809360019093610100
:100580009093F1048093F00408959093EB0480938A
:10059000EA04E8E4F1E08081807E80838081682B3A
:1005A000608308959093CE038093CD030895909334
:1005B000CC038093CB0308950F931F93CF93DF93C6
:1005C000FC01D90180E28093440180EC80934501D5
:1005D00060626093480185EC8093490187EA8093CB
:1005E0004B0180E880934C0120936001B09361013E
:1005F0004093620150936301C6E4D1E00881888191
:1006000098812881302F32953695377060E4369F77
:1006100080011124229526952370622F602B8295EC
:100620008695837070E1879F90011124262B929507
:100630009695937084E0989FB0011124622B60938B
:100640006D0188819881929596959370392F3064C9
:10065000982F92959670932B90936E0110926C0147
:100660008FEF80934E01CAEED4E0F983E8831A82BB
:100670001B825D834C83BF83AE83188681E08093A9
:10068000040510921B051092F3041092E704DF9109
:10069000CF911F910F91089586E10C94490286E154
:1006A0000C94490288E00E94490210921B050895AB
:1006B0000F931F93CF93DF93FC0180910405811169
:1006C00002C08FEFABC026818091EC048F5F8093D6
:1006D000EC0490918101907E916020FB95F99F73CD
:1006E00090649093810188E8809382018091E7046F
:1006F000882361F08FEF809383018AEA9AEA9093CE
:100700008901809388018FEF9FEF10C08091EC04E6
:1007100080938301209161018091600190E0922B90
:1007200090938901809388018081918190938701C2
:1007300080938601209163018091620190E0922B69
:1007400090938501809384018F014281552747FD55
:100750005095638174818AE891E00E945325F801E5
:100760008281855F8093800180914101D82FDF7164
:100770009FEF9D0F9230C0F3D131B1F3D231A1F38D
:10078000DF3191F398EF9D0F923020F08F7086301B
:1007900009F097CF86E10E944902F8018581811115
:1007A0000BC089E00E944902F8018681882391F0FC
:1007B00089E10E9449020EC08091480180688093BF
:1007C00048018091410187FFFCCF8091410186FF64
:1007D00078CFE7CF1092F30482E00E94490280E0D4
:1007E00090E02091F304211105C00196883EFDEFB1
:1007F0009F07B9F7F8012681222331F020914201A9
:1008000022952695277029F4883E9D4F11F0C1E06E
:1008100001C0CFEF8D2F0E9449028C2FDF91CF9125
:100820001F910F9108950E94580389E893E1209148
:10083000F304211104C00197D1F78FEF089581E0EF
:1008400008951092F30482E00E94490288EE9DEF21
:100850002091F304211104C00197D1F78FEF08957F
:1008600081E00895CF93DF9380910405882341F1BF
:1008700080914101C82FCF719FEF9C0F9230C0F340
:10088000C131B1F3C231A1F3CF3191F3C83019F0C6
:100890008F708630A9F486E10E9449028091480158
:1008A0008068809348018091410187FFFCCFD091FF
:1008B00041018C2F0E944902D6FB882780F901C094
:1008C0008FEFDF91CF91089580910405811103C0CE
:1008D0008CEA92E01BC080911B05811106C08AEB57
:1008E00092E00E94072680E0089580917B01E091CC
:1008F000EA04F091EB0490E002972481332727FD6E
:1009000030952817390734F488EC92E00E940726C6
:100910008FEF0895E091EA04F091EB048091820159
:100920008083E091EA04F091EB048091870190913B
:10093000880192838183E091EA04F091EB04809135
:100940007B018B508383A091EA04B091EB04E0918A
:10095000EA04F091EB0413969C91848189173CF092
:10096000E091EA04F091EB04838187FF0FC01092BD
:100970001B0580914C018F7780934C0180914C0135
:10098000806880934C018AED92E0C0CFA091EA0488
:10099000B091EB04E091EA04F091EB0413964C91D2
:1009A000552747FD509569E871E0858196810E9441
:1009B00053258091CA03882309F43EC0E091EA04DC
:1009C000F091EB0483818031B9F5E091EA04F09174
:1009D000EB046581768144E050E080E092E00E9483
:1009E0005C25892B49F5E091EA04F091EB046581DF
:1009F000768140E150E080E092E00E945C25892B06
:100A0000D9F49DE088E10FB6F894A8958093600032
:100A10000FBE9093600080E090E00E94B20B81E0F6
:100A200090E00E94B20B82E090E00E94B20B83E063
:100A300090E00E94B20BFFCFE091EA04F091EB044A
:100A40008091800185FB882780F98783E091EA0403
:100A5000F091EB04809147018087E091EA04F091E6
:100A6000EB04809146018695869586958187E09175
:100A7000EA04F091EB04809147018287A091EA0497
:100A8000B091EB04E0917B01F0E0E058FE4F8081F3
:100A90001B968C9310921B0580914C018F7780934D
:100AA0004C0180914C01806880934C0181E0089555
:100AB0001F920F920FB60F9211248F9380E88093AC
:100AC0004F018F910F900FBE0F901F9018951F929E
:100AD0000F920FB60F9211248F9381E08093F3044D
:100AE00080E480934F018F910F900FBE0F901F9065
:100AF00018951F920F920FB60F9211248F9380E2D8
:100B000080934F018F910F900FBE0F901F901895FB
:100B10001F920F920FB60F9211248F9380E1809352
:100B20004F018F910F900FBE0F901F9018951F923D
:100B30000F920FB60F9211240BB60F922F933F9383
:100B40004F935F936F937F938F939F93AF93BF93D5
:100B5000EF93FF9384E080934F01E091CD03F091F8
:100B6000CE03309709F00995FF91EF91BF91AF91B6
:100B70009F918F917F916F915F914F913F912F91B5
:100B80000F900BBE0F900FBE0F901F9018951F92E5
:100B90000F920FB60F9211248F9382E080934F0132
:100BA0008F910F900FBE0F901F9018951F920F926C
:100BB0000FB60F9211248F9381E080934F018F9194
:100BC0000F900FBE0F901F901895E9E4F1E090810F
:100BD000907F908390818F70982B908308958FEFF2
:100BE00008950895089508958FEF08958091E5047C
:100BF0009091E6040895089581E0089581E00895B4
:100C000081E0089508950895089508950895089538
:100C10000895089598988DB1806E8DB98EB1806ACF
:100C20008EB9089598988DB1806E8DB98EB1806619
:100C30008EB90895CF92DF92EF92FF920F931F9398
:100C4000CF93DF93CDB7DEB727970FB6F894DEBF0B
:100C50000FBECDBF0E94E30CE091EA04F091EB04DB
:100C6000C080D380E580F68000850E946404181659
:100C70001CF083E093E006C0F7011081111107C05A
:100C800082E293E00E9407260E94E50C31C01530F5
:100C900021F48AE090E00E940126C70101969F930B
:100CA0008F93802F992787FD90959F930F931F9285
:100CB0001F931F92CF9284E493E09F938F930E949F
:100CC000ED25FD82EC821150F7011083DB821E823C
:100CD0001F828FEF9FEF9A8389830E94E50CCE01DC
:100CE00001960E9458030FB6F894DEBF0FBECDBF29
:100CF00027960FB6F894DEBF0FBECDBFDF91CF9120
:100D00001F910F91FF90EF90DF90CF9008951F9269
:100D10000F920FB60F9211240BB60F922F933F93A1
:100D20004F935F936F937F938F939F93AF93BF93F3
:100D3000EF93FF9380E090917B01891710F48F5F10
:100D4000FACF8091460187FF04C081E080931B05A4
:100D500004C08DE693E00E94072688E080934F014F
:100D60008091460187FF05C08091E70481110E94B0
:100D70001A06E091CB03F091CC03309709F0099566
:100D8000FF91EF91BF91AF919F918F917F916F9163
:100D90005F914F913F912F910F900BBE0F900FBE1F
:100DA0000F901F901895A4EFB4E0FC0140962081AD
:100DB0002D93219120933F01E817F907C1F780E1B6
:100DC00010923E018150E1F780E880933C018091D0
:100DD0003D0180FFFCCFE5E0F5E080E18E0F9091D2
:100DE0003F0191938E13FBCF0895CF93DF93DC01E6
:100DF000662309F445C0862F8F7009F041C0E4EFE7
:100E0000F4E090E19E0F219120933F019E13FBCFD0
:100E100090E070E0E0E240E1949F900111242617F9
:100E200037077CF5911103C010923C0102C0E0939A
:100E30003C0140E050E02A0F3B1FE901C40FD51FE1
:100E4000F881F0933E014F5F5F4F40315105A9F7A4
:100E500040913C01406840933C0140913D0140FF7E
:100E6000FCCF40E050E0F0913E01E901C40FD51FF6
:100E7000F8834F5F5F4F40315105A9F79F5FCBCF9C
:100E800081E0DF91CF9108950F931F93CF93DF936C
:100E9000DC01613009F458C0862F8F7009F054C00E
:100EA000E5E0F5E090E19E0F219120933F019E1334
:100EB000FBCF62956F70615078E06F3F09F445C0D9
:100EC00070933C01462F552747FD509520E030E0B8
:100ED000ED0190E16902C00DD11D1124FE01E20F68
:100EE000F31F908190933E012F5F3F4F20313105DA
:100EF000A9F790913C01906890933C0190913D013D
:100F000090FFFCCF4150510994E0440F551F9A9532
:100F1000E1F720E030E090913E018E01020F131FB7
:100F2000F8019083662349F0F901E40FF51FEA0FF9
:100F3000FB1FE0819E27F80190832F5F3F4F2031F8
:100F4000310549F76150B9CF81E0DF91CF911F9111
:100F50000F9108959091C00095FFFCCF9091C00033
:100F60009F7D9093C0008093C60008951F920F92BA
:100F70000FB60F9211240BB60F922F933F934F93FE
:100F80005F936F937F938F939F93AF93BF93EF93F1
:100F9000FF930E94E30C8091C00087FFFCCF8091FB
:100FA000C0008F778093C0002091C6008091E0033D
:100FB0009091E103FC01E053FC4F208301968031C6
:100FC000910529F09093E1038093E00304C010920F
:100FD000E1031092E0038091CF030E94AB12809155
:100FE000C0008F778093C0000E94E50CFF91EF91C5
:100FF000BF91AF919F918F917F916F915F914F9131
:101000003F912F910F900BBE0F900FBE0F901F902E
:10101000189581110DC081E04091E2035091E303E6
:101020002091E0033091E1034217530751F408C0C7
:10103000813031F48091C800881F8827881F089567
:1010400080E008958091CF038F3F19F48EE00E94D5
:1010500065108091CF030895CF93DF93FC01249115
:10106000EC012196222351F06091CF067091D006B9
:10107000822F90E00E94B525CE01F0CFDF91CF9175
:1010800008952091E2033091E3038091E003909171
:10109000E1032817390769F48091CF030E94791280
:1010A0006091CF03772767FD7095872F972F0E9458
:1010B0001C136F3F21F484EB91E00E942C082091D7
:1010C000E2033091E303F901E053FC4F80812F5F8D
:1010D0003F4F2031310528F43093E3032093E2039E
:1010E00008951092E3031092E203089586E084B914
:1010F00085B988EF8AB980EF8BB982E08DB9089500
:101100000C9476088F3F09F46CC0E82FE7704E2FDF
:1011100050E04730510508F064C0FA01E057FF4F36
:101120008695869586950C94302542B121E030E075
:10113000B90102C0660F771F8A95E2F7CB01842BB5
:1011400082B94DC045B121E030E0B90102C0660F5F
:10115000771F8A95E2F7CB01842B85B940C048B14F
:1011600021E030E0B90102C0660F771F8A95E2F7EF
:10117000CB01842B88B933C04BB121E030E0B901F9
:1011800002C0660F771F8A95E2F7CB01842B8BB9DB
:1011900026C04EB121E030E0B90102C0660F771FD2
:1011A0008A95E2F7CB01842B8EB919C041B321E0B7
:1011B00030E0B90102C0660F771F8A95E2F7CB01D4
:1011C000842B81BB0CC044B321E030E0B90102C0E4
:1011D000660F771F8A95E2F7CB01842B84BB81E0F1
:1011E00008958FEF08958F3F09F473C0E82FE770DB
:1011F0004E2F50E04730510508F06BC0FA01E95618
:10120000FF4F8695869586950C94302542B121E056
:1012100030E0B90102C0660F771F8A95E2F7CB0173
:101220008095842382B953C045B121E030E0B901F3
:1012300002C0660F771F8A95E2F7CB018095842361
:1012400085B945C048B121E030E0B90102C0660F60
:10125000771F8A95E2F7CB018095842388B937C040
:101260004BB121E030E0B90102C0660F771F8A95CB
:10127000E2F7CB01809584238BB929C04EB121E0E0
:1012800030E0B90102C0660F771F8A95E2F7CB0103
:10129000809584238EB91BC041B321E030E0B901B1
:1012A00002C0660F771F8A95E2F7CB0180958423F1
:1012B00081BB0DC044B321E030E0B90102C0660F2C
:1012C000771F8A95E2F7CB018095842384BB81E068
:1012D00008958FEF08958F3F31F1E82FE7704E2F7B
:1012E00050E047305105F8F4FA01E256FF4F282F3D
:1012F0002695269526950C94302590B10BC093B178
:1013000009C096B107C099B105C09CB103C09FB197
:1013100001C092B3892F90E002C0959587952A95D8
:10132000E2F7817008958FEF08958F3F09F406C1A9
:10133000E82FE7704E2F50E04730510508F0FEC00F
:10134000FA01EB55FF4F8695869586950C943025CE
:1013500020B130E0082E02C0359527950A94E2F7B7
:1013600042B120FD0BC021E030E0B90102C0660FA0
:10137000771F8A95E2F7CB01842B0BC021E030E088
:10138000B90102C0660F771F8A95E2F7CB018095FD
:10139000842382B916C023B130E0082E02C03595EF
:1013A00027950A94E2F745B120FD0DC021E030E019
:1013B000B90102C0660F771F8A95E2F7CB01842B33
:1013C00085B981E0089521E030E0B90102C0660FDF
:1013D000771F8A95E2F7CB0180958423F1CF26B160
:1013E00030E0082E02C0359527950A94E2F748B1FF
:1013F00020FD0BC021E030E0B90102C0660F771F6D
:101400008A95E2F7CB01842B0BC021E030E0B901D3
:1014100002C0660F771F8A95E2F7CB01809584237F
:1014200088B9CFCF29B130E0082E02C03595279575
:101430000A94E2F74BB120FD0BC021E030E0B90186
:1014400002C0660F771F8A95E2F7CB01842B0BC091
:1014500021E030E0B90102C0660F771F8A95E2F7FC
:10146000CB01809584238BB9ACCF2CB130E0082E12
:1014700002C0359527950A94E2F74EB120FD0BC0C6
:1014800021E030E0B90102C0660F771F8A95E2F7CC
:10149000CB01842B0BC021E030E0B90102C0660F04
:1014A000771F8A95E2F7CB01809584238EB989CF87
:1014B0002FB130E0082E02C0359527950A94E2F747
:1014C00041B320FD0BC021E030E0B90102C0660F3E
:1014D000771F8A95E2F7CB01842B0BC021E030E027
:1014E000B90102C0660F771F8A95E2F7CB0180959C
:1014F000842381BB66CF22B330E0082E02C035952D
:1015000027950A94E2F744B320FD0BC021E030E0B8
:10151000B90102C0660F771F8A95E2F7CB01842BD1
:101520000BC021E030E0B90102C0660F771F8A9539
:10153000E2F7CB018095842384BB43CF8FEF0895DE
:101540008F3F09F4D5C0E82FE7704E2F50E06111AE
:1015500067C04730510508F0CBC0FA01E455FF4F92
:101560008695869586950C94302541B121E030E032
:10157000B90102C0660F771F8A95E2F7CB0180950B
:10158000842365C044B121E030E0B90102C0660F98
:10159000771F8A95E2F7CB018095842365C047B118
:1015A00021E030E0B90102C0660F771F8A95E2F7AB
:1015B000CB018095842365C04AB121E030E0B901B8
:1015C00002C0660F771F8A95E2F7CB0180958423CE
:1015D00065C04DB121E030E0B90102C0660F771F50
:1015E0008A95E2F7CB018095842365C040B321E062
:1015F00030E0B90102C0660F771F8A95E2F7CB0190
:101600008095842365C043B321E030E0B90102C076
:10161000660F771F8A95E2F7CB018095842365C01A
:101620004730510508F064C0FA01ED54FF4F86952C
:10163000869586950C94302541B121E030E0B901C2
:1016400002C0660F771F8A95E2F7CB01842B81B920
:101650004DC044B121E030E0B90102C0660F771FF0
:101660008A95E2F7CB01842B84B940C047B121E0D1
:1016700030E0B90102C0660F771F8A95E2F7CB010F
:10168000842B87B933C04AB121E030E0B90102C0F0
:10169000660F771F8A95E2F7CB01842B8AB926C0A3
:1016A0004DB121E030E0B90102C0660F771F8A9585
:1016B000E2F7CB01842B8DB919C040B321E030E0B3
:1016C000B90102C0660F771F8A95E2F7CB01842B20
:1016D00080BB0CC043B321E030E0B90102C0660F0B
:1016E000771F8A95E2F7CB01842B83BB81E00895B5
:1016F0008FEF0895811106C080B18695817091E0C9
:10170000892708958FEF0895009711F483E20DC0A3
:101710008130910511F48BE208C08230910511F4FB
:1017200083E303C0039729F48BE30E94950981E0CA
:1017300008958FEF0895009711F483E20DC0813072
:10174000910511F48BE208C08230910511F483E316
:1017500003C0039729F48BE30E94820881E0089577
:101760008FEF0895009711F483E20DC08130910549
:1017700011F48BE208C08230910511F483E303C0B9
:10178000039729F48BE30E94F30881E008958FEF1B
:101790000895882319F085B78F7E02C085B78061D0
:1017A00085BF81E008959091C80095FFFCCF80939C
:1017B000CE0008959093C5008093C40086E0809386
:1017C000C200E1ECF0E080818B7F8083A0ECB0E090
:1017D0008C9182608C93808188618083089590933E
:1017E000CD008093CC0086E08093CA00E9ECF0E065
:1017F00080818B7F8083A8ECB0E08C9182608C9399
:1018000080818861808308950E94DA0B61E478E02A
:101810008AEA97E00E946A259093D0068093CF06CB
:1018200061E478E08AEA97E00E946A259093CE0608
:101830008093CD060E9469118093CF038F3F19F4E6
:101840008EE00E9465101092E3031092E203109262
:10185000E1031092E0038091C10080688093C10091
:1018600008958091C80087FFFCCF8091C8008F77D2
:101870008093C8008091CE00089500000000000011
:1018800000000197D1F708950C94C5260E94CD263B
:101890000895EF92FF920F931F93CF93DF937C01F4
:1018A00080E090E00E94C526182FF701838381E035
:1018B00090E00E94C526082FF701828382E090E025
:1018C0000E94C526D82FF701818383E090E00E9413
:1018D000C526C82FF701808384E090E00E94C526CA
:1018E000100FD10FCD0F8C1711F08FEF01C081E0D9
:1018F000DF91CF911F910F91FF90EF900895CF93BB
:10190000DF93EC0185E090E00E94C526888381E0AA
:10191000DF91CF910895FC01608186E090E00E9404
:10192000CD2681E00895CF93DF93EC0186E090E02F
:101930000E94C526888381E0DF91CF9108950F939F
:101940001F93CF93DF938C01C0E0D0E0CE010896C7
:101950000E94C526F80181938F012196C031D105DF
:10196000A9F781E0DF91CF911F910F9108950F9317
:101970001F93CF93DF938C01C0E0D0E0F801619119
:101980008F01CE0108960E94CD262196C031D10547
:10199000A9F781E0DF91CF911F910F910895CF9327
:1019A000DF93EC0187E090E00E94C526888381E008
:1019B000DF91CF910895FC01608187E090E00E9463
:1019C000CD2681E00895F8940895789408950E94B2
:1019D000E30CFFCFCF93DF93CDB7DEB7A3970FB65E
:1019E000F894DEBF0FBECDBF0E94691180932F0611
:1019F0008F3F21F460E08EE00E9473100E9443202C
:101A000080FF04C060E086E00E94731010923206EE
:101A10001092400610923F06109231061092300646
:101A2000109241060E94371D10923E0680E090E021
:101A30002FEFFC01EE5DF94F208322832183039673
:101A40008C309105B1F780E090E033E62FEFFC0198
:101A5000E25EFA4F328720878B96823041E094070E
:101A6000B1F7E2E4F6E0CF01059694838383F78330
:101A7000E683FC0186E0E036F807A9F710924406F9
:101A80001092430610926406109263061092350677
:101A90001092340682E496E090931D0580931C0515
:101AA0006AE57AE1CE0101960E947B2240E850E08F
:101AB00061E674E0CE0101960E947F2285E5809365
:101AC000610419861C861D861E861F86188A198A3F
:101AD0001A8A1B8A1C8A1D8A1E8A1F8A188E198ED2
:101AE0001A8E1B8E1C8E1D8E1E8E1F8E18A219A282
:101AF0001AA21BA281E0888792E09A878B87CE0189
:101B000001960E949715A3960FB6F894DEBF0FBEFC
:101B1000CDBFDF91CF91089506E215E0C0E0F80156
:101B2000D080FFEFDF1222C0CF5F055D1F4FC630B0
:101B3000B1F70E948A142BE28202C0011124FC0139
:101B4000E25EFA4F828580934106F0934006E0936F
:101B50003F06F0933106E0933006809332060E94F0
:101B6000F1220E94DB220E94F52216C086E2E82EB6
:101B700085E0F82ED0E0CD1741F0F7018081D81232
:101B800004C06D2D85E00E947310DF5FFBE2EF0E55
:101B9000F11CD63081F7C8CFFFCFCF92DF92EF9202
:101BA000FF920F931F93CF93DF93EC018B017A0188
:101BB0008985823021F080912E06888301C01882A9
:101BC00080912E06863020F060E087E00E9473103E
:101BD0008985823029F080912E068F5F80932E06B2
:101BE00080912E06811103C081E080932E063881FA
:101BF0002BE23203F0011124E25EFA4F11830083DD
:101C00008885828738813203F0011124E25EFA4F21
:101C100083E0818738813203F0011124E25EFA4FBC
:101C200030870881020380011124025E1A4FF801F7
:101C30001582CE010B960E94F019F80161A372A3E0
:101C400083A394A38B859C85AD85BE8588339948F5
:101C5000A144B10520F0688186E10E947310C8801C
:101C6000DD24C7FCD094CE014B960E94F0191BE2F4
:101C70001C9DF0011D9DF00D1124E25EFA4F658B55
:101C8000768B878B908F28812103C00111249C01C2
:101C9000225E3A4F6901F901458956896789708D3D
:101CA00081A192A1A3A1B4A1840F951FA61FB71F64
:101CB000818F928FA38FB48FCE0143960E94F0192B
:101CC000F60165A376A387A390A728812103F001DD
:101CD0001124E25EFA4F85A196A1A7A1B0A5858F38
:101CE000968FA78FB0A381E090E092A781A7F3829F
:101CF000E2828487DF91CF911F910F91FF90EF9047
:101D0000DF90CF9008950C947E1A85E690E00895B8
:101D1000E0913F06F091400684870895E0913F06E8
:101D2000F091400684850895FC0180916004882329
:101D300031F0DB018C938091E603808381E008958C
:101D400010926004089513BC1092B60018BC17BC22
:101D500016BC15BC14BC1DBA1CBA1BBA10929B0051
:101D600010929A001092990010929800109295008B
:101D700010929400109291001092900018BA109254
:101D800071001092B4001092B3001092B200109241
:101D9000B100E0EBF0E01082108217BA10927000F0
:101DA0008FEF84BF0895CF93DF931F92CDB7DEB737
:101DB00019828981843640F480ED97E00E94791E73
:101DC00089818F5F8983F5CF0F90DF91CF9108953F
:101DD00081E090E00E94B20B0E94D30E0E94D30ECD
:101DE0000E94D30E81E090E00E949B0B0C94D30ED6
:101DF00081E090E00E94B20B0E94D30E81E090E05F
:101E00000E949B0B0C94D30EFF920F931F93CF93C2
:101E1000DF9300D01F92CDB7DEB71F928F9386E875
:101E200093E09F938F938E010F5F1F4F1F930F932C
:101E30000E9437260F900F900F900F900F900F90E9
:101E4000F12CF80101900020E9F73197E01BF10B2C
:101E50008F2D90E08E179F0708F05DC0F801E80F06
:101E6000F91FE0818E2F90E0FC01F097EA30F10538
:101E700008F049C0E654FF4F0C9430250E94E80E4C
:101E800002C00E94F80E0E94E80E0E94E80E0E9416
:101E9000E80E0E94E80E37C00E94F80E0E94F80E6D
:101EA000F4CF0E94F80E0E94F80E0E94F80EEFCFB9
:101EB0000E94F80E0E94F80E0E94F80E0E94F80E82
:101EC000E8CF0E94F80E02C00E94E80E0E94F80EB1
:101ED00004C00E94E80E0E94E80E0E94F80E06C0A0
:101EE0000E94E80E0E94E80E0E94E80E0E94F80E82
:101EF00008C00E94E80E0E94E80E0E94E80E0E94B0
:101F0000E80E0E94F80E0E94D30E0E94D30E0E948B
:101F1000D30EF39496CF0F900F900F90DF91CF9147
:101F20001F910F91FF9008950F931F93CF93DF930D
:101F300080916004882309F4C2C00E94E30C06E883
:101F400013E085EF93E00E942C088091E6031F9236
:101F50008F931F930F930E94ED2581EF93E00E94D2
:101F60002C080F900F900F900F9080916004883193
:101F700010F010926004E09160048E2F90E0FC015C
:101F80003197E631F10508F046C0EC53FF4F0C9451
:101F9000302585EB93E041C08EE893E03EC08AE7B0
:101FA00093E03BC084E693E038C089E493E035C019
:101FB00083E393E032C08BE193E02FC088E093E0AD
:101FC0002CC085EF92E029C087ED92E026C082EB1D
:101FD00092E023C086EA92E020C08BE892E01DC028
:101FE0008CE792E01AC088E692E017C087E592E09D
:101FF00014C083E492E011C083E292E00EC08BE053
:1020000092E00BC080EF91E008C08FED91E005C039
:1020100080ED91E002C089EC91E00E942C08609173
:10202000CF067091D0068DE090E00E94B5256091BA
:10203000CF067091D0068AE090E00E94B525C4E1F9
:1020400082E090E00E94B20B83E090E00E949B0B44
:10205000D4E688EE93E00E94791ED150D1F783E058
:1020600090E00E94B20B82E090E00E949B0BD4E6CD
:1020700088EE93E00E94791ED150D1F7C15001F74C
:1020800082E090E00E949B0B83E090E00E949B0B1B
:102090008091E6030E94040F0E94D30E82E090E03C
:1020A0000E94B20B0E94D30E82E090E00E949B0B34
:1020B0000E94D30E809160040E94040F42CF80E002
:1020C000DF91CF911F910F91089580936004E0916B
:1020D0003F06F091400680858093E6030E94940FAE
:1020E000109260040895809360046093E6030E9458
:1020F000940F1092600408956F927F928F929F9236
:10210000AF92BF92CF92DF92EF92FF920F931F9305
:10211000CF93DF9381E094E00E942C08E0913F068A
:10212000F09140068085282F332727FD30953F9377
:102130008F9389E893E09F938F930E94ED25E09120
:102140003F06F0914006C281D381DF93CF938DEBA0
:1021500093E09F938F930E94ED2588811F928F9328
:1021600082E993E09F938F930E94ED25E0913F06D3
:10217000F091400681818F9380818F938FE993E066
:102180009F938F930E94ED25809140068F938091BD
:102190003F068F9389EA93E09F938F930E94ED25EA
:1021A000CEE1D5E0EDB7FEB774960FB6F894FEBF5A
:1021B0000FBEEDBF00E010E089EB682E83E0782EC3
:1021C00092E9892E93E0992E2FE9A22E23E0B22ED8
:1021D00039EAC32E33E0D32EEA80FB80FF92EF92E0
:1021E0001F930F937F926F920E94ED25F7018081DC
:1021F0001F928F939F928F920E94ED2589818F93DA
:1022000088818F93BF92AF920E94ED25DF93CF9389
:10221000DF92CF920E94ED250F5F1F4FAB96EDB777
:10222000FEB772960FB6F894FEBF0FBEEDBF063034
:10223000110591F6DF91CF911F910F91FF90EF90D3
:10224000DF90CF90BF90AF909F908F907F906F90D6
:102250000895CF93DF93E0913F06F0914006C2814D
:10226000D3818881853539F00E947C1081E00E94FD
:10227000651085E58883E0913F06F09140068081F6
:1022800091818115924438F00E947C1082E1DF91A7
:10229000CF910C946510DF91CF9108952BE28202CB
:1022A000C0011124FC01E25EFA4FA281B3818C913E
:1022B000853519F085E58C9308C080819181811561
:1022C000924428F082E10E9465108FEF089581E02A
:1022D00008950F931F934091E8035091E903609193
:1022E000EA037091EB0380E090E08A019B01082EE5
:1022F00004C036952795179507950A94D2F700FDE7
:1023000019C001E010E020E030E0082E04C0000F0A
:10231000111F221F331F0A94D2F7402B512B622B1F
:10232000732B4093E8035093E9036093EA0370939F
:10233000EB0305C0019680329105B9F68FEF1F912E
:102340000F910895E0913F06F091400665857685EE
:10235000878590890895CF92DF92EF92FF920F9335
:102360001F93CF93DF93C12CD12C7601C394082EF9
:1023700004C0CC0CDD1CEE1CFF1C0A94D2F740916B
:10238000E8035091E9036091EA037091EB034C215B
:102390005D216E217F21452B462B472B09F460C020
:1023A000082F0E94E30CE7E2F5E0B701A601409593
:1023B00050956095709513E0DF0111978C918F3FD8
:1023C00039F184819581A681B7818C159D05AE0573
:1023D000BF0551F410861186128613869F01225084
:1023E0003109E9011882108384239523A623B7239A
:1023F00084839583A683B78380859185A285B385E1
:1024000084239523A623B72380879187A287B38748
:10241000BB96D6E0E932FD0779F68EEF9FEFAFEF7E
:10242000BFEF04C0880F991FAA1FBB1F0A95D2F7E0
:102430004091E8035091E9036091EA037091EB0346
:1024400084239523A623B7238093E8039093E9037D
:10245000A093EA03B093EB030E94E50C81E001C076
:102460008FEFDF91CF911F910F91FF90EF90DF9051
:10247000CF9008950F931F9341E050E060E070E02B
:102480008A019B0104C0000F111F221F331F8A9570
:10249000D2F7D901C801E0913F06F0914006458589
:1024A0005685678570890423152326233723012B3E
:1024B000022B032BD1F080959095A095B0954823E1
:1024C00059236A237B23458756876787708B418909
:1024D00052896389748984239523A623B723818B2A
:1024E000928BA38BB48B81E001C08FEF1F910F9172
:1024F0000895282F4091E8035091E9036091EA0381
:102500007091EB03082E04C0769567955795479513
:102510000A94D2F740FF1DC0E0913F06F0914006BB
:1025200081E090E0A0E0B0E004C0880F991FAA1FEE
:10253000BB1F2A95D2F74585568567857089842B00
:10254000952BA62BB72B85879687A787B08B81E025
:1025500008958FEF0895CF92DF92EF92FF92CF937D
:10256000C12CD12C7601C39404C0CC0CDD1CEE1C14
:10257000FF1C8A95D2F78091E8039091E903A0911E
:10258000EA03B091EB038C219D21AE21BF21892B61
:102590008A2B8B2B11F481E044C00E94E30CE5E20E
:1025A000F5E0A7E2B5E0C0E083E090819130B9F4B6
:1025B00042855385648575854C215D216E217F217F
:1025C000452B462B472B59F08C9316861786108A7D
:1025D000118A1082C286D386E486F586C1E0908196
:1025E0009230A1F442855385648575854C155D054F
:1025F0006E057F0559F48C9316861786108A118A0A
:1026000010821286138614861586C1E0BB969B96AF
:1026100096E0E732F90749F60E94E50CC11105C0C2
:1026200082E00E94880E8FEF01C081E0CF91FF9081
:10263000EF90DF90CF9008950F931F93E0913F06A6
:10264000F0914006058516852785308906231723D6
:1026500028233923011511052105310511F1DC016C
:10266000CB01818B928BA38BB48B21E027830090CD
:102670002F0604C0B695A795979587950A94D2F72B
:1026800080FF03C00E94FF1604C080E090E00E941B
:10269000D016E0913F06F091400601891289238906
:1026A0003489C901B8011F910F91089590913E0698
:1026B0009330D0F4A2E2B6E0E0E02C912F3F21F07D
:1026C000EF5F1396E430C9F7F0E09F01220F331F4C
:1026D000E20FF31FEE5DF94F8283808361839F5F7A
:1026E00090933E06CF01089580E090E0089526E0A3
:1026F0008232920769F026E08532920759F026E08F
:102700008832920749F08B52964041F483E0089555
:1027100080E0089581E0089582E008958FEF0895A4
:102720000E9477138F3F11F481E003C0843029F4B5
:1027300082E00E94880E8FEF0895992787FD90957B
:10274000FC01EE0FFF1F8E0F9F1FFC01EE5DF94F86
:1027500082810895EF92FF920F931F93CF93DF939F
:102760001F92CDB7DEB70E9477138F3F11F481E03F
:1027700003C0843029F482E00E94880E8FEF41C0AC
:1027800089830E94E30C8981E82EFF24E7FCF09402
:102790008701000F111FF801EE0DFF1DEE5DF94FCF
:1027A0009281911116C0E0913F06F0914006978109
:1027B00092609783992787FD9095A92FB92F818BD8
:1027C000928BA38BB48B0E94E50C80E090E00E947A
:1027D000D0160E0D1F1DD801AE5DB94F12968C910B
:1027E0001297815012968C931297E0913F06F091C8
:1027F000400611968C91838781E084830E94E50CCA
:1028000081E00F90DF91CF911F910F91FF90EF909A
:1028100008950F931F93CF93DF931F92CDB7DEB729
:102820000E9477138F3F11F481E003C0843029F4B4
:1028300082E00E94880E8FEF44C0482F552747FD45
:1028400050959A01220F331F240F351F89010E5D09
:10285000194FF80122819081291794F589830E94EC
:10286000E30CF80192819F5F9283E0913F06F09123
:1028700040061482E5E2F5E08981992787FD90956D
:10288000A92FB92F23E03081323099F44285538546
:1028900064857585481759076A077B0751F42283B9
:1028A00016861786108A118A10821286138614865D
:1028B0001586BB9636E0E732F30729F70E94E50C50
:1028C00081E00F90DF91CF911F910F9108950E94A9
:1028D00077138F3F11F481E003C0843029F482E044
:1028E0000E94880E8FEF0895992787FD9095FC012F
:1028F000EE0FFF1F8E0F9F1FFC01EE5DF94F8FEF54
:1029000080838283818380913E06815080933E063E
:1029100081E00895E0913406F091350680810895B4
:10292000E0913406F0913506309721F00380F48170
:10293000E02DFACF0895AF92BF92CF92DF92EF923F
:10294000FF920F931F93CF93DF93E0911C05F091BB
:102950001D05309709F490C000913406109135069A
:102960000115110509F44CC0D8014BE2582F54034E
:1029700090011124225E3A4F79019AE0E90EF11C90
:102980006901C4E0CC0ED11C5901DBE0AD0EB11CD5
:102990002C9130E0429FB001439F700D1124625E84
:1029A0007A4FEB019C81992329F05B85E70198819F
:1029B000591740F1E6019881992369F0429FB001CF
:1029C000439F700D1124625E7A4FEB015A85E50139
:1029D00098815917B8F0429FB001439F700D1124A0
:1029E0009B01225E3A4FE9012A85E7019881291768
:1029F00048F013960D90BC91A02D109749F602C097
:102A0000A0E0B0E08083C381D481D0931D05C09342
:102A10001C05A017B107B1F4109749F0B483A38344
:102A2000128211821296FC93EE93119706C01482C3
:102A3000138212821182FA83E983F0933506E093C0
:102A400034061AC011968D919C911297AC17BD0750
:102A500059F092838183B483A3831196CD91DC9145
:102A60001297FC83EB8304C01482138292838183C8
:102A70001296FC93EE931197DF91CF911F910F91D6
:102A8000FF90EF90DF90CF90BF90AF900895CF93DD
:102A9000DF93E0913406F0913506309709F444C095
:102AA000992787FD9095208130E02817390781F418
:102AB000A381B481B0933506A093340612961C927C
:102AC0001E92119718C00380F481E02D309761F1B8
:102AD000208130E028173907B1F7C181D281838185
:102AE00094819C838B83A381B481109721F01296EB
:102AF000DC93CE931197A0911C05B0911D05109702
:102B000039F4F0931D05E0931C05148213820AC06A
:102B1000B483A3831296FC93EE931197F0931D0553
:102B2000E0931C0512821182DF91CF910895EF92FC
:102B3000FF920F931F93CF93DF93EC014B815C8146
:102B400069817A818D819E810E949D222F8122231D
:102B500071F04B815C81E12CF12C00E010E020E071
:102B600030E0BC01CE010E94CD0D1F820CC0E88177
:102B70002BE2E202F0011124E25EFA4F21852330BC
:102B8000B9F491838083E8818BE2E802F00111249B
:102B9000E25EFA4F85899689A789B08D892B8A2BA9
:102BA0008B2B41F482E0818788810E949B1402C0B4
:102BB0008FEF01C081E0DF91CF911F910F91FF90C6
:102BC000EF9008951F93CF93DF93CDB7DEB728978B
:102BD0000FB6F894DEBF0FBECDBF29833A834B8377
:102BE0005C836D837E838F8398870E94E30C0E94B1
:102BF000C71F182FCE0101960E94F019633071058E
:102C000098F0E0913F06F0914006212F30E0620FEE
:102C1000731FCB01A0E0B0E0858B968BA78BB08FA4
:102C20000E94E50C81E001C08FEF28960FB6F89462
:102C3000DEBF0FBECDBFDF91CF911F9108950E94DF
:102C40007022E0913F06F091400685818111F7CF17
:102C50000895CF930E9429110E94E30CE0913F0652
:102C6000F091400681E090E092A781A785830E94C1
:102C7000C71FC82F883F80F40E94611F2C2F30E0AF
:102C80002F5F3F4F90E02817390734F482E08C0F14
:102C9000809353040E94651F0E94E50C0E941F163A
:102CA00081E0CF910895E0913F06F0914006808544
:102CB0000E944715E0913F06F091400684E081872D
:102CC0000E94291681E00895CF93DF93EC010E94C2
:102CD0002911209711F4C1E0D0E00E94E30CE091AB
:102CE0003F06F091400681E08583D2A7C1A70E94EC
:102CF000C71FC82F883F80F40E94611F2C2F30E02F
:102D00002F5F3F4F90E02817390734F482E08C0F93
:102D1000809353040E94651F0E94E50C0E941F16B9
:102D200081E0DF91CF910895EF92FF920F931F936F
:102D3000CF938C010E94E30CE0913F06F091400696
:102D400081E085830E94C71FC82FE0913F06F09164
:102D50004006E82EF12CC701800F911FA0E0B0E0E3
:102D6000858B968BA78BB08FC83F78F40E94611F2C
:102D70009FEFE91AF90A90E0E816F90634F482E0C8
:102D80008C0F809353040E94651F0E94E50C0E94E3
:102D90001F1681E0CF911F910F91FF90EF90089542
:102DA000CF93DF93EC010E94E30CE0913F06F0919A
:102DB000400621E02583CE01A0E0B0E0858B968B14
:102DC000A78BB08F0E94C71FC82F883F80F40E9436
:102DD000611F2C2F30E02F5F3F4F90E028173907FD
:102DE00034F482E08C0F809353040E94651F0E948C
:102DF000E50C0E941F1681E0DF91CF910895CF93DB
:102E00000E94E30CE0913F06F091400681E085834B
:102E100086830E94C71FC82F883F80F40E94611FCD
:102E20002C2F30E02F5F3F4F90E02817390734F404
:102E300082E08C0F809353040E94651F0E94E50C72
:102E40000E941F1681E0CF9108951F93CF93DF93C7
:102E5000CDB7DEB728970FB6F894DEBF0FBECDBF53
:102E600029833A834B835C836D837E838F8398872A
:102E70000E9429110E94E30CE0913F06F091400668
:102E800081E0858381E090E092A781A70E94C71F1F
:102E9000182FCE0101960E94F019E0913F06F091A3
:102EA0004006DC01CB01810F911DA11DB11D858B59
:102EB000968BA78BB08F183F80F40E94611F212F43
:102EC00030E02F5F3F4F90E02817390734F482E05D
:102ED000810F809353040E94651F0E94E50C0E949D
:102EE0001F1681E028960FB6F894DEBF0FBECDBF47
:102EF000DF91CF911F9108958F929F92AF92BF92D1
:102F0000CF92DF92EF92FF920F931F93CF93DF93B5
:102F1000CDB7DEB760970FB6F894DEBF0FBECDBF5A
:102F200029873A874B875C876D877E878F87988B49
:102F3000CE0101960E94D81789809A80AB80BC8010
:102F4000CD80DE80EF80F88409851A852B853C854D
:102F50004D855E856F857889CE0109960E9435186A
:102F60008F3F61F029853A854B855C856D857E852F
:102F70008F8598890E94251781E001C08FEF6096A8
:102F80000FB6F894DEBF0FBECDBFDF91CF911F917A
:102F90000F91FF90EF90DF90CF90BF90AF909F90F8
:102FA0008F900895E0913F06F09140068085089546
:102FB0000F931F93CF93DF93EC011C821D821E821F
:102FC0001F828091360690913706A0913806B09105
:102FD000390688839983AA83BB8380913A069091AE
:102FE0003B06A0913C06B0913D068C839D83AE8349
:102FF000BF830E94C71FA82FB0E023EB36EE4EE040
:1030000050E00E9494240C811D812E813F81DC01BF
:10301000CB01800F911FA21FB31F8C839D83AE83B2
:10302000BF838C819D81AE81BF8181152AEC92077F
:103030002AE9A2072BE3B20798F09A5CAA49BB439E
:103040008C839D83AE83BF8388819981AA81BB8154
:103050000196A11DB11D88839983AA83BB83E1CF0B
:10306000DF91CF911F910F9108958F929F92AF9210
:10307000BF92CF92DF92EF92FF920F931F93CF9365
:10308000DF93CDB7DEB760970FB6F894DEBF0FBE03
:10309000CDBFFC0109831A832B833C834D835E8360
:1030A0006F83788789869A86AB86BC86CD86DE86D6
:1030B000EF86F88A09811A812B813C814D815E81DE
:1030C0006F817885C984DA84EB84FC848D859E8544
:1030D000AF85B8890C151D052E053F05F0F1C0160A
:1030E000D106E206F30691F4481759076A077B07F1
:1030F000A0F1481B590B6A0B7B0B448355836683F5
:103100007783108211821282138225C048175907D3
:103110006A077B0780F401501109210931090C1954
:103120001D092E093F0900831183228333835653DF
:103130006546744C08C00C191D092E093F0900830F
:10314000118322833383481B590B6A0B7B0B448307
:1031500055836683778381E001C08FEF60960FB659
:10316000F894DEBF0FBECDBFDF91CF911F910F91BD
:10317000FF90EF90DF90CF90BF90AF909F908F9097
:103180000895FC01448155816681778141158AEC5F
:1031900058078AE968078BE3780798F05A5C6A4910
:1031A0007B43448355836683778380819181A281A9
:1031B000B3810196A11DB11D80839183A283B38346
:1031C000E1CF08958F929F92AF92BF92CF92DF92FC
:1031D000EF92FF920F931F93CF93DF93CDB7DEB79C
:1031E00060970FB6F894DEBF0FBECDBF09831A8378
:1031F0002B833C834D835E836F83788789869A8691
:10320000AB86BC86CD86DE86EF86F88A09851A8570
:103210002B853C8549815A816B817C81400F511FF0
:10322000621F731FFC0140835183628373830D858A
:103230001E852F8538894D815E816F817885400F8D
:10324000511F621F731F44835583668377830E94D7
:10325000C11881E060960FB6F894DEBF0FBECDBFF7
:10326000DF91CF911F910F91FF90EF90DF90CF9062
:10327000BF90AF909F908F900895E6E3F6E0608353
:103280007183828393832483358346835783089590
:103290002F923F924F925F926F927F928F929F9266
:1032A000AF92BF92CF92DF92EF92FF920F931F9354
:1032B000FC01C080D180E280F380648175818681C9
:1032C0009781C114D104E104F104C1F1F2E4CF16F5
:1032D000D104E104F104D0F51B012C01612C712C07
:1032E0004301E0E08E2F90E0A0E0B0E08C159D055A
:1032F000AE05BF0588F49101A201B301C4013653A4
:103300004546544C6F4F7F4F8F4F9F4F19012A01F5
:103310003B014C01EF5FE6CF83EBA82E96EEB92E72
:103320002EE0C22ED12CE12CF12C00E010E0910116
:10333000A201B301C4010E94D32406C023EB36EEE0
:103340004EE050E00E94AF24C90102C080E090E04E
:103350001F910F91FF90EF90DF90CF90BF90AF90B3
:103360009F908F907F906F905F904F903F902F90A5
:103370000895CF92DF92EF92FF92CF93DF93CDB774
:10338000DEB728970FB6F894DEBF0FBECDBF6B0136
:103390007C012AE0F694E794D794C7942A95D1F754
:1033A000C982DA82EB82FC829B01AC013370442734
:1033B000552763EB76EE8EE090E00E949F242C2D43
:1033C0003A814B815C8128960FB6F894DEBF0FBE20
:1033D000CDBFDF91CF91FF90EF90DF90CF90089518
:1033E0002F923F924F925F926F927F928F929F9215
:1033F000AF92BF92CF92DF92EF92FF920F931F9303
:10340000FC01C080D180E280F38064817581868177
:103410009781C114D104E104F10499F11B012C013D
:10342000612C712C4301E0E08E2F90E0A0E0B0E031
:103430008C159D05AE05BF0588F49101A201B3016D
:10344000C40136534546544C6F4F7F4F8F4F9F4FAB
:1034500019012A013B014C01EF5FE6CF83EBA82E57
:1034600096EEB92E2EE0C22ED12CE12CF12C00E0EC
:1034700010E09101A201B301C4010E94D324CA014A
:1034800007C023EB36EE4EE050E00E94AF24CA01A5
:10349000B9011F910F91FF90EF90DF90CF90BF90F7
:1034A000AF909F908F907F906F905F904F903F90E4
:1034B0002F900895C2E0D1E00E9429110E94611F5F
:1034C000843028F4D09333060E94702208C08AE02A
:1034D00090E00E94791EC09333060E94642280917E
:1034E0006104853519F088E00E9465108091FE3FE7
:1034F000853511F388E00E946510DECF2F923F9250
:103500004F925F926F927F928F929F92AF92BF92F3
:10351000CF92DF92EF92FF920F931F93CF93DF939F
:1035200000D000D01F92CDB7DEB70E94951E0E943A
:10353000B31E0E94BB1E9B838A838AEF0E94651F75
:10354000A0915304B0E023EB36EE4EE050E00E9431
:10355000942400913A0610913B0620913C0630914C
:103560003D066B017C01C00ED11EE21EF31EC70199
:10357000B60123EB36EE4EE050E00E94AF24260168
:103580003701461A570A680A790AD301C201009125
:10359000360610913706209138063091390643EBF4
:1035A000842E46EE942E4EE0A42EB12C68017901B3
:1035B0004FEFC41AD40AE40AF40A81155AEC9507AD
:1035C0005AE9A5075BE3B507C8F02C013D012AECD9
:1035D000521A2AE9620A2BE3720AC301B201A50159
:1035E00094010E94AF24A3019201261B370B480BC4
:1035F000590BDA01C90197018601D8CF80933A06A9
:1036000090933B06A0933C06B0933D06009336068C
:10361000109337062093380630933906E0913F0621
:10362000F09140068581882339F18185843021F12C
:103630008781823029F0882341F08681811102C080
:1036400085E001C083E0818714C083E08187178211
:10365000168285899689A789B08D892B8A2B8B2B19
:1036600041F4818D928DA38DB48D858B968BA78B24
:10367000B08F80850E944715E0913F06F09140068B
:1036800085A196A1A7A1B0A5892B8A2B8B2B09F424
:1036900044C02085222309F440C081858430E9F1AB
:1036A000858D968DA78DB0A14091530450E060E0C8
:1036B00070E084179507A607B70768F4622F82E0C9
:1036C0000E947310E0913F06F0914006158E168E11
:1036D000178E10A208C0841B950BA60BB70B858F05
:1036E000968FA78FB0A3E0913F06F091400610851A
:1036F000858D968DA78DB0A1892B8A2B8B2B69F494
:10370000612F83E00E947310E0913F06F091400624
:1037100083E08187812F0E94471587E295E09D8392
:103720008C8300E61AEE312C9AEFC92ED12CE12CB5
:10373000F12C22E0222E812C912C54018394EC81D7
:10374000FD81319780818F3F09F4FFC0EC81FD81BD
:1037500034971082EC81FD81F081F983882309F48C
:1037600068C0F43009F4F1C0EC81FD8144845584D3
:10377000668477846091530470E080E090E04616A0
:1037800057066806790648F0461A570A680A790A01
:10379000448655866686778606C0EC81FD81148650
:1037A000158616861786EC81FD81408851886288CF
:1037B0007388461657066806790648F0A3019201F9
:1037C000261B370B480B590BDA01C90113C0EC81DA
:1037D000FD81208D318D428D538D621773078407D3
:1037E000950768F429013A01461A570A680A790AC6
:1037F000D301C201808B918BA28BB38B08C00E9436
:10380000AF24EC81FD81608B718B828B938BEC817B
:10381000FD8180899189A289B389892B8A2B8B2B81
:1038200041F4808D918DA28DB38D808B918BA28B75
:10383000B38BF981F33009F088C0EC81FD81848578
:103840009585A685B785892B8A2B8B2B09F06AC0B5
:10385000DF0112978C919F01235031098823A9F031
:10386000F9018081882389F0B501A40100902F0619
:1038700004C0440F551F661F771F0A94D2F7EC81CE
:10388000FD8140875187628773871C92F9011082FE
:10389000EC81FD81A0A1B1A1408C518C628C738C14
:1038A000448D558D668D778DA130B105C9F4448B5B
:1038B000558B668B778B208280899189A289B38909
:1038C00084879587A687B78745284628472821F407
:1038D000C486D586E686F786832D0E949B1422C077
:1038E000EC81FD81448B558B668B778B1197A301FF
:1038F00092010E9494246487758786879787608BDE
:10390000718B828B938B45284628472821F4C486E7
:10391000D586E686F78644244394512CEC81FD81BC
:1039200051A240A2EC81FD8184859585A685B7854D
:103930000097A105B10549F0A80160E070E0841787
:103940009507A607B70708F48C0133942C813D81B5
:10395000255D3F4F3D832C8336E03312F0CE0E942D
:103960008A14F82E4BE28402F0011124E25EFA4F31
:10397000228520934106F0933106E0933006882398
:10398000F9F085A196A1A7A1B0A5892B8A2B8B2B35
:1039900099F0858D968DA78DB0A18A3F9105A105DF
:1039A000B10550F4A80160E070E084179507A60700
:1039B000B707E8F48C011BC00B3F1105C0F012C023
:1039C00004301105A0F0C80103978A3F910538F42F
:1039D0008C018230910558F402E010E008C00D3FE0
:1039E000110519F00AEF10E002C007EF10E0209374
:1039F0003206F0934006E0933F06009353040E9482
:103A0000C71F282F30E02F5F3F4F2017310740F0AE
:103A10000E94C71F082F10E00E5F1F4F0093530432
:103A2000F11010923306802F0E94651F6CED75E037
:103A30008A819B810E94CD1E0E94EA220F900F90E6
:103A40000F900F900F90DF91CF911F910F91FF90EA
:103A5000EF90DF90CF90BF90AF909F908F907F902E
:103A60006F905F904F903F902F900C94F522E6E678
:103A7000F6E08FEF808B83A386AB8093AF068093B5
:103A8000C2060895E6E7F6E080E090E020812F3F4F
:103A900059F423E1289FF001299FF00D1124EA59E0
:103AA000F94F91E0908B08950196739685309105BA
:103AB00069F78FEF0895853038F4E6E6F6E08089FF
:103AC000813011F4108A08958FEF08950F931F939A
:103AD000CF93DF93CDB7DEB728970FB6F894DEBF4C
:103AE0000FBECDBF082F0E94E30CCE0101960E94AD
:103AF000D81710E0CE0101960E94F01923E1209F13
:103B0000F001219FF00D1124EA59F94F6087718768
:103B10008287938704811581268137816017710719
:103B20008207930780F00081118122813381DC01BB
:103B3000CB01800F911FA21FB31F84839583A6839F
:103B4000B783178616860E94E50C28960FB6F89460
:103B5000DEBF0FBECDBFDF91CF911F910F910895B2
:103B6000CF93DF93853010F081E00AC093E1899F05
:103B7000E0011124CA59D94F98899F3F21F482E06E
:103B80000E94880E0BC00E94661D2E853F858C8585
:103B90009D858217930714F0821B01C080E0DF919E
:103BA000CF9108951F93CF93DF93853020F081E06C
:103BB0000E94880E23C093E1899FE0011124CA5915
:103BC000D94F18891F3F21F482E00E94880E17C048
:103BD0000E94661D8E859F852C853D8582179307E3
:103BE00044F00E94E50CE989FA89309739F009958B
:103BF00005C001969F878E8711E001C01FEF812FBE
:103C0000DF91CF911F9108958F929F92AF92BF92B3
:103C1000CF92DF92EF92FF920F931F93CF93DF9398
:103C2000CDB7DEB728970FB6F894DEBF0FBECDBF75
:103C3000853008F04AC093E1899F800111240A5918
:103C4000194FF80180898F3F09F440C079016A015A
:103C5000FB0180819181A281B38189839A83AB83A7
:103C6000BC8384819581A681B7818D839E83AF8338
:103C7000B887CE0101960E94F019F8016083718324
:103C800082839383D586C48617861686CE010196D5
:103C90000E94D817CE0101960E94F019F8016087A2
:103CA00071878287938780809180A280B380DC01B6
:103CB000CB01880D991DAA1DBB1D84839583A68306
:103CC000B783F28AE18A81E001C08FEF28960FB6B0
:103CD000F894DEBF0FBECDBFDF91CF911F910F9142
:103CE000FF90EF90DF90CF90BF90AF909F908F901C
:103CF0000895000000000000000000000000000027
:103D000000000000000000000000019791F70895F6
:103D100010922101089589E0809321018DE89CE3B0
:103D20009093290180932801089510922501109203
:103D300024010895CF93DF9300D0CDB7DEB78091F3
:103D40002401909125019A83898389819A810F901A
:103D50000F90DF91CF91089510928100089581E036
:103D600080938100089583B5816083BD10928500A2
:103D7000109284000895CF93DF9300D0CDB7DEB7C3
:103D800080918400909185009A83898389819A81AA
:103D90000F900F90DF91CF910895CF92DF92EF9225
:103DA000FF92CF93DF93EC01CC0FDD1FC9378FEF6C
:103DB000D80710F0C0E0D0E06B01E12CF12CCC0E64
:103DC000DD1EE11CF11C81E0C816D104E806F104F7
:103DD00040F081E0E81AF1080E94BB1EC817D9071D
:103DE000D8F30E94BB1E8C159D05D8F3DF91CF91AF
:103DF000FF90EF90DF90CF9008951092B100E0E730
:103E0000F0E080818D7F808380818E7F8083089524
:103E10008093B2000895E0E7F0E0808183608083C2
:103E200083E08093B100089583B5826083BD1092D2
:103E3000B2001092E703109253040895CF93DF93DA
:103E40008EEF8093530480E28093B60080915304F8
:103E50008093B30083E087BB92E09093B00080939F
:103E6000B10093B5926093BD87BB84BD83B582607A
:103E700083BD1092800081E08093810010928500C4
:103E80001092840083B5826083BD83B5816083BD59
:103E900010922001C4E2D1E01982188283B58260B9
:103EA00083BD83B5816083BD0E94141F198218826F
:103EB0000E940B1F0E948B1E1092E703DF91CF918F
:103EC00008958091B3008F5F089581508093B3006F
:103ED0000895811102C0109271008FEF0895811131
:103EE00006C0109295001092940081E008958FEF23
:103EF0000895811105C080919400909195000895D6
:103F000080E090E00895811105C082E08093710007
:103F100081E008958FEF0895811135C0CB0101979D
:103F2000059710F4609352041092900088E08093FB
:103F3000910050939900409398003093E5032093AB
:103F4000E40380915204813021F4809191008160DA
:103F500011C0823021F48091910082600BC08330C7
:103F600021F480919100836005C0843031F4809108
:103F7000910084608093910008C0853031F4809175
:103F800091008560F7CF8FEF089581E008958091CB
:103F9000B20008951F920F920FB60F92112460E0A5
:103FA0008AE00E947310FFCF0F920FB60F921F92FC
:103FB0002F923F924F925F926F927F928F929F9239
:103FC000AF92BF92CF92DF92EF92FF920F931F9327
:103FD0002F933F934F935F936F937F938F939F9311
:103FE000AF93BF93CF93DF93EF93FF93A0913F06DF
:103FF000B09140060DB60D920EB60D921F92A09193
:10400000EC03B091ED031E90BEBFADBF08951F92AB
:104010000F920FB60F9211240BB60F922F933F936E
:104020004F935F936F937F938F939F93AF93BF93C0
:10403000EF93FF93E091E403F091E503309711F0E3
:10404000099504C060E08AE00E947310FF91EF912F
:10405000BF91AF919F918F917F916F915F914F91A0
:104060003F912F910F900BBE0F900FBE0F901F909E
:1040700018951F920F920FB60F9211240F900FBE3A
:104080000F901F90189504B603FE02C080E101C096
:1040900080E004B602FE06C094B79B7F94BF04B6CE
:1040A00000FE846004B601FE05C094B79D7F94BFF6
:1040B0008260089581110CC004B600FE04C094B75C
:1040C0009E7F94BF01C081E09091B000911181E08A
:1040D0000895811102C0E89A39C0813011F4E99A3B
:1040E0000895823011F4EA9A31C0833021F480912E
:1040F0006B00816029C0843021F480916B00826064
:1041000023C0853021F480916B0084601DC086300F
:1041100021F480916B00886017C0873021F4809172
:104120006B00806111C0883021F480916B00806247
:104130000BC0893021F480916B00806405C08A3007
:1041400039F480916B00806880936B0081E0089562
:104150008FEF0895811102C0E89839C0813011F4C1
:10416000E9980895823011F4E99831C0833021F440
:1041700080916B008E7F29C0843021F480916B0088
:104180008D7F23C0853021F480916B008B7F1DC013
:10419000863021F480916B00877F17C0873021F42F
:1041A00080916B008F7E11C0883021F480916B006C
:1041B0008F7D0BC0893021F480916B008F7B05C00F
:1041C0008A3039F480916B008F7780936B0081E0A7
:1041D00008958FEF0895811126C05093C80640932B
:1041E000C706611104C0809169008C7F3DC06130B9
:1041F00049F4809169008D7F809369008091690006
:10420000816032C0623049F480916900826080939D
:104210006900809169008E7F27C0633039F58091F5
:104220006900836021C0813049F55093C6064093F0
:10423000C506611104C080916900837F15C061309B
:1042400049F480916900877F8093690080916900BB
:1042500084600AC0623061F4809169008860809354
:104260006900809169008B7F8093690081E00895E7
:104270006330E1F7809169008C60F6CF823031F5D0
:104280005093CA064093C906611104C08091690029
:104290008F7CEACF613049F4809169008F7D8093F3
:1042A0006900809169008061DFCF623049F48091BC
:1042B0006900806280936900809169008F7ED4CF0D
:1042C0006330A1F6809169008063CECF835088303F
:1042D00050F4809168008160809368005093CC0610
:1042E0004093CB06C3CF8FEF08951F920F920FB666
:1042F0000F9211240BB60F922F933F934F935F931E
:104300006F937F938F939F93AF93BF93EF93FF939D
:10431000E091CB06F091CC06309711F0099504C0DE
:1043200060E08AE00E947310FF91EF91BF91AF911E
:104330009F918F917F916F915F914F913F912F91BD
:104340000F900BBE0F900FBE0F901F9018951F92ED
:104350000F920FB60F9211240BB60F922F933F932B
:104360004F935F936F937F938F939F93AF93BF937D
:10437000EF93FF93E091C706F091C806309711F0D4
:10438000099504C060E08AE00E947310FF91EF91EC
:10439000BF91AF919F918F917F916F915F914F915D
:1043A0003F912F910F900BBE0F900FBE0F901F905B
:1043B00018951F920F920FB60F9211240BB60F9201
:1043C0002F933F934F935F936F937F938F939F931D
:1043D000AF93BF93EF93FF93E091C506F091C606AC
:1043E000309711F0099504C060E08AE00E947310D4
:1043F000FF91EF91BF91AF919F918F917F916F91BD
:104400005F914F913F912F910F900BBE0F900FBE78
:104410000F901F9018951F920F920FB60F921124B4
:104420000BB60F922F933F934F935F936F937F93AE
:104430008F939F93AF93BF93EF93FF93E091C90640
:10444000F091CA06309711F0099504C060E08AE047
:104450000E947310FF91EF91BF91AF919F918F9147
:104460007F916F915F914F913F912F910F900BBE74
:104470000F900FBE0F901F901895A8959FB7F894B6
:1044800084B7877F84BFE0E6F0E080818861808325
:1044900010829FBF08959FB7F894A89584B7877F2F
:1044A00084BFE0E6F0E08081886180838DE08083D6
:1044B0009FBF089504B603FE02C08FEF089581E008
:1044C0000895A8950895089583B7817F866083BF76
:1044D00083B7816083BF889583B78E7F83BF08953C
:1044E00083B7817F83BF83B7816083BF889583B79C
:1044F0008E7F83BF0895FC01768365830895EF92D4
:10450000FF920F931F93CF93DF938C017B01EA01FE
:104510004032510518F481E10E9465102197CE0DBB
:10452000DF1DF801D283C183F482E382DF91CF9152
:104530001F910F91FF90EF90089525E5FA012083D8
:10454000FB013297908331968083339711821082DA
:104550003297118210823297118210823297118223
:104560001082329711821082329711821082329714
:10457000118210823297118210823297118210823A
:1045800032971182108232971182108232971182F3
:1045900010823297118210823297118210823297E4
:1045A00011821082329711821082CB018497FC0114
:1045B00011821082089585E58093FE3FEEEFF1E4CD
:1045C000F093ED03E093EC0383E89EE09083809307
:1045D000FF41089583E89EE09093FE418093FF4160
:1045E00008950E941E1F0C94E50CA0913006B09116
:1045F0003106CD91CDBFDD91DEBFFF91EF91DF910F
:10460000CF91BF91AF919F918F917F916F915F916A
:104610004F913F912F911F910F91FF90EF90DF905D
:10462000CF90BF90AF909F908F907F906F905F9052
:104630004F903F902F901F900F900FBE0F901895A6
:104640000E94800880E190E00E94040C0E94EA0C25
:1046500010925B0484E6809358048EEE93E090936E
:104660005A04809359040E94810220E030E04FEF09
:104670005FEF6DE084E594E00E94DC0285E392E068
:104680000E94D2028DE392E00E94D7020E944C0366
:1046900083E992E00E940726FFCF6F927F928F926C
:1046A0009F92AF92BF92CF92DF92EF92FF920F93C1
:1046B0001F93CF93DF93CDB7DEB72C970FB6F89447
:1046C000DEBF0FBECDBF6C015B017A01FC0117821A
:1046D0001682838181FF0EC1CE0101964C01F60145
:1046E0000381F50103FD159103FF11915F01112372
:1046F00009F4FCC0153249F403FD159103FF119133
:104700005F01153211F020E01BC0B601812F90E04F
:104710000E94B52537017301E2CF112309F4E6C0E9
:10472000612F70E087E194E02C870E9448252C855A
:10473000892B49F0F50103FD159103FF11915F01EC
:1047400027FFEBCF09C0133229F01C3609F0D5C082
:104750002068F0CF20E1EECF022F112309F4C6C06C
:10476000612F70E080E194E02C870E9448252C8521
:10477000892B41F03701F4E06F0E711CB6018FE315
:1047800090E011C0133639F0133781F0133519F565
:10479000022F01600BC0370182E0680E711CB60168
:1047A000F701808191810E94B525B5CF3701F2E0F4
:1047B0006F0E711CF701E080F180F70100FD85911B
:1047C00000FF81917F01882309F4A5CFB60190E015
:1047D0000E94B525F2CF143611F0193629F53701AC
:1047E00027FF09C0F4E06F0E711CF7016081718131
:1047F000828193810AC0F2E06F0E711CF701608123
:104800007181882777FD8095982F022F0F7E97FF63
:1048100008C090958095709561957F4F8F4F9F4F01
:1048200000642AE030E033C0103799F040F41835C6
:10483000B1F01F3609F05AC028E030E014C0153737
:1048400019F0183741F052C0022F0F7E2AE030E0F5
:104850000AC0022F0061046220E130E004C0022F90
:10486000046020E132E0370107FF09C0F4E06F0E79
:10487000711CF701608171818281938108C0F2E02F
:104880006F0E711CF7016081718180E090E0A401DE
:104890000E946726182F181906FF05C0B6018DE281
:1048A00090E00E94B52504FF15C0FE01E10FF11D47
:1048B0008081803379F0B60180E390E00E94B525D5
:1048C00002FF08C00072802F90E0B601885A9F4F07
:1048D0000E94B5251150F401E10FF11D8081B60150
:1048E00090E00E94B5251111F5CF15CFF601868114
:1048F000978105C08FEF9FEF02C0022F31CF2C961A
:104900000FB6F894DEBF0FBECDBFDF91CF911F91E0
:104910000F91FF90EF90DF90CF90BF90AF909F905E
:104920008F907F906F9008950E943925A59F900DDC
:10493000B49F900DA49F800D911D11240895DB015B
:104940008F939F930E949424BF91AF91A29F800D5B
:10495000911DA39F900DB29F900D11240895A1E287
:104960001A2EAA1BBB1BFD010DC0AA1FBB1FEE1FE9
:10497000FF1FA217B307E407F50720F0A21BB30B34
:10498000E40BF50B661F771F881F991F1A9469F7B0
:1049900060957095809590959B01AC01BD01CF010C
:1049A0000895689401C0E8948F929F92CF93DF930B
:1049B0000E94DF24DF91CF919F908F9008958824EB
:1049C0009924F401E401B0E49F93AA279A158B047B
:1049D0009C04ED05FE05CF05D007A10798F4AD2F87
:1049E000DC2FCF2FFE2FE92D982C892E982F872F83
:1049F000762F652F542F432F322F2227B85031F7AF
:104A0000BF9127C01B2EBF91BB27220F331F441F0E
:104A1000551F661F771F881F991F881C991CEE1F42
:104A2000FF1FCC1FDD1FAA1FBB1F8A149B04EC05B0
:104A3000FD05CE05DF05A007B10748F08A189B08E1
:104A4000EC09FD09CE09DF09A00BB10B21601A9416
:104A5000E1F62EF49401AF01BE01CD01000C0895E2
:104A6000EE0FFF1F0024001C0BBE0790F691E02DF7
:104A70000994A29FB001B39FC001A39F700D811D37
:104A80001124911DB29F700D811D1124911D089557
:104A9000FC010590061621F00020D9F7C001089509
:104AA0003197CF010895FB01DC0102C001900D9206
:104AB00041505040D8F70895FB01DC01415050406F
:104AC00030F08D910190801919F40020B9F7881BFE
:104AD000990B08950F931F93CF93DF93009731F4B1
:104AE0006115710519F480E090E03AC08B01EC018A
:104AF0006EE070E081E090E00E94DB26FC01009710
:104B000091F380E883830115110571F01387028703
:104B100081E883838091CD069091CE06892B21F484
:104B2000F093CE06E093CD062097C9F0D187C087D9
:104B30008381826083838091CF069091D006892BF8
:104B400071F4F093D006E093CF068091D106909156
:104B5000D206892B21F4F093D206E093D106CF013F
:104B6000DF91CF911F910F9108950F931F93CF93D2
:104B7000DF93FB01238121FD03C08FEF9FEF28C04E
:104B800022FF16C046815781248135814217530781
:104B900044F4A081B1819D012F5F3F4F3183208379
:104BA0008C93268137812F5F3F4F3783268310C038
:104BB000EB01092F182F0084F185E02D0995892B31
:104BC000E1F68E819F8101969F838E83812F902FA6
:104BD000DF91CF911F910F910895CF93DF93CDB7C0
:104BE000DEB7AE014B5F5F4FFA0161917191AF018A
:104BF0008091CF069091D0060E944D23DF91CF91F6
:104C000008956091CF067091D0060C94B5250F934E
:104C10001F93CF93DF93E091CF06F091D0062381CD
:104C200021FF1BC08C01D0E0C0E0F80181918F0111
:104C30006091CF067091D006DB011896ED91FC9142
:104C40001997882331F00995892B79F3DFEFCFEF9E
:104C5000ECCF8AE00995892B19F08FEF9FEF02C006
:104C60008D2F9C2FDF91CF911F910F9108950F935E
:104C70001F93CF93DF93CDB7DEB72E970FB6F8947F
:104C8000DEBF0FBECDBF0D891E8986E08C831A83DF
:104C900009838FEF9FE79E838D83AE01475E5F4F51
:104CA0006F89788DCE0101960E944D232F81388522
:104CB000F801E20FF31F10822E960FB6F894DEBFB4
:104CC0000FBECDBFDF91CF911F910F910895FA01D3
:104CD000AA27283051F1203181F1E8946F936E7F3B
:104CE0006E5F7F4F8F4F9F4FAF4FB1E03ED0B4E02C
:104CF0003CD0670F781F891F9A1FA11D680F791F6D
:104D00008A1F911DA11D6A0F711D811D911DA11D7D
:104D100020D009F468943F912AE0269F112430198D
:104D2000305D3193DEF6CF010895462F4770405D28
:104D30004193B3E00FD0C9F7F6CF462F4F70405DD7
:104D40004A3318F0495D31FD4052419302D0A9F732
:104D5000EACFB4E0A6959795879577956795BA952C
:104D6000C9F700976105710508959B01AC010A2EF2
:104D700006945795479537952795BA95C9F7620FC9
:104D8000731F841F951FA01D0895F999FECF92BD32
:104D900081BDF89A992780B50895262FF999FECFFD
:104DA0001FBA92BD81BD20BD0FB6F894FA9AF99A48
:104DB0000FBE019608950F931F93CF93DF93869FA5
:104DC0008001879F100D969F100D1124C8010E942D
:104DD000F726EC01009729F0A80160E070E00E943E
:104DE0002428CE01DF91CF911F910F910895CF9389
:104DF000DF938230910510F482E090E0E091D506D7
:104E0000F091D60620E030E0C0E0D0E0309711F11C
:104E10004081518148175907C0F04817590761F47C
:104E200082819381209719F09B838A832BC0909372
:104E3000D6068093D50626C02115310519F04217F4
:104E4000530718F49A01BE01DF01EF010280F381DC
:104E5000E02DDCCF2115310509F1281B390B243059
:104E6000310590F412968D919C91139761157105FF
:104E700021F0FB019383828304C09093D606809334
:104E8000D506FD01329644C0FD01E20FF31F819368
:104E90009193225031092D933C933AC02091D3062F
:104EA0003091D406232B41F4209112023091130249
:104EB0003093D4062093D306209110023091110232
:104EC0002115310541F42DB73EB7409114025091A0
:104ED0001502241B350BE091D306F091D406E2179E
:104EE000F307A0F42E1B3F0B2817390778F0AC010D
:104EF0004E5F5F4F2417350748F04E0F5F1F5093EA
:104F0000D4064093D3068193919302C0E0E0F0E091
:104F1000CF01DF91CF9108950F931F93CF93DF932C
:104F2000009709F48CC0FC01329713821282009121
:104F3000D5061091D6060115110581F42081318125
:104F4000820F931F2091D3063091D406281739077A
:104F500079F5F093D406E093D30671C0D80140E010
:104F600050E0AE17BF0750F412962D913C91139765
:104F7000AD012115310509F1D901F3CF9D01DA0108
:104F80003383228360817181860F971F8217930775
:104F900069F4EC0128813981260F371F2E5F3F4FBE
:104FA000318320838A819B8193838283452B29F4DB
:104FB000F093D606E093D50642C01396FC93EE9389
:104FC0001297ED01499159919E01240F351FE21767
:104FD000F30771F480819181840F951F02961196D9
:104FE0009C938E938281938113969C938E931297B8
:104FF000E0E0F0E0D80112968D919C911397009714
:1050000019F0F8018C01F6CF8D919C9198012E5FDB
:105010003F4F820F931F2091D3063091D40628175B
:10502000390769F4309729F41092D6061092D50604
:1050300002C0138212821093D4060093D306DF912C
:10504000CF911F910F910895DC0101C06D934150E4
:0A5050005040E0F70895F894FFCFF8
:10505A004315A6D93D3182F18CA74FC5999704AC67
:10506A000000D70620003D352D251D150D053D35BF
:10507A002D251D150D052E261E160E06FFFF0C04E6
:10508A003C342C241C140C043B332B231B130B3BE6
:10509A00332B231B130B03FFFFFFFFFFFFFFFF3918
:1050AA003129211911090119110901FFFFFFFFFF18
:1050BA00FFFFFFFFFFFFFF72656365697665642086
:1050CA007061636B6574210D006661696C656420AB
:1050DA00746F2072656365697665207061636B65BC
:1050EA00740D0066696E697368656420696E697417
:1050FA0069616C697A6174696F6E0D007266206EFF
:10510A006F742072656164790D007278206E6F7415
:10511A002072656164790D006C656E67746820742D
:10512A006F6F2067726561740D00696E636F7272CA
:10513A00656374206C656E6774682073657474693E
:10514A006E6720696E2072662073657474696E6773
:10515A00730D0072665F72785F7061636B65745F6E
:10516A006E6F6E626C6F636B206661696C65645DFD
:10517A000D005061636B657420697320646F6E65FE
:10518A0020626F756E63696E672061726F756E64F7
:10519A00210D0A005345513A2534750954544C3AA5
:1051AA0025326409525353493A25346409506179C6
:1051BA006C6F61643A205B25735D0D0A00525820BA
:1051CA00656E64206661696C656420636865636BFB
:1051DA0073756D210D002564006375723A2025648C
:1051EA00200063616E617279203D2025782000736A
:1051FA00746B203D2025782000746362206164640A
:10520A0072203D2025780D0A0025643A20626F74C9
:0A521A00746F6D203D202578200000
:00000001FF
