:100000000C9460020C94A0300C94D2300C94043107
:100010000C947F020C947F020C947F020C947F025C
:100020000C947F020C946E300C947F020C947F022F
:100030000C947F020C94CD2E0C947F020C94CD2E48
:100040000C947F020C947F020C947F020C947F022C
:100050000C947F020C947F020C947F020C947F021C
:100060000C947F020C9443180C947F020C947F0232
:100070000C947F020C947F020C947F020C947F02FC
:100080000C94002F0C947F020C947F020C947F023E
:100090000C947F020C947F020C947F020C947F02DC
:1000A0000C947F020C947F020C947F020C947F02CC
:1000B0000C947F020C947F020C947F020C947F02BC
:1000C0000C947F020C947F020C947F020C947F02AC
:1000D0000C947F020C947F020C947F020C947F029C
:1000E0000C947F020C9463160C9454160C942416F2
:1000F0000C9414170C9415160C9406160C94F41505
:100100000C94E5150C947F020C947F020C947F02F2
:100110000C947F020C947F020C947F020C947F025B
:1001200022192F193C194919561963197019931975
:10013000A119AF19BD19CB19D919E7190A1A0C1A47
:100140000E1A101A121A141A161A351A581A7C1A7C
:100150009F1AC21AE51A081B421B4F1B5C1B691B26
:10016000761B831B901BA91BB61BC31BD01BDD1B5F
:10017000EA1BF71B771F7D1F801F831F861F891FA8
:100180008F1F8C1F921F951F981FA11FA41FA71FB1
:10019000AA1F9E1F741F7A1FAD1FB01F9B1F711FC8
:1001A0007E2081208C2091209820A120A420A920AD
:1001B000B020B920464C415348204552524F523A44
:1001C000206372656174696E672072652D74726157
:1001D0006E736D6974207369676E616C2066616906
:1001E0006C65640D0A00776F6B652075702064750F
:1001F0006520746F2077726F6E67207369676E6118
:100200006C0D0A006661696C656420746F2072650C
:10021000676973746572207061636B6574207478AC
:10022000207369676E616C006661696C6564207437
:100230006F207265676973746572207061636B65A6
:1002400074207278207369676E616C0075617274D6
:1002500020727820736967206661696C65640D0A95
:1002600000554E4B4F574E0045787465726E616C69
:100270002052657365740042726F776E204F7574FB
:1002800020446574656374004661696C656420741C
:100290006F206372656174652053656D6170686F6E
:1002A0007265004661696C656420746F20637265D5
:1002B000617465205369676E616C004B65726E6591
:1002C0006C2066756E6374696F6E206E6F74206942
:1002D0006D706C656D656E74656400446576696308
:1002E0006520447269766572204572726F7200579C
:1002F00061746368646F672052657374617274001F
:100300005357205761746368646F67205265737434
:100310006172740054696D6572204F766572666C07
:100320006F7700556E68616E646C656420496E7409
:1003300065727275707420566563746F72004C6FCD
:100340007720566F6C746167650045787472612020
:100350005461736B20737461727465642C206973CB
:10036000206E726B5F6366672E68206F6B3F00497B
:10037000646C65206F72204B65726E656C205374DF
:1003800061636B204F766572666C6F7700556E65A2
:10039000787065637465642052657374617274006B
:1003A0004475706C696361746564205461736B207B
:1003B0004944005363686564756C6572204D6973C8
:1003C0007365642057616B657570005461736B20B1
:1003D000526573657276652056696F6C61746564E9
:1003E0000052657365727665204572726F7220697E
:1003F0006E205363686564756C657200496E766142
:100400006C696420537461636B20506F696E74650E
:1004100072005461736B20537461636B204F766577
:1004200072666C6F7700537461636B207761732021
:100430006E6F7420646566696E6564206173206CFC
:100440006172676520656E6F75676821005461731E
:100450006B20706572696F6420746F6F206C6172BD
:1004600067652E20506572696F64206D7573742006
:100470006265206C657373207468616E203631206C
:100480007365636F6E64732E00293A20002A4E5202
:100490004B204552524F5228000D0A535441434BB2
:1004A0002044554D500D0A004546476566670020BB
:1004B0002B2D2E3031323334353637383968000041
:1004C00011241FBECFEFD1E4DEBFCDBF14E0A0E00A
:1004D000B2E0ECE3F1E700E00BBF02C007900D9241
:1004E000A634B107D9F71BE0A6E4B4E001C01D9221
:1004F000A931B107E1F70E9419320C949C380C9491
:10050000C32E87E692E00E94783680E090E00E9459
:10051000BD0EFBCFCF93DF93C2E4D8E081E892E039
:100520009E838D8340E051E06DE377E0CE010E9431
:10053000783182E0888781E08F8389878A878AE0A3
:1005400090E0A0E0B0E08B879C87AD87BE871F86D8
:10055000188A198A1A8A1B8A1C8A1D8A1E8A1F8A6F
:10056000188E198E1A8E1B8E1C8E1D8E1E8E1F8E3F
:1005700018A219A21AA2CE01DF91CF910C94F225F4
:100580002F923F924F925F926F927F928F929F92A3
:10059000AF92BF92CF92DF92EF92FF920F931F9391
:1005A000CF93DF93EC014B01FB016081718182816C
:1005B000938120E03AEC4AE95BE30E947534F40150
:1005C00044805580668077801201230151016201C9
:1005D000E12CF12C00E010E00E94783520936209B4
:1005E00030936309409364095093650960936609E9
:1005F000709367098093680990936909788169818C
:100600005A814B813C812D819E818F8170937C0921
:1006100060937D0950937E0940937F093093800950
:10062000209381099093820980938309DF91CF9170
:100630001F910F91FF90EF90DF90CF90BF90AF9000
:100640009F908F907F906F905F904F903F902F90F2
:1006500008951F93CF93DF93182FC62FD42F809127
:10066000860990918709009711F00E94C224612F9A
:1006700081E00E94AE2390938709809386098D2F95
:100680000E949711C0938409109274091092750901
:1006900010927609109277091092780910927909D0
:1006A00010927A0910927B09109288091092890998
:1006B00010928A0910928B0910928C0910928D0960
:1006C00010928E0910928F091092F2081092F3087E
:1006D0001092F4081092F5081092F6081092F7089C
:1006E0001092F8081092F90810926A0910926B099A
:1006F00010926C0910926D0910926E0910926F0998
:10070000109270091092710981E08093670810922D
:1007100068081092690810926A0810926B0810928B
:100720006C0810926D0810926E08109234071092A7
:10073000350710923607109237071092380710923B
:10074000390710923A0710923B078FEF8093FA080F
:100750008093FB088093FC088093FD088093FE083B
:100760008093FF08809300098FE78093010910921E
:10077000850910927209DF91CF911F910C944C1250
:100780008093840908952F923F924F925F926F92C7
:100790007F928F929F92AF92BF92CF92DF92EF9211
:1007A000FF920F931F93CF93DF93CDB7DEB72897B8
:1007B0000FB6F894DEBF0FBECDBF0CED1AE0F80106
:1007C000608171818281938120E03AEC4AE95BE3A8
:1007D0000E947534F801448055806680778012014C
:1007E000230151016201E12CF12C00E010E00E9494
:1007F000783529013A014B011C010E94932D8C018F
:1008000020E030E089832B833C839C014B815C8119
:1008100060E070E080E090E006E00E944135A98051
:10082000B12ECB80DC8000E010E00E9481355901C0
:100830006A017B018C019201A301B401C1010E94F4
:10084000783529013A014B011C010E94C02EE82F86
:10085000282F30E040E050E060E070E080E090E081
:1008600006E00E944135AE2EB12CC12CD12CE12CDA
:10087000F12C00E010E00E94813501E00E9441353A
:1008800000E00E94813559016A017B01F82F192F80
:1008900005E00E9441350F2F0E94813502E00E9441
:1008A0004135AE2EB12CC12CD12CE12CF12C00E025
:1008B00010E00E94783559016A017B01E82F192F59
:1008C00006E00E9441350E2F0E94813559016A01D0
:1008D0007B018C019201A301B401C1010E94783512
:1008E00028960FB6F894DEBF0FBECDBFDF91CF9133
:1008F0001F910F91FF90EF90DF90CF90BF90AF903E
:100900009F908F907F906F905F904F903F902F902F
:1009100008956F927F928F929F92AF92BF92CF92E3
:10092000DF92EF92FF920F931F93CF93DF93EB0130
:1009300080918409882359F00E94C3032883398356
:100940004A835B836C837D838E839F8335C00E9443
:10095000C30339014A01B62FA72FF82FE92F2881A9
:1009600039814A815B816C817D818E819F81A090DC
:100970006209B0906309C0906409D0906509E09065
:100980006609F090670900916809109169090E9451
:10099000813553016401EB2EFA2E0F2F1E2F0E947A
:1009A0007835288339834A835B836C837D838E8388
:1009B0009F8381E080937309DF91CF911F910F9105
:1009C000FF90EF90DF90CF90BF90AF909F908F906F
:1009D0007F906F9008952F923F924F925F926F9207
:1009E0007F928F929F92AF92BF92CF92DF92EF92BF
:1009F000FF920F931F93CF93DF93CDB7DEB7289766
:100A00000FB6F894DEBF0FBECDBF29833A834B8368
:100A10005C836D837E838F83988769817A818B81E4
:100A20009C8120E03AEC4AE95BE30E9475344D80FA
:100A30005E806F8078841201230151016201E12CF4
:100A4000F12C00E010E00E94783528960FB6F8945B
:100A5000DEBF0FBECDBFDF91CF911F910F91FF90F1
:100A6000EF90DF90CF90BF90AF909F908F907F904E
:100A70006F905F904F903F902F9008952F923F92EC
:100A80004F925F926F927F928F929F92AF92BF929E
:100A9000CF92DF92EF92FF920F931F93CF93DF934A
:100AA000CDB7DEB728970FB6F894DEBF0FBECDBF27
:100AB00019012A014C01A12C8AECB82E9AE9C92E01
:100AC0002BE3D22EE12CF12C00E010E09101C401C7
:100AD0000E941034E22F3A834B835C8360E07AEC0F
:100AE0008AE99BE30E949733A2019101261B370BF1
:100AF000480B590BDA01C9012D833E834F83588778
:100B00002E2F3A814B815C81682F7E818F81988561
:100B100028960FB6F894DEBF0FBECDBFDF91CF9100
:100B20001F910F91FF90EF90DF90CF90BF90AF900B
:100B30009F908F907F906F905F904F903F902F90FD
:100B400008952F923F924F925F926F927F928F9271
:100B50009F92AF92BF92CF92DF92EF92FF920F934C
:100B60001F93CF93DF93CDB7DEB7C955D1090FB629
:100B7000F894DEBF0FBECDBF2D8F3E8F4F8F58A391
:100B800069A37AA38BA39CA32996AFAE29972A9633
:100B9000BFAE2A972B96CFAE2B972C96DFAE2C9715
:100BA0002D96EFAE2D972E96FFAE2E972F960FAF68
:100BB0002F9760961FAF60972090850983E0F82EED
:100BC000F21408F023948091720990E001969C0140
:100BD0002370332721963FAF2EAF219788E1829F64
:100BE000F001839FF00D1124EE5FF64F9F01285F07
:100BF0003F4F60856983D9011196BC91BE83D901AD
:100C00001296BC91BF83D9011396BC91B887D901C4
:100C100014964C90149715965C90159716966C90B8
:100C2000169717967C90208131814281538164818F
:100C3000758186819781A980BE80CF80D88472011A
:100C400083010E948135298F3A8F4B8F5C8F6DA372
:100C50007EA38FA398A729962FAD29972A963FADFB
:100C60002A972B964FAD2B972C965FAD2C972D96F0
:100C70006FAD2D972E967FAD2E972F968FAD2F9718
:100C800060969FAD6097AD8CBE8CCF8CD8A0E9A04C
:100C9000FAA00BA11CA10E94813529A722963FAF83
:100CA000229723964FAF239724965FAF24972596DC
:100CB0006FAF259726967FAF269727968FAF2797FA
:100CC00028969FAF289780918609909187090E9466
:100CD0000524B0918809BA83E0918909EB83F091EA
:100CE0008A09FC83F0908B09FD8220918C09298769
:100CF00030918D093A8760918E096B8770918F09C9
:100D00007C87809174098D87909175099E87A09149
:100D10007609AF87B0917709B88BE0917809E98BB4
:100D2000F0917909FA8BF0907A09FB8A20917B097E
:100D30002C8B20918509AA80BB80CC80DD80E98442
:100D4000F32E8B0130E040E050E060E070E080E0A6
:100D500090E00E941C3428AB39AB49AF5AAF6BAF5F
:100D60007CAF8DAF9EAF2D8D3E8D4F8D58A169A16B
:100D70007AA18BA19CA1A980BE80CF80D88472016A
:100D800083010E9481352D8B3F8B4AA75BA76CA7FF
:100D90007DA78EA79FA72D8D3E8D4F8D58A169A150
:100DA0007AA18BA19CA10E94783503E00E945C355A
:100DB0004901E42F352EB62FA72F8AABF92F2D89A5
:100DC0003F894AA55BA56CA57DA58EA59FA50E9420
:100DD0005C3559016A017B018C0194014E2F532D22
:100DE0006B2F7A2F8AA99F2F0E941C34A09067082E
:100DF000B0906808C0906908D0906A08E0906B08CD
:100E0000F0906C0800916D0810916E080E94783582
:100E10002AAB3BAB4A0164966FAF649761967FAF94
:100E200061978CAB9DAB2D853E854F85588969892F
:100E30007A898B899C8901E00E944135A8A8B9A8CC
:100E4000C9ACDAACEBACFCAC0DAD1EAD0E9481358B
:100E500003E00E945A35E22F332EF42F58AFB62FFD
:100E6000A72F62968FAF629763969FAF63972A8191
:100E70003B814C815D8169857A858B859C850E944B
:100E80005C3559016A017B018C012E2F332D4F2FC8
:100E900058AD6B2F7A2F62968FAD629763969FAD98
:100EA00063970E941C3459016A017B018C012AA9B5
:100EB0003BA9A40164966FAD649761967FAD61977D
:100EC0008CA99DA90E94783561962FAF6197629693
:100ED0003FAF629763964FAF639764965FAF649737
:100EE00065966FAF659766967FAF669767968FAF8B
:100EF000679768969FAF68973091F2083AAB609118
:100F0000F3086BAB7091F4087CAB8091F5088DAB66
:100F10009091F6089EABA091F708AFABB091F8089E
:100F2000B8AF3090F908AA80BB80CC80DD80E9841E
:100F3000FA840B851C85232F362F472F582F692FB6
:100F40007A2F8B2F932D0E941C34A0903407B090E1
:100F50003507C0903607D0903707E0903807F090FB
:100F6000390700913A0710913B070E9478352A8390
:100F70003B834C835D834B018A879987A980BE8020
:100F8000CF80D88472018301298D3A8D4B8D5C8D81
:100F90006DA17EA18FA198A50E941C3459016A0100
:100FA0007B018C012A813B814C815D81B4018A8562
:100FB00099850E94813529013A014B018A839983E1
:100FC0002D853E854F85588969897A898B899C89C9
:100FD000A8A8B9A8C9ACDAACEBACFCAC0DAD1EADA1
:100FE0000E948135A0906A09B0906B09C0906C098D
:100FF000D0906D09E0906E09F0906F090091700932
:10100000109171090E941C3459016A017B018C0105
:101010009201A301B4018A8199810E947835290146
:101020003A014B018A839983AD8CBE8CCF8CD8A0BA
:10103000E9A0FAA00BA11CA129A522963FAD2297F9
:1010400023964FAD239724965FAD249725966FADD9
:10105000259726967FAD269727968FAD27972896BA
:101060009FAD28970E941C3459016A017B018C01B5
:101070009201A301B4018A8199810E94783529AF38
:101080003AAF4BAF5CAF6DAF7EAF69968FAF6997EC
:101090006A969FAF6A972D893F894AA55BA56CA583
:1010A0007DA58EA59FA5AD84BE84CF84D888E98810
:1010B000FA880B891C890E94783529833E834F83E7
:1010C00058876A837B838C839D8320937409309334
:1010D0007509E42F40937609F52F509377096093B3
:1010E00078097093790980937A0990937B09A22CEF
:1010F000B12CC12CD12CE12CF12C00E010E0AF017F
:101100000E941034052F7B01F82FE92F822D869540
:10111000682F70E07E8B6D8B822D90E0988F8F8B87
:101120008981229E80191124680F711D87FD7A958F
:10113000CB016F89788D0E94A7335B011B2D110FA6
:10114000110B502FB7018F2F9E2FC12ED12EE12EC4
:10115000F12E012F0E94783529873A874B875C87CB
:101160002B013C01209388093093890940938A0917
:1011700050938B0940928C0950928D0960928E0990
:1011800070928F09A22CB12CC12CD12CE12CF12C06
:1011900000E010E0B201C3010E941C344901FA01D1
:1011A000B62FA72F8E879F8729813E814F81588533
:1011B0006A817B818C819D8101E00E9441355901CA
:1011C0006A017B018C019401AF016B2F7A2F8E8510
:1011D0009F850E9481352AA73BA74CA75DA76EA7D4
:1011E0007FA788AB99AB03E00E945A354901FA0109
:1011F000B62FA72F8E879F8729853A854B855C85DB
:10120000B201C3010E945C3559016A017B018C0166
:101210009401AF016B2F7A2F8E859F850E941C341D
:1012200059016A017B018C0161962FAD619762962D
:101230003FAD629763964FAD639764965FAD6497D9
:1012400065966FAD659766967FAD669767968FAD2D
:10125000679768969FAD68970E9478352D873E877F
:101260004F87588B698B7A8B8B8B9C8B209367086D
:10127000309368084093690850936A0860936B083C
:1012800070936C0880936D0890936E0829A5229640
:101290003FAD229723964FAD239724965FAD2497B9
:1012A00025966FAD259726967FAD269727968FAD0D
:1012B000279728969FAD2897A98CBA8CCB8CDC8C6D
:1012C000EDA0FEA00FA118A50E94813559016A0169
:1012D0007B018C012AA93BA94CA95DA96EA97FA914
:1012E00088AD932D0E9478352BAB332E498F5A8FC2
:1012F0006B8F7C8F4C012093F2083093F308F42F0E
:101300004093F4085093F5086093F6087093F7083B
:101310008093F8089092F908A22CB12CC12CD12C02
:10132000E12CF12C00E010E04F2FC4010E94DF33CC
:10133000D52E7B01082FC92E8BA9229E801911243E
:101340006D897E89680F711D87FD7A95CB016F8944
:10135000788D0E94A7335B011B2D110F110B5D2DA2
:10136000B701802F9C2DC12ED12EE12EF12E012F01
:101370000E9478352AAB3D8B4F8B5DA36EA37FA374
:1013800088A799A720936A0930936B0940936C0949
:1013900050936D0960936E099FA190936F09A8A562
:1013A000A0937009B9A5B0937109ABA8B32CC98CEF
:1013B000DA8CEB8CFC8C840129853A854B855C8525
:1013C000B201C3010E941C3459016A017B018C01E6
:1013D00029AD3AAD4BAD5CAD6DAD7EAD69968FADCF
:1013E00069976A969FAD6A970E948135322E432E87
:1013F000542E652E762E872E982E99872AA53BA5EA
:101400004CA55DA56EA57FA588A999A9A980BE80D8
:10141000CF80D884EA80FB800C811D810E947835C2
:10142000AAA8BD88CF88DDA0EEA0FFA008A519A5B9
:101430000E941C3459016A017B018C01232D342D3B
:10144000452D562D672D782D892D99850E9478354B
:1014500059016A017B018C0120933407B092350752
:1014600040933607D092370760933807F0923907D8
:1014700080933A0710933B07EFADE09372092092F7
:101480008509A0E00E948A3589F48FEF8093FA08DD
:101490008093FB088093FC088093FD088093FE08EE
:1014A0008093FF08809300098FE733C02D853E8528
:1014B0004F85588969897A898B899C89A0E00E9427
:1014C0008A3551F59501A601B701C8010E948A35F8
:1014D00009F04CF47FEF6FEF5FEF4FEF3FEF2FEF2F
:1014E0009FEF8FEF08C071E060E050E040E030E037
:1014F00020E090E080E07093FA086093FB0850933E
:10150000FC084093FD083093FE082093FF08909359
:101510000009809301093AC09501A601B701C801ED
:10152000A0E00E948A3571F06CF02D853E854F85D4
:10153000588969897A898B899C890E9410340E9414
:10154000F13414C09501A601B701C8010E94F1341D
:1015500059016A017B018C012D853E854F85588993
:1015600069897A898B899C890E9410342093FA08B2
:101570003093FB084093FC085093FD086093FE08ED
:101580007093FF0880930009909301097091FA0805
:101590006091FB085091FC084091FD083091FE08D5
:1015A0002091FF08909100098091010918E121968E
:1015B000AEADBFAD21971A9FF0011B9FF00D112416
:1015C000EE5FF64F2996BFAD2997B0832A96FFAC00
:1015D0002A97F1822B96AFAD2B97A2832C96BFADA5
:1015E0002C97B3832D96FFAC2D97F4822E96AFAD3A
:1015F0002E97A5832F96BFAD2F97B6836096FFAC2D
:101600006097F7828F01085F1F4FAD8DA087FE8C1A
:10161000D8011196FC921197FF8C1296FC921297AA
:10162000F8A01396FC921397F9A01496FC921497C5
:10163000FAA01596FC921597FBA01696FC921697A9
:10164000FCA01796FC9217971896708B11966C93C6
:10165000119712965C93129713964C9313971496C6
:101660003C93149715962C93159716969C93169762
:1016700017968C938091860990918709C75ADF4FFE
:101680000FB6F894DEBF0FBECDBFDF91CF911F9193
:101690000F91FF90EF90DF90CF90BF90AF909F9011
:1016A0008F907F906F905F904F903F902F900C9411
:1016B000642481E090918509943009F080E00895D8
:1016C0002F923F924F925F926F927F928F929F9252
:1016D000AF92BF92CF92DF92EF92FF920F931F9340
:1016E000CF93DF93CDB7DEB72A970FB6F894DEBF5E
:1016F0000FBECDBF9A8789870E94C30319012A01B3
:101700003B014C0180918609909187090E94052434
:101710009101A201B301C401A0906A09B0906B09C4
:10172000C0906C09D0906D09E0906E09F0906F093F
:1017300000917009109171090E94783529833A83CC
:101740004B835C836D837E838F8398879101A20195
:10175000B301C401A0908809B0908909C0908A099A
:10176000D0908B09E0908C09F0908D0900918E0942
:1017700010918F090E948135A0903407B0903507F1
:10178000C0903607D0903707E0903807F0903907BF
:1017900000913A0710913B070E941C34A090670803
:1017A000B0906808C0906908D0906A08E0906B0813
:1017B000F0906C0800916D0810916E080E94103432
:1017C00006E00E945C3559016A017B018C01298188
:1017D0003A814B815C816D817E818F8198850E94E9
:1017E000783519012A013B014C01A12C8AECB82E55
:1017F0009AE9C92E2BE3D22EE12CF12C00E010E067
:101800009101A201B301C4010E941034E985FA8557
:10181000208331834283538360E07AEC8AE99BE33F
:101820000E949733A2019101261B370B480B590BDD
:101830002483358346835783809186099091870955
:101840002A960FB6F894DEBF0FBECDBFDF91CF91C1
:101850001F910F91FF90EF90DF90CF90BF90AF90CE
:101860009F908F907F906F905F904F903F902F90C0
:101870000C9464242F923F924F925F926F927F92CA
:101880008F929F92AF92BF92CF92DF92EF92FF9290
:101890000F931F93CF93DF93CDB7DEB72A970FB681
:1018A000F894DEBF0FBECDBF4C017A876987FC017B
:1018B000608171818281938120E03AEC4AE95BE3A7
:1018C0000E947534F401448055806680778012014F
:1018D000230151016201E12CF12C00E010E00E9493
:1018E000783519012A013B014C01809186099091BC
:1018F00087090E9405249101A201B301C401A090AF
:101900006A09B0906B09C0906C09D0906D09E090A5
:101910006E09F0906F0900917009109171090E9491
:10192000783529833A834B835C836D837E838F83F1
:1019300098879101A201B301C401A0908809B090D9
:101940008909C0908A09D0908B09E0908C09F090A9
:101950008D0900918E0910918F090E948135A09008
:101960003407B0903507C0903607D0903707E09025
:101970003807F090390700913A0710913B070E9411
:101980001C34A0906708B0906808C0906908D09097
:101990006A08E0906B08F0906C0800916D08109157
:1019A0006E080E94103406E00E945C3559016A01FD
:1019B0007B018C0129813A814B815C816D817E8123
:1019C0008F8198850E94783519012A013B014C01CD
:1019D000A12C8AECB82E9AE9C92E2BE3D22EE12C49
:1019E000F12C00E010E09101A201B301C4010E94BA
:1019F0001034E985FA85208331834283538360E084
:101A00007AEC8AE99BE30E949733A2019101261B9D
:101A1000370B480B590B24833583468357838091BA
:101A20008609909187092A960FB6F894DEBF0FBEFB
:101A3000CDBFDF91CF911F910F91FF90EF90DF907D
:101A4000CF90BF90AF909F908F907F906F905F905E
:101A50004F903F902F900C9464242F923F924F927E
:101A60005F926F927F928F929F92AF92BF92CF922E
:101A7000DF92EF92FF920F931F93CF93DF9300D0EB
:101A800000D000D0CDB7DEB77E836D83FC0120810E
:101A900031814281538129833A834B835C838481E2
:101AA0009581A681B7812C013D0180918609909195
:101AB00087090E9405249201A30160E070E080E0A4
:101AC00090E0A0906A09B0906B09C0906C09D0902A
:101AD0006D09E0906E09F0906F0900917009109106
:101AE00071090E94813559016A011B014C0169810C
:101AF0007A818B819C8120E03AEC4AE95BE30E9489
:101B00007534B22FA32FF42FE52F7B018C019501A3
:101B1000A601B101C401AB2EBA2ECF2EDE2E0E943B
:101B2000783519012A013B014C01A0908809B09039
:101B30008909C0908A09D0908B09E0908C09F090B7
:101B40008D0900918E0910918F090E948135A09016
:101B50003407B0903507C0903607D0903707E09033
:101B60003807F090390700913A0710913B070E941F
:101B70001C34A0906708B0906808C0906908D090A5
:101B80006A08E0906B08F0906C0800916D08109165
:101B90006E080E94103406E00E945C3559016A010B
:101BA0007B018C019101A201B301C4010E94813526
:101BB00019012A013B014C01A12C8AECB82E9AE9AB
:101BC000C92E2BE3D22EE12CF12C00E010E0910184
:101BD000A201B301C4010E941034ED81FE81208373
:101BE00031834283538360E07AEC8AE99BE30E946D
:101BF0009733A2019101261B370B480B590B248305
:101C0000358346835783809186099091870926966C
:101C10000FB6F894DEBF0FBECDBFDF91CF911F91FD
:101C20000F91FF90EF90DF90CF90BF90AF909F907B
:101C30008F907F906F905F904F903F902F900C947B
:101C400064242F923F924F925F926F927F928F9275
:101C50009F92AF92BF92CF92DF92EF92FF920F933B
:101C60001F93CF93DF934C01EB01FC0160817181E5
:101C70008281938120E03AEC4AE95BE30E9475346B
:101C8000F401448055806680778012012301510160
:101C90006201E12CF12C00E010E00E94783519017E
:101CA0002A013B014C0180918609909187090E948D
:101CB00005242091FA083091FB084091FC085091CE
:101CC000FD086091FE087091FF08809100099091D5
:101CD000010906E00E94413559016A017B018C012E
:101CE0009101A201B301C4010E94103451016201AB
:101CF000730184010E94783519012A013B014C01CE
:101D0000A12C8AECB82E9AE9C92E2BE3D22EE12C15
:101D1000F12C00E010E09101A201B301C4010E9486
:101D20001034288339834A835B8360E07AEC8AE944
:101D30009BE30E949733A2019101261B370B480BAE
:101D4000590B2C833D834E835F838091860990914C
:101D50008709DF91CF911F910F91FF90EF90DF9056
:101D6000CF90BF90AF909F908F907F906F905F903B
:101D70004F903F902F900C946424AF92BF92CF92DB
:101D8000DF92EF92FF920F931F93CF93DF93CDB724
:101D9000DEB728970FB6F894DEBF0FBECDBF8C011B
:101DA000809184098823B1F08BE892E00E94783614
:101DB00019821A821B821C821D821E821F82188633
:101DC00089E894E00E94091168E0CE0101960E9422
:101DD000E01089C080EA92E00E9478361092730980
:101DE000809133070E94D12289E894E00E94091172
:101DF00040EC52E0B80180E10E94EF1181E090E0F8
:101E0000A0E0B0E0BC01CD010090330704C0660F34
:101E1000771F881F991F0A94D2F70E94742380911C
:101E20007309882309F45FC080917F098F938091A3
:101E30007E098F9380917D098F9380917C098F9388
:101E4000809183098F93809182098F93809181097A
:101E50008F93809180098F93809165098F938091F2
:101E600064098F93809163098F93809162098F93A6
:101E7000809169098F93809168098F938091670998
:101E80008F93809166098F9385EB92E09F938F9358
:101E90000E945E36A0907C09B0907D09C0907E09BA
:101EA000D0907F09E0908009F0908109009182092B
:101EB000109183092091620930916309409164096E
:101EC0005091650960916609709167098091680970
:101ED000909169090E94A105109273090FB6F894B8
:101EE000DEBF0FBECDBF28960FB6F894DEBF0FBE83
:101EF000CDBFDF91CF911F910F91FF90EF90DF90B9
:101F0000CF90BF90AF9008958CE999E00C9433285E
:101F10008091A5090C9403238091C604811103C00C
:101F20000E948426F9CF8091A5090E94D122813098
:101F300021F088E292E00E94B9188091A4090E94E1
:101F4000D122813021F084E092E00E94B918C12CA6
:101F5000D12C7601C394B701A6010090A40904C056
:101F6000440F551F661F771F0A94D2F7D701C60189
:101F70000090A50904C0880F991FAA1FBB1F0A94CF
:101F8000D2F78A019B01082B192B2A2B3B2BC90165
:101F9000B8010E9474234B015C01DC01CB0100906D
:101FA000A50904C0B695A795979587950A94D2F789
:101FB00080FF2EC082E090E00E943F1C0E94F1143E
:101FC000813021F083EE92E00E9478360E94E01387
:101FD00040919309552747FD50955093CE04409367
:101FE000CD04609195097091960986E494E00E9471
:101FF000C435E091A609F091A709309729F06CE962
:1020000079E086E494E0099582E090E00E94281C43
:10201000B701A6010090A40904C0440F551F661F14
:10202000771F0A94D2F7D701C6010090A50904C012
:10203000880F991FAA1FBB1F0A94D2F7842B952BD8
:10204000A62BB72B88219921AA21BB21892B8A2B6A
:102050008B2BF9F083E090E00E943F1C86E494E033
:102060009093AE098093AD098091CD048093AC0923
:102070001092B0091092AF098AEA99E00E94E61323
:10208000809133070E94032383E090E00E94281C84
:1020900062CF86EE91E00E94B9185DCF08950F934C
:1020A0001F93CF93DF938C01EB010E941C29CE017B
:1020B0000E941C29F80140815181628173818881CD
:1020C0009981AA81BB8184179507A607B70700F1FC
:1020D000481759076A077B07E8F0481759076A0746
:1020E0007B07D1F404811581268137814C815D8184
:1020F0006E817F8181E0401751076207730768F0A6
:10210000041715072607370708F080E0819505C0FA
:1021100081E003C08FEF01C080E0DF91CF911F917C
:102120000F910895CF93DF93CDB7DEB728970FB601
:10213000F894DEBF0FBECDBF8091A8099091A90988
:10214000892B19F40E948426F7CFCE0101960E94B4
:1021500033286091A8097091A909CE0101960E94C7
:102160004F1087FFEFCF1092C7040E94E013109228
:10217000A9091092A809E6CF9093CE048093CD04CC
:1021800008958091CD049091CE040895803220F47A
:102190000E94231381E008958FEF08951092C904DF
:1021A0001092CA041092CB041092CC04089560914E
:1021B000C9047091CA048091CB049091CC04089515
:1021C000CF93DF93C62FD0E0AE01BC0186E494E04C
:1021D0000E94C435D093CE04C093CD048091A4094D
:1021E0000E940323809133070E94D12281E090E076
:1021F000A0E0B0E0BC01CD010090330704C0660F41
:10220000771F881F991F0A94D2F7DF91CF910C9402
:1022100074230C9465130F931F93CF93DF93CDB763
:10222000DEB760970FB6F894DEBF0FBECDBF81E07A
:1022300090E0A0E0B0E089879A87AB87BC8782E016
:1022400090E0A0E0B0E089839A83AB83BC83BE01B9
:102250006F5F7F4FCE0109960E944F10082FBE017D
:10226000675F7F4FCE0101960E944F1011E08130D1
:1022700019F40F3F09F410E081E090E0A0E0B0E035
:1022800089839A83AB83BC838EE190E0A0E0B0E0C9
:102290008D879E87AF87B88B8FE190E0A0E0B0E09C
:1022A0008D839E83AF83B887BE016F5F7F4FCE0162
:1022B00009960E944F108F3F09F011E0BE01675F41
:1022C0007F4FCE0101960E944F10813009F011E03E
:1022D0008EE190E0A0E0B0E08D839E83AF83B8876D
:1022E000BE016F5F7F4FCE0109960E944F10811192
:1022F00011E0BE01675F7F4FCE0101960E944F1033
:10230000811102C0112341F083E193E00E947836ED
:1023100081E090E00E949C3860960FB6F894DEBF92
:102320000FBECDBFDF91CF911F910F910895CF9335
:10233000DF93D82F0E94C1218093A5090E94C1215B
:10234000809333070E94C1218093A4090E940B113E
:1023500084E790E09093CE048093CD04C091A509CA
:10236000CF3F69F484EB91E00E94B918E091E50A4F
:10237000F091E60A60858EE00E94DA1F2CC0109270
:10238000C9041092CA041092CB041092CC0486E4C3
:1023900094E0909396098093950984E7809394093B
:1023A0001092970984E89FE00E945B1388E89FE001
:1023B0000E9460130E940A1320E030E04FEF5FEFAD
:1023C0006D2F80E999E00E946A13D093C80481E0E0
:1023D0008093C604C1E08C2FDF91CF9108954F9276
:1023E0005F926F927F928F929F92AF92BF92CF92A5
:1023F000DF92EF92FF920F931F93CF93DF93CDB7AE
:10240000DEB728970FB6F894DEBF0FBECDBF3B01F5
:102410002A0191E09093C70490E09093CE048093BA
:10242000CD0461157105D9F0CE0101960E943328C3
:1024300089809A80AB80BC80CD80DE80EF80F8847C
:10244000F3010081118122813381448155816681AC
:1024500077818091A8099091A9090E943D29509205
:10246000A7094092A6090E94DA1328960FB6F8949D
:10247000DEBF0FBECDBFDF91CF911F910F91FF90B7
:10248000EF90DF90CF90BF90AF909F908F907F9014
:102490006F905F904F900895CF92DF92EF92FF92EE
:1024A000CF936CE87FE082EF96E00E94743140E0C9
:1024B00051E062EF75E082EF96E00E947831E2EF42
:1024C000F6E084E18087C1E0C783C1871286138666
:1024D00014861586168680E8C82E86E9D82E88E9E7
:1024E000E82EF12CC786D08AE18AF28A138A148AF0
:1024F000158A168A178A108E118E128E138E148EDC
:10250000158E168E178E10A211A212A2CF010E9454
:10251000F22562E970E18FEC95E00E94743140E0B1
:1025200051E06FEC74E08FEC95E00E947831EFECB5
:10253000F5E083E18087C783C187128613861486FE
:1025400015861686C786D08AE18AF28A138A148A8B
:10255000158A168A178A108E118E128E138E148E7B
:10256000158E168E178E10A211A212A2CF01CF9136
:10257000FF90EF90DF90CF900C94F225CF93C82F6F
:10258000909141019F719F31D9F3C23079F4E0916C
:102590001607F0911707309749F06091D5097091AF
:1025A000D6098091ED099091EE090995C0934201F9
:1025B000CF91089580931507089581E08093B7091E
:1025C00008951092B7090895809141018F718F315C
:1025D000D9F3809141018F71E1F08F30D1F080917A
:1025E00041018F71883031F480913901826080938C
:1025F00039010BC088E00E94BE12809141018F71A9
:102600008830D9F7F1CF8F3021F0809141018F715F
:10261000D1F70895809141018F718F31D9F3809165
:1026200041018F7111F08F3051F4809139018D7F0C
:1026300080933901809141018F718830D9F70895D5
:1026400089E00C94BE12E5E4F1E09081907F9083E4
:1026500090818F70982B90830895E7E5F1E0808159
:102660008D7F80830895E7E5F1E08081826080833B
:102670000895EEE6F1E080818F7E80830895EEE696
:10268000F1E0808180618083089580936001909360
:1026900061019093C1098093C00908959093BB098B
:1026A0008093BA09E8E4F1E08081807E80838081B4
:1026B000682B6083089590931B0780931A070895F1
:1026C00090931907809318070895909317078093A4
:1026D000160708950F931F93CF93DF93FC01D90141
:1026E00080E28093440180EC8093450160626093B6
:1026F000480185EC8093490187EA80934B0180E88B
:1027000080934C0120936001B0936101409362017A
:1027100050936301C6E4D1E00881888198812881C3
:10272000302F32953695377060E4369F8001112442
:10273000229526952370622F602B82958695837053
:1027400070E1879F90011124262B929596959370A6
:1027500084E0989FB0011124622B60936D01888101
:102760009881929596959370392F3064982F929511
:102770009670932B90936E0110926C018FEF809363
:102780004E01CAEBD9E0F983E8831A821B825D838C
:102790004C83BF83AE83188681E08093D409109266
:1027A000EF091092C3091092B709DF91CF911F91E1
:1027B0000F91089586E10C94BE1286E10C94BE122E
:1027C00088E00E94BE121092EF0908951F93CF93E4
:1027D000DF93EC018091D409811102C08FEFBAC060
:1027E0002E818091BC098F5F8093BC0990918101FB
:1027F000907E916020FB95F99F7390649093810186
:1028000088E8809382018091B709882361F08FEF77
:10281000809383018AEA9AEA9093890180938801E0
:102820008FEF9FEF10C08091BC09809383012091AE
:1028300061018091600190E0922B909389018093D7
:1028400088018881998190938701809386012091E6
:1028500063018091620190E0922B909385018093B7
:1028600084014A81552747FD50956B817C818AE818
:1028700091E00E94C4358A81855F809380018091B8
:102880004101182F1F719FEF910F9230C0F311314A
:10289000B1F31231A1F31F3191F398EF910F923000
:1028A00020F08F70863009F099CF86E10E94BE1229
:1028B0008D8181110AC089E00E94BE128E81882319
:1028C00091F089E10E94BE120EC08091480180689B
:1028D000809348018091410187FFFCCF80914101A5
:1028E00086FF7CCFE8CF8091160790911707892B40
:1028F00071F08A81992787FD90959093EE098093D6
:10290000ED098AE891E09093D6098093D509109259
:10291000C30982E00E94BE1280E090E02091C309CA
:10292000211105C00196883E2DEF9207B9F72E813F
:10293000222331F02091420122952695277029F417
:10294000883E9D4F11F0C1E001C0CFEF812F0E9462
:10295000BE128C2FDF91CF911F9108951092C30961
:1029600082E00E94BE1288EE9DEF2091C3092111E2
:1029700004C00197D1F78FEF089581E00895CF93B8
:10298000DF938091D409882341F180914101C82FC0
:10299000CF719FEF9C0F9230C0F3C131B1F3C231C0
:1029A000A1F3CF3191F3C83019F08F708630A9F4BC
:1029B00086E10E94BE1280914801806880934801A0
:1029C0008091410187FFFCCFD09141018C2F0E9463
:1029D000BE12D6FB882780F901C08FEFDF91CF911F
:1029E00008958091D409811103C087E293E01BC050
:1029F0008091EF09811106C085E393E00E9478364B
:102A000080E0089580917B01E091BA09F091BB09C3
:102A100090E002972481332727FD30952817390746
:102A200034F483E493E00E9478368FEF0895E091C8
:102A3000BA09F091BB09809182018083E091BA09C3
:102A4000F091BB09809187019091880192838183E5
:102A5000E091BA09F091BB0980917B018B5083838F
:102A6000A091BA09B091BB09E091BA09F091BB09F4
:102A700013969C91848189173CF0E091BA09F091FA
:102A8000BB09838187FF0FC01092EF0980914C0131
:102A90008F7780934C0180914C01806880934C012A
:102AA00085E593E0C0CFA091BA09B091BB09E09150
:102AB000BA09F091BB0913964C91552747FD5095E3
:102AC00069E871E0858196810E94C435809115077F
:102AD000882309F43EC0E091BA09F091BB098381D3
:102AE0008031B9F5E091BA09F091BB096581768131
:102AF00044E050E080E092E00E94CD35892B49F51A
:102B0000E091BA09F091BB096581768140E150E01E
:102B100080E092E00E94CD35892BD9F49DE088E1D8
:102B20000FB6F894A895809360000FBE9093600054
:102B300080E090E00E943F1C81E090E00E943F1CFA
:102B400082E090E00E943F1C83E090E00E943F1CE6
:102B5000FFCFE091BA09F091BB098091800185FB1C
:102B6000882780F98783E091BA09F091BB098091A9
:102B700047018087E091BA09F091BB098091460135
:102B80008695869586958187E091BA09F091BB0973
:102B9000809147018287A091BA09B091BB09E09169
:102BA0007B01F0E0E058FE4F80811B968C931092E1
:102BB000EF0980914C018F7780934C0180914C01FB
:102BC000806880934C0181E008951F920F920FB6A8
:102BD0000F9211248F9380E880934F018F910F9073
:102BE0000FBE0F901F9018951F920F920FB60F9265
:102BF00011248F9381E08093C30980E480934F0177
:102C00008F910F900FBE0F901F9018951F920F92EB
:102C10000FB60F9211248F9380E280934F018F9112
:102C20000F900FBE0F901F9018951F920F920FB626
:102C30000F9211248F9380E180934F018F910F9019
:102C40000FBE0F901F9018951F920F920FB60F9204
:102C500011240BB60F922F933F934F935F936F9373
:102C60007F938F939F93AF93BF93EF93FF9384E0F2
:102C700080934F01E0911A07F0911B07309709F0FC
:102C80000995FF91EF91BF91AF919F918F917F91A6
:102C90006F915F914F913F912F910F900BBE0F90CD
:102CA0000FBE0F901F9018951F920F920FB60F92A4
:102CB00011248F9382E080934F018F910F900FBE6C
:102CC0000F901F9018951F920F920FB60F9211241C
:102CD0008F9381E080934F018F910F900FBE0F90E3
:102CE0001F901895E9E4F1E09081907F90839081A6
:102CF0008F70982B908308958FEF0895089508950D
:102D000008958FEF08958091B5099091B6090895BF
:102D1000089581E0089581E0089581E0089508957F
:102D20000895089508950895089508950895989828
:102D30008DB1806E8DB98EB1806A8EB908959898E4
:102D40008DB1806E8DB98EB180668EB90895CF92A7
:102D5000DF92EF92FF920F931F93CF93DF93CDB744
:102D6000DEB727970FB6F894DEBF0FBECDBF0E9427
:102D7000701DE091BA09F091BB09C080D380E58055
:102D8000F68000850E94F11418161CF08EE793E07F
:102D900006C0F7011081111107C08DE993E00E9470
:102DA00078360E94721D31C0153021F48AE090E01F
:102DB0000E947236C70101969F938F93802F9927A7
:102DC00087FD90959F930F931F921F931F92CF9211
:102DD0008FEB93E09F938F930E945E36FD82EC828F
:102DE0001150F7011083DB821E821F828FEF9FEF4D
:102DF0009A8389830E94721DCE0101960E94E61378
:102E00000FB6F894DEBF0FBECDBF27960FB6F8946D
:102E1000DEBF0FBECDBFDF91CF911F910F91FF900D
:102E2000EF90DF90CF9008951F920F920FB60F9200
:102E300011240BB60F922F933F934F935F936F9391
:102E40007F938F939F93AF93BF93EF93FF9380E014
:102E500090917B01891710F48F5FFACF8091460122
:102E600087FF04C081E08093EF0904C088EE93E0FF
:102E70000E94783688E080934F018091460187FF59
:102E800005C08091B70981110E94A716E09118072B
:102E9000F0911907309709F00995FF91EF91BF91D3
:102EA000AF919F918F917F916F915F914F913F91E2
:102EB0002F910F900BBE0F900FBE0F901F90189583
:102EC000A4ECB9E0FC01409620812D932191209340
:102ED0003F01E817F907C1F780E110923E018150E8
:102EE000E1F780E880933C0180913D0180FFFCCFB9
:102EF000E7EDF9E080E18E0F90913F0191938E1301
:102F0000FBCF0895CF93DF93DC01662309F445C01E
:102F1000862F8F7009F041C0E4ECF9E090E19E0F3C
:102F2000219120933F019E13FBCF90E070E0E0E2FF
:102F300040E1949F90011124261737077CF59111E9
:102F400003C010923C0102C0E0933C0140E050E01D
:102F50002A0F3B1FE901C40FD51FF881F0933E01F2
:102F60004F5F5F4F40315105A9F740913C014068E8
:102F700040933C0140913D0140FFFCCF40E050E0D8
:102F8000F0913E01E901C40FD51FF8834F5F5F4FF9
:102F900040315105A9F79F5FCBCF81E0DF91CF9101
:102FA00008950F931F93CF93DF93DC01613009F4F1
:102FB00058C0862F8F7009F054C0E7EDF9E090E11A
:102FC0009E0F219120933F019E13FBCF62956F705E
:102FD000615078E06F3F09F445C070933C01462F83
:102FE000552747FD509520E030E0ED0190E1690262
:102FF000C00DD11D1124FE01E20FF31F90819093AB
:103000003E012F5F3F4F20313105A9F790913C01E0
:10301000906890933C0190913D0190FFFCCF41500E
:10302000510994E0440F551F9A95E1F720E030E0F4
:1030300090913E018E01020F131FF80190836623C9
:1030400049F0F901E40FF51FEA0FFB1FE0819E270D
:10305000F80190832F5F3F4F2031310549F76150D0
:10306000B9CF81E0DF91CF911F910F910895909199
:10307000C00095FFFCCF9091C0009F7D9093C00051
:103080008093C60008951F920F920FB60F921124DD
:103090000BB60F922F933F934F935F936F937F9352
:1030A0008F939F93AF93BF93EF93FF930E94701DF5
:1030B0008091C00087FFFCCF8091C0008F77809304
:1030C000C0002091C60080912D0790912E07FC0131
:1030D000E35EF84F208301968031910529F09093AB
:1030E0002E0780932D0704C010922E0710922D07F3
:1030F00080911C070E9403238091C0008F778093EA
:10310000C0000E94721DFF91EF91BF91AF919F91FE
:103110008F917F916F915F914F913F912F910F9080
:103120000BBE0F900FBE0F901F90189581110DC010
:1031300081E040912F075091300720912D07309169
:103140002E074217530751F408C0813031F48091A3
:10315000C800881F8827881F089580E008958091FF
:103160001C078F3F19F48EE00E94CC1F80911C0732
:103170000895CF93DF93FC012491EC012196222343
:1031800051F06091110B7091120B822F90E00E9410
:103190002636CE01F0CFDF91CF91089520912F07F1
:1031A0003091300780912D0790912E07281739070D
:1031B00069F480911C070E94D12260911C07772737
:1031C00067FD7095872F972F0E9474236F3F21F41E
:1031D0008CE492E00E94B91820912F0730913007BB
:1031E000F901E35EF84F80812F5F3F4F20313105B9
:1031F00028F43093300720932F070895109230075A
:1032000010922F07089586E084B985B988EF8AB9AE
:1032100080EF8BB982E08DB908950C9403198F3F2C
:1032200009F46CC0E82FE7704E2F50E0473051058D
:1032300008F064C0FA01E057FF4F869586958695A1
:103240000C94383542B121E030E0B90102C0660F7C
:10325000771F8A95E2F7CB01842B82B94DC045B127
:1032600021E030E0B90102C0660F771F8A95E2F7CE
:10327000CB01842B85B940C048B121E030E0B901D1
:1032800002C0660F771F8A95E2F7CB01842B88B9BD
:1032900033C04BB121E030E0B90102C0660F771FA7
:1032A0008A95E2F7CB01842B8BB926C04EB121E081
:1032B00030E0B90102C0660F771F8A95E2F7CB01B3
:1032C000842B8EB919C041B321E030E0B90102C0AE
:1032D000660F771F8A95E2F7CB01842B81BB0CC068
:1032E00044B321E030E0B90102C0660F771F8A9530
:1032F000E2F7CB01842B84BB81E008958FEF089522
:103300008F3F09F473C0E82FE7704E2F50E047302D
:10331000510508F06BC0FA01E956FF4F8695869576
:1033200086950C94383542B121E030E0B90102C0F5
:10333000660F771F8A95E2F7CB018095842382B9C7
:1033400053C045B121E030E0B90102C0660F771FDC
:103350008A95E2F7CB018095842385B945C048B1B1
:1033600021E030E0B90102C0660F771F8A95E2F7CD
:10337000CB018095842388B937C04BB121E030E080
:10338000B90102C0660F771F8A95E2F7CB018095DD
:1033900084238BB929C04EB121E030E0B90102C0CD
:1033A000660F771F8A95E2F7CB01809584238EB94B
:1033B0001BC041B321E030E0B90102C0660F771FA6
:1033C0008A95E2F7CB018095842381BB0DC044B37D
:1033D00021E030E0B90102C0660F771F8A95E2F75D
:1033E000CB018095842384BB81E008958FEF0895FD
:1033F0008F3F31F1E82FE7704E2F50E047305105F5
:10340000F8F4FA01E256FF4F282F269526952695C7
:103410000C94383590B10BC093B109C096B107C078
:1034200099B105C09CB103C09FB101C092B3892F6F
:1034300090E002C0959587952A95E2F781700895EE
:103440008FEF08958F3F09F406C1E82FE7704E2FE4
:1034500050E04730510508F0FEC0FA01EB55FF4F30
:103460008695869586950C94383520B130E0082EE7
:1034700002C0359527950A94E2F742B120FD0BC0B2
:1034800021E030E0B90102C0660F771F8A95E2F7AC
:10349000CB01842B0BC021E030E0B90102C0660FE4
:1034A000771F8A95E2F7CB018095842382B916C0F5
:1034B00023B130E0082E02C0359527950A94E2F733
:1034C00045B120FD0DC021E030E0B90102C0660F1A
:1034D000771F8A95E2F7CB01842B85B981E00895A7
:1034E00021E030E0B90102C0660F771F8A95E2F74C
:1034F000CB0180958423F1CF26B130E0082E02C0A5
:10350000359527950A94E2F748B120FD0BC021E0DC
:1035100030E0B90102C0660F771F8A95E2F7CB0150
:10352000842B0BC021E030E0B90102C0660F771F89
:103530008A95E2F7CB018095842388B9CFCF29B152
:1035400030E0082E02C0359527950A94E2F74BB17A
:1035500020FD0BC021E030E0B90102C0660F771FEB
:103560008A95E2F7CB01842B0BC021E030E0B90152
:1035700002C0660F771F8A95E2F7CB0180958423FE
:103580008BB9ACCF2CB130E0082E02C03595279511
:103590000A94E2F74EB120FD0BC021E030E0B90102
:1035A00002C0660F771F8A95E2F7CB01842B0BC010
:1035B00021E030E0B90102C0660F771F8A95E2F77B
:1035C000CB01809584238EB989CF2FB130E0082EAE
:1035D00002C0359527950A94E2F741B320FD0BC050
:1035E00021E030E0B90102C0660F771F8A95E2F74B
:1035F000CB01842B0BC021E030E0B90102C0660F83
:10360000771F8A95E2F7CB018095842381BB66CF33
:1036100022B330E0082E02C0359527950A94E2F7D0
:1036200044B320FD0BC021E030E0B90102C0660FB9
:10363000771F8A95E2F7CB01842B0BC021E030E0A5
:10364000B90102C0660F771F8A95E2F7CB0180951A
:10365000842384BB43CF8FEF08958F3F09F4D5C0F7
:10366000E82FE7704E2F50E0611167C047305105D9
:1036700008F0CBC0FA01E455FF4F869586958695F4
:103680000C94383541B121E030E0B90102C0660F39
:10369000771F8A95E2F7CB018095842365C044B1FA
:1036A00021E030E0B90102C0660F771F8A95E2F78A
:1036B000CB018095842365C047B121E030E0B9019A
:1036C00002C0660F771F8A95E2F7CB0180958423AD
:1036D00065C04AB121E030E0B90102C0660F771F32
:1036E0008A95E2F7CB018095842365C04DB121E036
:1036F00030E0B90102C0660F771F8A95E2F7CB016F
:103700008095842365C040B321E030E0B90102C058
:10371000660F771F8A95E2F7CB018095842365C0F9
:1037200043B321E030E0B90102C0660F771F8A95EC
:10373000E2F7CB018095842365C04730510508F03E
:1037400064C0FA01ED54FF4F8695869586950C94DA
:10375000383541B121E030E0B90102C0660F771F72
:103760008A95E2F7CB01842B81B94DC044B121E0A9
:1037700030E0B90102C0660F771F8A95E2F7CB01EE
:10378000842B84B940C047B121E030E0B90102C0C8
:10379000660F771F8A95E2F7CB01842B87B933C078
:1037A0004AB121E030E0B90102C0660F771F8A9567
:1037B000E2F7CB01842B8AB926C04DB121E030E07D
:1037C000B90102C0660F771F8A95E2F7CB01842BFF
:1037D0008DB919C040B321E030E0B90102C0660FD5
:1037E000771F8A95E2F7CB01842B80BB0CC043B3D3
:1037F00021E030E0B90102C0660F771F8A95E2F739
:10380000CB01842B83BB81E008958FEF0895811154
:1038100006C080B18695817091E0892708958FEF69
:103820000895009711F483E20DC08130910511F4E1
:103830008BE208C08230910511F483E303C0039743
:1038400029F48BE30E94221A81E008958FEF0895F6
:10385000009711F483E20DC08130910511F48BE2E1
:1038600008C08230910511F483E303C0039729F463
:103870008BE30E940F1981E008958FEF0895009760
:1038800011F483E20DC08130910511F48BE208C080
:103890008230910511F483E303C0039729F48BE38D
:1038A0000E94801981E008958FEF0895882319F010
:1038B00085B78F7E02C085B7806185BF81E008959E
:1038C0009091C80095FFFCCF8093CE00089590930F
:1038D000C5008093C40086E08093C200E1ECF0E074
:1038E00080818B7F8083A0ECB0E08C9182608C9390
:1038F00080818861808308959093CD008093CC006F
:1039000086E08093CA00E9ECF0E080818B7F8083C1
:10391000A8ECB0E08C9182608C9380818861808378
:1039200008950E94671C6EEC78E187E398E10E949D
:10393000DB359093120B8093110B6EEC78E187E3EB
:1039400098E10E94DB359093100B80930F0B0E943F
:10395000C12180931C078F3F19F48EE00E94CC1F79
:103960001092300710922F0710922E0710922D07F9
:103970008091C10080688093C10008958091C80043
:1039800087FFFCCF8091C8008F778093C80080911B
:10399000CE00089500000000000000000197D1F75C
:1039A00008950C9436370E943E370895EF92FF92A7
:1039B0000F931F93CF93DF937C0180E090E00E94F0
:1039C0003637182FF701838381E090E00E94363765
:1039D000082FF701828382E090E00E943637D82FCB
:1039E000F701818383E090E00E943637C82FF7010A
:1039F000808384E090E00E943637100FD10FCD0F06
:103A00008C1711F08FEF01C081E0DF91CF911F91F2
:103A10000F91FF90EF900895CF93DF93EC0185E035
:103A200090E00E943637888381E0DF91CF9108953E
:103A3000FC01608186E090E00E943E3781E00895BD
:103A4000CF93DF93EC0186E090E00E9436378883C5
:103A500081E0DF91CF9108950F931F93CF93DF9370
:103A60008C01C0E0D0E0CE0108960E943637F80104
:103A700081938F012196C031D105A9F781E0DF91B3
:103A8000CF911F910F9108950F931F93CF93DF93C1
:103A90008C01C0E0D0E0F80161918F01CE01089661
:103AA0000E943E372196C031D105A9F781E0DF9110
:103AB000CF911F910F910895CF93DF93EC0187E091
:103AC00090E00E943637888381E0DF91CF9108959E
:103AD000FC01608187E090E00E943E3781E008951C
:103AE000F8940895789408950E94701DFFCF1F9355
:103AF000CF93DF93CDB7DEB7A3970FB6F894DEBFB1
:103B00000FBECDBF0E94C1218093D50A8F3F21F403
:103B100060E08EE00E94DA1F0E943C2F182F80FF89
:103B200004C060E086E00E94DA1F11FF04C060E07C
:103B300084E10E94DA1F12FF04C060E083E10E946A
:103B4000DA1F1092D80A1092E60A1092E50A109233
:103B5000D70A1092D60A1092E70A1092E40A8FEF61
:103B60008093CB0A8093CD0A8093CC0A8093CE0AAF
:103B70008093D00A8093CF0A8093D10A8093D30A8E
:103B80008093D20A80E090E033E62FEFFC01EE5004
:103B9000F64F328720878B96873D9105B9F7E8EE7F
:103BA000FAE0CF01059694838383F783E683FC01D3
:103BB0008BE0E130F807A9F71092EA0A1092E90ABF
:103BC0001092050B1092040B1092DB0A1092DA0A85
:103BD00088EE9AE09093F1098093F00965EB7AE220
:103BE000CE0101960E94743140E850E062E778E02F
:103BF000CE0101960E94783185E58093720819867E
:103C00001C861D861E861F86188A198A1A8A1B8A98
:103C10001C8A1D8A1E8A1F8A188E198E1A8E1B8E68
:103C20001C8E1D8E1E8E1F8E18A219A21AA21BA2F8
:103C300081E0888792E09A878B87CE0101960E9467
:103C4000F225A3960FB6F894DEBF0FBECDBFDF916D
:103C5000CF911F9108950AEF19E0C0E0F801D080DC
:103C6000FFEFDF1222C0CF5F055D1F4FC530B1F7F8
:103C70000E94E5242BE28202C0011124FC01EE50D7
:103C8000F64F82858093E70AF093E60AE093E50A0F
:103C9000F093D70AE093D60A8093D80A0E94EA31BB
:103CA0000E94D4310E94EE3116C08AEFE82E89E0DE
:103CB000F82ED0E0CD1741F0F7018081D81204C072
:103CC0006D2D85E00E94DA1FDF5FFBE2EF0EF11C35
:103CD000D53081F7C8CFFFCFCF92DF92EF92FF921E
:103CE0000F931F93CF93DF93EC018B017A018985AA
:103CF000823021F08091D40A888301C0188280919B
:103D0000D40A853020F060E087E00E94DA1F8985C0
:103D1000823029F08091D40A8F5F8093D40A8091F9
:103D2000D40A811103C081E08093D40A38812BE248
:103D30003203F0011124EE50F64F11830083888581
:103D4000828738813203F0011124EE50F64F83E070
:103D5000818738813203F0011124EE50F64F30870D
:103D600008810203800111240E50164FF8011582BC
:103D7000CE010B960E944B2AF80161A372A383A384
:103D800094A38B859C85AD85BE8588339948A144D5
:103D9000B10520F0688186E10E94DA1FC880DD2429
:103DA000C7FCD094CE014B960E944B2A1BE21C9D6F
:103DB000F0011D9DF00D1124EE50F64F658B768BB2
:103DC000878B908F28812103C00111249C012E50E4
:103DD000364F6901F901458956896789708D81A13E
:103DE00092A1A3A1B4A1840F951FA61FB71F818F15
:103DF000928FA38FB48FCE0143960E944B2AF60177
:103E000065A376A387A390A728812103F00111243D
:103E1000EE50F64F85A196A1A7A1B0A5858F968FEC
:103E2000A78FB0A381E090E092A781A7F382E282FE
:103E30008487DF91CF911F910F91FF90EF90DF90DA
:103E4000CF9008950C94CF2A85E690E00895E091F4
:103E5000E50AF091E60A84870895E091E50AF09179
:103E6000E60A84850895FC0180917108882331F069
:103E7000DB018C9380913C07808381E00895109250
:103E80007108089580917108882309F483C08DE832
:103E900094E00E94B91880913C071F928F9381E0B3
:103EA00094E09F938F930E945E3689E894E00E948D
:103EB000B9180F900F900F900F9080917108883172
:103EC00010F010927108E09171088E2F90E0FC01C3
:103ED0003197E631F10508F046C0E654FF4F0C94E7
:103EE00038358DE494E041C086E294E03EC082E142
:103EF00094E03BC08CEF93E038C081EE93E035C096
:103F00008BEC93E032C083EB93E02FC080EA93E028
:103F10002CC08DE893E029C08FE693E026C08AE4A8
:103F200093E023C08EE393E020C083E293E01DC0C2
:103F300084E193E01AC080E093E017C08FEE92E036
:103F400014C08BED92E011C08BEB92E00EC083EABF
:103F500092E00BC088E892E008C087E792E005C0D5
:103F600088E692E002C081E692E00E94B918609172
:103F7000110B7091120B8DE090E00E94263660913B
:103F8000110B7091120B8AE090E00E94263680910E
:103F90007108089580E0089580937108E091E50A22
:103FA000F091E60A808580933C070E94421F1092A0
:103FB000710808958093710860933C070E94421F26
:103FC00010927108089513BC1092B60018BC17BC6B
:103FD00016BC15BC14BC1DBA1CBA1BBA10929B00AF
:103FE00010929A00109299001092980010929500E9
:103FF00010929400109291001092900018BA1092B2
:1040000071001092B4001092B3001092B20010929E
:10401000B100E0EBF0E01082108217BA109270004D
:104020008FEF84BF0895CF93DF931F92CDB7DEB794
:1040300019828981843640F480ED97E00E94722DC8
:1040400089818F5F8983F5CF0F90DF91CF9108959C
:1040500081E090E00E943F1C0E9413200E941320E8
:104060000E94132081E090E00E94281C0C941320F1
:1040700081E090E00E943F1C0E94132081E090E0CC
:104080000E94281C0C941320FF920F931F93CF9330
:10409000DF9300D01F92CDB7DEB71F928F9381E0E0
:1040A00094E09F938F938E010F5F1F4F1F930F9389
:1040B0000E94A8360F900F900F900F900F900F90C6
:1040C000F12CF80101900020E9F73197E01BF10B8A
:1040D0008F2D90E08E179F0708F05DC0F801E80F64
:1040E000F91FE0818E2F90E0FC01F097EA30F10596
:1040F00008F049C0E053FF4F0C9438350E94282047
:1041000002C00E9438200E9428200E9428200E947D
:1041100028200E94282037C00E9438200E94382082
:10412000F4CF0E9438200E9438200E943820EFCF20
:104130000E9438200E9438200E9438200E94382097
:10414000E8CF0E94382002C00E9428200E94382018
:1041500004C00E9428200E9428200E94382006C007
:104160000E9428200E9428200E9428200E94382097
:1041700008C00E9428200E9428200E9428200E9417
:1041800028200E9438200E9413200E9413200E94A1
:104190001320F39496CF0F900F900F90DF91CF9153
:1041A0001F910F91FF9008956F927F928F929F922F
:1041B000AF92BF92CF92DF92EF92FF920F931F9335
:1041C000CF93DF9389E994E00E94B918E091E50A62
:1041D000F091E60A8085282F332727FD30953F93FD
:1041E0008F9384E094E09F938F930E945E36E091DA
:1041F000E50AF091E60AC281D381DF93CF9388E389
:1042000094E09F938F930E945E3688811F928F93D4
:104210008DE094E09F938F930E945E36E091E50AD3
:10422000F091E60A81818F9380818F938AE194E0F7
:104230009F938F930E945E368091E60A8F938091C0
:10424000E50A8F9384E294E09F938F930E945E36F9
:10425000C2EFD9E0EDB7FEB774960FB6F894FEBF83
:104260000FBEEDBF00E010E084E3682E84E0782EFE
:104270009DE0892E94E0992E2AE1A22E24E0B22E10
:1042800034E2C32E34E0D32EEA80FB80FF92EF921B
:104290001F930F937F926F920E945E36F701808189
:1042A0001F928F939F928F920E945E3689818F9387
:1042B00088818F93BF92AF920E945E36DF93CF9337
:1042C000DF92CF920E945E360F5F1F4FAB96EDB725
:1042D000FEB772960FB6F894FEBF0FBEEDBF053065
:1042E000110591F6DF91CF911F910F91FF90EF9003
:1042F000DF90CF90BF90AF909F908F907F906F9006
:104300000895CF93DF93E091E50AF091E60AC28128
:10431000D3818881853539F00E94D42081E00E94C4
:10432000CC1F85E58883E091E50AF091E60A80815B
:1043300091818115924438F00E94D42082E1DF916E
:10434000CF910C94CC1FDF91CF9108952BE2820284
:10435000C0011124FC01EE50F64FA281B3818C9173
:10436000853519F085E58C9308C080819181811590
:10437000924428F082E10E94CC1F8FEF089581E0E3
:1043800008950F931F9340913E0850913F0860910C
:1043900040087091410880E090E08A019B01082E5E
:1043A00004C036952795179507950A94D2F700FD16
:1043B00019C001E010E020E030E0082E04C0000F3A
:1043C000111F221F331F0A94D2F7402B512B622B4F
:1043D000732B40933E0850933F08609340087093BE
:1043E000410805C0019680329105B9F68FEF1F9103
:1043F0000F910895E091E50AF091E60A65857685CA
:10440000878590890895CF92DF92EF92FF920F9364
:104410001F93CF93DF93C12CD12C7601C394082E28
:1044200004C0CC0CDD1CEE1CFF1C0A94D2F740919A
:104430003E0850913F0860914008709141084C211E
:104440005D216E217F21452B462B472B09F460C04F
:10445000082F0E94701DEBEFF9E0B701A60140950F
:1044600050956095709513E0DF0111978C918F3F07
:1044700039F184819581A681B7818C159D05AE05A2
:10448000BF0551F410861186128613869F012250B3
:104490003109E9011882108384239523A623B723C9
:1044A00084839583A683B78380859185A285B38510
:1044B00084239523A623B72380879187A287B38778
:1044C000BB96DAE0E23DFD0779F68EEF9FEFAFEFA6
:1044D000BFEF04C0880F991FAA1FBB1F0A95D2F710
:1044E00040913E0850913F0860914008709141080A
:1044F00084239523A623B72380933E0890933F08F7
:10450000A0934008B09341080E94721D81E001C051
:104510008FEFDF91CF911F910F91FF90EF90DF9080
:10452000CF9008950F931F9341E050E060E070E05A
:104530008A019B0104C0000F111F221F331F8A959F
:10454000D2F7D901C801E091E50AF091E60A458564
:104550005685678570890423152326233723012B6D
:10456000022B032BD1F080959095A095B095482310
:1045700059236A237B23458756876787708B418938
:1045800052896389748984239523A623B723818B59
:10459000928BA38BB48B81E001C08FEF1F910F91A1
:1045A0000895282F40913E0850913F08609140089F
:1045B00070914108082E04C07695679557954795E8
:1045C0000A94D2F740FF1DC0E091E50AF091E60A97
:1045D00081E090E0A0E0B0E004C0880F991FAA1F1E
:1045E000BB1F2A95D2F74585568567857089842B30
:1045F000952BA62BB72B85879687A787B08B81E055
:1046000008958FEF0895CF92DF92EF92FF92CF93AC
:10461000C12CD12C7601C39404C0CC0CDD1CEE1C43
:10462000FF1C8A95D2F780913E0890913F08A09197
:104630004008B09141088C219D21AE21BF21892BDA
:104640008A2B8B2B11F481E044C00E94701DE9EF8E
:10465000F9E0ABEFB9E0C0E083E090819130B9F4CC
:1046600042855385648575854C215D216E217F21AE
:10467000452B462B472B59F08C9316861786108AAC
:10468000118A1082C286D386E486F586C1E09081C5
:104690009230A1F442855385648575854C155D057E
:1046A0006E057F0559F48C9316861786108A118A39
:1046B00010821286138614861586C1E0BB969B96DF
:1046C0009AE0E03DF90749F60E94721DC11105C04C
:1046D00082E00E94271F8FEF01C081E0CF91FF9001
:1046E000EF90DF90CF9008950F931F93E091E50A2C
:1046F000F091E60A0585168527853089062317235C
:1047000028233923011511052105310511F1DC019B
:10471000CB01818B928BA38BB48B21E027830090FC
:10472000D50A04C0B695A795979587950A94D2F7B0
:1047300080FF03C00E945A2704C080E090E00E94DE
:104740002B27E091E50AF091E60A01891289238975
:104750003489C901B8011F910F9108959091E40A1D
:10476000923018F52091CB0A2F3F51F02091CE0ABC
:104770002F3F41F02091D10A2F3F31F4E2E005C0F4
:10478000E0E003C0E1E001C0E3E0F0E09F01220FC0
:10479000331FE20FF31FE553F54F8283808361835C
:1047A0009F5F9093E40ACF01089580E090E0089520
:1047B0002AE08B3C920749F02AE08E3C920739F0C0
:1047C000815D9A4031F482E0089580E0089581E0AF
:1047D00008958FEF08950E94D8238F3F11F481E050
:1047E00003C0833029F482E00E94271F8FEF0895D1
:1047F000992787FD9095FC01EE0FFF1F8E0F9F1FDD
:10480000FC01E553F54F82810895EF92FF920F93DB
:104810001F93CF93DF931F92CDB7DEB70E94D823AB
:104820008F3F11F481E003C0833029F482E00E94BD
:10483000271F8FEF41C089830E94701D8981E82E58
:10484000FF24E7FCF0948701000F111FF801EE0D23
:10485000FF1DE553F54F9281911116C0E091E50AD5
:10486000F091E60A978192609783992787FD90954A
:10487000A92FB92F818B928BA38BB48B0E94721DB1
:1048800080E090E00E942B270E0D1F1DD801A5533C
:10489000B54F12968C911297815012968C93129765
:1048A000E091E50AF091E60A11968C91838781E008
:1048B00084830E94721D81E00F90DF91CF911F9140
:1048C0000F91FF90EF9008950F931F93CF93DF9375
:1048D0001F92CDB7DEB70E94D8238F3F11F481E03D
:1048E00003C0833029F482E00E94271F8FEF44C069
:1048F000482F552747FD50959A01220F331F240F4B
:10490000351F89010553154FF80122819081291720
:1049100094F589830E94701DF80192819F5F9283B4
:10492000E091E50AF091E60A1482E9EFF9E0898165
:10493000992787FD9095A92FB92F23E03081323038
:1049400099F44285538564857585481759076A0728
:104950007B0751F4228316861786108A118A1082EB
:104960001286138614861586BB963AE0E03DF3075F
:1049700029F70E94721D81E00F90DF91CF911F9166
:104980000F9108950E94D8238F3F11F481E003C056
:10499000833029F482E00E94271F8FEF0895992722
:1049A00087FD9095FC01EE0FFF1F8E0F9F1FFC01EE
:1049B000E553F54F8FEF8083828381838091E40AF2
:1049C00081508093E40A81E00895E091DA0AF09141
:1049D000DB0A80810895E091DA0AF091DB0A3097D2
:1049E00021F00380F481E02DFACF0895AF92BF92B9
:1049F000CF92DF92EF92FF920F931F93CF93DF93AB
:104A0000E091F009F091F109309709F490C000911C
:104A1000DA0A1091DB0A0115110509F44CC0D8011E
:104A20004BE2582F5403900111242E50364F790138
:104A30009AE0E90EF11C6901C4E0CC0ED11C5901C9
:104A4000DBE0AD0EB11C2C9130E0429FB001439FE2
:104A5000700D11246E50764FEB019C81992329F043
:104A60005B85E7019881591740F1E6019881992308
:104A700069F0429FB001439F700D11246E50764F34
:104A8000EB015A85E50198815917B8F0429FB001B2
:104A9000439F700D11249B012E50364FE9012A854A
:104AA000E7019881291748F013960D90BC91A02D2D
:104AB000109749F602C0A0E0B0E08083C381D481A2
:104AC000D093F109C093F009A017B107B1F4109782
:104AD00049F0B483A383128211821296FC93EE9361
:104AE000119706C01482138212821182FA83E9831D
:104AF000F093DB0AE093DA0A1AC011968D919C912B
:104B00001297AC17BD0759F092838183B483A383B6
:104B10001196CD91DC911297FC83EB8304C0148233
:104B20001382928381831296FC93EE931197DF9107
:104B3000CF911F910F91FF90EF90DF90CF90BF909A
:104B4000AF900895CF93DF93E091DA0AF091DB0AFA
:104B5000309709F444C0992787FD9095208130E073
:104B60002817390781F4A381B481B093DB0AA0939D
:104B7000DA0A12961C921E92119718C00380F481D3
:104B8000E02D309761F1208130E028173907B1F727
:104B9000C181D281838194819C838B83A381B481E1
:104BA000109721F01296DC93CE931197A091F00903
:104BB000B091F109109739F4F093F109E093F009FD
:104BC000148213820AC0B483A3831296FC93EE93DB
:104BD0001197F093F109E093F00912821182DF91AD
:104BE000CF910895EF92FF920F931F93CF93DF938E
:104BF000EC014B815C8169817A818D819E810E946B
:104C000096312F81222371F04B815C81E12CF12CB4
:104C100000E010E020E030E0BC01CE010E946C1EFC
:104C20001F820CC0E8812BE2E202F0011124EE5059
:104C3000F64F21852330B9F491838083E8818BE29C
:104C4000E802F0011124EE50F64F85899689A78974
:104C5000B08D892B8A2B8B2B41F482E08187888150
:104C60000E94F62402C08FEF01C081E0DF91CF9156
:104C70001F910F91FF90EF9008951F93CF93DF93B3
:104C8000CDB7DEB728970FB6F894DEBF0FBECDBF05
:104C900029833A834B835C836D837E838F839887DC
:104CA0000E94701D0E94C02E182FCE0101960E94F6
:104CB0004B2A6330710598F0E091E50AF091E60A1D
:104CC000212F30E0620F731FCB01A0E0B0E0858B95
:104CD000968BA78BB08F0E94721D81E001C08FEF71
:104CE00028960FB6F894DEBF0FBECDBFDF91CF91EF
:104CF0001F9108950E946931E091E50AF091E60A5A
:104D000085818111F7CF0895CF930E9481210E9460
:104D1000701DE091E50AF091E60A81E090E092A72B
:104D200081A785830E94C02EC82F883F80F40E94EF
:104D30005A2E2C2F30E02F5F3F4F90E02817390775
:104D400034F482E08C0F809370080E945E2E0E94E3
:104D5000721D0E947A2681E0CF910895E091E50AC4
:104D6000F091E60A80850E94A225E091E50AF09183
:104D7000E60A84E081870E94842681E00895CF932B
:104D8000DF93EC010E948121209711F4C1E0D0E073
:104D90000E94701DE091E50AF091E60A81E08583AA
:104DA000D2A7C1A70E94C02EC82F883F80F40E94BE
:104DB0005A2E2C2F30E02F5F3F4F90E028173907F5
:104DC00034F482E08C0F809370080E945E2E0E9463
:104DD000721D0E947A2681E0DF91CF910895EF92B3
:104DE000FF920F931F93CF938C010E94701DE0914F
:104DF000E50AF091E60A81E085830E94C02EC82F63
:104E0000E091E50AF091E60AE82EF12CC701800F47
:104E1000911FA0E0B0E0858B968BA78BB08FC83F29
:104E200078F40E945A2E9FEFE91AF90A90E0E816EA
:104E3000F90634F482E08C0F809370080E945E2E95
:104E40000E94721D0E947A2681E0CF911F910F91DE
:104E5000FF90EF900895CF93DF93EC010E94701DB7
:104E6000E091E50AF091E60A21E02583CE01A0E079
:104E7000B0E0858B968BA78BB08F0E94C02EC82F79
:104E8000883F80F40E945A2E2C2F30E02F5F3F4F36
:104E900090E02817390734F482E08C0F8093700873
:104EA0000E945E2E0E94721D0E947A2681E0DF9190
:104EB000CF910895CF930E94701DE091E50AF09183
:104EC000E60A81E0858386830E94C02EC82F883F32
:104ED00080F40E945A2E2C2F30E02F5F3F4F90E03D
:104EE0002817390734F482E08C0F809370080E94F1
:104EF0005E2E0E94721D0E947A2681E0CF91089555
:104F00001F93CF93DF93CDB7DEB728970FB6F894F2
:104F1000DEBF0FBECDBF29833A834B835C836D8395
:104F20007E838F8398870E9481210E94701DE0916B
:104F3000E50AF091E60A81E0858381E090E092A79E
:104F400081A70E94C02E182FCE0101960E944B2AE5
:104F5000E091E50AF091E60ADC01CB01810F911D99
:104F6000A11DB11D858B968BA78BB08F183F80F448
:104F70000E945A2E212F30E02F5F3F4F90E02817DC
:104F8000390734F482E0810F809370080E945E2E0E
:104F90000E94721D0E947A2681E028960FB6F8942E
:104FA000DEBF0FBECDBFDF91CF911F9108958F92CD
:104FB0009F92AF92BF92CF92DF92EF92FF920F93A8
:104FC0001F93CF93DF93CDB7DEB760970FB6F894FA
:104FD000DEBF0FBECDBF29873A874B875C876D87C1
:104FE0007E878F87988BCE0101960E943328898017
:104FF0009A80AB80BC80CD80DE80EF80F88409850C
:105000001A852B853C854D855E856F857889CE0117
:1050100009960E9490288F3F61F029853A854B853B
:105020005C856D857E858F8598890E94802781E0CB
:1050300001C08FEF60960FB6F894DEBF0FBECDBFF4
:10504000DF91CF911F910F91FF90EF90DF90CF9064
:10505000BF90AF909F908F900895E091E50AF091F6
:10506000E60A808508950F931F93CF93DF93EC0199
:105070001C821D821E821F828091DC0A9091DD0AB3
:10508000A091DE0AB091DF0A88839983AA83BB834B
:105090008091E00A9091E10AA091E20AB091E30ABE
:1050A0008C839D83AE83BF830E94C02EA82FB0E067
:1050B00023EB36EE4EE050E00E948C330C811D81D4
:1050C0002E813F81DC01CB01800F911FA21FB31FF6
:1050D0008C839D83AE83BF838C819D81AE81BF8194
:1050E00081152AEC92072AE9A2072BE3B20798F070
:1050F0009A5CAA49BB438C839D83AE83BF8388811E
:105100009981AA81BB810196A11DB11D88839983D4
:10511000AA83BB83E1CFDF91CF911F910F910895B7
:105120008F929F92AF92BF92CF92DF92EF92FF92B7
:105130000F931F93CF93DF93CDB7DEB760970FB672
:10514000F894DEBF0FBECDBFFC0109831A832B8309
:105150003C834D835E836F83788789869A86AB868E
:10516000BC86CD86DE86EF86F88A09811A812B817E
:105170003C814D815E816F817885C984DA84EB84BE
:10518000FC848D859E85AF85B8890C151D052E057F
:105190003F05F0F1C016D106E206F30691F4481778
:1051A00059076A077B07A0F1481B590B6A0B7B0B59
:1051B000448355836683778310821182128213821F
:1051C00025C0481759076A077B0780F40150110969
:1051D000210931090C191D092E093F09008311838A
:1051E0002283338356536546744C08C00C191D093D
:1051F0002E093F090083118322833383481B590BF7
:105200006A0B7B0B448355836683778381E001C0FF
:105210008FEF60960FB6F894DEBF0FBECDBFDF9163
:10522000CF911F910F91FF90EF90DF90CF90BF90A3
:10523000AF909F908F900895FC01448155816681C5
:10524000778141158AEC58078AE968078BE378076C
:1052500098F05A5C6A497B4344835583668377831D
:1052600080819181A281B3810196A11DB11D8083AE
:105270009183A283B383E1CF08958F929F92AF92DF
:10528000BF92CF92DF92EF92FF920F931F93CF9333
:10529000DF93CDB7DEB760970FB6F894DEBF0FBED1
:1052A000CDBF09831A832B833C834D835E836F8339
:1052B000788789869A86AB86BC86CD86DE86EF8621
:1052C000F88A09851A852B853C8549815A816B812D
:1052D0007C81400F511F621F731FFC01408351836B
:1052E000628373830D851E852F8538894D815E818C
:1052F0006F817885400F511F621F731F4483558350
:10530000668377830E941C2981E060960FB6F8942B
:10531000DEBF0FBECDBFDF91CF911F910F91FF90E8
:10532000EF90DF90CF90BF90AF909F908F900895B7
:10533000ECEDFAE060837183828393832483358369
:105340004683578308952F923F924F925F926F92B8
:105350007F928F929F92AF92BF92CF92DF92EF9205
:10536000FF920F931F93FC01C080D180E280F380F5
:105370006481758186819781C114D104E104F104AF
:10538000C1F1F2E4CF16D104E104F104D0F51B0120
:105390002C01612C712C4301E0E08E2F90E0A0E005
:1053A000B0E08C159D05AE05BF0588F49101A20102
:1053B000B301C40136534546544C6F4F7F4F8F4F56
:1053C0009F4F19012A013B014C01EF5FE6CF83EBB0
:1053D000A82E96EEB92E2EE0C22ED12CE12CF12C67
:1053E00000E010E09101A201B301C4010E94103459
:1053F00006C023EB36EE4EE050E00E94BB33C901FD
:1054000002C080E090E01F910F91FF90EF90DF903D
:10541000CF90BF90AF909F908F907F906F905F9054
:105420004F903F902F900895CF92DF92EF92FF928E
:10543000CF93DF93CDB7DEB728970FB6F894DEBFD2
:105440000FBECDBF6B017C012AE0F694E794D794A0
:10545000C7942A95D1F7C982DA82EB82FC829B013C
:10546000AC0133704427552763EB76EE8EE090E075
:105470000E9497332C2D3A814B815C8128960FB680
:10548000F894DEBF0FBECDBFDF91CF91FF90EF90BC
:10549000DF90CF9008952F923F924F925F926F923C
:1054A0007F928F929F92AF92BF92CF92DF92EF92B4
:1054B000FF920F931F93FC01C080D180E280F380A4
:1054C0006481758186819781C114D104E104F1045E
:1054D00099F11B012C01612C712C4301E0E08E2F0E
:1054E00090E0A0E0B0E08C159D05AE05BF0588F406
:1054F0009101A201B301C40136534546544C6F4F8C
:105500007F4F8F4F9F4F19012A013B014C01EF5FE5
:10551000E6CF83EBA82E96EEB92E2EE0C22ED12C2C
:10552000E12CF12C00E010E09101A201B301C401D3
:105530000E941034CA0107C023EB36EE4EE050E063
:105540000E94BB33CA01B9011F910F91FF90EF90E8
:10555000DF90CF90BF90AF909F908F907F906F9093
:105560005F904F903F902F900895C1E00E9481215D
:105570000E945A2E843010F4C093D90A0E946931D7
:1055800080917208853519F088E00E94CC1F8091C7
:105590007E41853559F388E00E94CC1FE7CF2F92DA
:1055A0003F924F925F926F927F928F929F92AF92B3
:1055B000BF92CF92DF92EF92FF920F931F93CF9300
:1055C000DF9300D000D01F92CDB7DEB70E948E2DA2
:1055D0000E94AC2D0E94B42D9B838A838AEF0E9487
:1055E0005E2EA0917008B0E023EB36EE4EE050E066
:1055F0000E948C330091E00A1091E10A2091E20AA6
:105600003091E30A6B017C01C00ED11EE21EF31E35
:10561000C701B60123EB36EE4EE050E00E94BB33EB
:1056200026013701461A570A680A790AD301C201CE
:105630000091DC0A1091DD0A2091DE0A3091DF0A28
:1056400043EB842E46EE942E4EE0A42EB12C68013E
:1056500079014FEFC41AD40AE40AF40A81155AEC0E
:1056600095075AE9A5075BE3B507C8F02C013D0192
:105670002AEC521A2AE9620A2BE3720AC301B20128
:10568000A50194010E94BB33A3019201261B370B95
:10569000480B590BDA01C90197018601D8CF009355
:1056A000DC0A1093DD0A2093DE0A3093DF0A809330
:1056B000E00A9093E10AA093E20AB093E30AE09132
:1056C000E50AF091E60A8581882339F181858430E5
:1056D00021F18781823029F0882341F08681811170
:1056E00002C085E001C083E0818714C083E0818728
:1056F0001782168285899689A789B08D892B8A2B76
:105700008B2B41F4818D928DA38DB48D858B968BDF
:10571000A78BB08F80850E94A225E091E50AF091C9
:10572000E60A85A196A1A7A1B0A5892B8A2B8B2B70
:1057300009F444C02085222309F440C081858430C7
:10574000E9F1858D968DA78DB0A14091700850E04C
:1057500060E070E084179507A607B70768F4622F2A
:1057600082E00E94DA1FE091E50AF091E60A158EC8
:10577000168E178E10A208C0841B950BA60BB70BB4
:10578000858F968FA78FB0A3E091E50AF091E60A86
:105790001085858D968DA78DB0A1892B8A2B8B2B9B
:1057A00069F4612F83E00E94DA1FE091E50AF0912D
:1057B000E60A83E08187812F0E94A2258BEF99E082
:1057C0009D838C8300E61AEE312C9AEFC92ED12CE2
:1057D000E12CF12C22E0222E812C912C5401839477
:1057E000EC81FD81319780818F3F09F4FFC0EC810E
:1057F000FD8134971082EC81FD81F081F98388234B
:1058000009F468C0F43009F4F1C0EC81FD814484EE
:105810005584668477846091700870E080E090E041
:10582000461657066806790648F0461A570A680A67
:10583000790A448655866686778606C0EC81FD81A6
:105840001486158616861786EC81FD81408851885E
:1058500062887388461657066806790648F0A301E1
:105860009201261B370B480B590BDA01C90113C0F3
:10587000EC81FD81208D318D428D538D6217730730
:105880008407950768F429013A01461A570A680AFD
:10589000790AD301C201808B918BA28BB38B08C094
:1058A0000E94BB33EC81FD81608B718B828B938B6B
:1058B000EC81FD8180899189A289B389892B8A2B0A
:1058C0008B2B41F4808D918DA28DB38D808B918B2C
:1058D000A28BB38BF981F33009F088C0EC81FD8194
:1058E00084859585A685B785892B8A2B8B2B09F016
:1058F0006AC0DF0112978C919F01235031098823E0
:10590000A9F0F9018081882389F0B501A4010090F4
:10591000D50A04C0440F551F661F771F0A94D2F79B
:10592000EC81FD8140875187628773871C92F90162
:105930001082EC81FD81A0A1B1A1408C518C628CC0
:10594000738C448D558D668D778DA130B105C9F46A
:10595000448B558B668B778B208280899189A289B5
:10596000B38984879587A687B7874528462847281F
:1059700021F4C486D586E686F786832D0E94F62418
:1059800022C0EC81FD81448B558B668B778B119700
:10599000A30192010E948C3364877587868797875D
:1059A000608B718B828B938B45284628472821F486
:1059B000C486D586E686F78644244394512CEC8130
:1059C000FD8151A240A2EC81FD8184859585A6854B
:1059D000B7850097A105B10549F0A80160E070E026
:1059E00084179507A607B70708F48C0133942C8118
:1059F0003D81255D3F4F3D832C8335E03312F0CE52
:105A00000E94E524F82E4BE28402F0011124EE50AE
:105A1000F64F22852093E70AF093D70AE093D60A3F
:105A20008823D9F085A196A1A7A1B0A5892B8A2B9F
:105A30008B2B99F0858D968DA78DB0A18A3F91050E
:105A4000A105B10550F4A80160E070E08417950746
:105A5000A607B70710F48C0105C00B3F110510F025
:105A60000AEF10E02093D80AF093E60AE093E50AE3
:105A7000009370080E94C02E282F30E02F5F3F4F08
:105A80002017310740F00E94C02E082F10E00E5F53
:105A90001F4F00937008F1101092D90A802F0E94B6
:105AA0005E2E6CED75E08A819B810E94C62D0E945E
:105AB000E3310F900F900F900F900F90DF91CF91E7
:105AC0001F910F91FF90EF90DF90CF90BF90AF901C
:105AD0009F908F907F906F905F904F903F902F900E
