:100000000C9414020C9493210C94C5210C94F721A8
:100010000C9433020C9433020C9433020C9433028C
:100020000C9433020C9461210C9433020C9433022F
:100030000C9433020C94C01F0C9433020C94C01F18
:100040000C9433020C9433020C9433020C9433025C
:100050000C9433020C9433020C9433020C9433024C
:100060000C9433020C94A2070C9433020C943302C8
:100070000C9433020C9433020C9433020C9433022C
:100080000C94F31F0C9433020C9433020C9433023F
:100090000C9433020C9433020C9433020C9433020C
:1000A0000C9433020C9433020C9433020C943302FC
:1000B0000C9433020C9433020C9433020C943302EC
:1000C0000C9433020C9433020C9433020C943302DC
:1000D0000C9433020C9433020C9433020C943302CC
:1000E0000C9433020C94C2050C94B3050C94830554
:1000F0000C9473060C9474050C9465050C945305CC
:100100000C9444050C9433020C9433020C94330287
:100110000C9433020C9433020C9433020C9433028B
:1001200081088E089B08A808B508C208CF08F20805
:1001300000090E091C092A093809460969096B09D1
:100140006D096F097109730975099409B709DB090C
:10015000FE09210A440A670AA10AAE0ABB0AC80AB4
:10016000D50AE20AEF0A080B150B220B2F0B3C0BEA
:10017000490B560B2A0F2D0F380F3D0F440F4D0F13
:10018000500F550F5C0F650FBB0FC10FC40FC70F8A
:10019000CA0FCD0FD30FD00FD60FD90FDC0FE50F3D
:1001A000E80FEB0FEE0FE20FB80FBE0FF10FF40FD9
:1001B000DF0FB50F75617274207278207369672044
:1001C0006661696C65640D0A00554E4B4F574E00D1
:1001D00045787465726E616C205265736574004277
:1001E000726F776E204F7574204465746563740078
:1001F0004661696C656420746F2063726561746523
:100200002053656D6170686F7265004661696C6549
:100210006420746F20637265617465205369676E32
:10022000616C004B65726E656C2066756E637469F7
:100230006F6E206E6F7420696D706C656D656E7485
:100240006564004465766963652044726976657209
:10025000204572726F72005761746368646F672023
:1002600052657374617274005357205761746368E8
:10027000646F6720526573746172740054696D65B0
:1002800072204F766572666C6F7700556E68616E8E
:10029000646C656420496E74657272757074205662
:1002A0006563746F72004C6F7720566F6C74616772
:1002B00065004578747261205461736B20737461BA
:1002C000727465642C206973206E726B5F6366675D
:1002D0002E68206F6B3F0049646C65206F72204B65
:1002E00065726E656C20537461636B204F76657226
:1002F000666C6F7700556E65787065637465642011
:1003000052657374617274004475706C69636174D2
:100310006564205461736B204944005363686564CD
:10032000756C6572204D69737365642057616B65E8
:100330007570005461736B20526573657276652029
:1003400056696F6C61746564005265736572766599
:10035000204572726F7220696E2053636865647500
:100360006C657200496E76616C69642053746163D8
:100370006B20506F696E746572005461736B20530B
:100380007461636B204F766572666C6F770053748F
:1003900061636B20776173206E6F7420646566699A
:1003A0006E6564206173206C6172676520656E6F95
:1003B00075676821005461736B20706572696F64A2
:1003C00020746F6F206C617267652E2050657269B2
:1003D0006F64206D757374206265206C6573732083
:1003E0007468616E203631207365636F6E64732E9E
:1003F00000293A20002A4E524B204552524F522893
:10040000000D0A535441434B2044554D500D0A00F2
:1004100045464765666700202B2D2E303132333438
:10042000353637383968000011241FBECFEFD1E4CC
:10043000DEBFCDBF13E0A0E0B2E0ECE5F0E500E008
:100440000BBF02C007900D92A039B107D9F716E093
:10045000A0E9B3E001C01D92A43AB107E1F70E9400
:100460000C230C942C280C94B61F909141019F7181
:100470009F31D9F3809342010895809390030895AA
:1004800081E08093B40408951092B404089580919B
:1004900041018F718F31D9F3809141018F71E1F06A
:1004A0008F30D1F0809141018F71883031F480918B
:1004B00039018260809339010BC088E00E943502C7
:1004C000809141018F718830D9F7F1CF8F3021F0C1
:1004D000809141018F71D1F70895809141018F7111
:1004E0008F31D9F3809141018F7111F08F3051F428
:1004F000809139018D7F80933901809141018F7105
:100500008830D9F7089589E00C943502E5E4F1E0EC
:100510009081907F908390818F70982B9083089525
:10052000E7E5F1E080818D7F80830895E7E5F1E0E4
:100530008081826080830895EEE6F1E080818F7E85
:1005400080830895EEE6F1E08081806180830895E4
:1005500080936001909361019093BE048093BD04E9
:1005600008959093B8048093B704E8E4F1E08081A3
:10057000807E80838081682B6083089590939403AC
:100580008093930308959093920380939103089529
:100590000F931F93CF93DF93FC01D90180E28093E7
:1005A000440180EC8093450160626093480185ECD2
:1005B0008093490187EA80934B0180E880934C0146
:1005C00020936001B09361014093620150936301F5
:1005D000C6E4D1E00881888198812881302F329546
:1005E0003695377060E4369F800111242295269558
:1005F0002370622F602B82958695837070E1879FB0
:1006000090011124262B92959695937084E0989FE3
:10061000B0011124622B60936D01888198819295BD
:1006200096959370392F3064982F92959670932BEE
:1006300090936E0110926C018FEF80934E01C7EB87
:10064000D4E0F983E8831A821B825D834C83BF83E5
:10065000AE83188681E08093D1041092E804109252
:10066000C0041092B404DF91CF911F910F910895AF
:1006700086E10C94350286E10C94350288E00E94F4
:1006800035021092E80408950F931F93CF93DF93E0
:10069000FC018091D104811102C08FEFABC0268193
:1006A0008091B9048F5F8093B90490918101907E0D
:1006B000916020FB95F99F7390649093810188E885
:1006C000809382018091B404882361F08FEF80933E
:1006D00083018AEA9AEA90938901809388018FEFD7
:1006E0009FEF10C08091B904809383012091610134
:1006F0008091600190E0922B909389018093880112
:10070000808191819093870180938601209163017C
:100710008091620190E0922B9093850180938401F7
:100720008F014281552747FD5095638174818AE886
:1007300091E00E945425F8018281855F80938001B9
:1007400080914101D82FDF719FEF9D0F9230C0F350
:10075000D131B1F3D231A1F3DF3191F398EF9D0F95
:10076000923020F08F70863009F097CF86E10E949A
:100770003502F801858181110BC089E00E943502A4
:10078000F8018681882391F089E10E9435020EC02C
:10079000809148018068809348018091410187FFE2
:1007A000FCCF8091410186FF78CFE7CF1092C00443
:1007B00082E00E94350280E090E02091C004211187
:1007C00005C00196883EFDEF9F07B9F7F801268125
:1007D000222331F02091420122952695277029F499
:1007E000883E9D4F11F0C1E001C0CFEF8D2F0E94D8
:1007F00035028C2FDF91CF911F910F9108950E94A8
:10080000440389E893E12091C004211104C00197B9
:10081000D1F78FEF089581E008951092C00482E02F
:100820000E94350288EE9DEF2091C004211104C082
:100830000197D1F78FEF089581E00895CF93DF936B
:100840008091D104882341F180914101C82FCF715B
:100850009FEF9C0F9230C0F3C131B1F3C231A1F3CD
:10086000CF3191F3C83019F08F708630A9F486E14A
:100870000E943502809148018068809348018091F0
:10088000410187FFFCCFD09141018C2F0E9435029E
:10089000D6FB882780F901C08FEFDF91CF910895B3
:1008A0008091D104811103C081E792E01BC0809147
:1008B000E804811106C08FE792E00E94082680E0DC
:1008C000089580917B01E091B704F091B80490E025
:1008D00002972481332727FD30952817390734F4F0
:1008E0008DE892E00E9408268FEF0895E091B7040A
:1008F000F091B804809182018083E091B704F09177
:10090000B804809187019091880192838183E0915E
:10091000B704F091B80480917B018B508383A09140
:10092000B704B091B804E091B704F091B8041396FD
:100930009C91848189173CF0E091B704F091B80450
:10094000838187FF0FC01092E80480914C018F775C
:1009500080934C0180914C01806880934C018FE919
:1009600092E0C0CFA091B704B091B804E091B70471
:10097000F091B80413964C91552747FD509569E8BE
:1009800071E0858196810E9454258091900388238F
:1009900009F43EC0E091B704F091B804838180313E
:1009A000B9F5E091B704F091B8046581768144E02F
:1009B00050E082E092E00E945D25892B49F5E091AC
:1009C000B704F091B8046581768140E150E082E09F
:1009D00092E00E945D25892BD9F49DE088E10FB655
:1009E000F894A895809360000FBE9093600080E01B
:1009F00090E00E949E0B81E090E00E949E0B82E0BE
:100A000090E00E949E0B83E090E00E949E0BFFCF3F
:100A1000E091B704F091B8048091800185FB8827AC
:100A200080F98783E091B704F091B8048091470181
:100A30008087E091B704F091B804809146018695D3
:100A4000869586958187E091B704F091B8048091EE
:100A500047018287A091B704B091B804E0917B016F
:100A6000F0E0E058FE4F80811B968C931092E804D2
:100A700080914C018F7780934C0180914C0180686C
:100A800080934C0181E008951F920F920FB60F9250
:100A900011248F9380E880934F018F910F900FBEA8
:100AA0000F901F9018951F920F920FB60F9211245E
:100AB0008F9381E08093C00480E480934F018F91F5
:100AC0000F900FBE0F901F9018951F920F920FB6A8
:100AD0000F9211248F9380E280934F018F910F909A
:100AE0000FBE0F901F9018951F920F920FB60F9286
:100AF00011248F9380E180934F018F910F900FBE4F
:100B00000F901F9018951F920F920FB60F921124FD
:100B10000BB60F922F933F934F935F936F937F93F7
:100B20008F939F93AF93BF93EF93FF9384E0809352
:100B30004F01E0919303F0919403309709F00995E8
:100B4000FF91EF91BF91AF919F918F917F916F91A5
:100B50005F914F913F912F910F900BBE0F900FBE61
:100B60000F901F9018951F920F920FB60F9211249D
:100B70008F9382E080934F018F910F900FBE0F9063
:100B80001F9018951F920F920FB60F9211248F93FA
:100B900081E080934F018F910F900FBE0F901F90B7
:100BA0001895E9E4F1E09081907F908390818F70B7
:100BB000982B908308958FEF0895089508950895D0
:100BC0008FEF08958091B2049091B3040895089531
:100BD00081E0089581E0089581E0089508950895E1
:100BE00008950895089508950895089598988DB1E9
:100BF000806E8DB98EB1806A8EB9089598988DB146
:100C0000806E8DB98EB180668EB90895CF92DF92D5
:100C1000EF92FF920F931F93CF93DF93CDB7DEB781
:100C200027970FB6F894DEBF0FBECDBF0E94CF0C42
:100C3000E091B704F091B804C080D380E580F680DD
:100C400000850E94500418161CF088EC92E006C043
:100C5000F7011081111107C087EE92E00E9408266B
:100C60000E94D10C31C0153021F48AE090E00E943E
:100C70000226C70101969F938F93802F992787FDA6
:100C800090959F930F931F921F931F92CF9289E08D
:100C900093E09F938F930E94EE25FD82EC8211508A
:100CA000F7011083DB821E821F828FEF9FEF9A83F2
:100CB00089830E94D10CCE0101960E9444030FB695
:100CC000F894DEBF0FBECDBF27960FB6F894DEBFF7
:100CD0000FBECDBFDF91CF911F910F91FF90EF908D
:100CE000DF90CF9008951F920F920FB60F921124AC
:100CF0000BB60F922F933F934F935F936F937F9316
:100D00008F939F93AF93BF93EF93FF9380E0909166
:100D10007B01891710F48F5FFACF8091460187FF1E
:100D200004C081E08093E80404C082E393E00E9461
:100D3000082688E080934F018091460187FF05C017
:100D40008091B40481110E940606E0919103F09114
:100D50009203309709F00995FF91EF91BF91AF9100
:100D60009F918F917F916F915F914F913F912F91C3
:100D70000F900BBE0F900FBE0F901F901895A1EC17
:100D8000B4E0FC01409620812D93219120933F01F6
:100D9000E817F907C1F780E110923E018150E1F7B1
:100DA00080E880933C0180913D0180FFFCCFE2ED23
:100DB000F4E080E18E0F90913F0191938E13FBCF71
:100DC0000895CF93DF93DC01662309F445C0862F95
:100DD0008F7009F041C0E1ECF4E090E19E0F2191A9
:100DE00020933F019E13FBCF90E070E0E0E240E1F2
:100DF000949F90011124261737077CF5911103C0A9
:100E000010923C0102C0E0933C0140E050E02A0F08
:100E10003B1FE901C40FD51FF881F0933E014F5FDE
:100E20005F4F40315105A9F740913C014068409324
:100E30003C0140913D0140FFFCCF40E050E0F0918B
:100E40003E01E901C40FD51FF8834F5F5F4F40316A
:100E50005105A9F79F5FCBCF81E0DF91CF91089536
:100E60000F931F93CF93DF93DC01613009F458C0D7
:100E7000862F8F7009F054C0E2EDF4E090E19E0FF0
:100E8000219120933F019E13FBCF62956F706150BB
:100E900078E06F3F09F445C070933C01462F552719
:100EA00047FD509520E030E0ED0190E16902C00D72
:100EB000D11D1124FE01E20FF31F908190933E019A
:100EC0002F5F3F4F20313105A9F790913C01906889
:100ED00090933C0190913D0190FFFCCF415051090E
:100EE00094E0440F551F9A95E1F720E030E090918F
:100EF0003E018E01020F131FF8019083662349F013
:100F0000F901E40FF51FEA0FFB1FE0819E27F801AE
:100F100090832F5F3F4F2031310549F76150B9CFA2
:100F200081E0DF91CF911F910F9108959091C000C2
:100F300095FFFCCF9091C0009F7D9093C00080935F
:100F4000C60008951F920F920FB60F9211240BB690
:100F50000F922F933F934F935F936F937F938F9352
:100F60009F93AF93BF93EF93FF930E94CF0C809119
:100F7000C00087FFFCCF8091C0008F778093C000B6
:100F80002091C6008091A6039091A703FC01EA5628
:100F9000FC4F208301968031910529F09093A7039F
:100FA0008093A60304C01092A7031092A603809119
:100FB00095030E9497128091C0008F778093C000A4
:100FC0000E94D10CFF91EF91BF91AF919F918F91B2
:100FD0007F916F915F914F913F912F910F900BBE39
:100FE0000F900FBE0F901F90189581110DC081E0DA
:100FF0004091A8035091A9032091A6033091A70323
:101000004217530751F408C0813031F48091C80071
:10101000881F8827881F089580E008958091950390
:101020008F3F19F48EE00E9451108091950308952E
:10103000CF93DF93FC012491EC012196222351F000
:1010400060919C0670919D06822F90E00E94B625CB
:10105000CE01F0CFDF91CF9108952091A803309178
:10106000A9038091A6039091A7032817390769F473
:10107000809195030E94651260919503772767FD23
:101080007095872F972F0E9408136F3F21F484EBF0
:1010900091E00E9418082091A8033091A903F9015A
:1010A000EA56FC4F80812F5F3F4F2031310528F4F5
:1010B0003093A9032093A80308951092A9031092D6
:1010C000A803089586E084B985B988EF8AB980EFCE
:1010D0008BB982E08DB908950C9462088F3F09F4B2
:1010E0006CC0E82FE7704E2F50E04730510508F0F4
:1010F00064C0FA01E057FF4F8695869586950C945B
:10110000312542B121E030E0B90102C0660F771FFE
:101110008A95E2F7CB01842B82B94DC045B121E01D
:1011200030E0B90102C0660F771F8A95E2F7CB0164
:10113000842B85B940C048B121E030E0B90102C03C
:10114000660F771F8A95E2F7CB01842B88B933C0ED
:101150004BB121E030E0B90102C0660F771F8A95DC
:10116000E2F7CB01842B8BB926C04EB121E030E0F1
:10117000B90102C0660F771F8A95E2F7CB01842B75
:101180008EB919C041B321E030E0B90102C0660F49
:10119000771F8A95E2F7CB01842B81BB0CC044B347
:1011A00021E030E0B90102C0660F771F8A95E2F7AF
:1011B000CB01842B84BB81E008958FEF08958F3F8E
:1011C00009F473C0E82FE7704E2F50E04730510507
:1011D00008F06BC0FA01E956FF4F86958695869513
:1011E0000C94312542B121E030E0B90102C0660F14
:1011F000771F8A95E2F7CB018095842382B953C08B
:1012000045B121E030E0B90102C0660F771F8A9531
:10121000E2F7CB018095842385B945C048B121E030
:1012200030E0B90102C0660F771F8A95E2F7CB0163
:101230008095842388B937C04BB121E030E0B901F3
:1012400002C0660F771F8A95E2F7CB018095842351
:101250008BB929C04EB121E030E0B90102C0660F60
:10126000771F8A95E2F7CB01809584238EB91BC046
:1012700041B321E030E0B90102C0660F771F8A95C3
:10128000E2F7CB018095842381BB0DC044B321E0FC
:1012900030E0B90102C0660F771F8A95E2F7CB01F3
:1012A0008095842384BB81E008958FEF08958F3F5C
:1012B00031F1E82FE7704E2F50E047305105F8F438
:1012C000FA01E256FF4F282F2695269526950C9475
:1012D000312590B10BC093B109C096B107C099B147
:1012E00005C09CB103C09FB101C092B3892F90E0AB
:1012F00002C0959587952A95E2F7817008958FEF42
:1013000008958F3F09F406C1E82FE7704E2F50E093
:101310004730510508F0FEC0FA01EB55FF4F8695A6
:10132000869586950C94312520B130E0082E02C0B8
:10133000359527950A94E2F742B120FD0BC021E0D4
:1013400030E0B90102C0660F771F8A95E2F7CB0142
:10135000842B0BC021E030E0B90102C0660F771F7B
:101360008A95E2F7CB018095842382B916C023B118
:1013700030E0082E02C0359527950A94E2F745B172
:1013800020FD0DC021E030E0B90102C0660F771FDB
:101390008A95E2F7CB01842B85B981E0089521E09D
:1013A00030E0B90102C0660F771F8A95E2F7CB01E2
:1013B00080958423F1CF26B130E0082E02C0359508
:1013C00027950A94E2F748B120FD0BC021E030E0F8
:1013D000B90102C0660F771F8A95E2F7CB01842B13
:1013E0000BC021E030E0B90102C0660F771F8A957B
:1013F000E2F7CB018095842388B9CFCF29B130E0C3
:10140000082E02C0359527950A94E2F74BB120FDCE
:101410000BC021E030E0B90102C0660F771F8A954A
:10142000E2F7CB01842B0BC021E030E0B90102C010
:10143000660F771F8A95E2F7CB01809584238BB9DD
:10144000ACCF2CB130E0082E02C0359527950A9418
:10145000E2F74EB120FD0BC021E030E0B90102C03F
:10146000660F771F8A95E2F7CB01842B0BC021E032
:1014700030E0B90102C0660F771F8A95E2F7CB0111
:10148000809584238EB989CF2FB130E0082E02C019
:10149000359527950A94E2F741B320FD0BC021E072
:1014A00030E0B90102C0660F771F8A95E2F7CB01E1
:1014B000842B0BC021E030E0B90102C0660F771F1A
:1014C0008A95E2F7CB018095842381BB66CF22B356
:1014D00030E0082E02C0359527950A94E2F744B310
:1014E00020FD0BC021E030E0B90102C0660F771F7C
:1014F0008A95E2F7CB01842B0BC021E030E0B901E3
:1015000002C0660F771F8A95E2F7CB01809584238E
:1015100084BB43CF8FEF08958F3F09F4D5C0E82FE8
:10152000E7704E2F50E0611167C04730510508F059
:10153000CBC0FA01E455FF4F8695869586950C94AD
:10154000312541B121E030E0B90102C0660F771FBB
:101550008A95E2F7CB018095842365C044B121E0F0
:1015600030E0B90102C0660F771F8A95E2F7CB0120
:101570008095842365C047B121E030E0B90102C005
:10158000660F771F8A95E2F7CB018095842365C0AB
:101590004AB121E030E0B90102C0660F771F8A9599
:1015A000E2F7CB018095842365C04DB121E030E0A6
:1015B000B90102C0660F771F8A95E2F7CB018095CB
:1015C000842365C040B321E030E0B90102C0660F5A
:1015D000771F8A95E2F7CB018095842365C043B3DA
:1015E00021E030E0B90102C0660F771F8A95E2F76B
:1015F000CB018095842365C04730510508F064C055
:10160000FA01ED54FF4F8695869586950C94312509
:1016100041B121E030E0B90102C0660F771F8A9521
:10162000E2F7CB01842B81B94DC044B121E030E019
:10163000B90102C0660F771F8A95E2F7CB01842BB0
:1016400084B940C047B121E030E0B90102C0660F63
:10165000771F8A95E2F7CB01842B87B933C04AB153
:1016600021E030E0B90102C0660F771F8A95E2F7EA
:10167000CB01842B8AB926C04DB121E030E0B901FD
:1016800002C0660F771F8A95E2F7CB01842B8DB9D4
:1016900019C040B321E030E0B90102C0660F771FE6
:1016A0008A95E2F7CB01842B80BB0CC043B321E0C9
:1016B00030E0B90102C0660F771F8A95E2F7CB01CF
:1016C000842B83BB81E008958FEF0895811106C0BC
:1016D00080B18695817091E0892708958FEF0895F4
:1016E000009711F483E20DC08130910511F48BE273
:1016F00008C08230910511F483E303C0039729F4F5
:101700008BE30E94810981E008958FEF089500978F
:1017100011F483E20DC08130910511F48BE208C011
:101720008230910511F483E303C0039729F48BE31E
:101730000E946E0881E008958FEF0895009711F4DC
:1017400083E20DC08130910511F48BE208C0823034
:10175000910511F483E303C0039729F48BE30E94FE
:10176000DF0881E008958FEF0895882319F085B789
:101770008F7E02C085B7806185BF81E0089590911A
:10178000C80095FFFCCF8093CE0008959093C500CC
:101790008093C40086E08093C200E1ECF0E0808199
:1017A0008B7F8083A0ECB0E08C9182608C938081F1
:1017B0008861808308959093CD008093CC0086E06B
:1017C0008093CA00E9ECF0E080818B7F8083A8ECF5
:1017D000B0E08C9182608C938081886180830895D1
:1017E0000E94C60B6DE278E086E997E00E946B25C7
:1017F00090939D0680939C066DE278E086E997E0E1
:101800000E946B2590939B0680939A060E94551127
:10181000809395038F3F19F48EE00E94511010922F
:10182000A9031092A8031092A7031092A603809117
:10183000C10080688093C10008958091C80087FF2F
:10184000FCCF8091C8008F778093C8008091CE0034
:10185000089500000000000000000197D1F70895EE
:101860000C94C6260E94CE260895EF92FF920F9305
:101870001F93CF93DF937C0180E090E00E94C62607
:10188000182FF701838381E090E00E94C626082F7D
:10189000F701828382E090E00E94C626D82FF701EC
:1018A000818383E090E00E94C626C82FF7018083E1
:1018B00084E090E00E94C626100FD10FCD0F8C1748
:1018C00011F08FEF01C081E0DF91CF911F910F9157
:1018D000FF90EF900895CF93DF93EC0185E090E0C7
:1018E0000E94C626888381E0DF91CF910895FC0194
:1018F000608186E090E00E94CE2681E00895CF933B
:10190000DF93EC0186E090E00E94C626888381E0A8
:10191000DF91CF9108950F931F93CF93DF938C01A5
:10192000C0E0D0E0CE0108960E94C626F80181935F
:101930008F012196C031D105A9F781E0DF91CF91C8
:101940001F910F9108950F931F93CF93DF938C01F5
:10195000C0E0D0E0F80161918F01CE0108960E94AD
:10196000CE262196C031D105A9F781E0DF91CF9134
:101970001F910F910895CF93DF93EC0187E090E0E2
:101980000E94C626888381E0DF91CF910895FC01F3
:10199000608187E090E00E94CE2681E00895F8946F
:1019A0000895789408950E94CF0CFFCFCF93DF93D2
:1019B000CDB7DEB7A3970FB6F894DEBF0FBECDBF8D
:1019C0000E9455118093FC058F3F21F460E08EE06A
:1019D0000E945F100E942F2080FF04C060E086E01C
:1019E0000E945F101092FF0510920D0610920C06D7
:1019F0001092FE051092FD0510920E060E94231D06
:101A000010920B0680E090E02FEFFC01E151FA4FBD
:101A100020832283218303968C309105B1F780E0E7
:101A200090E033E62FEFFC01E551FB4F3287208732
:101A30008B96823041E09407B1F7EFE0F6E0CF01FA
:101A4000059694838383F783E683FC0186E0ED3279
:101A5000F807A9F71092110610921006109231069D
:101A60001092300610920206109201068FE096E066
:101A70009093EA048093E90466E47AE1CE0101964A
:101A80000E94672240E850E06EE274E0CE010196C9
:101A90000E946B2285E580932E0419861C861D8684
:101AA0001E861F86188A198A1A8A1B8A1C8A1D8A12
:101AB0001E8A1F8A188E198E1A8E1B8E1C8E1D8EE2
:101AC0001E8E1F8E18A219A21AA21BA281E088875F
:101AD00092E09A878B87CE0101960E948315A39688
:101AE0000FB6F894DEBF0FBECDBFDF91CF91089542
:101AF00003EF14E0C0E0F801D080FFEFDF1222C056
:101B0000CF5F055D1F4FC630B1F70E9476142BE200
:101B10008202C0011124FC01E551FB4F82858093B4
:101B20000E06F0930D06E0930C06F093FE05E0938D
:101B3000FD058093FF050E94DD220E94C7220E94BE
:101B4000E12216C083EFE82E84E0F82ED0E0CD1716
:101B500041F0F7018081D81204C06D2D85E00E940C
:101B60005F10DF5FFBE2EF0EF11CD63081F7C8CFCC
:101B7000FFCFCF92DF92EF92FF920F931F93CF93FD
:101B8000DF93EC018B017A018985823021F080910D
:101B9000FB05888301C018828091FB05863020F008
:101BA00060E087E00E945F108985823029F0809193
:101BB000FB058F5F8093FB058091FB05811103C0BE
:101BC00081E08093FB0538812BE23203F001112480
:101BD000E551FB4F1183008388858287388132036A
:101BE000F0011124E551FB4F83E0818738813203F6
:101BF000F0011124E551FB4F308708810203800179
:101C0000112405511B4FF8011582CE010B960E943D
:101C1000DC19F80161A372A383A394A38B859C852F
:101C2000AD85BE8588339948A144B10520F068810F
:101C300086E10E945F10C880DD24C7FCD094CE01ED
:101C40004B960E94DC191BE21C9DF0011D9DF00DBE
:101C50001124E551FB4F658B768B878B908F288104
:101C60002103C00111249C0125513B4F6901F90159
:101C7000458956896789708D81A192A1A3A1B4A1DC
:101C8000840F951FA61FB71F818F928FA38FB48FCC
:101C9000CE0143960E94DC19F60165A376A387A3C3
:101CA00090A728812103F0011124E551FB4F85A164
:101CB00096A1A7A1B0A5858F968FA78FB0A381E02D
:101CC00090E092A781A7F382E2828487DF91CF918F
:101CD0001F910F91FF90EF90DF90CF9008950C949B
:101CE0006A1A85E690E00895E0910C06F0910D06E1
:101CF00084870895E0910C06F0910D06848508957F
:101D0000FC0180912D04882331F0DB018C938091BC
:101D1000AC03808381E0089510922D04089513BCD4
:101D20001092B60018BC17BC16BC15BC14BC1DBA6A
:101D30001CBA1BBA10929B0010929A001092990044
:101D400010929800109295001092940010929100B9
:101D50001092900018BA109271001092B400109274
:101D6000B3001092B2001092B100E0EBF0E01082EC
:101D7000108217BA109270008FEF84BF0895CF932E
:101D8000DF931F92CDB7DEB719828981843640F484
:101D900080ED97E00E94651E89818F5F8983F5CF72
:101DA0000F90DF91CF91089581E090E00E949E0B0B
:101DB0000E94BF0E0E94BF0E0E94BF0E81E090E005
:101DC0000E94870B0C94BF0E81E090E00E949E0B56
:101DD0000E94BF0E81E090E00E94870B0C94BF0E22
:101DE000FF920F931F93CF93DF9300D01F92CDB735
:101DF000DEB71F928F938BE493E09F938F938E01B6
:101E00000F5F1F4F1F930F930E9438260F900F9064
:101E10000F900F900F900F90F12CF801019000207F
:101E2000E9F73197E01BF10B8F2D90E08E179F079C
:101E300008F05DC0F801E80FF91FE0818E2F90E0F7
:101E4000FC01F097EA30F10508F049C0E654FF4F75
:101E50000C9431250E94D40E02C00E94E40E0E9410
:101E6000D40E0E94D40E0E94D40E0E94D40E37C00D
:101E70000E94E40E0E94E40EF4CF0E94E40E0E9441
:101E8000E40E0E94E40EEFCF0E94E40E0E94E40EE6
:101E90000E94E40E0E94E40EE8CF0E94E40E02C00D
:101EA0000E94D40E0E94E40E04C00E94D40E0E9430
:101EB000D40E0E94E40E06C00E94D40E0E94D40EDE
:101EC0000E94D40E0E94E40E08C00E94D40E0E940C
:101ED000D40E0E94D40E0E94D40E0E94E40E0E94E2
:101EE000BF0E0E94BF0E0E94BF0EF39496CF0F90BC
:101EF0000F900F90DF91CF911F910F91FF90089558
:101F00000F931F93CF93DF9380912D04882309F4BF
:101F1000C2C00E94CF0C0BE413E085EF93E00E9457
:101F200018088091AC031F928F931F930F930E9408
:101F3000EE2581EF93E00E9418080F900F900F900C
:101F40000F9080912D04883110F010922D04E091B3
:101F50002D048E2F90E0FC013197E631F10508F059
:101F600046C0EC53FF4F0C94312585EB93E041C004
:101F70008EE893E03EC08AE793E03BC084E693E0BE
:101F800038C089E493E035C083E393E032C08BE14D
:101F900093E02FC088E093E02CC085EF92E029C049
:101FA00087ED92E026C082EB92E023C086EA92E0C1
:101FB00020C08BE892E01DC08CE792E01AC088E652
:101FC00092E017C087E592E014C083E492E011C06C
:101FD00083E292E00EC08BE092E00BC080EF91E0D4
:101FE00008C08FED91E005C080ED91E002C089EC62
:101FF00091E00E94180860919C0670919D068DE00A
:1020000090E00E94B62560919C0670919D068AE042
:1020100090E00E94B625C4E182E090E00E949E0B11
:1020200083E090E00E94870BD4E688EE93E00E9464
:10203000651ED150D1F783E090E00E949E0B82E0B4
:1020400090E00E94870BD4E688EE93E00E94651E24
:10205000D150D1F7C15001F782E090E00E94870B88
:1020600083E090E00E94870B8091AC030E94F00E09
:102070000E94BF0E82E090E00E949E0B0E94BF0E65
:1020800082E090E00E94870B0E94BF0E80912D0499
:102090000E94F00E42CF80E0DF91CF911F910F910F
:1020A000089580932D04E0910C06F0910D06808533
:1020B0008093AC030E94800F10922D0408958093AA
:1020C0002D046093AC030E94800F10922D0408959C
:1020D0006F927F928F929F92AF92BF92CF92DF9238
:1020E000EF92FF920F931F93CF93DF9381E094E0E1
:1020F0000E941808E0910C06F0910D068085282FAB
:10210000332727FD30953F938F938EE493E09F9381
:102110008F930E94EE25E0910C06F0910D06C2818E
:10212000D381DF93CF9382E893E09F938F930E94B4
:10213000EE2588811F928F9387E593E09F938F937D
:102140000E94EE25E0910C06F0910D0681818F939F
:1021500080818F9384E693E09F938F930E94EE2576
:1021600080910D068F9380910C068F938EE693E0FD
:102170009F938F930E94EE25CBEED4E0EDB7FEB790
:1021800074960FB6F894FEBF0FBEEDBF00E010E0EE
:102190008EE7682E83E0782E97E5892E93E0992EBE
:1021A00024E6A22E23E0B22E3EE6C32E33E0D32E49
:1021B000EA80FB80FF92EF921F930F937F926F92C2
:1021C0000E94EE25F70180811F928F939F928F923C
:1021D0000E94EE2589818F9388818F93BF92AF9261
:1021E0000E94EE25DF93CF93DF92CF920E94EE25DF
:1021F0000F5F1F4FAB96EDB7FEB772960FB6F89410
:10220000FEBF0FBEEDBF0630110591F6DF91CF91F5
:102210001F910F91FF90EF90DF90CF90BF90AF9004
:102220009F908F907F906F900895CF93DF93E09170
:102230000C06F0910D06C281D3818881853539F075
:102240000E94681081E00E94511085E58883E0912A
:102250000C06F0910D06808191818115924438F031
:102260000E94681082E1DF91CF910C945110DF91B0
:10227000CF9108952BE28202C0011124FC01E551A7
:10228000FB4FA281B3818C91853519F085E58C9344
:1022900008C0808191818115924428F082E10E94DA
:1022A00051108FEF089581E008950F931F9340918F
:1022B000AE035091AF036091B0037091B10380E021
:1022C00090E08A019B01082E04C03695279517954A
:1022D00007950A94D2F700FD19C001E010E020E054
:1022E00030E0082E04C0000F111F221F331F0A9474
:1022F000D2F7402B512B622B732B4093AE0350939C
:10230000AF036093B0037093B10305C001968032B0
:102310009105B9F68FEF1F910F910895E0910C068A
:10232000F0910D0665857685878590890895CF9211
:10233000DF92EF92FF920F931F93CF93DF93C12C05
:10234000D12C7601C394082E04C0CC0CDD1CEE1CED
:10235000FF1C0A94D2F74091AE035091AF036091F5
:10236000B0037091B1034C215D216E217F21452B7B
:10237000462B472B09F460C0082F0E94CF0CE4EFD6
:10238000F4E0B701A601409550956095709513E073
:10239000DF0111978C918F3F39F184819581A6815E
:1023A000B7818C159D05AE05BF0551F410861186C9
:1023B000128613869F0122503109E9011882108389
:1023C00084239523A623B72384839583A683B78389
:1023D00080859185A285B38584239523A623B72381
:1023E00080879187A287B387BB96D5E0E63FFD073C
:1023F00079F68EEF9FEFAFEFBFEF04C0880F991F04
:10240000AA1FBB1F0A95D2F74091AE035091AF03AC
:102410006091B0037091B10384239523A623B72361
:102420008093AE039093AF03A093B003B093B10336
:102430000E94D10C81E001C08FEFDF91CF911F91FD
:102440000F91FF90EF90DF90CF9008950F931F931F
:1024500041E050E060E070E08A019B0104C0000FA1
:10246000111F221F331F8A95D2F7D901C801E091AD
:102470000C06F0910D064585568567857089042305
:10248000152326233723012B022B032BD1F0809514
:102490009095A095B095482359236A237B234587BF
:1024A00056876787708B4189528963897489842331
:1024B0009523A623B723818B928BA38BB48B81E0CA
:1024C00001C08FEF1F910F910895282F4091AE0307
:1024D0005091AF036091B0037091B103082E04C016
:1024E00076956795579547950A94D2F740FF1DC09A
:1024F000E0910C06F0910D0681E090E0A0E0B0E0E4
:1025000004C0880F991FAA1FBB1F2A95D2F74585C3
:10251000568567857089842B952BA62BB72B8587CD
:102520009687A787B08B81E008958FEF0895CF92AB
:10253000DF92EF92FF92CF93C12CD12C7601C394FE
:1025400004C0CC0CDD1CEE1CFF1C8A95D2F78091D8
:10255000AE039091AF03A091B003B091B1038C2171
:102560009D21AE21BF21892B8A2B8B2B11F481E079
:1025700044C00E94CF0CE2EFF4E0A4EFB4E0C0E06E
:1025800083E090819130B9F44285538564857585E7
:102590004C215D216E217F21452B462B472B59F085
:1025A0008C9316861786108A118A1082C286D3866B
:1025B000E486F586C1E090819230A1F4428553858E
:1025C000648575854C155D056E057F0559F48C9302
:1025D00016861786108A118A108212861386148630
:1025E0001586C1E0BB969B9695E0E43FF90749F656
:1025F0000E94D10CC11105C082E00E94740E8FEFC1
:1026000001C081E0CF91FF90EF90DF90CF900895CF
:102610000F931F93E0910C06F0910D06058516852A
:10262000278530890623172328233923011511050F
:102630002105310511F1DC01CB01818B928BA38B3C
:10264000B48B21E027830090FC0504C0B695A795C4
:10265000979587950A94D2F780FF03C00E94EB16E6
:1026600004C080E090E00E94BC16E0910C06F0915E
:102670000D060189128923893489C901B8011F9186
:102680000F91089590910B069330D0F4AFEEB5E022
:10269000E0E02C912F3F21F0EF5F1396E430C9F773
:1026A000F0E09F01220F331FE20FF31FE151FA4FB9
:1026B0008283808361839F5F90930B06CF0108958F
:1026C00080E090E0089525E08F3E920769F025E0D4
:1026D000823F920759F025E0853F920749F0885FD5
:1026E000954041F483E0089580E0089581E00895E5
:1026F00082E008958FEF08950E9463138F3F11F4D5
:1027000081E003C0843029F482E00E94740E8FEFD0
:102710000895992787FD9095FC01EE0FFF1F8E0FFE
:102720009F1FFC01E151FA4F82810895EF92FF92C1
:102730000F931F93CF93DF931F92CDB7DEB70E9405
:1027400063138F3F11F481E003C0843029F482E0E9
:102750000E94740E8FEF41C089830E94CF0C898143
:10276000E82EFF24E7FCF0948701000F111FF80109
:10277000EE0DFF1DE151FA4F9281911116C0E091CB
:102780000C06F0910D06978192609783992787FD3B
:102790009095A92FB92F818B928BA38BB48B0E941C
:1027A000D10C80E090E00E94BC160E0D1F1DD801D8
:1027B000A151BA4F12968C911297815012968C9318
:1027C0001297E0910C06F0910D0611968C9183877B
:1027D00081E084830E94D10C81E00F90DF91CF9142
:1027E0001F910F91FF90EF9008950F931F93CF9338
:1027F000DF931F92CDB7DEB70E9463138F3F11F4B2
:1028000081E003C0843029F482E00E94740E8FEFCF
:1028100044C0482F552747FD50959A01220F331F7A
:10282000240F351F890101511A4FF801228190812F
:10283000291794F589830E94CF0CF80192819F5F3C
:102840009283E0910C06F0910D061482E2EFF4E021
:102850008981992787FD9095A92FB92F23E0308191
:10286000323099F442855385648575854817590738
:102870006A077B0751F4228316861786108A118A0D
:1028800010821286138614861586BB9635E0E43FC7
:10289000F30729F70E94D10C81E00F90DF91CF91CF
:1028A0001F910F9108950E9463138F3F11F481E0EF
:1028B00003C0843029F482E00E94740E8FEF0895E3
:1028C000992787FD9095FC01EE0FFF1F8E0F9F1F2C
:1028D000FC01E151FA4F8FEF8083828381838091E5
:1028E0000B06815080930B0681E00895E09101066C
:1028F000F091020680810895E0910106F0910206B0
:10290000309721F00380F481E02DFACF0895AF9243
:10291000BF92CF92DF92EF92FF920F931F93CF93CC
:10292000DF93E091E904F091EA04309709F490C054
:1029300000910106109102060115110509F44CC021
:10294000D8014BE2582F54039001112425513B4FDD
:1029500079019AE0E90EF11C6901C4E0CC0ED11CAA
:102960005901DBE0AD0EB11C2C9130E0429FB0016B
:10297000439F700D112465517B4FEB019C8199237E
:1029800029F05B85E7019881591740F1E6019881AC
:10299000992369F0429FB001439F700D1124655146
:1029A0007B4FEB015A85E50198815917B8F0429F9A
:1029B000B001439F700D11249B0125513B4FE9014C
:1029C0002A85E7019881291748F013960D90BC914C
:1029D000A02D109749F602C0A0E0B0E08083C3812B
:1029E000D481D093EA04C093E904A017B107B1F4ED
:1029F000109749F0B483A383128211821296FC933C
:102A0000EE93119706C01482138212821182FA8308
:102A1000E983F0930206E09301061AC011968D91A6
:102A20009C911297AC17BD0759F092838183B483B0
:102A3000A3831196CD91DC911297FC83EB8304C0A4
:102A400014821382928381831296FC93EE931197E2
:102A5000DF91CF911F910F91FF90EF90DF90CF907A
:102A6000BF90AF900895CF93DF93E0910106F0916E
:102A70000206309709F444C0992787FD909520817C
:102A800030E02817390781F4A381B481B09302069E
:102A9000A093010612961C921E92119718C00380F3
:102AA000F481E02D309761F1208130E0281739075B
:102AB000B1F7C181D281838194819C838B83A3816F
:102AC000B481109721F01296DC93CE931197A091C8
:102AD000E904B091EA04109739F4F093EA04E09322
:102AE000E904148213820AC0B483A3831296FC9370
:102AF000EE931197F093EA04E093E90412821182B5
:102B0000DF91CF910895EF92FF920F931F93CF9390
:102B1000DF93EC014B815C8169817A818D819E819B
:102B20000E9489222F81222371F04B815C81E12C4C
:102B3000F12C00E010E020E030E0BC01CE010E946A
:102B4000B90D1F820CC0E8812BE2E202F0011124D2
:102B5000E551FB4F21852330B9F491838083E881CF
:102B60008BE2E802F0011124E551FB4F858996893B
:102B7000A789B08D892B8A2B8B2B41F482E081872A
:102B800088810E94871402C08FEF01C081E0DF912D
:102B9000CF911F910F91FF90EF9008951F93CF93C6
:102BA000DF93CDB7DEB728970FB6F894DEBF0FBE20
:102BB000CDBF29833A834B835C836D837E838F8370
:102BC00098870E94CF0C0E94B31F182FCE01019648
:102BD0000E94DC196330710598F0E0910C06F091C9
:102BE0000D06212F30E0620F731FCB01A0E0B0E093
:102BF000858B968BA78BB08F0E94D10C81E001C092
:102C00008FEF28960FB6F894DEBF0FBECDBFDF91D1
:102C1000CF911F9108950E945C22E0910C06F091E3
:102C20000D0685818111F7CF0895CF930E9415116C
:102C30000E94CF0CE0910C06F0910D0681E090E02F
:102C400092A781A785830E94B31FC82F883F80F475
:102C50000E944D1F2C2F30E02F5F3F4F90E0281730
:102C6000390734F482E08C0F809320040E94511FB6
:102C70000E94D10C0E940B1681E0CF910895E09143
:102C80000C06F0910D0680850E943315E0910C062C
:102C9000F0910D0684E081870E94151681E0089569
:102CA000CF93DF93EC010E941511209711F4C1E03E
:102CB000D0E00E94CF0CE0910C06F0910D0681E06F
:102CC0008583D2A7C1A70E94B31FC82F883F80F475
:102CD0000E944D1F2C2F30E02F5F3F4F90E02817B0
:102CE000390734F482E08C0F809320040E94511F36
:102CF0000E94D10C0E940B1681E0DF91CF910895C4
:102D0000EF92FF920F931F93CF938C010E94CF0CF1
:102D1000E0910C06F0910D0681E085830E94B31FBF
:102D2000C82FE0910C06F0910D06E82EF12CC7019A
:102D3000800F911FA0E0B0E0858B968BA78BB08FA2
:102D4000C83F78F40E944D1F9FEFE91AF90A90E0FE
:102D5000E816F90634F482E08C0F809320040E9478
:102D6000511F0E94D10C0E940B1681E0CF911F9140
:102D70000F91FF90EF900895CF93DF93EC010E94A5
:102D8000CF0CE0910C06F0910D0621E02583CE01D9
:102D9000A0E0B0E0858B968BA78BB08F0E94B31F0D
:102DA000C82F883F80F40E944D1F2C2F30E02F5FEA
:102DB0003F4F90E02817390734F482E08C0F80935E
:102DC00020040E94511F0E94D10C0E940B1681E02A
:102DD000DF91CF910895CF930E94CF0CE0910C0624
:102DE000F0910D0681E0858386830E94B31FC82F72
:102DF000883F80F40E944D1F2C2F30E02F5F3F4F03
:102E000090E02817390734F482E08C0F8093200477
:102E10000E94511F0E94D10C0E940B1681E0CF919D
:102E200008951F93CF93DF93CDB7DEB728970FB6E2
:102E3000F894DEBF0FBECDBF29833A834B835C83FA
:102E40006D837E838F8398870E9415110E94CF0C1B
:102E5000E0910C06F0910D0681E0858381E090E021
:102E600092A781A70E94B31F182FCE0101960E943E
:102E7000DC19E0910C06F0910D06DC01CB01810F0D
:102E8000911DA11DB11D858B968BA78BB08F183F0F
:102E900080F40E944D1F212F30E02F5F3F4F90E0C4
:102EA0002817390734F482E0810F809320040E94B0
:102EB000511F0E94D10C0E940B1681E028960FB67C
:102EC000F894DEBF0FBECDBFDF91CF911F91089563
:102ED0008F929F92AF92BF92CF92DF92EF92FF922A
:102EE0000F931F93CF93DF93CDB7DEB760970FB6E5
:102EF000F894DEBF0FBECDBF29873A874B875C872A
:102F00006D877E878F87988BCE0101960E94C417AC
:102F100089809A80AB80BC80CD80DE80EF80F88491
:102F200009851A852B853C854D855E856F85788959
:102F3000CE0109960E9421188F3F61F029853A85BC
:102F40004B855C856D857E858F8598890E941117DC
:102F500081E001C08FEF60960FB6F894DEBF0FBE20
:102F6000CDBFDF91CF911F910F91FF90EF90DF9038
:102F7000CF90BF90AF909F908F900895E0910C06F6
:102F8000F0910D06808508950F931F93CF93DF93E3
:102F9000EC011C821D821E821F828091030690918B
:102FA0000406A0910506B091060688839983AA833A
:102FB000BB838091070690910806A0910906B09105
:102FC0000A068C839D83AE83BF830E94B31FA82F04
:102FD000B0E023EB36EE4EE050E00E9495240C81E9
:102FE0001D812E813F81DC01CB01800F911FA21F2B
:102FF000B31F8C839D83AE83BF838C819D81AE8103
:10300000BF8181152AEC92072AE9A2072BE3B207B8
:1030100098F09A5CAA49BB438C839D83AE83BF839F
:1030200088819981AA81BB810196A11DB11D8883E8
:103030009983AA83BB83E1CFDF91CF911F910F9139
:1030400008958F929F92AF92BF92CF92DF92EF92AC
:10305000FF920F931F93CF93DF93CDB7DEB76097A7
:103060000FB6F894DEBF0FBECDBFFC0109831A83F3
:103070002B833C834D835E836F83788789869A8612
:10308000AB86BC86CD86DE86EF86F88A09811A81FA
:103090002B813C814D815E816F817885C984DA8482
:1030A000EB84FC848D859E85AF85B8890C151D0544
:1030B0002E053F05F0F1C016D106E206F30691F4A5
:1030C000481759076A077B07A0F1481B590B6A0B81
:1030D0007B0B44835583668377831082118212822F
:1030E000138225C0481759076A077B0780F40150EF
:1030F0001109210931090C191D092E093F09008305
:1031000011832283338356536546744C08C00C19CF
:103110001D092E093F090083118322833383481B35
:10312000590B6A0B7B0B448355836683778381E05D
:1031300001C08FEF60960FB6F894DEBF0FBECDBF13
:10314000DF91CF911F910F91FF90EF90DF90CF9083
:10315000BF90AF909F908F900895FC01448155815E
:103160006681778141158AEC58078AE968078BE305
:10317000780798F05A5C6A497B4344835583668399
:10318000778380819181A281B3810196A11DB11DB8
:1031900080839183A283B383E1CF08958F929F921E
:1031A000AF92BF92CF92DF92EF92FF920F931F9355
:1031B000CF93DF93CDB7DEB760970FB6F894DEBF3D
:1031C0000FBECDBF09831A832B833C834D835E835F
:1031D0006F83788789869A86AB86BC86CD86DE86A5
:1031E000EF86F88A09851A852B853C8549815A81A5
:1031F0006B817C81400F511F621F731FFC01408354
:103200005183628373830D851E852F8538894D8197
:103210005E816F817885400F511F621F731F448349
:103220005583668377830E94AD1881E060960FB660
:10323000F894DEBF0FBECDBFDF91CF911F910F91EC
:10324000FF90EF90DF90CF90BF90AF909F908F90C6
:103250000895E3E0F6E0608371838283938324839F
:1032600035834683578308952F923F924F925F9202
:103270006F927F928F929F92AF92BF92CF92DF9286
:10328000EF92FF920F931F93FC01C080D180E280E8
:10329000F3806481758186819781C114D104E10432
:1032A000F104C1F1F2E4CF16D104E104F104D0F548
:1032B0001B012C01612C712C4301E0E08E2F90E06A
:1032C000A0E0B0E08C159D05AE05BF0588F4910126
:1032D000A201B301C40136534546544C6F4F7F4F92
:1032E0008F4F9F4F19012A013B014C01EF5FE6CF41
:1032F00083EBA82E96EEB92E2EE0C22ED12CE12C17
:10330000F12C00E010E09101A201B301C4010E9480
:10331000D42406C023EB36EE4EE050E00E94B024E9
:10332000C90102C080E090E01F910F91FF90EF90E3
:10333000DF90CF90BF90AF909F908F907F906F90D5
:103340005F904F903F902F900895CF92DF92EF9231
:10335000FF92CF93DF93CDB7DEB728970FB6F894DF
:10336000DEBF0FBECDBF6B017C012AE0F694E7946F
:10337000D794C7942A95D1F7C982DA82EB82FC826E
:103380009B01AC0133704427552763EB76EE8EE04A
:1033900090E00E94A0242C2D3A814B815C812896DC
:1033A0000FB6F894DEBF0FBECDBFDF91CF91FF9077
:1033B000EF90DF90CF9008952F923F924F925F92BF
:1033C0006F927F928F929F92AF92BF92CF92DF9235
:1033D000EF92FF920F931F93FC01C080D180E28097
:1033E000F3806481758186819781C114D104E104E1
:1033F000F10499F11B012C01612C712C4301E0E0D7
:103400008E2F90E0A0E0B0E08C159D05AE05BF05C5
:1034100088F49101A201B301C40136534546544CCE
:103420006F4F7F4F8F4F9F4F19012A013B014C0176
:10343000EF5FE6CF83EBA82E96EEB92E2EE0C22EDC
:10344000D12CE12CF12C00E010E09101A201B3019C
:10345000C4010E94D424CA0107C023EB36EE4EE01B
:1034600050E00E94B024CA01B9011F910F91FF9052
:10347000EF90DF90CF90BF90AF909F908F907F9014
:103480006F905F904F903F902F900895C2E0D1E0F1
:103490000E9415110E944D1F843028F4D09300061D
:1034A0000E945C2208C08AE090E00E94651EC093E2
:1034B00000060E94502280912E04853519F088E084
:1034C0000E9451108091FE3F853511F388E00E94E3
:1034D0005110DECF2F923F924F925F926F927F9268
:1034E0008F929F92AF92BF92CF92DF92EF92FF9214
:1034F0000F931F93CF93DF9300D000D01F92CDB7CF
:10350000DEB70E94811E0E949F1E0E94A71E9B8301
:103510008A838AEF0E94511FA0912004B0E023EB20
:1035200036EE4EE050E00E9495240091070610917F
:1035300008062091090630910A066B017C01C00E35
:10354000D11EE21EF31EC701B60123EB36EE4EE09C
:1035500050E00E94B02426013701461A570A680A33
:10356000790AD301C201009103061091040620914B
:1035700005063091060643EB842E46EE942E4EE06F
:10358000A42EB12C680179014FEFC41AD40AE40AC1
:10359000F40A81155AEC95075AE9A5075BE3B507CC
:1035A000C8F02C013D012AEC521A2AE9620A2BE3E9
:1035B000720AC301B201A50194010E94B024A301C3
:1035C0009201261B370B480B590BDA01C9019701F1
:1035D0008601D8CF8093070690930806A09309062A
:1035E000B0930A0600930306109304062093050681
:1035F00030930606E0910C06F0910D068581882334
:1036000039F18185843021F18781823029F0882346
:1036100041F08681811102C085E001C083E081878D
:1036200014C083E081871782168285899689A789CD
:10363000B08D892B8A2B8B2B41F4818D928DA38D9C
:10364000B48D858B968BA78BB08F80850E943315A8
:10365000E0910C06F0910D0685A196A1A7A1B0A559
:10366000892B8A2B8B2B09F444C02085222309F453
:1036700040C081858430E9F1858D968DA78DB0A1FC
:103680004091200450E060E070E084179507A607A1
:10369000B70768F4622F82E00E945F10E0910C0689
:1036A000F0910D06158E168E178E10A208C0841B81
:1036B000950BA60BB70B858F968FA78FB0A3E091C4
:1036C0000C06F0910D061085858D968DA78DB0A105
:1036D000892B8A2B8B2B69F4612F83E00E945F106A
:1036E000E0910C06F0910D0683E08187812F0E9406
:1036F000331584EF94E09D838C8300E61AEE312C21
:103700009AEFC92ED12CE12CF12C22E0222E812C13
:10371000912C54018394EC81FD81319780818F3FFE
:1037200009F4FFC0EC81FD8134971082EC81FD81AA
:10373000F081F983882309F468C0F43009F4F1C0FA
:10374000EC81FD81448455846684778460912004F3
:1037500070E080E090E0461657066806790648F06B
:10376000461A570A680A790A448655866686778615
:1037700006C0EC81FD811486158616861786EC81BD
:10378000FD8140885188628873884616570668060E
:10379000790648F0A3019201261B370B480B590B01
:1037A000DA01C90113C0EC81FD81208D318D428D7C
:1037B000538D621773078407950768F429013A014E
:1037C000461A570A680A790AD301C201808B918B85
:1037D000A28BB38B08C00E94B024EC81FD81608B6A
:1037E000718B828B938BEC81FD8180899189A28979
:1037F000B389892B8A2B8B2B41F4808D918DA28DDF
:10380000B38D808B918BA28BB38BF981F33009F050
:1038100088C0EC81FD8184859585A685B785892B37
:103820008A2B8B2B09F06AC0DF0112978C919F01C4
:10383000235031098823A9F0F9018081882389F078
:10384000B501A4010090FC0504C0440F551F661F7C
:10385000771F0A94D2F7EC81FD81408751876287F8
:1038600073871C92F9011082EC81FD81A0A1B1A1A6
:10387000408C518C628C738C448D558D668D778D08
:10388000A130B105C9F4448B558B668B778B2082B0
:1038900080899189A289B38984879587A687B7870C
:1038A00045284628472821F4C486D586E686F7862B
:1038B000832D0E94871422C0EC81FD81448B558B9F
:1038C000668B778B1197A30192010E9495246487E0
:1038D000758786879787608B718B828B938B452842
:1038E0004628472821F4C486D586E686F7864424F0
:1038F0004394512CEC81FD8151A240A2EC81FD81C9
:1039000084859585A685B7850097A105B10549F001
:10391000A80160E070E084179507A607B70708F4D0
:103920008C0133942C813D81255D3F4F3D832C8359
:1039300036E03312F0CE0E947614F82E4BE2840269
:10394000F0011124E551FB4F228520930E06F093E0
:10395000FE05E093FD058823F9F085A196A1A7A1B6
:10396000B0A5892B8A2B8B2B99F0858D968DA78DF1
:10397000B0A18A3F9105A105B10550F4A80160E00E
:1039800070E084179507A607B707E8F48C011BC001
:103990000B3F1105C0F012C004301105A0F0C801A2
:1039A00003978A3F910538F48C018230910558F4D1
:1039B00002E010E008C00D3F110519F00AEF10E019
:1039C00002C007EF10E02093FF05F0930D06E0938F
:1039D0000C06009320040E94B31F282F30E02F5FB5
:1039E0003F4F2017310740F00E94B31F082F10E00F
:1039F0000E5F1F4F00932004F11010920006802FDD
:103A00000E94511F6CED75E08A819B810E94B91E56
:103A10000E94D6220F900F900F900F900F90DF9181
:103A2000CF911F910F91FF90EF90DF90CF90BF90BB
:103A3000AF909F908F907F906F905F904F903F904E
:103A40002F900C94E122E3E3F6E08FEF808B83A3C9
:103A500086AB80937C0680938F060895E3E4F6E0BE
:103A600080E090E020812F3F59F423E1289FF0016E
:103A7000299FF00D1124ED5CF94F91E0908B089592
:103A8000019673968530910569F78FEF089585301B
:103A900038F4E3E3F6E08089813011F4108A089568
:103AA0008FEF08950F931F93CF93DF93CDB7DEB7BA
:103AB00028970FB6F894DEBF0FBECDBF082F0E9427
:103AC000CF0CCE0101960E94C41710E0CE010196E2
:103AD0000E94DC1923E1209FF001219FF00D1124A9
:103AE000ED5CF94F60877187828793870481158128
:103AF00026813781601771078207930780F0008164
:103B0000118122813381DC01CB01800F911FA21F23
:103B1000B31F84839583A683B783178616860E9476
:103B2000D10C28960FB6F894DEBF0FBECDBFDF9143
:103B3000CF911F910F910895CF93DF93853010F0AF
:103B400081E00AC093E1899FE0011124CD5CD94F47
:103B500098899F3F21F482E00E94740E0BC00E945E
:103B6000521D2E853F858C859D858217930714F005
:103B7000821B01C080E0DF91CF9108951F93CF9306
:103B8000DF93853020F081E00E94740E23C093E122
:103B9000899FE0011124CD5CD94F18891F3F21F482
:103BA00082E00E94740E17C00E94521D8E859F8570
:103BB0002C853D858217930744F00E94D10CE9893A
:103BC000FA89309739F0099505C001969F878E874D
:103BD00011E001C01FEF812FDF91CF911F91089558
:103BE0008F929F92AF92BF92CF92DF92EF92FF920D
:103BF0000F931F93CF93DF93CDB7DEB728970FB600
:103C0000F894DEBF0FBECDBF853008F04AC093E107
:103C1000899F800111240D5C194FF80180898F3F25
:103C200009F440C079016A01FB0180819181A28180
:103C3000B38189839A83AB83BC8384819581A68178
:103C4000B7818D839E83AF83B887CE0101960E9492
:103C5000DC19F8016083718382839383D586C486DF
:103C600017861686CE0101960E94C417CE010196D2
:103C70000E94DC19F80160877187828793878080B2
:103C80009180A280B380DC01CB01880D991DAA1D13
:103C9000BB1D84839583A683B783F28AE18A81E082
:103CA00001C08FEF28960FB6F894DEBF0FBECDBFD0
:103CB000DF91CF911F910F91FF90EF90DF90CF9008
:103CC000BF90AF909F908F9008950000000000007B
:103CD00000000000000000000000000000000000E4
:103CE0000000019791F7089510922101089589E04D
:103CF000809321018DE89CE3909329018093280112
:103D0000089510922501109224010895CF93DF9316
:103D100000D0CDB7DEB780912401909125019A8320
:103D2000898389819A810F900F90DF91CF910895B7
:103D300010928100089581E080938100089583B5F9
:103D4000816083BD10928500109284000895CF9306
:103D5000DF9300D0CDB7DEB78091840090918500CD
:103D60009A83898389819A810F900F90DF91CF91F7
:103D70000895CF92DF92EF92FF92CF93DF93EC0101
:103D8000CC0FDD1FC9378FEFD80710F0C0E0D0E0AF
:103D90006B01E12CF12CCC0EDD1EE11CF11C81E04D
:103DA000C816D104E806F10440F081E0E81AF108F1
:103DB0000E94A71EC817D907D8F30E94A71E8C150A
:103DC0009D05D8F3DF91CF91FF90EF90DF90CF90DA
:103DD00008951092B100E0E7F0E080818D7F80834C
:103DE00080818E7F808308958093B2000895E0E7FC
:103DF000F0E080818360808383E08093B100089548
:103E000083B5826083BD1092B2001092AD03109210
:103E100020040895CF93DF938EEF8093200480E2F7
:103E20008093B600809120048093B30083E087BB29
:103E300092E09093B0008093B10093B5926093BDEF
:103E400087BB84BD83B5826083BD1092800081E012
:103E500080938100109285001092840083B5826067
:103E600083BD83B5816083BD10922001C4E2D1E09F
:103E70001982188283B5826083BD83B5816083BD5A
:103E80000E94001F198218820E94F71E0E94771E4E
:103E90001092AD03DF91CF9108958091B3008F5FB1
:103EA000089581508093B3000895811102C010924B
:103EB00071008FEF0895811106C010929500109245
:103EC000940081E008958FEF0895811105C08091DD
:103ED000940090919500089580E090E008958111FC
:103EE00005C082E08093710081E008958FEF08950E
:103EF000811135C0CB010197059710F460931F0421
:103F00001092900088E08093910050939900409324
:103F100098003093AB032093AA0380911F04813053
:103F200021F480919100816011C0823021F4809150
:103F3000910082600BC0833021F4809191008360F6
:103F400005C0843031F480919100846080939100A9
:103F500008C0853031F4809191008560F7CF8FEFF4
:103F6000089581E008958091B20008951F920F9204
:103F70000FB60F92112460E08AE00E945F10FFCF1D
:103F80000F920FB60F921F922F923F924F925F9215
:103F90006F927F928F929F92AF92BF92CF92DF9259
:103FA000EF92FF920F931F932F933F934F935F9343
:103FB0006F937F938F939F93AF93BF93CF93DF9331
:103FC000EF93FF93A0910C06B0910D060DB60D92E4
:103FD0000EB60D921F92A091B903B091BA031E9034
:103FE000BEBFADBF08951F920F920FB60F9211245E
:103FF0000BB60F922F933F934F935F936F937F93E3
:104000008F939F93AF93BF93EF93FF93E091AA0396
:10401000F091AB03309711F0099504C060E08AE09D
:104020000E945F10FF91EF91BF91AF919F918F918F
:104030007F916F915F914F913F912F910F900BBEA8
:104040000F900FBE0F901F9018951F920F920FB6F2
:104050000F9211240F900FBE0F901F90189504B669
:1040600003FE02C080E101C080E004B602FE06C08B
:1040700094B79B7F94BF04B600FE846004B601FE33
:1040800005C094B79D7F94BF8260089581110CC0D4
:1040900004B600FE04C094B79E7F94BF01C081E0C7
:1040A0009091B000911181E00895811102C0E89AC9
:1040B00039C0813011F4E99A0895823011F4EA9AF6
:1040C00031C0833021F480916B00816029C084303D
:1040D00021F480916B00826023C0853021F48091AF
:1040E0006B0084601DC0863021F480916B00886075
:1040F00017C0873021F480916B00806111C0883037
:1041000021F480916B0080620BC0893021F4809192
:104110006B00806405C08A3039F480916B00806840
:1041200080936B0081E008958FEF0895811102C0A4
:10413000E89839C0813011F4E9980895823011F47B
:10414000E99831C0833021F480916B008E7F29C0C3
:10415000843021F480916B008D7F23C0853021F461
:1041600080916B008B7F1DC0863021F480916B00A5
:10417000877F17C0873021F480916B008F7E11C03C
:10418000883021F480916B008F7D0BC0893021F441
:1041900080916B008F7B05C08A3039F480916B0071
:1041A0008F7780936B0081E008958FEF08958111E0
:1041B00026C05093950640939406611104C08091E7
:1041C00069008C7F3DC0613049F4809169008D7F2A
:1041D0008093690080916900816032C0623049F447
:1041E00080916900826080936900809169008E7F70
:1041F00027C0633039F580916900836021C0813028
:1042000049F55093930640939206611104C0809142
:104210006900837F15C0613049F480916900877F10
:10422000809369008091690084600AC0623061F403
:1042300080916900886080936900809169008B7F1C
:104240008093690081E008956330E1F7809169000F
:104250008C60F6CF823031F55093970640939606E6
:10426000611104C0809169008F7CEACF613049F40C
:10427000809169008F7D80936900809169008061E1
:10428000DFCF623049F480916900806280936900D9
:10429000809169008F7ED4CF6330A1F68091690050
:1042A0008063CECF8350883050F480916800816065
:1042B000809368005093990640939806C3CF8FEF80
:1042C00008951F920F920FB60F9211240BB60F9202
:1042D0002F933F934F935F936F937F938F939F930E
:1042E000AF93BF93EF93FF93E0919806F0919906F7
:1042F000309711F0099504C060E08AE00E945F10D9
:10430000FF91EF91BF91AF919F918F917F916F91AD
:104310005F914F913F912F910F900BBE0F900FBE69
:104320000F901F9018951F920F920FB60F921124A5
:104330000BB60F922F933F934F935F936F937F939F
:104340008F939F93AF93BF93EF93FF93E091940666
:10435000F0919506309711F0099504C060E08AE06D
:104360000E945F10FF91EF91BF91AF919F918F914C
:104370007F916F915F914F913F912F910F900BBE65
:104380000F900FBE0F901F9018951F920F920FB6AF
:104390000F9211240BB60F922F933F934F935F937D
:1043A0006F937F938F939F93AF93BF93EF93FF93FD
:1043B000E0919206F0919306309711F0099504C0B0
:1043C00060E08AE00E945F10FF91EF91BF91AF9192
:1043D0009F918F917F916F915F914F913F912F911D
:1043E0000F900BBE0F900FBE0F901F9018951F924D
:1043F0000F920FB60F9211240BB60F922F933F938B
:104400004F935F936F937F938F939F93AF93BF93DC
:10441000EF93FF93E0919606F0919706309711F095
:10442000099504C060E08AE00E945F10FF91EF915F
:10443000BF91AF919F918F917F916F915F914F91BC
:104440003F912F910F900BBE0F900FBE0F901F90BA
:104450001895A8959FB7F89484B7877F84BFE0E646
:10446000F0E080818861808310829FBF08959FB7AC
:10447000F894A89584B7877F84BFE0E6F0E0808158
:10448000886180838DE080839FBF089504B603FE1A
:1044900002C08FEF089581E00895A89508950895CA
:1044A00083B7817F866083BF83B7816083BF889530
:1044B00083B78E7F83BF089583B7817F83BF83B720
:1044C000816083BF889583B78E7F83BF0895FC0189
:1044D000768365830895EF92FF920F931F93CF9396
:1044E000DF938C017B01EA014032510518F481E130
:1044F0000E9451102197CE0DDF1DF801D283C18398
:10450000F482E382DF91CF911F910F91FF90EF90A2
:10451000089525E5FA012083FB01329790833196B7
:1045200080833397118210823297118210823297E2
:10453000118210823297118210823297118210827A
:104540003297118210823297118210823297118233
:104550001082329711821082329711821082329724
:10456000118210823297118210823297118210824A
:104570003297118210823297118210823297118203
:104580001082CB018497FC0111821082089585E589
:104590008093FE3FEEEFF1E4F093BA03E093B903AA
:1045A0008FE69EE090838093FF4108958FE69EE022
:1045B0009093FE418093FF4108950E940A1F0C943E
:1045C000D10CA091FD05B091FE05CD91CDBFDD913F
:1045D000DEBFFF91EF91DF91CF91BF91AF919F919E
:1045E0008F917F916F915F914F913F912F911F918B
:1045F0000F91FF90EF90DF90CF90BF90AF909F9082
:104600008F907F906F905F904F903F902F901F9072
:104610000F900FBE0F9018950E946C0880E190E0FB
:104620000E94F00B0E94D60C8BEB93E09093270432
:10463000809326041092280484E6809325040E9427
:104640006D0220E030E04FEF5FEF6DE081E294E03B
:104650000E94C80288E08093B40380910002909188
:1046600001029093B6038093B5031092B7031092A2
:10467000B3031092B2031092B80381E090E00E945D
:10468000700B82EB93E00E944403C4E1D0E080E52C
:1046900093EC0E94651E2197D1F7EFCF6F927F9226
:1046A0008F929F92AF92BF92CF92DF92EF92FF9242
:1046B0000F931F93CF93DF93CDB7DEB72C970FB631
:1046C000F894DEBF0FBECDBF6C015B017A01FC0127
:1046D00017821682838181FF0EC1CE0101964C01A3
:1046E000F6010381F50103FD159103FF11915F01AF
:1046F000112309F4FCC0153249F403FD159103FFA1
:1047000011915F01153211F020E01BC0B601812F1D
:1047100090E00E94B62537017301E2CF112309F41E
:10472000E6C0612F70E087E194E02C870E94492564
:104730002C85892B49F0F50103FD159103FF11919B
:104740005F0127FFEBCF09C0133229F01C3609F0B7
:10475000D5C02068F0CF20E1EECF022F112309F45D
:10476000C6C0612F70E080E194E02C870E9449254B
:104770002C85892B41F03701F4E06F0E711CB601D6
:104780008FE390E011C0133639F0133781F0133501
:1047900019F5022F01600BC0370182E0680E711C11
:1047A000B601F701808191810E94B625B5CF37010E
:1047B000F2E06F0E711CF701E080F180F70100FD5F
:1047C000859100FF81917F01882309F4A5CFB6016F
:1047D00090E00E94B625F2CF143611F0193629F573
:1047E000370127FF09C0F4E06F0E711CF7016081EB
:1047F0007181828193810AC0F2E06F0E711CF70112
:1048000060817181882777FD8095982F022F0F7E18
:1048100097FF08C090958095709561957F4F8F4F59
:104820009F4F00642AE030E033C0103799F040F425
:104830001835B1F01F3609F05AC028E030E014C036
:10484000153719F0183741F052C0022F0F7E2AE0B9
:1048500030E00AC0022F0061046220E130E004C0B1
:10486000022F046020E132E0370107FF09C0F4E0C5
:104870006F0E711CF701608171818281938108C084
:10488000F2E06F0E711CF7016081718180E090E0B1
:10489000A4010E946826182F181906FF05C0B6014A
:1048A0008DE290E00E94B62504FF15C0FE01E10FE5
:1048B000F11D8081803379F0B60180E390E00E94A1
:1048C000B62502FF08C00072802F90E0B601885A1A
:1048D0009F4F0E94B6251150F401E10FF11D808118
:1048E000B60190E00E94B6251111F5CF15CFF60163
:1048F0008681978105C08FEF9FEF02C0022F31CFD5
:104900002C960FB6F894DEBF0FBECDBFDF91CF91CE
:104910001F910F91FF90EF90DF90CF90BF90AF90DD
:104920009F908F907F906F9008950E943A25A59F49
:10493000900DB49F900DA49F800D911D112408959A
:10494000DB018F939F930E949524BF91AF91A29F0B
:10495000800D911DA39F900DB29F900D112408957D
:10496000A1E21A2EAA1BBB1BFD010DC0AA1FBB1F73
:10497000EE1FFF1FA217B307E407F50720F0A21BE5
:10498000B30BE40BF50B661F771F881F991F1A9452
:1049900069F760957095809590959B01AC01BD017C
:1049A000CF010895689401C0E8948F929F92CF93AD
:1049B000DF930E94E024DF91CF919F908F90089524
:1049C00088249924F401E401B0E49F93AA279A155E
:1049D0008B049C04ED05FE05CF05D007A10798F4D4
:1049E000AD2FDC2FCF2FFE2FE92D982C892E982F5D
:1049F000872F762F652F542F432F322F2227B85021
:104A000031F7BF9127C01B2EBF91BB27220F331F49
:104A1000441F551F661F771F881F991F881C991CEC
:104A2000EE1FFF1FCC1FDD1FAA1FBB1F8A149B0494
:104A3000EC05FD05CE05DF05A007B10748F08A1893
:104A40009B08EC09FD09CE09DF09A00BB10B216021
:104A50001A94E1F62EF49401AF01BE01CD01000CD1
:104A60000895EE0FFF1F0024001C0BBE0790F69167
:104A7000E02D0994A29FB001B39FC001A39F700DC8
:104A8000811D1124911DB29F700D811D1124911D56
:104A90000895FC010590061621F00020D9F7C00109
:104AA00008953197CF010895FB01DC0102C0019008
:104AB0000D9241505040D8F70895FB01DC01415060
:104AC000504030F08D910190801919F40020B9F711
:104AD000881B990B08950F931F93CF93DF93009733
:104AE00031F46115710519F480E090E03AC08B0152
:104AF000EC016EE070E081E090E00E94DC26FC01B9
:104B0000009791F380E883830115110571F01387F5
:104B1000028781E8838380919A0690919B06892B76
:104B200021F4F0939B06E0939A062097C9F0D18771
:104B3000C08783818260838380919C0690919D06CB
:104B4000892B71F4F0939D06E0939C0680919E065C
:104B500090919F06892B21F4F0939F06E0939E0687
:104B6000CF01DF91CF911F910F9108950F931F9364
:104B7000CF93DF93FB01238121FD03C08FEF9FEFD4
:104B800028C022FF16C046815781248135814217F3
:104B9000530744F4A081B1819D012F5F3F4F3183C2
:104BA00020838C93268137812F5F3F4F3783268365
:104BB00010C0EB01092F182F0084F185E02D099515
:104BC000892BE1F68E819F8101969F838E83812FB1
:104BD000902FDF91CF911F910F910895CF93DF9385
:104BE000CDB7DEB7AE014B5F5F4FFA0161917191B6
:104BF000AF0180919C0690919D060E944E23DF910B
:104C0000CF91089560919C0670919D060C94B625F5
:104C10000F931F93CF93DF93E0919C06F0919D0635
:104C2000238121FF1BC08C01D0E0C0E0F8018191FD
:104C30008F0160919C0670919D06DB011896ED91A5
:104C4000FC911997882331F00995892B79F3DFEFCF
:104C5000CFEFECCF8AE00995892B19F08FEF9FEF0A
:104C600002C08D2F9C2FDF91CF911F910F9108953E
:104C70000F931F93CF93DF93CDB7DEB72E970FB669
:104C8000F894DEBF0FBECDBF0D891E8986E08C83F0
:104C90001A8309838FEF9FE79E838D83AE01475E62
:104CA0005F4F6F89788DCE0101960E944E232F8130
:104CB0003885F801E20FF31F10822E960FB6F89494
:104CC000DEBF0FBECDBFDF91CF911F910F91089531
:104CD000FA01AA27283051F1203181F1E8946F932D
:104CE0006E7F6E5F7F4F8F4F9F4FAF4FB1E03ED0D3
:104CF000B4E03CD0670F781F891F9A1FA11D680F71
:104D0000791F8A1F911DA11D6A0F711D811D911DA3
:104D1000A11D20D009F468943F912AE0269F112418
:104D20003019305D3193DEF6CF010895462F47707C
:104D3000405D4193B3E00FD0C9F7F6CF462F4F70D7
:104D4000405D4A3318F0495D31FD4052419302D035
:104D5000A9F7EACFB4E0A6959795879577956795DB
:104D6000BA95C9F700976105710508959B01AC01DB
:104D70000A2E06945795479537952795BA95C9F702
:104D8000620F731F841F951FA01D0895F999FECF10
:104D900092BD81BDF89A992780B50895262FF9997B
:104DA000FECF1FBA92BD81BD20BD0FB6F894FA9A0E
:104DB000F99A0FBE019608950F931F93CF93DF9337
:104DC000869F8001879F100D969F100D1124C801AA
:104DD0000E94F826EC01009729F0A80160E070E03D
:104DE0000E942528CE01DF91CF911F910F91089548
:104DF000CF93DF938230910510F482E090E0E09150
:104E0000A206F091A30620E030E0C0E0D0E03097A9
:104E100011F14081518148175907C0F048175907CF
:104E200061F482819381209719F09B838A832BC040
:104E30009093A3068093A20626C02115310519F090
:104E40004217530718F49A01BE01DF01EF010280F7
:104E5000F381E02DDCCF2115310509F1281B390B39
:104E60002430310590F412968D919C911397611521
:104E7000710521F0FB019383828304C09093A30604
:104E80008093A206FD01329644C0FD01E20FF31F9C
:104E900081939193225031092D933C933AC02091F4
:104EA000A0063091A106232B41F4209114023091E9
:104EB00015023093A1062093A00620911202309192
:104EC00013022115310541F42DB73EB7409116026A
:104ED00050911702241B350BE091A006F091A1061A
:104EE000E217F307A0F42E1B3F0B2817390778F0C1
:104EF000AC014E5F5F4F2417350748F04E0F5F1F20
:104F00005093A1064093A0068193919302C0E0E0E4
:104F1000F0E0CF01DF91CF9108950F931F93CF93CE
:104F2000DF93009709F48CC0FC0132971382128240
:104F30000091A2061091A3060115110581F42081AC
:104F40003181820F931F2091A0063091A10628176E
:104F5000390779F5F093A106E093A00671C0D80156
:104F600040E050E0AE17BF0750F412962D913C91EF
:104F70001397AD012115310509F1D901F3CF9D0139
:104F8000DA013383228360817181860F971F821734
:104F9000930769F4EC0128813981260F371F2E5FB2
:104FA0003F4F318320838A819B8193838283452B6A
:104FB00029F4F093A306E093A20642C01396FC9353
:104FC000EE931297ED01499159919E01240F351FDF
:104FD000E217F30771F480819181840F951F029687
:104FE00011969C938E938281938113969C938E93BA
:104FF0001297E0E0F0E0D80112968D919C91139702
:10500000009719F0F8018C01F6CF8D919C919801D1
:105010002E5F3F4F820F931F2091A0063091A10673
:105020002817390769F4309729F41092A3061092D3
:10503000A20602C0138212821093A1060093A0065A
:10504000DF91CF911F910F910895DC0101C06D9305
:0C50500041505040E0F70895F894FFCF65
:10505C0069024315A6D93D3182F18CA74FC59997AA
:10506C0004AC0000A40620003D352D251D150D05B2
:10507C003D352D251D150D052E261E160E06FFFF82
:10508C000C043C342C241C140C043B332B231B131A
:10509C000B3B332B231B130B03FFFFFFFFFFFFFF08
:1050AC00FF393129211911090119110901FFFFFFDC
:1050BC00FFFFFFFFFFFFFFFFFF77617A7A7A7570C2
:1050CC00007266206E6F742072656164790D0072D7
:1050DC0078206E6F742072656164790D006C656E5A
:1050EC0067746820746F6F2067726561740D006956
:1050FC006E636F7272656374206C656E6774682082
:10510C0073657474696E6720696E207266207365AE
:10511C007474696E67730D0072665F72785F70618C
:10512C00636B65745F6E6F6E626C6F636B20666130
:10513C00696C65645D0D005061636B657420697307
:10514C0020646F6E6520626F756E63696E67206197
:10515C00726F756E64210D0A005345513A253475F2
:10516C000954544C3A25326409525353493A253464
:10517C0064095061796C6F61643A205B25735D0D35
:10518C000A00525820656E64206661696C65642063
:10519C00636865636B73756D210D00256400637521
:1051AC00723A202564200063616E617279203D2083
:1051BC002578200073746B203D20257820007463C3
:1051CC00622061646472203D2025780D0A002564FC
:1051DC003A20626F74746F6D203D2025782000009A
:00000001FF
