:100000000C941D020C94AE2B0C94E02B0C94122C2F
:100010000C943C020C943C020C943C020C943C0268
:100020000C943C020C947C2B0C943C020C943C02EF
:100030000C943C020C94DB290C943C020C94DB29BC
:100040000C943C020C943C020C943C020C943C0238
:100050000C943C020C943C020C943C020C943C0228
:100060000C943C020C943C020C943C020C943C0218
:100070000C943C020C943C020C943C020C943C0208
:100080000C940E2A0C943C020C943C020C943C02FE
:100090000C943C020C943C020C943C020C943C02E8
:1000A0000C943C020C943C020C943C020C943C02D8
:1000B0000C943C020C943C020C943C020C943C02C8
:1000C0000C943C020C943C020C943C020C943C02B8
:1000D0000C943C020C943C020C943C020C943C02A8
:1000E0000C943C020C9413100C9404100C94D40F38
:1000F0000C94C4100C94C50F0C94B60F0C94A40F60
:100100000C94950F0C943C020C943C020C943C0211
:100110000C943C020C943C020C943C020C943C0267
:10012000441251125E126B12781285129212B5129D
:10013000C312D112DF12ED12FB1209132C132E136E
:100140003013321334133613381357137A139E13A4
:10015000C113E41307142A14641471147E148B144D
:100160009814A514B214CB14D814E514F214FF1487
:100170000C15191567186D187018731876187918FA
:100180007F187C1882188518881891189418971869
:100190009A188E1864186A189D18A0188B18611880
:1001A0006E1971197C198119881991199419991965
:1001B000A019A9197478206661696C65642064755A
:1001C0006520746F20696E636F727265637420744A
:1001D0007278207374617475730D0A00554E4B4F1D
:1001E000574E0045787465726E616C205265736578
:1001F000740042726F776E204F7574204465746589
:100200006374004661696C656420746F2063726575
:100210006174652053656D6170686F726500466139
:10022000696C656420746F20637265617465205326
:1002300069676E616C004B65726E656C2066756EE9
:100240006374696F6E206E6F7420696D706C656D7C
:10025000656E7465640044657669636520447269FF
:10026000766572204572726F7200576174636864BC
:100270006F67205265737461727400535720576121
:10028000746368646F67205265737461727400549C
:10029000696D6572204F766572666C6F7700556E7A
:1002A00068616E646C656420496E74657272757005
:1002B0007420566563746F72004C6F7720566F6CB4
:1002C00074616765004578747261205461736B20B6
:1002D000737461727465642C206973206E726B5F35
:1002E0006366672E68206F6B3F0049646C65206F02
:1002F00072204B65726E656C20537461636B204F86
:10030000766572666C6F7700556E6578706563749C
:1003100065642052657374617274004475706C6911
:100320006361746564205461736B204944005363B6
:10033000686564756C6572204D69737365642057D8
:10034000616B657570005461736B205265736572E3
:1003500076652056696F6C617465640052657365DB
:10036000727665204572726F7220696E20536368E1
:100370006564756C657200496E76616C69642053C2
:100380007461636B20506F696E74657200546173A1
:100390006B20537461636B204F766572666C6F7768
:1003A00000537461636B20776173206E6F742064F7
:1003B0006566696E6564206173206C617267652093
:1003C000656E6F75676821005461736B207065728C
:1003D000696F6420746F6F206C617267652E2050A6
:1003E0006572696F64206D757374206265206C6539
:1003F0007373207468616E203631207365636F6E8D
:1004000064732E00293A20002A4E524B2045525246
:100410004F5228000D0A535441434B2044554D5030
:100420000D0A0045464765666700202B2D2E3031AA
:100430003233343536373839680011241FBECFEFD8
:10044000D1E4DEBFCDBF13E0A0E0B2E0E8EFF6E616
:1004500000E00BBF02C007900D92AA3CB107D9F78C
:1004600017E0AAECB3E001C01D92AE36B107E1F788
:100470000E94272D0C947A330C94D129CF93DF93CB
:10048000FC0181819281A381B4818F559D4FAF4F33
:10049000BF4F9C01AD0160E070E080E090E0DF9133
:1004A000CF910C94F60B0E942F128FEC90E00E94DB
:1004B000B3150E94851680E090E00E944A1581E005
:1004C00090E00E944A1582E090E00E944A1583E085
:1004D00090E00E944A1520E030E0A90160E070E061
:1004E000CB010E949C238EE00E941C0A0E945E0A9F
:1004F00063E08DE097E00E949327809364050E945B
:10050000271780E090E0089580914506813011F42E
:100510008FEF089581E08093450660FF18C08091B9
:1005200035020E94311210924A0680917C00807E32
:1005300080937C0080917C0090917C00807E892B50
:1005400080937C0088EE93E00E94812805C0862F6E
:100550008670F1F66770E1F281E0089580913502CE
:100560000E94A212109245060E944807EAE7F0E0B6
:1005700080818F77808381E00895613019F48091C4
:100580004A0608958FEF0895613091F52C3081F47B
:1005900020934A0680917C00807E80937C0090911D
:1005A0007C0020917C00892F90E0807E836017C0C2
:1005B0002E3020F081E00E9417181AC020934A06BE
:1005C00080917C00807E80937C0090917C002091C3
:1005D0007C00892F90E0807E30914A06832B822B0D
:1005E00080937C0088EC90E00E94812881E008954F
:1005F0008FEF0895CF93DF93CDB7DEB766970FB631
:10060000F894DEBF0FBECDBFAE014F5F5F4F66E116
:1006100070E08AEA90E00E945207FE013196ABE159
:10062000B6E09E01295E3F4F808190E0982F882799
:100630004181842B8D939D933296E217F307A1F7A6
:1006400066960FB6F894DEBF0FBECDBFDF91CF9197
:100650000895EAE7F0E083E080838081806880830A
:1006600010924A06ACE7B0E08C91807E8C938C911E
:100670009C91807E892B8C9380818F7780830895D5
:10068000CF93C091350261E08C2F0E944F148C2FC4
:100690000E943112C091200260E08C2F0E944F1402
:1006A0008C2F0E94A212C091360260E08C2F0E9413
:1006B0004F148C2F0E94A21280E00E9478150E9495
:1006C00029030E9438078EEE0E9435070E94FA0225
:1006D0001092450681E0CF91089588EC90E00C944B
:1006E000812880917A00806480937A0080917A00DA
:1006F00084FFFCCF0E946D038091780020917900E7
:1007000090E0922B08954F925F926F927F928F921A
:100710009F92AF92BF92CF92DF92EF92FF921F9380
:10072000CF93DF93CDB7DEB728970FB6F894DEBF2F
:100730000FBECDBF182FC0904106D0904206E0906A
:100740004306F090440620EAC21A2FE0D20AE108DC
:10075000F108C0923106D0923206E0923306F09250
:100760003406A7019601C701B6010E94712F4B0103
:100770005C015CE0B594A794979487945A95D1F75F
:1007800040911B0650911C06662757FD6095762FF9
:10079000DB01CA0162E0880F991FAA1FBB1F6A957F
:1007A000D1F789839A83AB83BC83A0912906B0914A
:1007B0002A06A50194010E94692F412CE8E05E2ED3
:1007C000612C712CA30192010E94A32F2D833E83E3
:1007D0004F835887A0911D06B0911E06A701960170
:1007E0000E94692FA30192010E94A32F8D819E81F7
:1007F000AF81B885820F931FA41FB51F29813A814D
:100800004B815C81820F931FA41FB51F012E04C072
:10081000880F991FAA1FBB1F0A94D2F7BC01CD01F4
:100820006E5F7F4F8F4F9F4FF4E04F2E512C612C06
:10083000712CA30192010E94A32F29833A834B8339
:100840005C83209360063093610640936206509368
:100850006306A0911F06B0912006A70196010E9491
:10086000692F20E030E240E050E00E94A32F6901B0
:100870007A01A0912706B0912806A50194010E9453
:10088000692F20E030E041E050E00E94A32FD70123
:10089000C601820F931FA41FB51FBC01CD016E5F5F
:1008A0007F4F8F4F9F4FA30192010E94A32F209350
:1008B0004B0630934C0640934D0650934E06A09144
:1008C0002106B091220630584F4F5F4F0E945E2F95
:1008D00020E030E840E050E00E94A32F69017A0157
:1008E00020934F0630935006409351065093520682
:1008F0008091580690915906A0915A06B0915B06D6
:100900009C01AD0189809A80AB80BC80281939098F
:100910004A095B0980E593ECA0E0B0E0BC01CD01A1
:1009200004C095958795779567951A95D2F70E949B
:10093000712F6093540670935506809356069093DA
:10094000570697FD11C0660F771F881F991FA701D3
:1009500096010E94812F20935C0630935D064093A0
:100960005E0650935F0612C0A70196010E94812F78
:10097000DA01C901880F991FAA1FBB1F80935C066B
:1009800090935D06A0935E06B0935F06C0905C06F0
:10099000D0905D06E0905E06F0905F06C701B6015C
:1009A00020E031E040E050E00E94A32FCA01B901ED
:1009B0000E94712F9B01AC01AEEDBBE00E945E2F47
:1009C0004C01BB2497FCB094AB2C809246069092CD
:1009D0004706A0924806B0924906A3E4B3EEA701E9
:1009E00096010E946C2F20E030E041E050E00E9430
:1009F000A32F2093390630933A0640933B06509339
:100A00003C06D501C401820F931FA41FB51FBC0172
:100A1000CD016153714F8F4F9F4F20E130E040E097
:100A200050E00E94A32FC701B601620F731F841FFD
:100A3000951F60935C0670935D0680935E069093AD
:100A40005F0628960FB6F894DEBF0FBECDBFDF91CC
:100A5000CF911F91FF90EF90DF90CF90BF90AF901C
:100A60009F908F907F906F905F904F900895CF925E
:100A7000DF92EF92FF920F931F93CF93DF93CBE11F
:100A8000D6E08A859B854091350650913606609167
:100A90003706709138069A01AB01281B390B4109C2
:100AA0005109A885B9850E945E2F20E030E840E01A
:100AB00050E00E94A32F69017A01209346063093EB
:100AC000470640934806509349066A897B89CB01C3
:100AD000AA2797FDA095BA2FBC01CD012BE0660F88
:100AE000771F881F991F2A95D1F70C891D89222706
:100AF00017FD2095322FA90198012C0D3D1D4E1D8B
:100B00005F1D0E94A32F2093390630933A0640932D
:100B10003B0650933C06D701C601820F931FA41FCA
:100B2000B51F8093410690934206A0934306B0936D
:100B30004406BC01CD01685F7F4F8F4F9F4F20E17E
:100B400030E040E050E00E94A32F20933D06309318
:100B50003E0640933F0650934006CA01B901DF911B
:100B6000CF911F910F91FF90EF90DF90CF9008955C
:100B7000CF93DF9300D01F92CDB7DEB78EE28B8389
:100B8000AE014D5F5F4F61E070E084EF90E00E9446
:100B90006B0884E991E10E948128AE014F5F5F4FAD
:100BA00062E070E086EF90E00E945207898190E059
:100BB000982F88272A81822BA0E0B0E08093350609
:100BC00090933606A0933706B09338060F900F9097
:100BD0000F90DF91CF9108950E94B8050C943705CE
:100BE0001F93CF93DF9300D000D0CDB7DEB7182F7F
:100BF0008295880F880F807C8C5C8C83AE014C5F63
:100C00005F4F61E070E084EF90E00E946B0884E940
:100C100091E10E948128AE014F5F5F4F63E070E079
:100C200086EF90E00E9452072A81898190E0A0E03F
:100C3000B0E0DC0199278827922B2B81820F911D30
:100C4000A11DB11D28E030E0211B310904C0B5957C
:100C5000A795979587952A95D2F7809358069093F4
:100C60005906A0935A06B0935B060F900F900F9011
:100C70000F90DF91CF911F910895CF93C82F0E94BD
:100C8000F0058C2FCF910C948303AF92BF92CF923B
:100C9000DF92EF92FF921F93CF93DF9380917A00C0
:100CA000806880937A008FEF820F823018F02430B2
:100CB00009F0A8C0122FEA0180914A06883078F422
:100CC0000E947103123019F4888399831EC0113079
:100CD00009F07AC096958795969587951EC08D30B8
:100CE000F1F4F090360261E08F2D0E944F148F2DA9
:100CF0000E94A21260E08F2D0E944F14123039F42E
:100D00008F2D0E941A138883198281E074C01130DC
:100D100009F05AC08F2D0E941A13888355C08C3059
:100D2000B9F5A12CBB24B394E12CF12CCC24C394B1
:100D300064E0D62E80917A00806480937A0080915E
:100D40007A0084FFFCCF80E290E00E9481288091AD
:100D500078002091790090E0922B8C159D0508F485
:100D60006C01E816F90608F47C0181E0A81AB108C4
:100D700009F7EC18FD08123019F4E882F982C5CFA2
:100D8000113011F5F694E794F694E794E8821CC0CC
:100D90008B30E1F4109253067A99FECF7A9BFECF06
:100DA000809153068F5F809353067A99F9CF888399
:100DB0008091530690E01982330F220B322F2A8341
:100DC000990F880B982F8B8380E015C097EF980FB1
:100DD0009230D0F72430B1F48A3019F40E94EC0537
:100DE00005C00E94EC0580E00E943D06688379837F
:100DF0008A839B8383E090917A009F7790937A0017
:100E00008F5F01C080E0DF91CF911F91FF90EF9045
:100E1000DF90CF90BF90AF900895823099F038F472
:100E2000882369F08130C9F481E00C948402843015
:100E300089F058F0853089F485E00C94450680E00F
:100E40000C94400382E00C94AE02613061F4809116
:100E50004A06089584E00C94C40260E08CE00E948D
:100E6000CA1880E008958FEF08958093650608956D
:100E700082E08093B8001092B900E4E6F0E080814F
:100E80008F778083ECEBF0E080818460808308952D
:100E9000E4E6F0E080818083ECEBF0E080818B7F02
:100EA000808308959770990F20916506922B35E6FF
:100EB000F4EAA4EAE4E8B92FB160315009F48EC035
:100EC000A093BC002091BC0027FFFCCF2091B9006B
:100ED000287F20936406203129F0283389F32830B5
:100EE00009F07CC09093BB00E093BC002091BC0053
:100EF00027FFFCCF2091B900287F20936406203281
:100F0000E1F22833E9F2283109F061C08093BB0097
:100F1000E093BC002091BC0027FFFCCF2091B900DA
:100F2000287F20936406203309F44EC0283341F211
:100F3000283209F04CC0F093BC002091BC0027FF80
:100F4000FCCF2091B900287F20936406203129F03E
:100F5000283309F4B5CF2830D1F5B093BB00E09326
:100F6000BC002091BC0027FFFCCF2091B900287F56
:100F700020936406203429F0283431F1283339F5E0
:100F80009FCFFA0194EC9F01241B350B1616170610
:100F900004F56130710509F494E89093BC008091E8
:100FA000BC0087FFFCCF8091B900887F80936406E6
:100FB000803521F0883559F460E070E08091BB0005
:100FC000819361507109DFCF20E030E002C02FEF44
:100FD0003FEF84E98093BC00C90108958FEF9FEF34
:100FE00008959C01680F791F87606817790718F0CA
:100FF000BC016F5F7F4F832F8770880F90916506CC
:10100000892BE5E6A4EAF4E8E15009F461C0A09375
:10101000BC009091BC0097FFFCCF9091B900987FE5
:1010200090936406903129F0983389F3983009F051
:101030004FC08093BB00F093BC009091BC0097FF21
:10104000FCCF9091B900987F909364069032E1F2C2
:101050009833E9F29831A9F52093BB00F093BC00D6
:101060009091BC0097FFFCCF9091B900987F90932E
:101070006406903319F1983351F2983211F5621BDE
:10108000730BFA0120E030E044E8CB01821B930BA4
:1010900018161906C4F481918093BB004093BC00DC
:1010A0008091BC0087FFFCCF8091B900887F80933E
:1010B0006406883231F42F5F3F4FE7CF20E030E005
:1010C00002C02FEF3FEF84E98093BC00C90108956F
:1010D0008FEF9FEF0895CF92DF92EF92FF920F93E1
:1010E0001F93CF93DF936C018B017A01C0E0D0E0B6
:1010F000A701B801C6010E94F1078F3F2FEF9207A9
:1011000069F0C80ED91E081B190BE80EF91EC80F8E
:10111000D91F1016110664F3CE0102C08FEF9FEFA6
:10112000DF91CF911F910F91FF90EF90DF90CF90C3
:101130000895809164061F928F938EE892E09F93AA
:101140008F930E943C310F900F900F900F90089555
:10115000CF92DF92FF920F931F93CF93DF93F89478
:10116000F09084060091850610918606D09187063E
:10117000C0918806B0918906F0918A06E0918B06AD
:10118000C0909400D09095002F2D302F412F5D2FCF
:101190006C2F7B2F8F2F9E2FA1E00E946A30A5E736
:1011A000CA16AFE3DA0698F0E0919400F09195004A
:1011B000E457FF43F0939500E0939400F22E032F41
:1011C000142FD52FC62FB72FF82FE92FD9CFF09294
:1011D00084060093850610938606D0938706C093F5
:1011E0008806B0938906F0938A06E0938B0678947C
:1011F000DF91CF911F910F91FF90DF90CF900895D5
:1012000082E090E00E94611581E08093720608956B
:101210000F931F93CF93DF938C01EB010E94202348
:10122000CE010E942023F8014081518162817381A7
:1012300088819981AA81BB8184179507A607B70782
:1012400000F1481759076A077B07E8F04817590764
:101250006A077B07D1F404811581268137814C818F
:101260005D816E817F8181E04017510762077307BE
:1012700068F0041715072607370708F080E0819506
:1012800005C081E003C08FEF01C080E0DF91CF9106
:101290001F910F91089590935204809351040895E3
:1012A00080915104909152040895803220F40E945C
:1012B000C40C81E008958FEF089510924D041092B0
:1012C0004E0410924F0410925004089560914D0402
:1012D00070914E0480914F049091500408950F93A3
:1012E0001F93CF93DF931F92CDB7DEB78C0183E0BE
:1012F00090E069830E946115ECE8F6E014830383B3
:1013000069816283CF010E94530E83E090E00F90C9
:10131000DF91CF911F910F910C944A150C94060DFB
:101320000F931F93CF93DF93CDB7DEB760970FB6C0
:10133000F894DEBF0FBECDBF81E090E0A0E0B0E04A
:1013400089879A87AB87BC8782E090E0A0E0B0E015
:1013500089839A83AB83BC83BE016F5F7F4FCE01CD
:1013600009960E940809082FBE01675F7F4FCE01D2
:1013700001960E94080911E0813019F40F3F09F429
:1013800010E081E090E0A0E0B0E089839A83AB8335
:10139000BC838EE190E0A0E0B0E08D879E87AF87B0
:1013A000B88B8FE190E0A0E0B0E08D839E83AF83A7
:1013B000B887BE016F5F7F4FCE0109960E94080972
:1013C0008F3F09F011E0BE01675F7F4FCE010196AC
:1013D0000E940809813009F011E08EE190E0A0E060
:1013E000B0E08D839E83AF83B887BE016F5F7F4F70
:1013F000CE0109960E940809811111E0BE01675FC4
:101400007F4FCE0101960E940809811102C011236D
:1014100041F085EA92E00E94563181E090E00E941E
:101420007A3360960FB6F894DEBF0FBECDBFDF9162
:10143000CF911F910F910895CF93C82F0E949009CB
:1014400084E790E0909352048093510410924D04ED
:1014500010924E0410924F0410925004E6E6F6E00B
:101460008AEC93E09683858384E784831782ECE893
:10147000F6E016821182108215828EE29BE00E94B5
:10148000FC0C80E099E00E94010D0E94AB0C20E072
:1014900030E04FEF5FEF6C2F86E696E00E940B0D79
:1014A0000E948016C0934C0481E080934A0480938C
:1014B0007306CF9108958093730608951092840661
:1014C0001092850610928606109287061092880662
:1014D0001092890610928A0610928B0628EA38E04C
:1014E00044E75FE361E070E080E00E94942981308E
:1014F00019F480E00C948B298FEF08952F923F927E
:101500004F925F926F927F928F929F92AF92BF9213
:10151000CF92DF92EF92FF920F931F93CF93DF93BF
:10152000CDB7DEB729970FB6F894DEBF0FBECDBF9B
:10153000F8944090940050909500612C712C80900C
:10154000840690908506E091860630908706B091DB
:101550008806A091890620908A06F0918B0620E0EB
:10156000809194009091950085379F4360F0809121
:1015700094009091950084579F4390939500809399
:1015800094002F5FEDCF30E040E050E060E070E08D
:1015900080E090E05401CE2ED32CEB2EFA2E022DBB
:1015A0001F2F0E946130209384063093850640935C
:1015B0008606509387066093880670938906809309
:1015C0008A0690938B06789484E076946794579477
:1015D00047948A95D1F7A301920149823A834B83BC
:1015E0005C8394014E2F532D6B2F7A2F822D9F2FCA
:1015F00006E00E942A30022D0E94763001E00E940F
:101600002A30022D0E94763003E00E942A305901D0
:101610006A017B018C0129813A814B815C8160E008
:1016200070E080E090E00E94613029960FB6F89457
:10163000DEBF0FBECDBFDF91CF911F910F91FF9005
:10164000EF90DF90CF90BF90AF909F908F907F9062
:101650006F905F904F903F902F9008950E947E0A68
:101660002093740630937506409376065093770660
:10167000609378067093790680937A0690937B0640
:1016800008954F925F926F927F928F929F92AF9246
:10169000BF92CF92DF92EF92FF920F931F93CF935F
:1016A000DF93182FEB014A0182E090E00E94611560
:1016B00081E080934B0410927206812F90E090930A
:1016C00052048093510490927F0680927E060E947D
:1016D00080160E947B0D2097A9F10E947E0AA880A7
:1016E000B980CA80DB80EC80FD800E811F810E9462
:1016F0006130E901942E852E762E672E582E492EC4
:10170000E0917206E11122C00E947E0A5E01C92C9E
:10171000D82CE72CF62C052D142D0E947F3081F358
:1017200078F3DF91CF911F910F91FF90EF90DF90B1
:10173000CF90BF90AF909F908F907F906F905F9071
:101740004F900895809172068823E1F30E94A40EC1
:101750000E94810D0E947E1680916906992787FD5F
:1017600090959093520480935104E0917E06F091FD
:101770007F06309799F000917406109175062091BC
:1017800076063091770640917806509179066091FF
:101790007A0670917B068AEC93E0099582E090E0EE
:1017A0000E944A1580917306882371F083E090E0CF
:1017B0000E946115609151048AEC93E00E946F09C8
:1017C00083E090E00E944A15DF91CF911F910F9125
:1017D000FF90EF90DF90CF90BF90AF909F908F9051
:1017E0007F906F905F904F900C9480164F925F9215
:1017F0006F927F928F929F92AF92BF92CF92DF9221
:10180000EF92FF920F931F93CF93DF9329013A0139
:10181000D62FC72F4C01F89488EEA82E93E0B92E4E
:10182000C12CD12CE12CF12C00E010E0C4010E946D
:10183000BC2F2093840630938506409386065093F0
:101840008706609388067093890680938A06909332
:101850008B069201A3016D2F7C2FC4010E94BA2F29
:10186000490124E0880C991C2A95E1F79092950093
:10187000809294007894DF91CF911F910F91FF9007
:10188000EF90DF90CF90BF90AF909F908F907F9020
:101890006F905F904F900895109284061092850685
:1018A000109286061092870610928806109289067A
:1018B00010928A0610928B060895CF93C82F9091AC
:1018C00041019F719F31D9F3F894C23079F4E091CE
:1018D0005404F0915504309749F06091B706709127
:1018E000B8068091CF069091D0060995C093420129
:1018F0007894CF91089580935304089581E0809364
:1019000099060895109299060895809141018F716A
:101910008F31D9F3809141018F71E1F08F30D1F097
:10192000809141018F71883031F48091390182605A
:10193000809339010BC088E00E945D0C80914101C9
:101940008F718830D9F7F1CF8F3021F0809141012C
:101950008F71D1F70895809141018F718F31D9F343
:10196000809141018F7111F08F3051F480913901D4
:101970008D7F80933901809141018F718830D9F733
:10198000089589E00C945D0CE5E4F1E09081907F8E
:10199000908390818F70982B90830895E7E5F1E014
:1019A00080818D7F80830895E7E5F1E0808182600A
:1019B00080830895EEE6F1E080818F7E8083089534
:1019C000EEE6F1E08081806180830895809360017C
:1019D000909361019093A3068093A206089590933B
:1019E0009D0680939C06E8E4F1E08081807E808300
:1019F0008081682B608308959093590480935804E4
:101A00000895909357048093560408959093550435
:101A10008093540408950F931F93CF93DF93FC0199
:101A2000D90180E28093440180EC8093450160629B
:101A30006093480185EC8093490187EA80934B01CC
:101A400080E880934C0120936001B0936101409342
:101A5000620150936301C6E4D1E0088188819881D6
:101A60002881302F32953695377060E4369F80019B
:101A70001124229526952370622F602B82958695DE
:101A8000837070E1879F90011124262B9295969583
:101A9000937084E0989FB0011124622B60936D01D4
:101AA00088819881929596959370392F3064982FFC
:101AB00092959670932B90936E0110926C018FEF1C
:101AC00080934E01CCE9D6E0F983E8831A821B8229
:101AD0005D834C83BF83AE83188681E08093B60616
:101AE0001092D1061092A50610929906DF91CF911F
:101AF0001F910F91089586E10C945D0C86E10C9482
:101B00005D0C88E00E945D0C1092D10608951F9331
:101B1000CF93DF93EC018091B606882309F468C067
:101B20002E8180919E068F5F80939E069091810109
:101B3000907E916020FB95F99F7390649093810152
:101B400088E88093820180919906882361F08FEF65
:101B5000809383018AEA9AEA9093890180938801AD
:101B60008FEF9FEF10C080919E068093830120919C
:101B700061018091600190E0922B909389018093A4
:101B800088018881998190938701809386012091B3
:101B900063018091620190E0922B90938501809384
:101BA00084014A81552747FD50956B817C818AE8E5
:101BB00091E00E94A2308A81855F809380018091AC
:101BC0004101182F1F719FEF910F9230C0F3113117
:101BD000B1F31231A1F31F3191F398EF910F9230CD
:101BE00048F08F70863031F084EB91E00E94101243
:101BF0008FEF55C086E10E945D0C8D8181110AC076
:101C000089E00E945D0C8E81882391F089E10E9419
:101C10005D0C0EC0809148018068809348018091DE
:101C2000410187FFFCCF8091410186FFE1CFE8CFE2
:101C30008091540490915504892B71F08A819927E1
:101C400087FD90959093D0068093CF068AE891E027
:101C50009093B8068093B7061092A50682E00E9482
:101C60005D0C80E090E02091A506211105C0019651
:101C7000883E2DEF9207B9F72E81222331F0209173
:101C8000420122952695277029F4883E9D4F11F038
:101C9000C1E001C0CFEF812F0E945D0C8C2FDF913E
:101CA000CF911F9108950E94870D89EE9DEF20919D
:101CB000A506211104C00197D1F78FEF089581E0A7
:101CC00008951092A50682E00E945D0C88EE9DEFBB
:101CD0002091A506211104C00197D1F78FEF089537
:101CE00081E00895CF93DF938091B606882341F178
:101CF00080914101C82FCF719FEF9C0F9230C0F3AC
:101D0000C131B1F3C231A1F3CF3191F3C83019F031
:101D10008F708630A9F486E10E945D0C80914801A5
:101D20008068809348018091410187FFFCCFD0916A
:101D300041018C2F0E945D0CD6FB882780F901C0E1
:101D40008FEFDF91CF9108958091B606811103C086
:101D500089EB92E052C08091D106882309F4E3C058
:101D600080917B01E0919C06F0919D0690E00297A6
:101D70002481332727FD3095281739071CF487EC79
:101D800092E03BC0E0919C06F0919D06809182011B
:101D90008083E0919C06F0919D068091870190914F
:101DA000880192838183E0919C06F0919D06809149
:101DB0007B018B508383A0919C06B0919D06E0919E
:101DC0009C06F0919D0613969C91848189173CF0A6
:101DD000E0919C06F0919D06838187FF12C01092CE
:101DE000D10680914C018F7780934C0180914C01FA
:101DF000806880934C0189ED92E00E9456318FEF0C
:101E00000895A0919C06B0919D06E0919C06F091EA
:101E10009D0613964C91552747FD509569E871E052
:101E2000858196810E94A23080915304882309F411
:101E30003EC0E0919C06F0919D0683818031B9F50A
:101E4000E0919C06F0919D066581768144E050E02A
:101E500081E092E00E94AB30892B49F5E0919C062D
:101E6000F0919D066581768140E150E081E092E04D
:101E70000E94AB30892BD9F49DE088E10FB6F8942D
:101E8000A895809360000FBE9093600080E090E082
:101E90000E94611581E090E00E94611582E090E06F
:101EA0000E94611583E090E00E946115FFCFE091F0
:101EB0009C06F0919D068091800185FB882780F922
:101EC0008783E0919C06F0919D0680914701808771
:101ED000E0919C06F0919D0680914601869586953D
:101EE00086958187E0919C06F0919D06809147013F
:101EF0008287A0919C06B0919D06E0917B01F0E065
:101F0000E058FE4F80811B968C931092D1068091F1
:101F10004C018F7780934C0180914C0180688093B5
:101F20004C0181E0089580E008951F920F920FB652
:101F30000F9211248F9380E880934F018F910F901F
:101F40000FBE0F901F9018951F920F920FB60F9211
:101F500011248F9381E08093A50680E480934F0144
:101F60008F910F900FBE0F901F9018951F920F9298
:101F70000FB60F9211248F9380E280934F018F91BF
:101F80000F900FBE0F901F9018951F920F920FB6D3
:101F90000F9211248F9380E180934F018F910F90C6
:101FA0000FBE0F901F9018951F920F920FB60F92B1
:101FB00011240BB60F922F933F934F935F936F9320
:101FC0007F938F939F93AF93BF93EF93FF9384E09F
:101FD00080934F01E0915804F0915904309709F033
:101FE0000995FF91EF91BF91AF919F918F917F9153
:101FF0006F915F914F913F912F910F900BBE0F907A
:102000000FBE0F901F9018951F920F920FB60F9250
:1020100011248F9382E080934F018F910F900FBE18
:102020000F901F9018951F920F920FB60F921124C8
:102030008F9381E080934F018F910F900FBE0F908F
:102040001F901895E9E4F1E09081907F9083908152
:102050008F70982B908308958FEF089508950895B9
:1020600008958FEF089580919706909198060895AE
:10207000089581E0089581E0089581E0089508952C
:1020800008950895089508950895089508959898D5
:102090008DB1806E8DB98EB1806A8EB90895989891
:1020A0008DB1806E8DB98EB180668EB90895CF9254
:1020B000DF92EF92FF920F931F93CF93DF93CDB7F1
:1020C000DEB727970FB6F894DEBF0FBECDBF0E94D4
:1020D0007E16E0919C06F0919D06C080D380E5803D
:1020E000F68000850E94A40E18161CF082E093E092
:1020F00006C0F7011081111107C081E293E00E9430
:1021000056310E94801631C0153021F48AE090E0EB
:102110000E945031C70101969F938F93802F99277A
:1021200087FD90959F930F931F921F931F92CF92BD
:1021300083E493E09F938F930E943C31FD82EC8275
:102140001150F7011083DB821E821F828FEF9FEFF9
:102150009A8389830E948016CE0101960E94870D82
:102160000FB6F894DEBF0FBECDBF27960FB6F8941A
:10217000DEBF0FBECDBFDF91CF911F910F91FF90BA
:10218000EF90DF90CF9008951F920F920FB60F92AD
:1021900011240BB60F922F933F934F935F936F933E
:1021A0007F938F939F93AF93BF93EF93FF9380E0C1
:1021B00090917B01891710F48F5FFACF80914601CF
:1021C00087FF04C081E08093D10604C08CE693E0D1
:1021D0000E94563188E080934F018091460187FF2D
:1021E00005C08091990681110E945710E091560414
:1021F000F0915704309709F00995FF91EF91BF9145
:10220000AF919F918F917F916F915F914F913F918E
:102210002F910F900BBE0F900FBE0F901F9018952F
:10222000A6EAB6E0FC01409620812D9321912093EF
:102230003F01E817F907C1F780E110923E01815094
:10224000E1F780E880933C0180913D0180FFFCCF65
:10225000E9EBF6E080E18E0F90913F0191938E13B0
:10226000FBCF0895CF93DF93DC01662309F445C0CB
:10227000862F8F7009F041C0E6EAF6E090E19E0FEC
:10228000219120933F019E13FBCF90E070E0E0E2AC
:1022900040E1949F90011124261737077CF5911196
:1022A00003C010923C0102C0E0933C0140E050E0CA
:1022B0002A0F3B1FE901C40FD51FF881F0933E019F
:1022C0004F5F5F4F40315105A9F740913C01406895
:1022D00040933C0140913D0140FFFCCF40E050E085
:1022E000F0913E01E901C40FD51FF8834F5F5F4FA6
:1022F00040315105A9F79F5FCBCF81E0DF91CF91AE
:1023000008950F931F93CF93DF93DC01613009F49D
:1023100058C0862F8F7009F054C0E9EBF6E090E1C9
:102320009E0F219120933F019E13FBCF62956F700A
:10233000615078E06F3F09F445C070933C01462F2F
:10234000552747FD509520E030E0ED0190E169020E
:10235000C00DD11D1124FE01E20FF31F9081909357
:102360003E012F5F3F4F20313105A9F790913C018D
:10237000906890933C0190913D0190FFFCCF4150BB
:10238000510994E0440F551F9A95E1F720E030E0A1
:1023900090913E018E01020F131FF8019083662376
:1023A00049F0F901E40FF51FEA0FFB1FE0819E27BA
:1023B000F80190832F5F3F4F2031310549F761507D
:1023C000B9CF81E0DF91CF911F910F910895809156
:1023D000C00087FFFCCF8091C0008F778093C00042
:1023E0008091C60008959091C00095FFFCCF909118
:1023F000C0009F7D9093C0008093C60008958FEF2A
:102400000895813019F48091C80004C0811106C07C
:102410008091C000881F8827881F089580E0089554
:10242000CF93DF93FC012491EC012196222351F0FC
:102430006091660770916707822F90E00E940431D7
:10244000CE01F0CFDF91CF91089586E084B985B9B0
:1024500088EF8AB980EF8BB982E08DB908950C942A
:1024600025128F3F09F46CC0E82FE7704E2F50E023
:102470004730510508F064C0FA01E057FF4F8695D8
:10248000869586950C94213042B121E030E0B90167
:1024900002C0660F771F8A95E2F7CB01842B82B9C1
:1024A0004DC045B121E030E0B90102C0660F771F91
:1024B0008A95E2F7CB01842B85B940C048B121E071
:1024C00030E0B90102C0660F771F8A95E2F7CB01B1
:1024D000842B88B933C04BB121E030E0B90102C090
:1024E000660F771F8A95E2F7CB01842B8BB926C044
:1024F0004EB121E030E0B90102C0660F771F8A9526
:10250000E2F7CB01842B8EB919C041B321E030E052
:10251000B90102C0660F771F8A95E2F7CB01842BC1
:1025200081BB0CC044B321E030E0B90102C0660FAA
:10253000771F8A95E2F7CB01842B84BB81E0089555
:102540008FEF08958F3F09F473C0E82FE7704E2F87
:1025500050E04730510508F06BC0FA01E956FF4FD3
:102560008695869586950C94213042B121E030E025
:10257000B90102C0660F771F8A95E2F7CB018095FB
:10258000842382B953C045B121E030E0B90102C0D3
:10259000660F771F8A95E2F7CB018095842385B972
:1025A00045C048B121E030E0B90102C0660F771F95
:1025B0008A95E2F7CB018095842388B937C04BB167
:1025C00021E030E0B90102C0660F771F8A95E2F77B
:1025D000CB01809584238BB929C04EB121E030E036
:1025E000B90102C0660F771F8A95E2F7CB0180958B
:1025F00084238EB91BC041B321E030E0B90102C091
:10260000660F771F8A95E2F7CB018095842381BB03
:102610000DC044B321E030E0B90102C0660F771F5E
:102620008A95E2F7CB018095842384BB81E00895ED
:102630008FEF08958F3F31F1E82FE7704E2F50E074
:1026400047305105F8F4FA01E256FF4F282F26953E
:10265000269526950C94213090B10BC093B109C0FA
:1026600096B107C099B105C09CB103C09FB101C02C
:1026700092B3892F90E002C0959587952A95E2F74D
:10268000817008958FEF08958F3F09F406C1E82FF8
:10269000E7704E2F50E04730510508F0FEC0FA01B8
:1026A000EB55FF4F8695869586950C94213020B189
:1026B00030E0082E02C0359527950A94E2F742B122
:1026C00020FD0BC021E030E0B90102C0660F771F8A
:1026D0008A95E2F7CB01842B0BC021E030E0B901F1
:1026E00002C0660F771F8A95E2F7CB01809584239D
:1026F00082B916C023B130E0082E02C03595279567
:102700000A94E2F745B120FD0DC021E030E0B901A7
:1027100002C0660F771F8A95E2F7CB01842B85B93B
:1027200081E0089521E030E0B90102C0660F771F13
:102730008A95E2F7CB0180958423F1CF26B130E072
:10274000082E02C0359527950A94E2F748B120FD7E
:102750000BC021E030E0B90102C0660F771F8A95F7
:10276000E2F7CB01842B0BC021E030E0B90102C0BD
:10277000660F771F8A95E2F7CB018095842388B98D
:10278000CFCF29B130E0082E02C0359527950A94A5
:10279000E2F74BB120FD0BC021E030E0B90102C0EF
:1027A000660F771F8A95E2F7CB01842B0BC021E0DF
:1027B00030E0B90102C0660F771F8A95E2F7CB01BE
:1027C000809584238BB9ACCF2CB130E0082E02C0A9
:1027D000359527950A94E2F74EB120FD0BC021E014
:1027E00030E0B90102C0660F771F8A95E2F7CB018E
:1027F000842B0BC021E030E0B90102C0660F771FC7
:102800008A95E2F7CB01809584238EB989CF2FB1C9
:1028100030E0082E02C0359527950A94E2F741B3BF
:1028200020FD0BC021E030E0B90102C0660F771F28
:102830008A95E2F7CB01842B0BC021E030E0B9018F
:1028400002C0660F771F8A95E2F7CB01809584233B
:1028500081BB66CF22B330E0082E02C035952795A4
:102860000A94E2F744B320FD0BC021E030E0B90147
:1028700002C0660F771F8A95E2F7CB01842B0BC04D
:1028800021E030E0B90102C0660F771F8A95E2F7B8
:10289000CB018095842384BB43CF8FEF08958F3F76
:1028A00009F4D5C0E82FE7704E2F50E0611167C0E2
:1028B0004730510508F0CBC0FA01E455FF4F86952B
:1028C000869586950C94213041B121E030E0B90124
:1028D00002C0660F771F8A95E2F7CB0180958423AB
:1028E00065C044B121E030E0B90102C0660F771F36
:1028F0008A95E2F7CB018095842365C047B121E03A
:1029000030E0B90102C0660F771F8A95E2F7CB016C
:102910008095842365C04AB121E030E0B90102C04E
:10292000660F771F8A95E2F7CB018095842365C0F7
:102930004DB121E030E0B90102C0660F771F8A95E2
:10294000E2F7CB018095842365C040B321E030E0FD
:10295000B90102C0660F771F8A95E2F7CB01809517
:10296000842365C043B321E030E0B90102C0660FA3
:10297000771F8A95E2F7CB018095842365C04730A5
:10298000510508F064C0FA01ED54FF4F8695869515
:1029900086950C94213041B121E030E0B90102C0AC
:1029A000660F771F8A95E2F7CB01842B81B94DC062
:1029B00044B121E030E0B90102C0660F771F8A956B
:1029C000E2F7CB01842B84B940C047B121E030E06D
:1029D000B90102C0660F771F8A95E2F7CB01842BFD
:1029E00087B933C04AB121E030E0B90102C0660FB7
:1029F000771F8A95E2F7CB01842B8AB926C04DB1A7
:102A000021E030E0B90102C0660F771F8A95E2F736
:102A1000CB01842B8DB919C040B321E030E0B9015E
:102A200002C0660F771F8A95E2F7CB01842B80BB2B
:102A30000CC043B321E030E0B90102C0660F771F3C
:102A40008A95E2F7CB01842B83BB81E008958FEF59
:102A50000895811106C080B18695817091E0892723
:102A600008958FEF0895009711F483E20DC081302F
:102A7000910511F48BE208C08230910511F483E3D3
:102A800003C0039729F48BE30E94441381E0089567
:102A90008FEF0895009711F483E20DC08130910506
:102AA00011F48BE208C08230910511F483E303C076
:102AB000039729F48BE30E94311281E008958FEF90
:102AC0000895009711F483E20DC08130910511F44F
:102AD0008BE208C08230910511F483E303C00397B1
:102AE00029F48BE30E94A21281E008958FEF0895EC
:102AF000882319F085B78F7E02C085B7806185BFB6
:102B000081E008959091C80095FFFCCF8093CE009E
:102B100008959093C5008093C40086E08093C2001E
:102B2000E1ECF0E080818B7F8083A0ECB0E08C91C1
:102B300082608C9380818861808308959093CD001A
:102B40008093CC0086E08093CA00E9ECF0E08081BD
:102B50008B7F8083A8ECB0E08C9182608C93808125
:102B6000886180830895CF93DF930E94891567EE73
:102B700071E183EF91E10E94B930C4E6D7E09B8315
:102B80008A8367EE71E183EF91E10E94B930998306
:102B90008883DF91CF9108958091C80087FFFCCF93
:102BA0008091C8008F778093C8008091CE000895EF
:102BB00000000000000000000197D1F708950C9478
:102BC00014320E941C320895EF92FF920F931F93CC
:102BD000CF93DF937C0180E090E00E941432182FA5
:102BE000F701838381E090E00E941432082FF701FF
:102BF000828382E090E00E941432D82FF701818313
:102C000083E090E00E941432C82FF701808384E0B3
:102C100090E00E941432100FD10FCD0F8C1711F0DD
:102C20008FEF01C081E0DF91CF911F910F91FF9055
:102C3000EF900895CF93DF93EC0185E090E00E9440
:102C40001432888381E0DF91CF910895FC01608187
:102C500086E090E00E941C3281E00895CF93DF93DC
:102C6000EC0186E090E00E941432888381E0DF91DD
:102C7000CF9108950F931F93CF93DF938C01C0E002
:102C8000D0E0CE0108960E941432F80181938F01A2
:102C90002196C031D105A9F781E0DF91CF911F9135
:102CA0000F9108950F931F93CF93DF938C01C0E092
:102CB000D0E0F80161918F01CE0108960E941C328C
:102CC0002196C031D105A9F781E0DF91CF911F9105
:102CD0000F910895CF93DF93EC0187E090E00E947D
:102CE0001432888381E0DF91CF910895FC016081E7
:102CF00087E090E00E941C3281E00895F8940895E6
:102D0000789408950E947E16FFCFCF93DF93CDB7BE
:102D1000DEB7A3970FB6F894DEBF0FBECDBF0E94FB
:102D2000B21A809333078F3F21F460E08EE00E9457
:102D3000CA180E944A2A80FF04C060E086E00E9410
:102D4000CA18109236071092440710924307109247
:102D500035071092340710924507109242078FEF03
:102D600080932C0780932E0780932D0780932F0745
:102D7000809331078093300793E69093DE0680932B
:102D8000DC06909309078093070786E497E02BE41D
:102D900037E030934A072093490790934D0780937B
:102DA0004C0740E557E050934F0740934E07309350
:102DB000520720935107109248071092470710922C
:102DC00054071092530710923907109238079093C6
:102DD000D3068093D20669EB74E2CE0101960E947D
:102DE000822C40E850E06BE975E0CE0101960E942C
:102DF000862C85E580939B0519861C861D861E867C
:102E00001F86188A198A1A8A1B8A1C8A1D8A1E8A9A
:102E10001F8A188E198E1A8E1B8E1C8E1D8E1E8E6A
:102E20001F8E18A219A21AA21BA281E0888792E025
:102E30009A878B87CE0101960E94081FA3960FB632
:102E4000F894DEBF0FBECDBFDF91CF9108956091A2
:102E5000DC066F3F39F080910707681303C085E0F7
:102E60000E94CA18609107076F3FE9F40E94FB1D9A
:102E70002BE28202C0011124FC01EC52F94F828541
:102E800080934507F0934407E0934307F093350799
:102E9000E0933407809336070E94F82C0E94E22CBE
:102EA0000E94FC2C08C08091DC066813DFCF85E00F
:102EB0000E94CA18DBCFFFCFCF92DF92EF92FF9232
:102EC0000F931F93CF93DF93EC018B017A018985D8
:102ED000823021F080913207888301C0188280916E
:102EE0003207823020F060E087E00E94CA188985AE
:102EF000823029F0809132078F5F80933207809172
:102F00003207811103C081E08093320738812BE2C0
:102F10003203F0011124EC52F94F118300838885AC
:102F2000828738813203F0011124EC52F94F83E09B
:102F3000818738813203F0011124EC52F94F308738
:102F400008810203800111240C52194FF8011582E7
:102F5000CE010B960E944F24F80161A372A383A3B4
:102F600094A38B859C85AD85BE8588339948A14403
:102F7000B10520F0688186E10E94CA18C880DD246E
:102F8000C7FCD094CE014B960E944F241BE21C9D9F
:102F9000F0011D9DF00D1124EC52F94F658B768BDD
:102FA000878B908F28812103C00111249C012C5212
:102FB000394F6901F901458956896789708D81A169
:102FC00092A1A3A1B4A1840F951FA61FB71F818F43
:102FD000928FA38FB48FCE0143960E944F24F601A7
:102FE00065A376A387A390A728812103F00111246C
:102FF000EC52F94F85A196A1A7A1B0A5858F968F18
:10300000A78FB0A381E090E092A781A7F382E2822C
:103010008487DF91CF911F910F91FF90EF90DF9008
:10302000CF9008950C94DD2485E690E00895E0911A
:103030004307F091440784870895E0914307F09196
:10304000440784850895FC0180919A05882331F016
:10305000DB018C9380915D04808381E00895109260
:103060009A05089580919A05882309F483C088E021
:1030700094E00E94101280915D041F928F9385E866
:1030800093E09F938F930E943C3184E094E00E94F0
:1030900010120F900F900F900F9080919A05883129
:1030A00010F010929A05E0919A058E2F90E0FC01A5
:1030B0003197E631F10508F046C0E654FF4F0C9415
:1030C000213088EC93E041C081EA93E03EC08DE876
:1030D00093E03BC087E793E038C08CE593E035C0D0
:1030E00086E493E032C08EE293E02FC08BE193E060
:1030F0002CC088E093E029C08AEE92E026C085ECDF
:1031000092E023C089EB92E020C08EE992E01DC0DE
:103110008FE892E01AC08BE792E017C08AE692E04F
:1031200014C086E592E011C086E392E00EC08EE105
:1031300092E00BC083E092E008C082EF91E005C00E
:1031400083EE91E002C08CED91E00E94101260913C
:103150006607709167078DE090E00E9404316091EE
:103160006607709167078AE090E00E9404318091C1
:103170009A05089580E0089580939A05E0914307A9
:10318000F0914407808580935D040E94321810926C
:103190009A05089580939A0560935D040E94321801
:1031A00010929A05089513BC1092B60018BC17BC73
:1031B00016BC15BC14BC1DBA1CBA1BBA10929B00DD
:1031C00010929A0010929900109298001092950017
:1031D00010929400109291001092900018BA1092E0
:1031E00071001092B4001092B3001092B2001092CD
:1031F000B100E0EBF0E01082108217BA109270007C
:103200008FEF84BF0895CF93DF931F92CDB7DEB7C2
:1032100019828981843640F480ED97E00E948128EC
:1032200089818F5F8983F5CF0F90DF91CF910895CA
:1032300081E090E00E9461150E9403190E94031929
:103240000E94031981E090E00E944A150C94031932
:1032500081E090E00E9461150E94031981E090E0F6
:103260000E944A150C940319FF920F931F93CF935A
:10327000DF9300D01F92CDB7DEB71F928F9385E802
:1032800093E09F938F938E010F5F1F4F1F930F93B8
:103290000E9486310F900F900F900F900F900F901B
:1032A000F12CF80101900020E9F73197E01BF10BB8
:1032B0008F2D90E08E179F0708F05DC0F801E80F92
:1032C000F91FE0818E2F90E0FC01F097EA30F105C4
:1032D00008F049C0E053FF4F0C9421300E941819A8
:1032E00002C00E9428190E9418190E9418190E94F1
:1032F00018190E94181937C00E9428190E9428190D
:10330000F4CF0E9428190E9428190E942819EFCF93
:103310000E9428190E9428190E9428190E94281921
:10332000E8CF0E94281902C00E9418190E9428198B
:1033300004C00E9418190E9418190E94281906C07A
:103340000E9418190E9418190E9418190E94281921
:1033500008C00E9418190E9418190E9418190E948A
:1033600018190E9428190E9403190E9403190E942B
:103370000319F39496CF0F900F900F90DF91CF9198
:103380001F910F91FF9008956F927F928F929F925D
:10339000AF92BF92CF92DF92EF92FF920F931F9363
:1033A000CF93DF9384E194E00E941012E0914307F1
:1033B000F09144078085282F332727FD30953F93D0
:1033C0008F9388E893E09F938F930E943C31E09124
:1033D0004307F0914407C281D381DF93CF938CEBF5
:1033E00093E09F938F930E943C3188811F928F932B
:1033F00081E993E09F938F930E943C31E0914307D2
:10340000F091440781818F9380818F938EE993E0BF
:103410009F938F930E943C31809144078F938091BA
:1034200043078F9388EA93E09F938F930E943C31E8
:10343000C4EDD6E0EDB7FEB774960FB6F894FEBFB4
:103440000FBEEDBF00E010E088EB682E83E0782E21
:1034500091E9892E93E0992E2EE9A22E23E0B22E37
:1034600038EAC32E33E0D32EEA80FB80FF92EF923E
:103470001F930F937F926F920E943C31F7018081DE
:103480001F928F939F928F920E943C3189818F93DC
:1034900088818F93BF92AF920E943C31DF93CF938C
:1034A000DF92CF920E943C31AB96EDB7FEB7729699
:1034B0000FB6F894FEBF0FBEEDBF0130110519F035
:1034C00001E010E0D1CFDF91CF911F910F91FF90DC
:1034D000EF90DF90CF90BF90AF909F908F907F90B4
:1034E0006F900895CF93DF93E0914307F0914407E5
:1034F000C281D3818881853539F00E94C41981E069
:103500000E94BC1885E58883E0914307F091440749
:10351000808191818115924438F00E94C41982E122
:10352000DF91CF910C94BC18DF91CF9108952BE2DD
:103530008202C0011124FC01EC52F94FA281B38137
:103540008C91853519F085E58C9308C08081918137
:103550008115924428F082E10E94BC188FEF0895F3
:1035600081E008950F931F93409165055091660582
:10357000609167057091680580E090E08A019B0189
:10358000082E04C036952795179507950A94D2F70B
:1035900000FD19C001E010E020E030E0082E04C07A
:1035A000000F111F221F331F0A94D2F7402B512BFB
:1035B000622B732B409365055093660560936705F6
:1035C0007093680505C0019680329105B9F68FEFBA
:1035D0001F910F910895E0914307F091440765858D
:1035E0007685878590890895CF92DF92EF92FF923A
:1035F0000F931F93CF93DF93C12CD12C7601C394EB
:10360000082E04C0CC0CDD1CEE1CFF1C0A94D2F763
:103610004091650550916605609167057091680558
:103620004C215D216E217F21452B462B472B09F430
:1036300060C0082F0E947E16EDEDF6E0B701A601EE
:10364000409550956095709513E0DF0111978C912E
:103650008F3F39F184819581A681B7818C159D05B5
:10366000AE05BF0551F410861186128613869F01A0
:1036700022503109E9011882108384239523A6235F
:10368000B72384839583A683B78380859185A2859C
:10369000B38584239523A623B72380879187A287A8
:1036A000B387BB96D7E0E333FD0779F68EEF9FEF44
:1036B000AFEFBFEF04C0880F991FAA1FBB1F0A9569
:1036C000D2F740916505509166056091670570914C
:1036D000680584239523A623B723809365059093DB
:1036E0006605A0936705B09368050E94801681E087
:1036F00001C08FEFDF91CF911F910F91FF90EF905D
:10370000DF90CF9008950F931F9341E050E060E069
:1037100070E08A019B0104C0000F111F221F331F9C
:103720008A95D2F7D901C801E0914307F091440787
:1037300045855685678570890423152326233723FD
:10374000012B022B032BD1F080959095A095B0957D
:10375000482359236A237B23458756876787708BC5
:10376000418952896389748984239523A623B723C9
:10377000818B928BA38BB48B81E001C08FEF1F9163
:103780000F910895282F409165055091660560912D
:10379000670570916805082E04C076956795579562
:1037A00047950A94D2F740FF1DC0E0914307F0917E
:1037B000440781E090E0A0E0B0E004C0880F991FCA
:1037C000AA1FBB1F2A95D2F7458556856785708944
:1037D000842B952BA62BB72B85879687A787B08B35
:1037E00081E008958FEF0895CF92DF92EF92FF92DC
:1037F000CF93C12CD12C7601C39404C0CC0CDD1C1A
:10380000EE1CFF1C8A95D2F78091650590916605A4
:10381000A0916705B09168058C219D21AE21BF2143
:10382000892B8A2B8B2B11F481E044C00E947E16D9
:10383000EBEDF6E0ADEDB6E0C0E083E090819130D5
:10384000B9F442855385648575854C215D216E21CF
:103850007F21452B462B472B59F08C9316861786D4
:10386000108A118A1082C286D386E486F586C1E06A
:1038700090819230A1F442855385648575854C15FD
:103880005D056E057F0559F48C9316861786108AA0
:10389000118A10821286138614861586C1E0BB96A3
:1038A0009B9697E0E133F90749F60E948016C11113
:1038B00005C082E00E9417188FEF01C081E0CF9110
:1038C000FF90EF90DF90CF9008950F931F93E091BA
:1038D0004307F0914407058516852785308906231F
:1038E000172328233923011511052105310511F16D
:1038F000DC01CB01818B928BA38BB48B21E02783DE
:103900000090330704C0B695A795979587950A94BC
:10391000D2F780FF03C00E94702004C080E090E0D6
:103920000E944120E0914307F091440701891289E8
:1039300023893489C901B8011F910F91089590918D
:10394000420791111DC090912C079F3F31F090913B
:103950002F079F3F21F0E2E003C0E0E001C0E1E07B
:10396000F0E09F01220F331FE20FF31FE45DF84FD9
:1039700082838083618381E080934207CF01089531
:1039800080E090E0089527E08C32920729F08F5272
:10399000974021F481E0089580E008958FEF089525
:1039A0000E94C31C8F3F11F481E002C0823021F4D9
:1039B0000E9417188FEF0895992787FD9095FC01B5
:1039C000EE0FFF1F8E0F9F1FFC01E45DF84F8281F9
:1039D0000895EF92FF920F931F93CF93DF931F925F
:1039E000CDB7DEB70E94C31C8F3F11F481E002C047
:1039F000823021F40E9417188FEF41C089830E9402
:103A00007E168981E82EFF24E7FCF0948701000FE1
:103A1000111FF801EE0DFF1DE45DF84F9281911129
:103A200016C0E0914307F091440797819260978315
:103A3000992787FD9095A92FB92F818B928BA38B06
:103A4000B48B0E94801680E090E00E9441200E0D11
:103A50001F1DD801A45DB84F12968C91129781500A
:103A600012968C931297E0914307F09144071196B8
:103A70008C91838781E084830E94801681E00F907F
:103A8000DF91CF911F910F91FF90EF9008950F93C9
:103A90001F93CF93DF931F92CDB7DEB70E94C31C55
:103AA0008F3F11F481E002C0823021F40E94171888
:103AB0008FEF79C0482F552747FD50959A01220F67
:103AC000331F240F351F8901045D184FF80122812F
:103AD000908129170CF066C089830E947E16F80138
:103AE00092819F5F9283E0914307F0914407148293
:103AF0009091DB068981923041F50091E5061091A5
:103B0000E6062091E7063091E806482F552747FD45
:103B10005095652F752F0417150726073707A9F449
:103B200093E09093DD061092E9061092EA06109257
:103B3000EB061092EC061092DB061092E50610924E
:103B4000E6061092E7061092E8069091060792307A
:103B500039F5992787FD9095A92FB92F4091100726
:103B60005091110760911207709113074817590778
:103B70006A077B07A9F483E0809308071092140773
:103B80001092150710921607109217071092060749
:103B9000109210071092110710921207109213073B
:103BA0000E94801681E00F90DF91CF911F910F91BD
:103BB00008950E94C31C8F3F11F481E002C082303F
:103BC00021F40E9417188FEF0895992787FD90958B
:103BD000FC01EE0FFF1F8E0F9F1FFC01E45DF84FED
:103BE0008FEF80838283818380914207815080930D
:103BF000420781E00895E0913807F091390780810C
:103C00000895E0913807F0913907309721F003804B
:103C1000F481E02DFACF0895AF92BF92CF92DF9258
:103C2000EF92FF920F931F93CF93DF93E091D20611
:103C3000F091D306309709F490C0009138071091A5
:103C400039070115110509F44CC0D8014BE2582F72
:103C50005403900111242C52394F79019AE0E90E56
:103C6000F11C6901C4E0CC0ED11C5901DBE0AD0EA2
:103C7000B11C2C9130E0429FB001439F700D112484
:103C80006C52794FEB019C81992329F05B85E70108
:103C90009881591740F1E6019881992369F0429F74
:103CA000B001439F700D11246C52794FEB015A857E
:103CB000E50198815917B8F0429FB001439F700DFC
:103CC00011249B012C52394FE9012A85E701988183
:103CD000291748F013960D90BC91A02D109749F626
:103CE00002C0A0E0B0E08083C381D481D093D3062A
:103CF000C093D206A017B107B1F4109749F0B4836E
:103D0000A383128211821296FC93EE93119706C040
:103D10001482138212821182FA83E983F0933907A5
:103D2000E09338071AC011968D919C911297AC17A9
:103D3000BD0759F092838183B483A3831196CD91FB
:103D4000DC911297FC83EB8304C01482138292836C
:103D500081831296FC93EE931197DF91CF911F917F
:103D60000F91FF90EF90DF90CF90BF90AF900895AC
:103D7000CF93DF93E0913807F0913907309709F43A
:103D800044C0992787FD9095208130E02817390796
:103D900081F4A381B481B0933907A09338071296B8
:103DA0001C921E92119718C00380F481E02D309769
:103DB00061F1208130E028173907B1F7C181D28144
:103DC000838194819C838B83A381B481109721F09C
:103DD0001296DC93CE931197A091D206B091D306A0
:103DE000109739F4F093D306E093D206148213822D
:103DF0000AC0B483A3831296FC93EE931197F093B9
:103E0000D306E093D20612821182DF91CF910895FA
:103E1000EF92FF920F931F93CF93DF93EC014B81AF
:103E20005C8169817A818D819E810E94A42C2F8181
:103E3000222371F04B815C81E12CF12C00E010E039
:103E400020E030E0BC01CE010E945C171F820CC054
:103E5000E8812BE2E202F0011124EC52F94F2185B6
:103E60002330B9F491838083E8818BE2E802F0018A
:103E70001124EC52F94F85899689A789B08D892B39
:103E80008A2B8B2B41F482E0818788810E940C1E53
:103E900002C08FEF01C081E0DF91CF911F910F91A0
:103EA000FF90EF9008951F93CF93DF93CDB7DEB7C8
:103EB00028970FB6F894DEBF0FBECDBF29833A8393
:103EC0004B835C836D837E838F8398870E947E16ED
:103ED0000E94CE29182FCE0101960E944F246330F4
:103EE000710598F0E0914307F0914407212F30E0ED
:103EF000620F731FCB01A0E0B0E0858B968BA78B80
:103F0000B08F0E94801681E001C08FEF28960FB617
:103F1000F894DEBF0FBECDBFDF91CF911F91089502
:103F20000E94772CE0914307F0914407858181112D
:103F3000F7CF0895CF930E94721A0E947E16E091E7
:103F40004307F091440781E090E092A781A7858321
:103F50000E94CE29C82F883F80F40E9469292C2F07
:103F600030E02F5F3F4F90E02817390734F482E0AC
:103F70008C0F809399050E946D290E9480160E94E3
:103F8000901F81E0CF910895E0914307F09144079D
:103F900080850E94B81EE0914307F091440784E0B9
:103FA00081870E949A1F81E00895CF93DF93EC01EF
:103FB0000E94721A209711F4C1E0D0E00E947E1690
:103FC000E0914307F091440781E08583D2A7C1A720
:103FD0000E94CE29C82F883F80F40E9469292C2F87
:103FE00030E02F5F3F4F90E02817390734F482E02C
:103FF0008C0F809399050E946D290E9480160E9463
:10400000901F81E0DF91CF910895EF92FF920F937F
:104010001F93CF938C010E947E16E0914307F0918D
:10402000440781E085830E94CE29C82FE091430791
:10403000F0914407E82EF12CC701800F911FA0E0FA
:10404000B0E0858B968BA78BB08FC83F78F40E9429
:1040500069299FEFE91AF90A90E0E816F90634F4A5
:1040600082E08C0F809399050E946D290E94801632
:104070000E94901F81E0CF911F910F91FF90EF90D0
:104080000895CF93DF93EC010E947E16E0914307E1
:10409000F091440721E02583CE01A0E0B0E0858BBC
:1040A000968BA78BB08F0E94CE29C82F883F80F4B3
:1040B0000E9469292C2F30E02F5F3F4F90E0281796
:1040C000390734F482E08C0F809399050E946D29A2
:1040D0000E9480160E94901F81E0DF91CF91089589
:1040E000CF930E947E16E0914307F091440781E050
:1040F000858386830E94CE29C82F883F80F40E9442
:1041000069292C2F30E02F5F3F4F90E028173907A7
:1041100034F482E08C0F809399050E946D290E94EF
:1041200080160E94901F81E0CF9108951F93CF9336
:10413000DF93CDB7DEB728970FB6F894DEBF0FBE7A
:10414000CDBF29833A834B835C836D837E838F83CA
:1041500098870E94721A0E947E16E0914307F091A0
:10416000440781E0858381E090E092A781A70E94C7
:10417000CE29182FCE0101960E944F24E0914307CB
:10418000F0914407DC01CB01810F911DA11DB11DF0
:10419000858B968BA78BB08F183F80F40E9469297E
:1041A000212F30E02F5F3F4F90E02817390734F47C
:1041B00082E0810F809399050E946D290E948016EC
:1041C0000E94901F81E028960FB6F894DEBF0FBEC4
:1041D000CDBFDF91CF911F9108958F929F92AF92A3
:1041E000BF92CF92DF92EF92FF920F931F93CF93E4
:1041F000DF93CDB7DEB760970FB6F894DEBF0FBE82
:10420000CDBF29873A874B875C876D877E878F87ED
:10421000988BCE0101960E94372289809A80AB80CC
:10422000BC80CD80DE80EF80F88409851A852B85DF
:104230003C854D855E856F857889CE0109960E9403
:1042400094228F3F61F029853A854B855C856D8589
:104250007E858F8598890E94962081E001C08FEF2E
:1042600060960FB6F894DEBF0FBECDBFDF91CF9141
:104270001F910F91FF90EF90DF90CF90BF90AF9084
:104280009F908F900895E0914307F09144078085B7
:1042900008952F923F924F925F926F927F928F92EA
:1042A0009F92AF92BF92CF92DF92EF92FF920F93C5
:1042B0001F93CF93DF93CDB7DEB72F970FB6F89448
:1042C000DEBF0FBECDBFE0912401F0912501FA873A
:1042D000E987E091B2002E2F30E040E050E060E04E
:1042E00070E080E090E006E00E942A30AE2EB12C13
:1042F000C12CD12CE12CF12C00E010E00E94763092
:1043000001E00E942A3000E00E94763059016A01E3
:104310007B01F82F192F05E00E942A300F2F0E94F1
:10432000763002E00E942A30AE2EB12CC12CD12C66
:10433000E12CF12C00E010E00E94613059016A018B
:104340007B01E82F192F06E00E942A300E2F0E94D1
:104350007630F9014F875C87B62FA72F8D879E8710
:1043600029853A851901412C512CA20160E070E0A9
:1043700080E090E006E00E942A3051016201E12CC9
:10438000F12C00E010E00E94763059016A017B01B7
:104390008C019F014F855C856B2F7A2F8D859E85C3
:1043A0000E94613079018A014B016C01EAE3F7E078
:1043B000208131814281538160E07AEC8AE99BE37C
:1043C0000E94712F4480558066807780460E571E6C
:1043D000681E791EA301920149823A834B835C8354
:1043E0009701A801B401C601A980BA80CB80DC8006
:1043F000E12CF12C00E010E00E9461302901E42F53
:10440000752EB62FA72F682E392E49855A859A0109
:1044100040E050E060E070E080E090E001E00E9469
:10442000453059016A017B018C0192014E2F572DB5
:104430006B2F7A2F862D932D0E9476302F960FB6F4
:10444000F894DEBF0FBECDBFDF91CF911F910F91CA
:10445000FF90EF90DF90CF90BF90AF909F908F90A4
:104460007F906F905F904F903F902F9008950F93A3
:104470001F93CF93DF93EC011C821D821E821F824B
:1044800080913A0790913B07A0913C07B0913D077E
:1044900088839983AA83BB8380913E0790913F07CD
:1044A000A0914007B09141078C839D83AE83BF8369
:1044B0000E94CE29A82FB0E023EB36EE4EE050E06C
:1044C0000E945E2F0C811D812E813F81DC01CB017A
:1044D000800F911FA21FB31F8C839D83AE83BF8368
:1044E0008C819D81AE81BF8181152AEC92072AE9DA
:1044F000A2072BE3B20798F09A5CAA49BB438C83CE
:104500009D83AE83BF8388819981AA81BB810196F7
:10451000A11DB11D88839983AA83BB83E1CFDF915D
:10452000CF911F910F9108958F929F92AF92BF925A
:10453000CF92DF92EF92FF920F931F93CF93DF936F
:10454000CDB7DEB760970FB6F894DEBF0FBECDBF14
:10455000FC0109831A832B833C834D835E836F8325
:10456000788789869A86AB86BC86CD86DE86EF867E
:10457000F88A09811A812B813C814D815E816F818E
:104580007885C984DA84EB84FC848D859E85AF852B
:10459000B8890C151D052E053F05F0F1C016D10692
:1045A000E206F30691F4481759076A077B07A0F162
:1045B000481B590B6A0B7B0B4483558366837783B7
:1045C000108211821282138225C0481759076A0788
:1045D0007B0780F401501109210931090C191D09CB
:1045E0002E093F0900831183228333835653654686
:1045F000744C08C00C191D092E093F090083118352
:1046000022833383481B590B6A0B7B0B44835583EE
:104610006683778381E001C08FEF60960FB6F894D0
:10462000DEBF0FBECDBFDF91CF911F910F91FF90E5
:10463000EF90DF90CF90BF90AF909F908F900895B4
:10464000FC01448155816681778141158AEC5807C8
:104650008AE968078BE3780798F05A5C6A497B43DC
:10466000448355836683778380819181A281B3815E
:104670000196A11DB11D80839183A283B383E1CFF5
:1046800008958F929F92AF92BF92CF92DF92EF9256
:10469000FF920F931F93CF93DF93CDB7DEB7609751
:1046A0000FB6F894DEBF0FBECDBF09831A832B83EC
:1046B0003C834D835E836F83788789869A86AB8639
:1046C000BC86CD86DE86EF86F88A09851A852B851D
:1046D0003C8549815A816B817C81400F511F621F4B
:1046E000731FFC0140835183628373830D851E8594
:1046F0002F8538894D815E816F817885400F511FEC
:10470000621F731F44835583668377830E9420232F
:1047100081E060960FB6F894DEBF0FBECDBFDF918B
:10472000CF911F910F91FF90EF90DF90CF90BF90AE
:10473000AF909F908F900895EAE3F7E060837183D4
:1047400082839383248335834683578308952F92EE
:104750003F924F925F926F927F928F929F92AF9211
:10476000BF92CF92DF92EF92FF920F931F93FC01C3
:10477000C080D180E280F3806481758186819781D9
:10478000C114D104E104F104C1F1F2E4CF16D10463
:10479000E104F104D0F51B012C01612C712C4301C3
:1047A000E0E08E2F90E0A0E0B0E08C159D05AE0516
:1047B000BF0588F49101A201B301C40136534546F7
:1047C000544C6F4F7F4F8F4F9F4F19012A013B0170
:1047D0004C01EF5FE6CF83EBA82E96EEB92E2EE0CC
:1047E000C22ED12CE12CF12C00E010E09101A201AD
:1047F000B301C4010E94BC2F06C023EB36EE4EE08D
:1048000050E00E94812FC90102C080E090E01F911A
:104810000F91FF90EF90DF90CF90BF90AF909F905F
:104820008F907F906F905F904F903F902F90089562
:10483000CF92DF92EF92FF92CF93DF93CDB7DEB7A7
:1048400028970FB6F894DEBF0FBECDBF6B017C0179
:104850002AE0F694E794D794C7942A95D1F7C982B1
:10486000DA82EB82FC829B01AC013370442755272E
:1048700063EB76EE8EE090E00E94712F2C2D3A8152
:104880004B815C8128960FB6F894DEBF0FBECDBF7A
:10489000DF91CF91FF90EF90DF90CF9008952F920E
:1048A0003F924F925F926F927F928F929F92AF92C0
:1048B000BF92CF92DF92EF92FF920F931F93FC0172
:1048C000C080D180E280F380648175818681978188
:1048D000C114D104E104F10499F11B012C01612CF4
:1048E000712C4301E0E08E2F90E0A0E0B0E08C1549
:1048F0009D05AE05BF0588F49101A201B301C40175
:1049000036534546544C6F4F7F4F8F4F9F4F190181
:104910002A013B014C01EF5FE6CF83EBA82E96EE18
:10492000B92E2EE0C22ED12CE12CF12C00E010E0AB
:104930009101A201B301C4010E94BC2FCA0107C0AA
:1049400023EB36EE4EE050E00E94812FCA01B90100
:104950001F910F91FF90EF90DF90CF90BF90AF909D
:104960009F908F907F906F905F904F903F902F908F
:104970000895C2E0D1E00E94721A0E946929843031
:1049800028F4D09337070E94772C08C08AE090E083
:104990000E948128C09337070E946B2C80919B0551
:1049A000853519F088E00E94BC1880917E418535DC
:1049B00011F388E00E94BC18DECF2F923F924F92F5
:1049C0005F926F927F928F929F92AF92BF92CF929F
:1049D000DF92EF92FF920F931F93CF93DF9300D05C
:1049E00000D0CDB7DEB70E949D280E94BB280E9450
:1049F000C3281C018AEF0E946D29A0919905B0E09F
:104A000023EB36EE4EE050E00E945E2F00913E0711
:104A100010913F0720914007309141076B017C01C5
:104A2000C00ED11EE21EF31EC701B60123EB36EE07
:104A30004EE050E00E94812F26013701461A570AA6
:104A4000680A790AD301C20100913A0710913B0725
:104A500020913C0730913D0743EB842E46EE942E87
:104A60004EE0A42EB12C680179014FEFC41AD40A8C
:104A7000E40AF40A81155AEC95075AE9A5075BE3A5
:104A8000B507C8F02C013D012AEC521A2AE9620A46
:104A90002BE3720AC301B201A50194010E94812F88
:104AA000A3019201261B370B480B590BDA01C901F0
:104AB00097018601D8CF80933E0790933F07A0933C
:104AC0004007B093410700933A0710933B072093A8
:104AD0003C0730933D07E0914307F09144078581FF
:104AE000882339F18185843021F18781823029F052
:104AF000882341F08681811102C085E001C083E0F6
:104B0000818714C083E08187178216828589968900
:104B1000A789B08D892B8A2B8B2B41F4818D928DA7
:104B2000A38DB48D858B968BA78BB08F80850E94CB
:104B3000B81EE0914307F091440785A196A1A7A173
:104B4000B0A5892B8A2B8B2B09F444C02085222306
:104B500009F440C081858430E9F1858D968DA78D5B
:104B6000B0A14091990550E060E070E0841795078E
:104B7000A607B70768F4622F82E00E94CA18E09186
:104B80004307F0914407158E168E178E10A208C0A9
:104B9000841B950BA60BB70B858F968FA78FB0A3A1
:104BA000E0914307F09144071085858D968DA78D80
:104BB000B0A1892B8A2B8B2B69F4612F83E00E9493
:104BC000CA18E0914307F091440783E08187812F61
:104BD0000E94B81E8DED96E09C838B8300E61AEE52
:104BE00019829AEFC92ED12CE12CF12C812C912C19
:104BF00054018394EB81FC81319780818F3F09F4CC
:104C000000C1EB81FC8134971082EB81FC81F08143
:104C1000FA83882309F468C0F43009F4F2C0EB8108
:104C2000FC8144845584668477846091990570E0A2
:104C300080E090E0461657066806790648F0461A66
:104C4000570A680A790A448655866686778606C0BA
:104C5000EB81FC811486158616861786EB81FC8114
:104C60004088518862887388461657066806790618
:104C700048F0A3019201261B370B480B590BDA01B0
:104C8000C90113C0EB81FC81208D318D428D538D84
:104C9000621773078407950768F429013A01461AD9
:104CA000570A680A790AD301C201808B918BA28BC3
:104CB000B38B08C00E94812FEB81FC81608B718BCC
:104CC000828B938BEB81FC8180899189A289B38946
:104CD000892B8A2B8B2B41F4808D918DA28DB38DE6
:104CE000808B918BA28BB38BFA81F33009F089C052
:104CF000EB81FC8184859585A685B785892B8A2BD8
:104D00008B2B09F06BC0DF0112978C919F01235010
:104D100031098823A9F0F9018081882389F0B50140
:104D2000A4010090330704C0440F551F661F771F6E
:104D30000A94D2F7EB81FC814087518762877387A1
:104D40001C92F9011082EB81FC81A0A1B1A1408CE1
:104D5000518C628C738C448D558D668D778DA1300E
:104D6000B105D1F4448B558B668B778B22E0208381
:104D700080899189A289B38984879587A687B78717
:104D800045284628472821F4C486D586E686F78636
:104D900089810E940C1E22C0EB81FC81448B558BC3
:104DA000668B778B1197A30192010E945E2F648717
:104DB000758786879787608B718B828B938B45284D
:104DC0004628472821F4C486D586E686F7864424FB
:104DD0004394512CEB81FC8151A240A2EB81FC81D8
:104DE00084859585A685B7850097A105B10549F00D
:104DF000A80160E070E084179507A607B70708F4DC
:104E00008C012B813C81255D3F4F3C832B83398175
:104E1000313019F091E09983EDCE0E94FB1DF82E00
:104E20004BE28402F0011124EC52F94F22852093C9
:104E30004507F0933507E09334078823F9F085A1FF
:104E400096A1A7A1B0A5892B8A2B8B2B99F0858DD4
:104E5000968DA78DB0A18A3F9105A105B10550F4AB
:104E6000A80160E070E084179507A607B707E8F48B
:104E70008C011BC00B3F1105C0F012C0043011059E
:104E8000A0F0C80103978A3F910538F48C01823065
:104E9000910558F402E010E008C00D3F110519F02B
:104EA0000AEF10E002C007EF10E020933607F093FE
:104EB0004407E0934307009399050E94CE29282FC9
:104EC00030E02F5F3F4F2017310740F00E94CE297E
:104ED000082F10E00E5F1F4F00939905F1101092FC
:104EE0003707802F0E946D296CED75E0C1010E948B
:104EF000D5280E94F12C0F900F900F900F90DF910A
:104F0000CF911F910F91FF90EF90DF90CF90BF90C6
:104F1000AF909F908F907F906F905F904F903F9059
:104F20002F900C94FC2C9C0190915607191674F04C
:104F300084E09802F0011124E95AF84F608333832A
:104F400022839F5F9093560781E008958FEF089525
:104F50000F931F93CF93DF9340915607552747FD3B
:104F60005095C0E090E02C2F30E0241735078CF5E9
:104F70008901000F111F000F111FD801A95AB84F46
:104F8000EC91FF27E7FDF095E817F90701F5D62F1B
:104F9000F901E55AF84F808181110BC081E08083CF
:104FA0001296ED91FC91139720E040E050E080E0F4
:104FB0000995F801E95AF84F0280F381E02D20E0CD
:104FC00040E050E06D2F81E009958C2F03C0CF5F4A
:104FD000CACF8FEFDF91CF911F910F91089590E08D
:104FE00020915607332727FD30952817390784F07D
:104FF000880F991F880F991FFC01E95AF84F02800A
:10500000F381E02D20E040E050E060E082E0099490
:1050100081E00E9417188FEF0895242F90E0E0910F
:105020005607FF27E7FDF095E817F90774F0880F9A
:10503000991F880F991FFC01E95AF84F0280F381EC
:10504000E02DAB0160E086E0099481E00E94171832
:105050008FEF0895242F90E0E0915607FF27E7FD9A
:10506000F095E817F90774F0880F991F880F991FBA
:10507000FC01E95AF84F0280F381E02DAB0160E0BA
:1050800085E0099481E00E9417188FEF0895242F7E
:1050900090E0E0915607FF27E7FDF095E817F90744
:1050A00074F0880F991F880F991FFC01E95AF84F77
:1050B0000280F381E02D40E050E084E0099481E03B
:1050C0000E9417188FEF089590E02091560733271C
:1050D00027FD3095281739077CF0880F991F880F16
:1050E000991FFC01E95AF84F0280F381E02D20E07E
:1050F00040E050E083E0099481E00E9417188FEFB0
:105100000895000000000000000000000000000002
:1051100000000000000000000000019791F70895D2
:1051200010922101089589E0809321018DE89CE38C
:1051300090932901809328010895109225011092DF
:1051400024010895CF93DF9300D0CDB7DEB78091CF
:105150002401909125019A83898389819A810F90F6
:105160000F90DF91CF91089510928100089581E012
:1051700080938100089583B5816083BD109285007E
:10518000109284000895CF93DF9300D0CDB7DEB79F
:1051900080918400909185009A83898389819A8186
:1051A0000F900F90DF91CF910895CF92DF92EF9201
:1051B000FF92CF93DF93EC01CC0FDD1FC9378FEF48
:1051C000D80710F0C0E0D0E06B01E12CF12CCC0E40
:1051D000DD1EE11CF11C81E0C816D104E806F104D3
:1051E00040F081E0E81AF1080E94C328C817D907E7
:1051F000D8F30E94C3288C159D05D8F3DF91CF9179
:10520000FF90EF90DF90CF9008951092B100E0E70B
:10521000F0E080818D7F808380818E7F8083089500
:105220008093B2000895E0E7F0E08081836080839E
:1052300083E08093B100089583B5826083BD1092AE
:10524000B20010926305109299050895CF93DF93F1
:105250008EEF8093990580E28093B6008091990546
:105260008093B30083E087BB92E09093B00080937B
:10527000B10093B5926093BD87BB84BD83B5826056
:1052800083BD1092800081E08093810010928500A0
:105290001092840083B5826083BD83B5816083BD35
:1052A00010922001C4E2D1E01982188283B5826095
:1052B00083BD83B5816083BD0E941C291982188239
:1052C0000E9413290E94932810926305DF91CF91C9
:1052D00008958091B3008F5F089581508093B3004B
:1052E0000895811102C0109271008FEF089581110D
:1052F00006C0109295001092940081E008958FEFFF
:105300000895811105C080919400909195000895B1
:1053100080E090E00895811105C082E080937100E3
:1053200081E008958FEF0895811134C0CB0101977A
:10533000059710F4609398051092900010929100D8
:10534000509399004093980030935B0420935A0443
:1053500080919805813021F480919100816011C085
:10536000823021F48091910082600BC0833021F45F
:1053700080919100836005C0843031F48091910068
:1053800084608093910008C0853031F48091910051
:105390008560F7CF8FEF089581E008958091B20086
:1053A00008951F920F920FB60F92112460E08AE0C9
:1053B0000E94CA18FFCF0F920FB60F921F922F9222
:1053C0003F924F925F926F927F928F929F92AF9295
:1053D000BF92CF92DF92EF92FF920F931F932F9382
:1053E0003F934F935F936F937F938F939F93AF936D
:1053F000BF93CF93DF93EF93FF93A0914307B091B7
:1054000044070DB60D920EB60D921F92A09196050F
:10541000B09197051E90BEBFADBF08951F920F9229
:105420000FB60F9211240BB60F922F933F934F9309
:105430005F936F937F938F939F93AF93BF93EF93FC
:10544000FF93E0915A04F0915B04309711F00995B5
:1054500004C060E08AE00E94CA18FF91EF91BF91FA
:10546000AF919F918F917F916F915F914F913F91FC
:105470002F910F900BBE0F900FBE0F901F9018959D
:105480001F920F920FB60F9211240F900FBE0F9024
:105490001F90189504B603FE02C080E101C080E0B1
:1054A00004B602FE06C094B79B7F94BF04B600FE0C
:1054B000846004B601FE05C094B79D7F94BF8260EE
:1054C000089581110CC004B600FE04C094B79E7FFD
:1054D00094BF01C081E09091B000911181E00895E6
:1054E000811102C0E89A39C0813011F4E99A089517
:1054F000823011F4EA9A31C0833021F480916B003C
:10550000816029C0843021F480916B00826023C0C7
:10551000853021F480916B0084601DC0863021F4B9
:1055200080916B00886017C0873021F480916B00F8
:10553000806111C0883021F480916B0080620BC0C3
:10554000893021F480916B00806405C08A3039F481
:1055500080916B00806880936B0081E008958FEFED
:105560000895811102C0E89839C0813011F4E9989A
:105570000895823011F4E99831C0833021F480918C
:105580006B008E7F29C0843021F480916B008D7F69
:1055900023C0853021F480916B008B7F1DC0863045
:1055A00021F480916B00877F17C0873021F48091B0
:1055B0006B008F7E11C0883021F480916B008F7D4D
:1055C0000BC0893021F480916B008F7B05C08A303D
:1055D00039F480916B008F7780936B0081E00895A0
:1055E0008FEF0895811126C050935F0740935E07A7
:1055F000611104C0809169008C7F3DC0613049F425
:10560000809169008D7F809369008091690081603D
:1056100032C0623049F480916900826080936900F1
:10562000809169008E7F27C0633039F580916900D1
:10563000836021C0813049F550935D0740935C073A
:10564000611104C080916900837F15C0613049F405
:1056500080916900877F80936900809169008460F0
:105660000AC0623061F480916900886080936900AB
:10567000809169008B7F8093690081E00895633099
:10568000E1F7809169008C60F6CF823031F550935C
:10569000610740936007611104C0809169008F7CAD
:1056A000EACF613049F4809169008F7D8093690071
:1056B000809169008061DFCF623049F48091690098
:1056C000806280936900809169008F7ED4CF6330BF
:1056D000A1F6809169008063CECF8350883050F46A
:1056E00080916800816080936800509363074093C5
:1056F0006207C3CF8FEF08951F920F920FB60F92DC
:1057000011240BB60F922F933F934F935F936F9398
:105710007F938F939F93AF93BF93EF93FF93E0910A
:105720006207F0916307309711F0099504C060E0BB
:105730008AE00E94CA18FF91EF91BF91AF919F91AB
:105740008F917F916F915F914F913F912F910F902A
:105750000BBE0F900FBE0F901F9018951F920F92C7
:105760000FB60F9211240BB60F922F933F934F93C6
:105770005F936F937F938F939F93AF93BF93EF93B9
:10578000FF93E0915E07F0915F07309711F0099564
:1057900004C060E08AE00E94CA18FF91EF91BF91B7
:1057A000AF919F918F917F916F915F914F913F91B9
:1057B0002F910F900BBE0F900FBE0F901F9018955A
:1057C0001F920F920FB60F9211240BB60F922F93C8
:1057D0003F934F935F936F937F938F939F93AF9379
:1057E000BF93EF93FF93E0915C07F0915D073097D3
:1057F00011F0099504C060E08AE00E94CA18FF9188
:10580000EF91BF91AF919F918F917F916F915F9138
:105810004F913F912F910F900BBE0F900FBE0F90A5
:105820001F9018951F920F920FB60F9211240BB66E
:105830000F922F933F934F935F936F937F938F9329
:105840009F93AF93BF93EF93FF93E0916007F09125
:105850006107309711F0099504C060E08AE00E946A
:10586000CA18FF91EF91BF91AF919F918F917F9156
:105870006F915F914F913F912F910F900BBE0F90C1
:105880000FBE0F901F901895A8959FB7F89484B7F6
:10589000877F84BFE0E6F0E08081886180831082AA
:1058A0009FBF08959FB7F894A89584B7877F84BF5A
:1058B000E0E6F0E08081886180838DE080839FBF97
:1058C000089504B603FE02C08FEF089581E00895A5
:1058D000A8950895089583B7817F866083BF83B7B5
:1058E000816083BF889583B78E7F83BF089583B718
:1058F000817F83BF83B7816083BF889583B78E7FA5
:1059000083BF0895FC01768365830895EF92FF922B
:105910000F931F93CF93DF938C017B01EA014032F9
:10592000510518F481E10E94BC182197CE0DDF1DAE
:10593000F801D283C183F482E382DF91CF911F917A
:105940000F91FF90EF90089525E5FA012083FB0168
:1059500032979083319680833397118210823297E9
:105960001182108232971182108232971182108236
:1059700032971182108232971182108232971182EF
:1059800010823297118210823297118210823297E0
:105990001182108232971182108232971182108206
:1059A00032971182108232971182108232971182BF
:1059B0001082329711821082CB018497FC011182F0
:1059C0001082089585E580937E41EEEFF1E4F09337
:1059D0009705E093960582E198E190838093FF41DB
:1059E000089582E198E19093FE418093FF410895EC
:1059F0000E9426290C948016A0913407B091350797
:105A0000CD91CDBFDD91DEBFFF91EF91DF91CF91C1
:105A1000BF91AF919F918F917F916F915F914F91C6
:105A20003F912F911F910F91FF90EF90DF90CF90BA
:105A3000BF90AF909F908F907F906F905F904F90AE
:105A40003F902F901F900F900FBE0F901895CF93FF
:105A5000DF93CDB7DEB72B970FB6F894DEBF0FBE3E
:105A6000CDBF0E942F128FEC90E00E94B31580E012
:105A700090E00E944A1581E090E00E944A1582E081
:105A800090E00E944A1583E090E00E944A1520E0D1
:105A900030E0A90160E070E0CB010E949C238EE021
:105AA0000E941C0A0E945E0A63E08DE097E00E945B
:105AB0009327809364051D8265E083E00E94A827F8
:105AC0008F8388E692E00E9456314EE352E060E018
:105AD00070E085E00E94410B80E00E945B0A8091AB
