:100000000C9440020C94E2210C9414220C9446228D
:100010000C945F020C945F020C945F020C945F02DC
:100020000C945F020C94B0210C945F020C945F025C
:100030000C945F020C940F200C945F020C940F2020
:100040000C945F020C945F020C945F020C945F02AC
:100050000C945F020C945F020C945F020C945F029C
:100060000C945F020C945F020C945F020C945F028C
:100070000C945F020C945F020C945F020C945F027C
:100080000C9442200C945F020C945F020C945F026B
:100090000C945F020C945F020C945F020C945F025C
:1000A0000C945F020C945F020C945F020C945F024C
:1000B0000C945F020C945F020C945F020C945F023C
:1000C0000C945F020C945F020C945F020C945F022C
:1000D0000C945F020C945F020C945F020C945F021C
:1000E0000C945F020C942C060C941D060C94ED05E8
:1000F0000C94D2070C94DE050C94CF050C943707B2
:100100000C94C0050C945F020C945F020C945F0287
:100110000C945F020C945F020C945F020C945F02DB
:1001200052095F096C09790986099309A009C30975
:10013000D109DF09ED09FB09090A090A2C0A2E0A6F
:10014000300A320A340A360A380A570A7A0A9E0AEC
:10015000C10AE40A070B2A0B640B710B7E0B8B0B95
:10016000980BA50BB20BCB0BD80BE50BF20BFF0BCF
:100170000C0C190CC70FCA0FD50FDA0FE10FEA0FDD
:10018000ED0FF20FF90F021058105E10611064109D
:1001900067106A1070106D1073107610791082104D
:1001A000851088108B107F1055105B108E109110E9
:1001B0007C1052104661696C656420746F206C6F0E
:1001C0006164206D792041444320647269766572D0
:1001D0000D0A000D0A004661696C656420746F2089
:1001E00072656164204144430D0A004661696C6593
:1001F0006420746F207365742041444320737461DC
:100200007475730D0A004661696C656420746F2013
:100210006F70656E20414443206472697665720D8B
:100220000A00554E4B4F574E0045787465726E610B
:100230006C2052657365740042726F776E204F7543
:100240007420446574656374004661696C6564205C
:10025000746F206372656174652053656D617068A9
:100260006F7265004661696C656420746F2063720B
:1002700065617465205369676E616C004B65726ED1
:10028000656C2066756E6374696F6E206E6F742086
:10029000696D706C656D656E746564004465766942
:1002A000636520447269766572204572726F7200D0
:1002B0005761746368646F67205265737461727408
:1002C000005357205761746368646F6720526573E9
:1002D000746172740054696D6572204F7665726640
:1002E0006C6F7700556E68616E646C656420496E52
:1002F0007465727275707420566563746F72004C09
:100300006F7720566F6C7461676500457874726111
:10031000205461736B20737461727465642C20695E
:1003200073206E726B5F6366672E68206F6B3F0091
:1003300049646C65206F72204B65726E656C20534A
:100340007461636B204F766572666C6F7700556ED3
:100350006578706563746564205265737461727446
:10036000004475706C696361746564205461736BDB
:10037000204944005363686564756C6572204D695B
:10038000737365642057616B657570005461736B9E
:1003900020526573657276652056696F6C6174656D
:1003A000640052657365727665204572726F7220C3
:1003B000696E205363686564756C657200496E767A
:1003C000616C696420537461636B20506F696E7453
:1003D0006572005461736B20537461636B204F76B8
:1003E0006572666C6F7700537461636B207761731D
:1003F000206E6F7420646566696E65642061732089
:100400006C6172676520656E6F7567682100546165
:10041000736B20706572696F6420746F6F206C61FC
:100420007267652E20506572696F64206D757374F4
:10043000206265206C657373207468616E203631AC
:10044000207365636F6E64732E00293A20002A4E74
:10045000524B204552524F5228000D0A53544143EB
:100460004B2044554D500D0A0045464765666700D0
:10047000202B2D2E30313233343536373839680061
:1004800011241FBECFEFD1E4DEBFCDBF13E0A0E04B
:10049000B2E0E0EBF0E500E00BBF02C007900D9288
:1004A000AA37B107D9F715E0AAE7B3E001C01D925A
:1004B000A438B107E1F70E945B230C9456280C94F2
:1004C0000520CF93DF93CDB7DEB760970FB6F894D2
:1004D000DEBF0FBECDBF1F921F9287E692E09F93B3
:1004E0008F930E9418260E9462181F928F9381E8B2
:1004F00092E09F938F930E94182665E080E00E940F
:10050000DB1DD82E0FB6F894DEBF0FBECDBF9FEF18
:10051000891304C086E092E00E941E0980E9A82E9B
:1005200082E0B82E97E9892E92E0992E83E090E040
:100530000E94330CFE0131967F013F0110E0412FF4
:1005400061E08D2D0E947A1E8F3F21F48BEE91E0A9
:100550000E941E0942E0B3018D2D0E945D1E8F3F57
:1005600021F486ED91E00E941E091F5F92E0690E62
:10057000711C183021F7BF92AF920E9418260F907D
:100580000F9000E010E0F70180819181F2E0EF0E22
:10059000F11C9F938F931F930F939F928F920E94B2
:1005A00018260F5F1F4F0F900F900F900F900F9016
:1005B0000F900830110539F783ED91E00E941E0974
:1005C0000E94B916B3CFCF93DF93C3E8D3E081E69F
:1005D00092E09E838D8340E850E06AEA73E0CE01AA
:1005E0000E94BA2281E088878F8389878A871B8649
:1005F0001C861D861E8680E49BE4ACE4B0E08F87F9
:10060000988BA98BBA8B1B8A1C8A1D8A1E8A80E84C
:1006100090EFAAEFB2E08F8B988FA98FBA8F1B8EC5
:100620001C8E1D8E1E8E1F8E18A219A21AA2CE011C
:10063000DF91CF910C94271660E08FE493E00E9445
:10064000C61D8F3F21F484EB91E00C941E090895A0
:10065000AAE7B0E083E08C93ECE7F0E080E48083ED
:100660008C9180688C931092AF048081807E80830F
:10067000089584EF91E00C94B41E80917A00806418
:1006800080937A0080917A0084FFFCCF0E94390326
:10069000809178002091790090E0922B0895CF937B
:1006A000DF93823089F1EA01833028F4882371F0E6
:1006B000813079F023C08430B1F080F08530F1F4DE
:1006C0000E943D038883998382E021C00E94280311
:1006D0001BC060FD19C06670C9F416C06130B1F46A
:1006E0008091AF0414C0613089F42093AF048091ED
:1006F0007C00807E282B20937C0006C060E08CE08C
:100700000E94FC1080E003C081E001C08FEFDF9108
:10071000CF910895909141019F719F31D9F38093BA
:100720004201089580937A03089581E08093B6048E
:1007300008951092B6040895809141018F718F3110
:10074000D9F3809141018F71E1F08F30D1F0809128
:1007500041018F71883031F480913901826080933A
:1007600039010BC088E00E948A03809141018F719A
:100770008830D9F7F1CF8F3021F0809141018F710E
:10078000D1F70895809141018F718F31D9F3809114
:1007900041018F7111F08F3051F4809139018D7FBB
:1007A00080933901809141018F718830D9F7089584
:1007B00089E00C948A03E5E4F1E09081907F9083D6
:1007C00090818F70982B90830895E7E5F1E0808108
:1007D0008D7F80830895E7E5F1E0808182608083EA
:1007E0000895EEE6F1E080818F7E80830895EEE645
:1007F000F1E080818061808308958093600190930F
:1008000061019093C0048093BF0408959093BA044B
:100810008093B904E8E4F1E08081807E8083808168
:10082000682B6083089590937E0380937D030895E1
:1008300090937C0380937B0308950F931F93CF9332
:10084000DF93FC01D90180E28093440180EC809326
:10085000450160626093480185EC8093490187EA15
:1008600080934B0180E880934C0120936001B0930A
:1008700061014093620150936301C6E4D1E00881B5
:10088000888198812881302F32953695377060E4C1
:10089000369F80011124229526952370622F602BAC
:1008A00082958695837070E1879F90011124262B95
:1008B00092959695937084E0989FB0011124622BD5
:1008C00060936D0188819881929596959370392FE8
:1008D0003064982F92959670932B90936E0110929E
:1008E0006C018FEF80934E01C9EBD4E0F983E8836C
:1008F0001A821B825D834C83BF83AE83188681E09E
:100900008093D3041092EA041092C2041092B604A9
:10091000DF91CF911F910F91089588E00E948A0383
:100920001092EA0408951092C20482E00E948A03A1
:1009300088EE9DEF2091C204211104C00197D1F7E8
:100940008FEF089581E00895CF93DF938091D304D2
:10095000882341F180914101C82FCF719FEF9C0FF7
:100960009230C0F3C131B1F3C231A1F3CF3191F371
:10097000C83019F08F708630A9F486E10E948A038E
:10098000809148018068809348018091410187FFF0
:10099000FCCFD09141018C2F0E948A03D6FB88277F
:1009A00080F901C08FEFDF91CF9108958091D3043A
:1009B000882309F4E3C08091EA04882309F4DCC0A9
:1009C00080917B01E091B904F091BA0490E0029724
:1009D0002481332727FD3095281739070CF4CEC022
:1009E000E091B904F091BA04809182018083E09192
:1009F000B904F091BA0480918701909188019283A3
:100A00008183E091B904F091BA0480917B018B500D
:100A10008383A091B904B091BA04E091B904F09134
:100A2000BA0413969C91848189173CF0E091B90433
:100A3000F091BA04838187FF0DC01092EA0480917F
:100A40004C018F7780934C0180914C01806880939A
:100A50004C0194C0A091B904B091BA04E091B904DA
:100A6000F091BA0413964C91552747FD509569E8CB
:100A700071E0858196810E947E2580917A0388238A
:100A800009F43EC0E091B904F091BA048381803149
:100A9000B9F5E091B904F091BA046581768144E03A
:100AA00050E080E092E00E948725892B49F5E09193
:100AB000B904F091BA046581768140E150E080E0AC
:100AC00092E00E948725892BD9F49DE088E10FB63A
:100AD000F894A895809360000FBE9093600080E02A
:100AE00090E00E94610C81E090E00E94610C82E045
:100AF00090E00E94610C83E090E00E94610CFFCFC7
:100B0000E091B904F091BA048091800185FB8827B7
:100B100080F98783E091B904F091BA04809147018C
:100B20008087E091B904F091BA04809146018695DE
:100B3000869586958187E091B904F091BA048091F9
:100B400047018287A091B904B091BA04E0917B017A
:100B5000F0E0E058FE4F80811B968C931092EA04DF
:100B600080914C018F7780934C0180914C0180687B
:100B700080934C0181E0089580E008958FEF0895FF
:100B80001F920F920FB60F9211248F9380E88093DB
:100B90004F018F910F900FBE0F901F9018951F92CD
:100BA0000F920FB60F9211248F9380E280934F0122
:100BB0008F910F900FBE0F901F9018951F920F925C
:100BC0000FB60F9211248F9380E180934F018F9184
:100BD0000F900FBE0F901F9018951F920F920FB697
:100BE0000F9211240BB60F922F933F934F935F9365
:100BF0006F937F938F939F93AF93BF93EF93FF93E5
:100C000084E080934F01E0917D03F0917E03309763
:100C100009F00995FF91EF91BF91AF919F918F914D
:100C20007F916F915F914F913F912F910F900BBEEC
:100C30000F900FBE0F901F9018951F920F920FB636
:100C40000F9211248F9382E080934F018F910F9028
:100C50000FBE0F901F9018951F920F920FB60F9214
:100C600011248F9381E080934F018F910F900FBEDD
:100C70000F901F901895E9E4F1E09081907F9083A8
:100C800090818F70982B908308958FEF0895089529
:100C9000089508958FEF08958091B4049091B5045C
:100CA0000895089581E0089581E0089581E0089510
:100CB000089508950895089508950895089508954C
:100CC00098988DB1806E8DB98EB1806A8EB9089575
:100CD0000F931F93CF93DF93FC018091D304811175
:100CE00002C08FEFADC026818091BB048F5F8093DF
:100CF000BB0490918101907E916020FB95F99F73D8
:100D000090649093810188E8809382018091B60479
:100D1000882361F08FEF809383018AEA9AEA9093A7
:100D20008901809388018FEF9FEF10C08091BB04F1
:100D300080938301209161018091600190E0922B6A
:100D4000909389018093880180819181909387019C
:100D500080938601209163018091620190E0922B43
:100D600090938501809384018F014281552747FD2F
:100D70005095638174818AE891E00E947E25F80194
:100D80008281855F8093800180914101D82FDF713E
:100D90009FEF9D0F9230C0F3D131B1F3D231A1F367
:100DA000DF3191F398EF9D0F923020F08F708630F5
:100DB00009F097CF86E10E948A03F80185818111AD
:100DC0000BC089E00E948A03F8018681882391F094
:100DD00089E10E948A030EC0809148018068809357
:100DE00048018091410187FFFCCF8091410186FF3E
:100DF00078CFE7CF0E9460061092C20482E00E9482
:100E00008A0380E090E02091C204211105C0019680
:100E1000883EFDEF9F07B9F7F8012681222331F0C4
:100E20002091420122952695277029F4883E9D4FF6
:100E300011F0C1E001C0CFEF8D2F0E948A038C2FEB
:100E4000DF91CF911F910F91089598988DB1806E89
:100E50008DB98EB180668EB908950E94250786E10E
:100E60000C948A030E94250786E10C948A031F9242
:100E70000F920FB60F9211240BB60F922F933F9340
:100E80004F935F936F937F938F939F93AF93BF9392
:100E9000EF93FF9381E08093C20480E480934F013D
:100EA0000E942507FF91EF91BF91AF919F918F9184
:100EB0007F916F915F914F913F912F910F900BBE5A
:100EC0000F900FBE0F901F901895CF92DF92EF9268
:100ED000FF920F931F93CF93DF93CDB7DEB7279782
:100EE0000FB6F894DEBF0FBECDBF0E947E0DE0911D
:100EF000B904F091BA04C080D380E580F680008503
:100F00000E94D60418161CF083EB92E006C0F7018D
:100F10001081111107C082ED92E00E9432260E94DA
:100F2000800D31C0153021F48AE090E00E942C261B
:100F3000C70101969F938F93802F992787FD9095E6
:100F40009F930F931F921F931F92CF9284EF92E073
:100F50009F938F930E941826FD82EC821150F70117
:100F60001083DB821E821F828FEF9FEF9A8389831B
:100F70000E94800DCE0101960E9468060FB6F8947B
:100F8000DEBF0FBECDBF27960FB6F894DEBF0FBEF3
:100F9000CDBFDF91CF911F910F91FF90EF90DF9028
:100FA000CF9008951F920F920FB60F9211240BB697
:100FB0000F922F933F934F935F936F937F938F93F2
:100FC0009F93AF93BF93EF93FF9380E090917B014A
:100FD000891710F48F5FFACF8091460187FF04C014
:100FE00081E08093EA0404C08DE193E00E94322600
:100FF00088E080934F018091460187FF05C0809172
:10100000B60481110E946507E0917B03F0917C0397
:10101000309709F00995FF91EF91BF91AF919F91A2
:101020008F917F916F915F914F913F912F910F9091
:101030000BBE0F900FBE0F901F901895A3ECB4E05D
:10104000FC01409620812D93219120933F01E817C8
:10105000F907C1F780E110923E018150E1F780E885
:1010600080933C0180913D0180FFFCCFE4EDF4E0F2
:1010700080E18E0F90913F0191938E13FBCF0895E5
:10108000CF93DF93DC01662309F445C0862F8F7070
:1010900009F041C0E3ECF4E090E19E0F2191209330
:1010A0003F019E13FBCF90E070E0E0E240E1949FAF
:1010B00090011124261737077CF5911103C0109277
:1010C0003C0102C0E0933C0140E050E02A0F3B1F8E
:1010D000E901C40FD51FF881F0933E014F5F5F4FC8
:1010E00040315105A9F740913C01406840933C01D3
:1010F00040913D0140FFFCCF40E050E0F0913E01C7
:10110000E901C40FD51FF8834F5F5F4F4031510590
:10111000A9F79F5FCBCF81E0DF91CF9108950F9327
:101120001F93CF93DF93DC01613009F458C0862F01
:101130008F7009F054C0E4EDF4E090E19E0F21912E
:1011400020933F019E13FBCF62956F70615078E052
:101150006F3F09F445C070933C01462F552747FD6A
:10116000509520E030E0ED0190E16902C00DD11D05
:101170001124FE01E20FF31F908190933E012F5F37
:101180003F4F20313105A9F790913C019068909331
:101190003C0190913D0190FFFCCF4150510994E0FA
:1011A000440F551F9A95E1F720E030E090913E0101
:1011B0008E01020F131FF8019083662349F0F90195
:1011C000E40FF51FEA0FFB1FE0819E27F8019083D3
:1011D0002F5F3F4F2031310549F76150B9CF81E092
:1011E000DF91CF911F910F9108958091C00087FFEB
:1011F000FCCF8091C0008F778093C0008091C600A3
:1012000008959091C00095FFFCCF9091C0009F7D04
:101210009093C0008093C60008958FEF08958130A9
:1012200019F48091C80004C0811106C08091C000EB
:10123000881F8827881F089580E00895CF93DF9343
:10124000FC012491EC012196222351F060917C0550
:1012500070917D05822F90E00E94E025CE01F0CFB5
:10126000DF91CF91089586E084B985B988EF8AB976
:1012700080EF8BB982E08DB908950C9433098F3FCC
:1012800009F46CC0E82FE7704E2F50E0473051054D
:1012900008F064C0FA01E057FF4F86958695869561
:1012A0000C945B2542B121E030E0B90102C0660F29
:1012B000771F8A95E2F7CB01842B82B94DC045B1E7
:1012C00021E030E0B90102C0660F771F8A95E2F78E
:1012D000CB01842B85B940C048B121E030E0B90191
:1012E00002C0660F771F8A95E2F7CB01842B88B97D
:1012F00033C04BB121E030E0B90102C0660F771F67
:101300008A95E2F7CB01842B8BB926C04EB121E040
:1013100030E0B90102C0660F771F8A95E2F7CB0172
:10132000842B8EB919C041B321E030E0B90102C06D
:10133000660F771F8A95E2F7CB01842B81BB0CC027
:1013400044B321E030E0B90102C0660F771F8A95EF
:10135000E2F7CB01842B84BB81E008958FEF0895E1
:101360008F3F09F465C0E82FE7704E2F50E04730FB
:10137000510508F05DC0FA01E956FF4F8695869544
:1013800086950C945B2542B121E030E0B90102C0A2
:10139000660F771F8A95E2F7CB018095842382B987
:1013A00045C045B121E030E0B90102C0660F771FAA
:1013B0008A95E2F7CB018095842385B937C048B17F
:1013C00021E030E0B90102C0660F771F8A95E2F78D
:1013D000CB018095842388B929C04BB121E030E04E
:1013E000B90102C0660F771F8A95E2F7CB0180959D
:1013F00084238BB91BC04EB121E030E0B90102C09B
:10140000660F771F8A95E2F7CB01809584238EB90A
:101410000DC041B321E030E0B90102C0660F771F73
:101420008A95E2F7CB018095842381BB81E0089502
:101430008FEF08958F3F31F1E82FE7704E2F50E086
:1014400047305105F8F4FA01E256FF4F282F269550
:10145000269526950C945B2590B10BC093B109C0DD
:1014600096B107C099B105C09CB103C09FB101C03E
:1014700092B3892F90E002C0959587952A95E2F75F
:10148000817008958FEF08958F3F09F406C1E82F0A
:10149000E7704E2F50E04730510508F0FEC0FA01CA
:1014A000EB55FF4F8695869586950C945B2520B16C
:1014B00030E0082E02C0359527950A94E2F742B134
:1014C00020FD0BC021E030E0B90102C0660F771F9C
:1014D0008A95E2F7CB01842B0BC021E030E0B90103
:1014E00002C0660F771F8A95E2F7CB0180958423AF
:1014F00082B916C023B130E0082E02C03595279579
:101500000A94E2F745B120FD0DC021E030E0B901B9
:1015100002C0660F771F8A95E2F7CB01842B85B94D
:1015200081E0089521E030E0B90102C0660F771F25
:101530008A95E2F7CB0180958423F1CF26B130E084
:10154000082E02C0359527950A94E2F748B120FD90
:101550000BC021E030E0B90102C0660F771F8A9509
:10156000E2F7CB01842B0BC021E030E0B90102C0CF
:10157000660F771F8A95E2F7CB018095842388B99F
:10158000CFCF29B130E0082E02C0359527950A94B7
:10159000E2F74BB120FD0BC021E030E0B90102C001
:1015A000660F771F8A95E2F7CB01842B0BC021E0F1
:1015B00030E0B90102C0660F771F8A95E2F7CB01D0
:1015C000809584238BB9ACCF2CB130E0082E02C0BB
:1015D000359527950A94E2F74EB120FD0BC021E026
:1015E00030E0B90102C0660F771F8A95E2F7CB01A0
:1015F000842B0BC021E030E0B90102C0660F771FD9
:101600008A95E2F7CB01809584238EB989CF2FB1DB
:1016100030E0082E02C0359527950A94E2F741B3D1
:1016200020FD0BC021E030E0B90102C0660F771F3A
:101630008A95E2F7CB01842B0BC021E030E0B901A1
:1016400002C0660F771F8A95E2F7CB01809584234D
:1016500081BB66CF22B330E0082E02C035952795B6
:101660000A94E2F744B320FD0BC021E030E0B90159
:1016700002C0660F771F8A95E2F7CB01842B0BC05F
:1016800021E030E0B90102C0660F771F8A95E2F7CA
:10169000CB018095842384BB43CF8FEF08958F3F88
:1016A00009F4D5C0E82FE7704E2F50E0611167C0F4
:1016B0004730510508F0CBC0FA01E455FF4F86953D
:1016C000869586950C945B2541B121E030E0B90107
:1016D00002C0660F771F8A95E2F7CB0180958423BD
:1016E00065C044B121E030E0B90102C0660F771F48
:1016F0008A95E2F7CB018095842365C047B121E04C
:1017000030E0B90102C0660F771F8A95E2F7CB017E
:101710008095842365C04AB121E030E0B90102C060
:10172000660F771F8A95E2F7CB018095842365C009
:101730004DB121E030E0B90102C0660F771F8A95F4
:10174000E2F7CB018095842365C040B321E030E00F
:10175000B90102C0660F771F8A95E2F7CB01809529
:10176000842365C043B321E030E0B90102C0660FB5
:10177000771F8A95E2F7CB018095842365C04730B7
:10178000510508F064C0FA01ED54FF4F8695869527
:1017900086950C945B2541B121E030E0B90102C08F
:1017A000660F771F8A95E2F7CB01842B81B94DC074
:1017B00044B121E030E0B90102C0660F771F8A957D
:1017C000E2F7CB01842B84B940C047B121E030E07F
:1017D000B90102C0660F771F8A95E2F7CB01842B0F
:1017E00087B933C04AB121E030E0B90102C0660FC9
:1017F000771F8A95E2F7CB01842B8AB926C04DB1B9
:1018000021E030E0B90102C0660F771F8A95E2F748
:10181000CB01842B8DB919C040B321E030E0B90170
:1018200002C0660F771F8A95E2F7CB01842B80BB3D
:101830000CC043B321E030E0B90102C0660F771F4E
:101840008A95E2F7CB01842B83BB81E008958FEF6B
:101850000895811106C080B18695817091E0892735
:1018600008958FEF0895009711F483E20DC0813041
:10187000910511F48BE208C08230910511F483E3E5
:1018800003C0039729F48BE30E94440A81E0089582
:101890008FEF0895009711F483E20DC08130910518
:1018A00011F48BE208C08230910511F483E303C088
:1018B000039729F48BE30E943F0981E008958FEF9D
:1018C0000895009711F483E20DC08130910511F461
:1018D0008BE208C08230910511F483E303C00397C3
:1018E00029F48BE30E94B00981E008958FEF0895F9
:1018F000882319F085B78F7E02C085B7806185BFC8
:1019000081E008959091C80095FFFCCF8093CE00B0
:1019100008959093C5008093C40086E08093C20030
:10192000E1ECF0E080818B7F8083A0ECB0E08C91D3
:1019300082608C9380818861808308959093CD002C
:101940008093CC0086E08093CA00E9ECF0E08081CF
:101950008B7F8083A8ECB0E08C9182608C93808137
:10196000886180830895CF93DF930E94890C65EF8F
:1019700078E081E099E00E949525CAE7D5E09B8355
:101980008A8365EF78E081E099E00E94952599834C
:101990008883DF91CF9108958091C80087FFFCCFA5
:1019A0008091C8008F778093C8008091CE00089501
:1019B00000000000000000000197D1F708950C948A
:1019C000F0260E94F8260895EF92FF920F931F933E
:1019D000CF93DF937C0180E090E00E94F026182FE7
:1019E000F701838381E090E00E94F026082FF70141
:1019F000828382E090E00E94F026D82FF701818355
:101A000083E090E00E94F026C82FF701808384E0F5
:101A100090E00E94F026100FD10FCD0F8C1711F01F
:101A20008FEF01C081E0DF91CF911F910F91FF9067
:101A3000EF900895CF93DF93EC0185E090E00E9452
:101A4000F026888381E0DF91CF910895FC016081C9
:101A500086E090E00E94F82681E00895CF93DF931E
:101A6000EC0186E090E00E94F026888381E0DF911F
:101A7000CF9108950F931F93CF93DF938C01C0E014
:101A8000D0E0CE0108960E94F026F80181938F01E4
:101A90002196C031D105A9F781E0DF91CF911F9147
:101AA0000F9108950F931F93CF93DF938C01C0E0A4
:101AB000D0E0F80161918F01CE0108960E94F826CE
:101AC0002196C031D105A9F781E0DF91CF911F9117
:101AD0000F910895CF93DF93EC0187E090E00E948F
:101AE000F026888381E0DF91CF910895FC01608129
:101AF00087E090E00E94F82681E00895F894089528
:101B0000789408950E947E0DFFCFCF93DF93CDB7D9
:101B1000DEB7A3970FB6F894DEBF0FBECDBF0E940D
:101B2000F311809349058F3F21F460E08EE00E941D
:101B3000FC100E947E2080FF04C060E086E00E94CE
:101B4000FC1010924C0510925A05109259051092F3
:101B50004B0510924A0510925B05109258058FEFC5
:101B600080934505809347058093460593E69093BF
:101B7000F7048093F50490932205809320058CE56B
:101B800095E021E635E03093600520935F05909362
:101B900063058093620546E655E0509365054093E2
:101BA0006405309368052093670510925E051092D6
:101BB0005D0510926A051092690510924F0510920A
:101BC0004E059093EC048093EB046AEE7AE1CE012B
:101BD00001960E94B62240E850E06FE274E0CE0128
:101BE00001960E94BA2285E580932F0419861C86EF
:101BF0001D861E861F86188A198A1A8A1B8A1C8AC5
:101C00001D8A1E8A1F8A188E198E1A8E1B8E1C8E94
:101C10001D8E1E8E1F8E18A219A21AA21BA281E071
:101C2000888792E09A878B87CE0101960E942716BB
:101C3000A3960FB6F894DEBF0FBECDBFDF91CF9154
:101C400008956091F5046F3F39F080912005681385
:101C500003C085E00E94FC10609120056F3FE9F40D
:101C60000E941A152BE28202C0011124FC01E351EB
:101C7000FB4F828580935B05F0935A05E0935905ED
:101C8000F0934B05E0934A0580934C050E942C236A
:101C90000E9416230E94302308C08091F504681327
:101CA000DFCF85E00E94FC10DBCFFFCFCF92DF9229
:101CB000EF92FF920F931F93CF93DF93EC018B0171
:101CC0007A018985823021F080914805888301C09E
:101CD000188280914805823020F060E087E00E9401
:101CE000FC108985823029F0809148058F5F8093B0
:101CF000480580914805811103C081E08093480523
:101D000038812BE23203F0011124E351FB4F1183A0
:101D100000838885828738813203F0011124E351E2
:101D2000FB4F83E0818738813203F0011124E351B6
:101D3000FB4F3087088102038001112403511B4FA0
:101D4000F8011582CE010B960E94801AF80161A35A
:101D500072A383A394A38B859C85AD85BE858833B0
:101D60009948A144B10520F0688186E10E94FC10E9
:101D7000C880DD24C7FCD094CE014B960E94801A07
:101D80001BE21C9DF0011D9DF00D1124E351FB4F42
:101D9000658B768B878B908F28812103C00111245E
:101DA0009C0123513B4F6901F90145895689678997
:101DB000708D81A192A1A3A1B4A1840F951FA61F2C
:101DC000B71F818F928FA38FB48FCE0143960E944D
:101DD000801AF60165A376A387A390A72881210323
:101DE000F0011124E351FB4F85A196A1A7A1B0A555
:101DF000858F968FA78FB0A381E090E092A781A7EF
:101E0000F382E2828487DF91CF911F910F91FF903F
:101E1000EF90DF90CF9008950C940E1B85E690E034
:101E20000895E0915905F0915A0584870895E0914D
:101E30005905F0915A0584850895FC0180912E047E
:101E4000882331F0DB018C9380918103808381E0D2
:101E5000089510922E04089513BC1092B60018BC79
:101E600017BC16BC15BC14BC1DBA1CBA1BBA109208
:101E70009B0010929A001092990010929800109274
:101E8000950010929400109291001092900018BA50
:101E9000109271001092B4001092B3001092B20030
:101EA0001092B100E0EBF0E01082108217BA1092AD
:101EB00070008FEF84BF0895CF93DF931F92CDB74B
:101EC000DEB719828981843640F480ED97E00E9464
:101ED000B41E89818F5F8983F5CF0F90DF91CF91F9
:101EE000089581E090E00E94610C0E945C0F0E94C6
:101EF0005C0F0E945C0F81E090E00E944A0C0C9401
:101F00005C0F81E090E00E94610C0E945C0F81E018
:101F100090E00E944A0C0C945C0FFF920F931F9369
:101F2000CF93DF9300D01F92CDB7DEB71F928F9370
:101F300086E393E09F938F938E010F5F1F4F1F9354
:101F40000F930E9462260F900F900F900F900F90AA
:101F50000F90F12CF80101900020E9F73197E01B78
:101F6000F10B8F2D90E08E179F0708F05DC0F801F0
:101F7000E80FF91FE0818E2F90E0FC01F097EA3026
:101F8000F10508F049C0E654FF4F0C945B250E9410
:101F9000710F02C00E94810F0E94710F0E94710F89
:101FA0000E94710F0E94710F37C00E94810F0E9422
:101FB000810FF4CF0E94810F0E94810F0E94810F38
:101FC000EFCF0E94810F0E94810F0E94810F0E941B
:101FD000810FE8CF0E94810F02C00E94710F0E9402
:101FE000810F04C00E94710F0E94710F0E94810F27
:101FF00006C00E94710F0E94710F0E94710F0E9413
:10200000810F08C00E94710F0E94710F0E94710F12
:102010000E94710F0E94810F0E945C0F0E945C0F52
:102020000E945C0FF39496CF0F900F900F90DF916A
:10203000CF911F910F91FF9008950F931F93CF930E
:10204000DF9380912E04882309F4C2C00E947E0D84
:1020500006E313E08EE494E00E941E098091810360
:102060001F928F931F930F930E9418268AE494E087
:102070000E941E090F900F900F900F9080912E04D8
:10208000883110F010922E04E0912E048E2F90E0F3
:10209000FC013197E631F10508F046C0EC53FF4FE3
:1020A0000C945B258EE094E041C087EE93E03EC047
:1020B00083ED93E03BC08DEB93E038C082EA93E080
:1020C00035C08CE893E032C084E793E02FC081E60E
:1020D00093E02CC08EE493E029C080E393E026C017
:1020E0008BE093E023C08FEF92E020C084EE92E07B
:1020F0001DC085ED92E01AC081EC92E017C080EB24
:1021000092E014C08CE992E011C08CE792E00EC01E
:1021100084E692E00BC089E492E008C088E392E094
:1021200005C089E292E002C082E292E00E941E09AC
:1021300060917C0570917D058DE090E00E94E02526
:1021400060917C0570917D058AE090E00E94E02519
:10215000C4E182E090E00E94610C83E090E00E9484
:102160004A0CD4E688EE93E00E94B41ED150D1F719
:1021700083E090E00E94610C82E090E00E944A0CB3
:10218000D4E688EE93E00E94B41ED150D1F7C1503E
:1021900001F782E090E00E944A0C83E090E00E9408
:1021A0004A0C809181030E948D0F0E945C0F82E097
:1021B00090E00E94610C0E945C0F82E090E00E941F
:1021C0004A0C0E945C0F80912E040E948D0F42CF1A
:1021D00080E0DF91CF911F910F91089580932E049D
:1021E000E0915905F0915A058085809381030E9402
:1021F0001D1010922E04089580932E046093810385
:102200000E941D1010922E0408956F927F928F925B
:102210009F92AF92BF92CF92DF92EF92FF920F9375
:102220001F93CF93DF938AE594E00E941E09E0910B
:102230005905F0915A058085282F332727FD3095C1
:102240003F938F9389E393E09F938F930E94182687
:10225000E0915905F0915A05C281D381DF93CF9364
:102260008DE693E09F938F930E94182688811F929A
:102270008F9382E493E09F938F930E941826E091BE
:102280005905F0915A0581818F9380818F938FE456
:1022900093E09F938F930E94182680915A058F9305
:1022A000809159058F9389E593E09F938F930E94C6
:1022B0001826CDEED4E0EDB7FEB774960FB6F894BD
:1022C000FEBF0FBEEDBF00E010E089E6682E83E0A0
:1022D000782E92E4892E93E0992E2FE4A22E23E00B
:1022E000B22E39E5C32E33E0D32EEA80FB80FF9275
:1022F000EF921F930F937F926F920E941826F7011F
:1023000080811F928F939F928F920E9418268981BD
:102310008F9388818F93BF92AF920E941826DF938C
:10232000CF93DF92CF920E941826AB96EDB7FEB7FF
:1023300072960FB6F894FEBF0FBEEDBF01301105C7
:1023400019F001E010E0D1CFDF91CF911F910F91F3
:10235000FF90EF90DF90CF90BF90AF909F908F90C5
:102360007F906F900895CF93DF93E0915905F0919E
:102370005A05C281D3818881853539F00E940511C3
:1023800081E00E94EE1085E58883E0915905F09187
:102390005A05808191818115924438F00E9405117F
:1023A00082E1DF91CF910C94EE10DF91CF910895EF
:1023B0002BE28202C0011124FC01E351FB4FA281F8
:1023C000B3818C91853519F085E58C9308C08081A7
:1023D00091818115924428F082E10E94EE108FEFE6
:1023E000089581E008950F931F934091A6035091A3
:1023F000A7036091A8037091A90380E090E08A018F
:102400009B01082E04C036952795179507950A94C9
:10241000D2F700FD19C001E010E020E030E0082E06
:1024200004C0000F111F221F331F0A94D2F7402B44
:10243000512B622B732B4093A6035093A7036093F9
:10244000A8037093A90305C0019680329105B9F6DF
:102450008FEF1F910F910895E0915905F0915A0562
:1024600065857685878590890895CF92DF92EF9272
:10247000FF920F931F93CF93DF93C12CD12C760142
:10248000C394082E04C0CC0CDD1CEE1CFF1C0A9467
:10249000D2F74091A6035091A7036091A8037091D1
:1024A000A9034C215D216E217F21452B462B472B13
:1024B00009F460C0082F0E947E0DE6EFF4E0B7013A
:1024C000A601409550956095709513E0DF01119736
:1024D0008C918F3F39F184819581A681B7818C15CC
:1024E0009D05AE05BF0551F4108611861286138630
:1024F0009F0122503109E90118821083842395231A
:10250000A623B72384839583A683B783808591858B
:10251000A285B38584239523A623B723808791873B
:10252000A287B387BB96D5E0EC34FD0779F68EEF32
:102530009FEFAFEFBFEF04C0880F991FAA1FBB1F0B
:102540000A95D2F74091A6035091A7036091A80382
:102550007091A90384239523A623B7238093A60310
:102560009093A703A093A803B093A9030E94800DA2
:1025700081E001C08FEFDF91CF911F910F91FF900C
:10258000EF90DF90CF9008950F931F9341E050E0BC
:1025900060E070E08A019B0104C0000F111F221F40
:1025A000331F8A95D2F7D901C801E0915905F091FE
:1025B0005A0545855685678570890423152326238A
:1025C0003723012B022B032BD1F080959095A095FA
:1025D000B095482359236A237B234587568767870D
:1025E000708B418952896389748984239523A6233A
:1025F000B723818B928BA38BB48B81E001C08FEFCB
:102600001F910F910895282F4091A6035091A70381
:102610006091A8037091A903082E04C07695679570
:10262000579547950A94D2F740FF1DC0E091590590
:10263000F0915A0581E090E0A0E0B0E004C0880F7E
:10264000991FAA1FBB1F2A95D2F745855685678516
:102650007089842B952BA62BB72B85879687A78708
:10266000B08B81E008958FEF0895CF92DF92EF92C3
:10267000FF92CF93C12CD12C7601C39404C0CC0C13
:10268000DD1CEE1CFF1C8A95D2F78091A603909169
:10269000A703A091A803B091A9038C219D21AE218D
:1026A000BF21892B8A2B8B2B11F481E044C00E941F
:1026B0007E0DE4EFF4E0A6EFB4E0C0E083E09081AB
:1026C0009130B9F442855385648575854C215D212F
:1026D0006E217F21452B462B472B59F08C93168674
:1026E0001786108A118A1082C286D386E486F58600
:1026F000C1E090819230A1F442855385648575854F
:102700004C155D056E057F0559F48C93168617866A
:10271000108A118A10821286138614861586C1E0EB
:10272000BB969B9695E0EA34F90749F60E94800D26
:10273000C11105C082E00E94110F8FEF01C081E03E
:10274000CF91FF90EF90DF90CF9008950F931F935C
:10275000E0915905F0915A05058516852785308940
:1027600006231723282339230115110521053105D7
:1027700011F1DC01CB01818B928BA38BB48B21E017
:1027800027830090490504C0B695A795979587952E
:102790000A94D2F780FF03C00E948F1704C080E024
:1027A00090E00E946017E0915905F0915A05018967
:1027B000128923893489C901B8011F910F910895A5
:1027C00080E090E0089521E08554954009F420E0F0
:1027D000822F819508950E94E3138F3F11F481E0C9
:1027E00003C0813029F482E00E94110F8FEF089519
:1027F000992787FD9095FC01EE0FFF1F8E0F9F1FFD
:10280000FC01EB5BFA4F82810895EF92FF920F93E8
:102810001F93CF93DF931F92CDB7DEB70E94E313D0
:102820008F3F11F481E003C0813029F482E00E94DF
:10283000110F8FEF41C089830E947E0D8981E82EA0
:10284000FF24E7FCF0948701000F111FF801EE0D43
:10285000FF1DEB5BFA4F9281911116C0E091590573
:10286000F0915A05978192609783992787FD9095FB
:10287000A92FB92F818B928BA38BB48B0E94800DD3
:1028800080E090E00E9460170E0D1F1DD801AB5B29
:10289000BA4F12968C911297815012968C93129780
:1028A000E0915905F0915A0511968C91838781E04A
:1028B00084830E94800D81E00F90DF91CF911F9162
:1028C0000F91FF90EF9008950F931F93CF93DF9395
:1028D0001F92CDB7DEB70E94E3138F3F11F481E062
:1028E00003C0813029F482E00E94110F8FEF79C07C
:1028F000482F552747FD50959A01220F331F240F6B
:10290000351F89010B5B1A4FF8012281908129172D
:102910000CF066C089830E947E0DF80192819F5F52
:102920009283E0915905F0915A0514829091F40434
:102930008981923041F50091FE041091FF042091AD
:10294000000530910105482F552747FD5095652F0B
:10295000752F0417150726073707A9F493E09093FE
:10296000F6041092020510920305109204051092CD
:1029700005051092F4041092FE041092FF041092C8
:1029800000051092010590911F05923039F59927A5
:1029900087FD9095A92FB92F4091290550912A05BF
:1029A00060912B0570912C05481759076A077B0722
:1029B000A9F483E08093210510922D0510922E0535
:1029C00010922F051092300510921F0510922905C4
:1029D00010922A0510922B0510922C050E94800D52
:1029E00081E00F90DF91CF911F910F9108950E9488
:1029F000E3138F3F11F481E003C0813029F482E0BA
:102A00000E94110F8FEF0895992787FD9095FC0183
:102A1000EE0FFF1F8E0F9F1FFC01EB5BFA4F8FEF36
:102A200080838283818380915805815080935805EB
:102A300081E00895E0914E05F0914F058081089561
:102A4000E0914E05F0914F05309721F00380F4811D
:102A5000E02DFACF0895AF92BF92CF92DF92EF921E
:102A6000FF920F931F93CF93DF93E091EB04F091CC
:102A7000EC04309709F490C000914E0510914F0579
:102A80000115110509F44CC0D8014BE2582F54032D
:102A90009001112423513B4F79019AE0E90EF11C7A
:102AA0006901C4E0CC0ED11C5901DBE0AD0EB11CB4
:102AB0002C9130E0429FB001439F700D112463516F
:102AC0007B4FEB019C81992329F05B85E70198817D
:102AD000591740F1E6019881992369F0429FB001AE
:102AE000439F700D112463517B4FEB015A85E50123
:102AF00098815917B8F0429FB001439F700D11247F
:102B00009B0123513B4FE9012A85E7019881291751
:102B100048F013960D90BC91A02D109749F602C075
:102B2000A0E0B0E08083C381D481D093EC04C09353
:102B3000EB04A017B107B1F4109749F0B483A38355
:102B4000128211821296FC93EE93119706C01482A2
:102B5000138212821182FA83E983F0934F05E09386
:102B60004E051AC011968D919C911297AC17BD0716
:102B700059F092838183B483A3831196CD91DC9124
:102B80001297FC83EB8304C01482138292838183A7
:102B90001296FC93EE931197DF91CF911F910F91B5
:102BA000FF90EF90DF90CF90BF90AF900895CF93BC
:102BB000DF93E0914E05F0914F05309709F444C042
:102BC000992787FD9095208130E02817390781F4F7
:102BD000A381B481B0934F05A0934E0512961C9229
:102BE0001E92119718C00380F481E02D309761F197
:102BF000208130E028173907B1F7C181D281838164
:102C000094819C838B83A381B481109721F01296C9
:102C1000DC93CE931197A091EB04B091EC04109744
:102C200039F4F093EC04E093EB04148213820AC0AD
:102C3000B483A3831296FC93EE931197F093EC0464
:102C4000E093EB0412821182DF91CF910895EF920D
:102C5000FF920F931F93CF93DF93EC014B815C8125
:102C600069817A818D819E810E94D8222F812223C1
:102C700071F04B815C81E12CF12C00E010E020E050
:102C800030E0BC01CE010E94560E1F820CC0E881CC
:102C90002BE2E202F0011124E351FB4F21852330A6
:102CA000B9F491838083E8818BE2E802F00111247A
:102CB000E351FB4F85899689A789B08D892B8A2B93
:102CC0008B2B41F482E0818788810E942B1502C002
:102CD0008FEF01C081E0DF91CF911F910F91FF90A5
:102CE000EF9008951F93CF93DF93CDB7DEB728976A
:102CF0000FB6F894DEBF0FBECDBF29833A834B8356
:102D00005C836D837E838F8398870E947E0D0E94F3
:102D10000220182FCE0101960E94801A633071059F
:102D200098F0E0915905F0915A05212F30E0620F9B
:102D3000731FCB01A0E0B0E0858B968BA78BB08F83
:102D40000E94800D81E001C08FEF28960FB6F894A5
:102D5000DEBF0FBECDBFDF91CF911F9108950E94BE
:102D6000AB22E0915905F0915A0585818111F7CF89
:102D70000895CF930E94B3110E947E0DE0915905F2
:102D8000F0915A0581E090E092A781A785830E9487
:102D90000220C82F883F80F40E949C1F2C2F30E017
:102DA0002F5F3F4F90E02817390734F482E08C0FF3
:102DB00080932D040E94A01F0E94800D0E94AF16D8
:102DC00081E0CF910895E0915905F0915A058085F1
:102DD0000E94D715E0915905F0915A0584E081874A
:102DE0000E94B91681E00895CF93DF93EC010E9411
:102DF000B311209711F4C1E0D0E00E947E0DE09164
:102E00005905F0915A0581E08583D2A7C1A70E9498
:102E10000220C82F883F80F40E949C1F2C2F30E096
:102E20002F5F3F4F90E02817390734F482E08C0F72
:102E300080932D040E94A01F0E94800D0E94AF1657
:102E400081E0DF91CF910895EF92FF920F931F934E
:102E5000CF938C010E947E0DE0915905F0915A05A7
:102E600081E085830E940220C82FE0915905F091EE
:102E70005A05E82EF12CC701800F911FA0E0B0E0A9
:102E8000858B968BA78BB08FC83F78F40E949C1FD0
:102E90009FEFE91AF90A90E0E816F90634F482E0A7
:102EA0008C0F80932D040E94A01F0E94800D0E9411
:102EB000AF1681E0CF911F910F91FF90EF90089591
:102EC000CF93DF93EC010E947E0DE0915905F091C4
:102ED0005A0521E02583CE01A0E0B0E0858B968BDA
:102EE000A78BB08F0E940220C82F883F80F40E94D9
:102EF0009C1F2C2F30E02F5F3F4F90E028173907A1
:102F000034F482E08C0F80932D040E94A01F0E9455
:102F1000800D0E94AF1681E0DF91CF910895CF938D
:102F20000E947E0DE0915905F0915A0581E085835C
:102F300086830E940220C82F883F80F40E949C1F35
:102F40002C2F30E02F5F3F4F90E02817390734F4E3
:102F500082E08C0F80932D040E94A01F0E94800DA0
:102F60000E94AF1681E0CF9108951F93CF93DF9316
:102F7000CDB7DEB728970FB6F894DEBF0FBECDBF32
:102F800029833A834B835C836D837E838F83988709
:102F90000E94B3110E947E0DE0915905F0915A05EF
:102FA00081E0858381E090E092A781A70E940220C2
:102FB000182FCE0101960E94801AE0915905F091D8
:102FC0005A05DC01CB01810F911DA11DB11D858B1F
:102FD000968BA78BB08F183F80F40E949C1F212FE7
:102FE00030E02F5F3F4F90E02817390734F482E03C
:102FF000810F80932D040E94A01F0E94800D0E94CB
:10300000AF1681E028960FB6F894DEBF0FBECDBF95
:10301000DF91CF911F9108958F929F92AF92BF92AF
:10302000CF92DF92EF92FF920F931F93CF93DF9394
:10303000CDB7DEB760970FB6F894DEBF0FBECDBF39
:1030400029873A874B875C876D877E878F87988B28
:10305000CE0101960E94681889809A80AB80BC805E
:10306000CD80DE80EF80F88409851A852B853C852C
:103070004D855E856F857889CE0109960E94C518B9
:103080008F3F61F029853A854B855C856D857E850E
:103090008F8598890E94B51781E001C08FEF6096F7
:1030A0000FB6F894DEBF0FBECDBFDF91CF911F9159
:1030B0000F91FF90EF90DF90CF90BF90AF909F90D7
:1030C0008F900895E0915905F0915A0580850895F3
:1030D0000F931F93CF93DF93EC011C821D821E82FE
:1030E0001F828091500590915105A0915205B09199
:1030F000530588839983AA83BB838091540590915B
:103100005505A0915605B09157058C839D83AE83DC
:10311000BF830E940220A82FB0E023EB36EE4EE0E2
:1031200050E00E94BF240C811D812E813F81DC0173
:10313000CB01800F911FA21FB31F8C839D83AE8391
:10314000BF838C819D81AE81BF8181152AEC92075E
:103150002AE9A2072BE3B20798F09A5CAA49BB437D
:103160008C839D83AE83BF8388819981AA81BB8133
:103170000196A11DB11D88839983AA83BB83E1CFEA
:10318000DF91CF911F910F9108958F929F92AF92EF
:10319000BF92CF92DF92EF92FF920F931F93CF9344
:1031A000DF93CDB7DEB760970FB6F894DEBF0FBEE2
:1031B000CDBFFC0109831A832B833C834D835E833F
:1031C0006F83788789869A86AB86BC86CD86DE86B5
:1031D000EF86F88A09811A812B813C814D815E81BD
:1031E0006F817885C984DA84EB84FC848D859E8523
:1031F000AF85B8890C151D052E053F05F0F1C016E9
:10320000D106E206F30691F4481759076A077B07CF
:10321000A0F1481B590B6A0B7B0B448355836683D3
:103220007783108211821282138225C048175907B2
:103230006A077B0780F401501109210931090C1933
:103240001D092E093F0900831183228333835653BE
:103250006546744C08C00C191D092E093F090083EE
:10326000118322833383481B590B6A0B7B0B4483E6
:1032700055836683778381E001C08FEF60960FB638
:10328000F894DEBF0FBECDBFDF91CF911F910F919C
:10329000FF90EF90DF90CF90BF90AF909F908F9076
:1032A0000895FC01448155816681778141158AEC3E
:1032B00058078AE968078BE3780798F05A5C6A49EF
:1032C0007B43448355836683778380819181A28188
:1032D000B3810196A11DB11D80839183A283B38325
:1032E000E1CF08958F929F92AF92BF92CF92DF92DB
:1032F000EF92FF920F931F93CF93DF93CDB7DEB77B
:1033000060970FB6F894DEBF0FBECDBF09831A8356
:103310002B833C834D835E836F83788789869A866F
:10332000AB86BC86CD86DE86EF86F88A09851A854F
:103330002B853C8549815A816B817C81400F511FCF
:10334000621F731FFC0140835183628373830D8569
:103350001E852F8538894D815E816F817885400F6C
:10336000511F621F731F44835583668377830E94B6
:10337000511981E060960FB6F894DEBF0FBECDBF45
:10338000DF91CF911F910F91FF90EF90DF90CF9041
:10339000BF90AF909F908F900895E0E5F5E0608337
:1033A000718382839383248335834683578308956F
:1033B0002F923F924F925F926F927F928F929F9245
:1033C000AF92BF92CF92DF92EF92FF920F931F9333
:1033D000FC01C080D180E280F380648175818681A8
:1033E0009781C114D104E104F104C1F1F2E4CF16D4
:1033F000D104E104F104D0F51B012C01612C712CE6
:103400004301E0E08E2F90E0A0E0B0E08C159D0538
:10341000AE05BF0588F49101A201B301C401365382
:103420004546544C6F4F7F4F8F4F9F4F19012A01D4
:103430003B014C01EF5FE6CF83EBA82E96EEB92E51
:103440002EE0C22ED12CE12CF12C00E010E09101F5
:10345000A201B301C4010E94FE2406C023EB36EE94
:103460004EE050E00E94DA24C90102C080E090E002
:103470001F910F91FF90EF90DF90CF90BF90AF9092
:103480009F908F907F906F905F904F903F902F9084
:103490000895CF92DF92EF92FF92CF93DF93CDB753
:1034A000DEB728970FB6F894DEBF0FBECDBF6B0115
:1034B0007C012AE0F694E794D794C7942A95D1F733
:1034C000C982DA82EB82FC829B01AC013370442713
:1034D000552763EB76EE8EE090E00E94CA242C2DF7
:1034E0003A814B815C8128960FB6F894DEBF0FBEFF
:1034F000CDBFDF91CF91FF90EF90DF90CF900895F7
:103500002F923F924F925F926F927F928F929F92F3
:10351000AF92BF92CF92DF92EF92FF920F931F93E1
:10352000FC01C080D180E280F38064817581868156
:103530009781C114D104E104F10499F11B012C011C
:10354000612C712C4301E0E08E2F90E0A0E0B0E010
:103550008C159D05AE05BF0588F49101A201B3014C
:10356000C40136534546544C6F4F7F4F8F4F9F4F8A
:1035700019012A013B014C01EF5FE6CF83EBA82E36
:1035800096EEB92E2EE0C22ED12CE12CF12C00E0CB
:1035900010E09101A201B301C4010E94FE24CA01FE
:1035A00007C023EB36EE4EE050E00E94DA24CA0159
:1035B000B9011F910F91FF90EF90DF90CF90BF90D6
:1035C000AF909F908F907F906F905F904F903F90C3
:1035D0002F900895C2E0D1E00E94B3110E949C1F79
:1035E000843028F4D0934D050E94AB2208C08AE0B5
:1035F00090E00E94B41EC0934D050E949F228091CE
:103600002F04853519F088E00E94EE1080917E41EC
:10361000853511F388E00E94EE10DECF2F923F92A5
:103620004F925F926F927F928F929F92AF92BF92D2
:10363000CF92DF92EF92FF920F931F93CF93DF937E
:1036400000D000D0CDB7DEB70E94800D0E94D01E02
:103650000E94EE1E0E94F61E1C018AEF0E94A01F0F
:10366000A0912D04B0E023EB36EE4EE050E00E9436
:10367000BF240091540510915505209156053091B5
:1036800057056B017C01C00ED11EE21EF31EC7015F
:10369000B60123EB36EE4EE050E00E94DA2426011C
:1036A0003701461A570A680A790AD301C201009104
:1036B000500510915105209152053091530543EB6F
:1036C000842E46EE942E4EE0A42EB12C6801790192
:1036D0004FEFC41AD40AE40AF40A81155AEC95078C
:1036E0005AE9A5075BE3B507C8F02C013D012AECB8
:1036F000521A2AE9620A2BE3720AC301B201A50138
:1037000094010E94DA24A3019201261B370B480B77
:10371000590BDA01C90197018601D8CF809354056E
:1037200090935505A0935605B09357050093500507
:10373000109351052093520530935305E09159059C
:10374000F0915A058581882339F18185843021F1F2
:103750008781823029F0882341F08681811102C05F
:1037600085E001C083E0818714C083E081871782F0
:10377000168285899689A789B08D892B8A2B8B2BF8
:1037800041F4818D928DA38DB48D858B968BA78B03
:10379000B08F80850E94D715E0915905F0915A05A8
:1037A00085A196A1A7A1B0A5892B8A2B8B2B09F403
:1037B00044C02085222309F440C081858430E9F18A
:1037C000858D968DA78DB0A140912D0450E060E0CD
:1037D00070E084179507A607B70768F4622F82E0A8
:1037E0000E94FC10E0915905F0915A05158E168E35
:1037F000178E10A208C0841B950BA60BB70B858FE4
:10380000968FA78FB0A3E0915905F0915A051085C6
:10381000858D968DA78DB0A1892B8A2B8B2B69F472
:10382000612F83E00E94FC10E0915905F0915A0548
:1038300083E08187812F0E94D71586EF94E09C83D7
:103840008B8300E61AEE19829AEFC92ED12CE12C57
:10385000F12C812C912C54018394EB81FC813197C4
:1038600080818F3F09F400C1EB81FC813497108285
:10387000EB81FC81F081FA83882309F468C0F4307D
:1038800009F4F2C0EB81FC8144845584668477841A
:1038900060912D0470E080E090E0461657066806BF
:1038A000790648F0461A570A680A790A4486558606
:1038B0006686778606C0EB81FC811486158616869F
:1038C0001786EB81FC814088518862887388461690
:1038D00057066806790648F0A3019201261B370BAC
:1038E000480B590BDA01C90113C0EB81FC81208D13
:1038F000318D428D538D621773078407950768F4E5
:1039000029013A01461A570A680A790AD301C20105
:10391000808B918BA28BB38B08C00E94DA24EB8141
:10392000FC81608B718B828B938BEB81FC81808916
:103930009189A289B389892B8A2B8B2B41F4808DA5
:10394000918DA28DB38D808B918BA28BB38BFA81DD
:10395000F33009F089C0EB81FC8184859585A685CB
:10396000B785892B8A2B8B2B09F06BC0DF0112974F
:103970008C919F01235031098823A9F0F90180819E
:10398000882389F0B501A4010090490504C0440FC3
:10399000551F661F771F0A94D2F7EB81FC81408781
:1039A0005187628773871C92F9011082EB81FC8139
:1039B000A0A1B1A1408C518C628C738C448D558D2B
:1039C000668D778DA130B105D1F4448B558B668B14
:1039D000778B22E0208380899189A289B3898487AB
:1039E0009587A687B78745284628472821F4C486A7
:1039F000D586E686F78689810E942B1522C0EB8149
:103A0000FC81448B558B668B778B1197A3019201B8
:103A10000E94BF246487758786879787608B718B28
:103A2000828B938B45284628472821F4C486D58667
:103A3000E686F78644244394512CEB81FC8151A205
:103A400040A2EB81FC8184859585A685B78500978A
:103A5000A105B10549F0A80160E070E08417950761
:103A6000A607B70708F48C012B813C81255D3F4FE9
:103A70003C832B833981313019F091E09983EDCE6D
:103A80000E941A15F82E4BE28402F0011124E35132
:103A9000FB4F228520935B05F0934B05E0934A058D
:103AA0008823F9F085A196A1A7A1B0A5892B8A2B1F
:103AB0008B2B99F0858D968DA78DB0A18A3F9105AE
:103AC000A105B10550F4A80160E070E084179507E6
:103AD000A607B707E8F48C011BC00B3F1105C0F027
:103AE00012C004301105A0F0C80103978A3F910568
:103AF00038F48C018230910558F402E010E008C0DF
:103B00000D3F110519F00AEF10E002C007EF10E0B9
:103B100020934C05F0935A05E093590500932D042A
:103B20000E940220282F30E02F5F3F4F20173107DF
:103B300040F00E940220082F10E00E5F1F4F0093FC
:103B40002D04F11010924D05802F0E94A01F6CEDE6
:103B500075E0C1010E94081F0E9425230F900F905D
:103B60000F900F90DF91CF911F910F91FF90EF90E9
:103B7000DF90CF90BF90AF909F908F907F906F908D
:103B80005F904F903F902F900C9430239C01909128
:103B90006C05191674F084E09802F0011124E359C1
:103BA000FA4F6083338322839F5F90936C0581E09B
:103BB00008958FEF08950F931F93CF93DF93409154
:103BC0006C05552747FD5095C0E090E02C2F30E064
:103BD000241735078CF58901000F111F000F111FE5
:103BE000D801A359BA4FEC91FF27E7FDF095E817EC
:103BF000F90701F5D62FF901EF58FA4F80818111AD
:103C00000BC081E080831296ED91FC91139720E028
:103C100040E050E080E00995F801E359FA4F028056
:103C2000F381E02D20E040E050E06D2F81E0099528
:103C30008C2F03C0CF5FCACF8FEFDF91CF911F9141
:103C40000F91089590E020916C05332727FD309562
:103C50002817390784F0880F991F880F991FFC01D6
:103C6000E359FA4F0280F381E02D20E040E050E07C
:103C700060E082E0099481E00E94110F8FEF0895C7
:103C8000242F90E0E0916C05FF27E7FDF095E81701
:103C9000F90774F0880F991F880F991FFC01E359E9
:103CA000FA4F0280F381E02DAB0160E086E00994D9
:103CB00081E00E94110F8FEF0895242F90E0E09192
:103CC0006C05FF27E7FDF095E817F90774F0880FFA
:103CD000991F880F991FFC01E359FA4F0280F38165
:103CE000E02DAB0160E085E0099481E00E94110FB6
:103CF0008FEF0895242F90E0E0916C05FF27E7FDFA
:103D0000F095E817F90774F0880F991F880F991F2D
:103D1000FC01E359FA4F0280F381E02D40E050E0CE
:103D200084E0099481E00E94110F8FEF089590E0E4
:103D300020916C05332727FD3095281739077CF033
:103D4000880F991F880F991FFC01E359FA4F0280D1
:103D5000F381E02D20E040E050E083E0099481E031
:103D60000E94110F8FEF0895000000000000000076
:103D70000000000000000000000000000000000043
:103D8000019791F7089510922101089589E0809399
:103D900021018DE89CE390932901809328010895E7
:103DA00010922501109224010895CF93DF9300D043
:103DB000CDB7DEB780912401909125019A83898344
:103DC00089819A810F900F90DF91CF910895109281
:103DD0008100089581E080938100089583B581601A
:103DE00083BD10928500109284000895CF93DF93D5
:103DF00000D0CDB7DEB780918400909185009A8382
:103E0000898389819A810F900F90DF91CF910895D6
:103E1000CF92DF92EF92FF92CF93DF93EC01CC0F22
:103E2000DD1FC9378FEFD80710F0C0E0D0E06B017D
:103E3000E12CF12CCC0EDD1EE11CF11C81E0C8163A
:103E4000D104E806F10440F081E0E81AF1080E948C
:103E5000F61EC817D907D8F30E94F61E8C159D05CB
:103E6000D8F3DF91CF91FF90EF90DF90CF9008953E
:103E70001092B100E0E7F0E080818D7F8083808147
:103E80008E7F808308958093B2000895E0E7F0E08C
:103E900080818360808383E08093B100089583B53F
:103EA000826083BD1092B2001092820310922D04A2
:103EB0000895CF93DF938EEF80932D0480E280935B
:103EC000B60080912D048093B30083E087BB92E01D
:103ED0009093B0008093B10093B5926093BD87BB7F
:103EE00084BD83B5826083BD1092800081E08093A1
:103EF0008100109285001092840083B5826083BD9A
:103F000083B5816083BD10922001C4E2D1E01982A3
:103F1000188283B5826083BD83B5816083BD0E94B2
:103F20004F1F198218820E94461F0E94C61E1092BF
:103F30008203DF91CF9108958091B3008F5F089540
:103F400081508093B3000895811102C010927100D6
:103F50008FEF0895811106C0109295001092940081
:103F600081E008958FEF0895811105C0809194003C
:103F700090919500089580E090E00895811105C02A
:103F800082E08093710081E008958FEF08958111A0
:103F900035C0CB010197059710F460932C04109263
:103FA000900088E08093910050939900409398008E
:103FB0003093800320937F0380912C04813021F47F
:103FC00080919100816011C0823021F48091910034
:103FD00082600BC0833021F480919100836005C022
:103FE000843031F48091910084608093910008C006
:103FF000853031F4809191008560F7CF8FEF08957F
:1040000081E008958091B20008951F920F920FB63B
:104010000F92112460E08AE00E94FC10FFCF0F9203
:104020000FB60F921F922F923F924F925F926F9214
:104030007F928F929F92AF92BF92CF92DF92EF9238
:10404000FF920F931F932F933F934F935F936F9321
:104050007F938F939F93AF93BF93CF93DF93EF9310
:10406000FF93A0915905B0915A050DB60D920EB669
:104070000D921F92A0912A04B0912B041E90BEBFF6
:10408000ADBF08951F920F920FB60F9211240BB679
:104090000F922F933F934F935F936F937F938F93E1
:1040A0009F93AF93BF93EF93FF93E0917F03F091C2
:1040B0008003309711F0099504C060E08AE00E9407
:1040C000FC10FF91EF91BF91AF919F918F917F91E4
:1040D0006F915F914F913F912F910F900BBE0F9079
:1040E0000FBE0F901F9018951F920F920FB60F9250
:1040F00011240F900FBE0F901F90189504B603FE69
:1041000002C080E101C080E004B602FE06C094B7A0
:104110009B7F94BF04B600FE846004B601FE05C018
:1041200094B79D7F94BF8260089581110CC004B63E
:1041300000FE04C094B79E7F94BF01C081E09091BF
:10414000B000911181E00895811102C0E89A39C050
:10415000813011F4E99A0895823011F4EA9A31C05D
:10416000833021F480916B00816029C0843021F478
:1041700080916B00826023C0853021F480916B00B8
:1041800084601DC0863021F480916B00886017C068
:10419000873021F480916B00806111C0883021F458
:1041A00080916B0080620BC0893021F480916B009C
:1041B000806405C08A3039F480916B0080688093F8
:1041C0006B0081E008958FEF0895811102C0E89897
:1041D00039C0813011F4E9980895823011F4E998DA
:1041E00031C0833021F480916B008E7F29C08430F0
:1041F00021F480916B008D7F23C0853021F4809164
:104200006B008B7F1DC0863021F480916B00877F0F
:1042100017C0873021F480916B008F7E11C08830E9
:1042200021F480916B008F7D0BC0893021F4809147
:104230006B008F7B05C08A3039F480916B008F77DB
:1042400080936B0081E008958FEF0895811126C05F
:104250005093750540937405611104C08091690005
:104260008C7F3DC0613049F4809169008D7F8093DF
:10427000690080916900816032C0623049F48091A8
:104280006900826080936900809169008E7F27C0F9
:10429000633039F580916900836021C0813049F530
:1042A0005093730540937205611104C080916900B9
:1042B000837F15C0613049F480916900877F8093C6
:1042C00069008091690084600AC0623061F4809165
:1042D0006900886080936900809169008B7F80937A
:1042E000690081E008956330E1F7809169008C6096
:1042F000F6CF823031F55093770540937605611102
:1043000004C0809169008F7CEACF613049F48091CC
:1043100069008F7D80936900809169008061DFCFA3
:10432000623049F4809169008062809369008091D5
:1043300069008F7ED4CF6330A1F6809169008063DD
:10434000CECF8350883050F4809168008160809394
:1043500068005093790540937805C3CF8FEF089597
:104360001F920F920FB60F9211240BB60F922F933C
:104370003F934F935F936F937F938F939F93AF93ED
:10438000BF93EF93FF93E0917805F0917905309713
:1043900011F0099504C060E08AE00E94FC10FF91D2
:1043A000EF91BF91AF919F918F917F916F915F91AD
:1043B0004F913F912F910F900BBE0F900FBE0F901A
:1043C0001F9018951F920F920FB60F9211240BB6E3
:1043D0000F922F933F934F935F936F937F938F939E
:1043E0009F93AF93BF93EF93FF93E0917405F09188
:1043F0007505309711F0099504C060E08AE00E94CD
:10440000FC10FF91EF91BF91AF919F918F917F91A0
:104410006F915F914F913F912F910F900BBE0F9035
:104420000FBE0F901F9018951F920F920FB60F920C
:1044300011240BB60F922F933F934F935F936F937B
:104440007F938F939F93AF93BF93EF93FF93E091ED
:104450007205F0917305309711F0099504C060E082
:104460008AE00E94FC10FF91EF91BF91AF919F9164
:104470008F917F916F915F914F913F912F910F900D
:104480000BBE0F900FBE0F901F9018951F920F92AA
:104490000FB60F9211240BB60F922F933F934F93A9
:1044A0005F936F937F938F939F93AF93BF93EF939C
:1044B000FF93E0917605F0917705309711F009951B
:1044C00004C060E08AE00E94FC10FF91EF91BF9170
:1044D000AF919F918F917F916F915F914F913F919C
:1044E0002F910F900BBE0F900FBE0F901F9018953D
:1044F000A8959FB7F89484B7877F84BFE0E6F0E083
:1045000080818861808310829FBF08959FB7F8944F
:10451000A89584B7877F84BFE0E6F0E0808188615A
:1045200080838DE080839FBF089504B603FE02C0A0
:104530008FEF089581E00895A8950895089583B7B1
:10454000817F866083BF83B7816083BF889583B78F
:104550008E7F83BF089583B7817F83BF83B78160D8
:1045600083BF889583B78E7F83BF0895FC017683D0
:1045700065830895EF92FF920F931F93CF93DF937C
:104580008C017B01EA014032510518F481E10E945F
:10459000EE102197CE0DDF1DF801D283C183F48286
:1045A000E382DF91CF911F910F91FF90EF900895DB
:1045B00025E5FA012083FB013297908331968083B1
:1045C00033971182108232971182108232971182B2
:1045D00010823297118210823297118210823297A4
:1045E00011821082329711821082329711821082CA
:1045F0003297118210823297118210823297118283
:104600001082329711821082329711821082329773
:104610001182108232971182108232971182108299
:10462000CB018497FC0111821082089585E5809367
:104630007E41EEEFF1E4F0932B04E0932A048CE04A
:104640009FE090838093FF4108958CE09FE09093DA
:10465000FE418093FF4108950E94591F0C94800DE4
:10466000A0914A05B0914B05CD91CDBFDD91DEBF44
:10467000FF91EF91DF91CF91BF91AF919F918F917A
:104680007F916F915F914F913F912F911F910F916A
:10469000FF90EF90DF90CF90BF90AF909F908F9062
:1046A0007F906F905F904F903F902F901F900F9052
:1046B0000FBE0F9018950E943D0980E190E00E9486
:1046C000B30C83EA92E00E9432260E94850D20E01E
:1046D00030E0A90160E070E0CB010E94CD190E949A
:1046E0001C030E94E3020E94210E80E090E00895E6
:1046F0006F927F928F929F92AF92BF92CF92DF92F2
:10470000EF92FF920F931F93CF93DF93CDB7DEB756
:104710002C970FB6F894DEBF0FBECDBF6C015B01C6
:104720007A01FC0117821682838181FF0EC1CE01BE
:1047300001964C01F6010381F50103FD159103FF7C
:1047400011915F01112309F4FCC0153249F403FDF6
:10475000159103FF11915F01153211F020E01BC08C
:10476000B601812F90E00E94E02537017301E2CF6E
:10477000112309F4E6C0612F70E080E794E02C87F4
:104780000E9473252C85892B49F0F50103FD1591B5
:1047900003FF11915F0127FFEBCF09C0133229F00E
:1047A0001C3609F0D5C02068F0CF20E1EECF022FF3
:1047B000112309F4C6C0612F70E089E694E02C87CC
:1047C0000E9473252C85892B41F03701F4E06F0E90
:1047D000711CB6018FE390E011C0133639F0133726
:1047E00081F0133519F5022F01600BC0370182E00B
:1047F000680E711CB601F701808191810E94E0254D
:10480000B5CF3701F2E06F0E711CF701E080F18047
:10481000F70100FD859100FF81917F01882309F454
:10482000A5CFB60190E00E94E025F2CF143611F03A
:10483000193629F5370127FF09C0F4E06F0E711C06
:10484000F70160817181828193810AC0F2E06F0E6D
:10485000711CF70160817181882777FD8095982F01
:10486000022F0F7E97FF08C09095809570956195F7
:104870007F4F8F4F9F4F00642AE030E033C01037E6
:1048800099F040F41835B1F01F3609F05AC028E00D
:1048900030E014C0153719F0183741F052C0022F1C
:1048A0000F7E2AE030E00AC0022F0061046220E19E
:1048B00030E004C0022F046020E132E0370107FF3E
:1048C00009C0F4E06F0E711CF70160817181828173
:1048D000938108C0F2E06F0E711CF7016081718155
:1048E00080E090E0A4010E949226182F181906FF7C
:1048F00005C0B6018DE290E00E94E02504FF15C0DE
:10490000FE01E10FF11D8081803379F0B60180E373
:1049100090E00E94E02502FF08C00072802F90E026
:10492000B601885A9F4F0E94E0251150F401E10F13
:10493000F11D8081B60190E00E94E0251111F5CFB4
:1049400015CFF6018681978105C08FEF9FEF02C0DA
:10495000022F31CF2C960FB6F894DEBF0FBECDBF1D
:10496000DF91CF911F910F91FF90EF90DF90CF904B
:10497000BF90AF909F908F907F906F9008950E940E
:104980006425A59F900DB49F900DA49F800D911D4F
:1049900011240895DB018F939F930E94BF24BF9140
:1049A000AF91A29F800D911DA39F900DB29F900D7E
:1049B00011240895A1E21A2EAA1BBB1BFD010DC0F4
:1049C000AA1FBB1FEE1FFF1FA217B307E407F507BF
:1049D00020F0A21BB30BE40BF50B661F771F881F9B
:1049E000991F1A9469F760957095809590959B0131
:1049F000AC01BD01CF010895689401C0E8948F9285
:104A00009F92CF93DF930E940A25DF91CF919F90D1
:104A10008F90089588249924F401E401B0E49F93D1
:104A2000AA279A158B049C04ED05FE05CF05D00737
:104A3000A10798F4AD2FDC2FCF2FFE2FE92D982C56
:104A4000892E982F872F762F652F542F432F322FA3
:104A50002227B85031F7BF9127C01B2EBF91BB272B
:104A6000220F331F441F551F661F771F881F991F72
:104A7000881C991CEE1FFF1FCC1FDD1FAA1FBB1F28
:104A80008A149B04EC05FD05CE05DF05A007B107E0
:104A900048F08A189B08EC09FD09CE09DF09A00B34
:104AA000B10B21601A94E1F62EF49401AF01BE011E
:104AB000CD01000C0895EE0FFF1F0024001C0BBE5B
:104AC0000790F691E02D0994A29FB001B39FC00119
:104AD000A39F700D811D1124911DB29F700D811D2A
:104AE0001124911D0895FC010590061621F0002067
:104AF000D9F7C00108953197CF010895FB01DC017A
:104B000002C001900D9241505040D8F70895FB012A
:104B1000DC014150504030F08D910190801919F422
:104B20000020B9F7881B990B08950F931F93CF931B
:104B3000DF93009731F46115710519F480E090E07E
:104B40003AC08B01EC016EE070E081E090E00E94E1
:104B50000627FC01009791F380E883830115110576
:104B600071F01387028781E8838380917A059091A1
:104B70007B05892B21F4F0937B05E0937A05209740
:104B8000C9F0D187C08783818260838380917C054F
:104B900090917D05892B71F4F0937D05E0937C0560
:104BA00080917E0590917F05892B21F4F0937F05FC
:104BB000E0937E05CF01DF91CF911F910F91089572
:104BC0000F931F93CF93DF93FB01238121FD03C03C
:104BD0008FEF9FEF28C022FF16C0468157812481A6
:104BE00035814217530744F4A081B1819D012F5FA5
:104BF0003F4F318320838C93268137812F5F3F4F36
:104C00003783268310C0EB01092F182F0084F1850C
:104C1000E02D0995892BE1F68E819F8101969F8376
:104C20008E83812F902FDF91CF911F910F91089547
:104C3000CF93DF93CDB7DEB7AE014B5F5F4FFA0185
:104C400061917191AF0180917C0590917D050E94E9
:104C50007823DF91CF91089560917C0570917D0557
:104C60000C94E0250F931F93CF93DF93E0917C0585
:104C7000F0917D05238121FF1BC08C01D0E0C0E0B5
:104C8000F80181918F0160917C0570917D05DB01B8
:104C90001896ED91FC911997882331F00995892B8D
:104CA00079F3DFEFCFEFECCF8AE00995892B19F08C
:104CB0008FEF9FEF02C08D2F9C2FDF91CF911F911F
:104CC0000F9108950F931F93CF93DF93CDB7DEB766
:104CD0002E970FB6F894DEBF0FBECDBF0D891E898B
:104CE00086E08C831A8309838FEF9FE79E838D83F1
:104CF000AE01475E5F4F6F89788DCE0101960E94AD
:104D000078232F813885F801E20FF31F10822E9649
:104D10000FB6F894DEBF0FBECDBFDF91CF911F91CC
:104D20000F910895FA01AA27283051F1203181F11D
:104D3000E8946F936E7F6E5F7F4F8F4F9F4FAF4FA3
:104D4000B1E03ED0B4E03CD0670F781F891F9A1FB6
:104D5000A11D680F791F8A1F911DA11D6A0F711D6A
:104D6000811D911DA11D20D009F468943F912AE076
:104D7000269F11243019305D3193DEF6CF0108955E
:104D8000462F4770405D4193B3E00FD0C9F7F6CF8F
:104D9000462F4F70405D4A3318F0495D31FD405257
:104DA000419302D0A9F7EACFB4E0A69597958795ED
:104DB00077956795BA95C9F70097610571050895CC
:104DC0009B01AC010A2E0694579547953795279578
:104DD000BA95C9F7620F731F841F951FA01D089510
:104DE000F999FECF92BD81BDF89A992780B50895B3
:104DF000262FF999FECF1FBA92BD81BD20BD0FB6F7
:104E0000F894FA9AF99A0FBE019608950F931F939A
:104E1000CF93DF93869F8001879F100D969F100D83
:104E20001124C8010E942227EC01009729F0A80153
:104E300060E070E00E944F28CE01DF91CF911F917A
:104E40000F910895CF93DF938230910510F482E0A3
:104E500090E0E0918205F091830520E030E0C0E031
:104E6000D0E0309711F14081518148175907C0F0C7
:104E70004817590761F482819381209719F09B8329
:104E80008A832BC0909383058093820526C02115C9
:104E9000310519F04217530718F49A01BE01DF01DA
:104EA000EF010280F381E02DDCCF2115310509F1FE
:104EB000281B390B2430310590F412968D919C916A
:104EC00013976115710521F0FB019383828304C060
:104ED0009093830580938205FD01329644C0FD01C5
:104EE000E20FF31F81939193225031092D933C934C
:104EF0003AC02091800530918105232B41F4209107
:104F00001202309113023093810520938005209185
:104F10001002309111022115310541F42DB73EB731
:104F20004091140250911502241B350BE09180052D
:104F3000F0918105E217F307A0F42E1B3F0B281711
:104F4000390778F0AC014E5F5F4F2417350748F002
:104F50004E0F5F1F5093810540938005819391937D
:104F600002C0E0E0F0E0CF01DF91CF9108950F9310
:104F70001F93CF93DF93009709F48CC0FC01329705
:104F8000138212820091820510918305011511058B
:104F900081F420813181820F931F2091800530910F
:104FA00081052817390779F5F0938105E09380058D
:104FB00071C0D80140E050E0AE17BF0750F4129620
:104FC0002D913C911397AD012115310509F1D901BE
:104FD000F3CF9D01DA013383228360817181860FD3
:104FE000971F8217930769F4EC0128813981260FF6
:104FF000371F2E5F3F4F318320838A819B819383AC
:105000008283452B29F4F0938305E093820542C007
:105010001396FC93EE931297ED01499159919E01DD
:10502000240F351FE217F30771F480819181840FFB
:10503000951F029611969C938E938281938113966D
:105040009C938E931297E0E0F0E0D80112968D9138
:105050009C911397009719F0F8018C01F6CF8D9170
:105060009C9198012E5F3F4F820F931F20918005E6
:10507000309181052817390769F4309729F4109287
:1050800083051092820502C013821282109381055B
:1050900000938005DF91CF911F910F910895DC015E
:1050A00001C06D9341505040E0F70895F894FFCF50
:1050B0004315A6D93D3182F18CA74FC5999704AC11
:1050C0000000840520003D352D251D150D053D35BD
:1050D0002D251D150D052E261E160E06FFFF0C0490
:1050E0003C342C241C140C043B332B231B130B3B90
:1050F000332B231B130B03FFFFFFFFFFFFFFFF39C2
:105100003129211911090119110901FFFFFFFFFFC1
:10511000FFFFFFFFFFFFFF4D79206E6F6465277370
:1051200020616464726573732069732025640D0ABD
:10513000005461736B31205049443D25640D0A00D1
:105140005461736B3120006368616E3A25643D25BC
:105150006420005374617274696E672075702E2E1E
:105160002E0D0072665F72785F7061636B65745FAD
:105170006E6F6E626C6F636B206661696C65645DF7
:105180000D005061636B657420697320646F6E65F8
:1051900020626F756E63696E672061726F756E64F1
:1051A000210D0A005345513A2534750954544C3A9F
:1051B00025326409525353493A25346409506179C0
:1051C0006C6F61643A205B25735D0D0A00525820B4
:1051D000656E64206661696C656420636865636BF5
:1051E00073756D210D002564006375723A20256486
:1051F000200063616E617279203D20257820007364
:10520000746B203D20257820007463622061646403
:1052100072203D2025780D0A0025643A20626F74C3
:0A522000746F6D203D2025782000FA
:00000001FF
