:100000000C9428020C9460280C9492280C94C42818
:100010000C9447020C9447020C9447020C9447023C
:100020000C9447020C942E280C9447020C9447021F
:100030000C9447020C948D260C9447020C948D2648
:100040000C9447020C9447020C9447020C9447020C
:100050000C9447020C9447020C9447020C944702FC
:100060000C9447020C9447020C9447020C944702EC
:100070000C9447020C9447020C9447020C944702DC
:100080000C94C0260C9447020C9447020C9447022F
:100090000C9447020C9447020C9447020C944702BC
:1000A0000C9447020C9447020C9447020C944702AC
:1000B0000C9447020C9447020C9447020C9447029C
:1000C0000C9447020C9447020C9447020C9447028C
:1000D0000C9447020C9447020C9447020C9447027C
:1000E0000C9447020C943A0D0C942B0D0C94FB0CC1
:1000F0000C94FA0D0C94EC0C0C94DD0C0C94CB0CC1
:100100000C94BC0C0C9447020C9447020C944702CC
:100110000C9447020C9447020C9447020C9447023B
:100120006E0F790F840F8F0F9A0FA50FB00FCF0F9F
:10013000DB0FE70FF30FFF0F0B100B1029102B1025
:100140002D102F10311033103510531073109310E1
:10015000B310D310F31013114911551161116D1122
:10016000791185119111A911B411BF11CA11D511BD
:10017000E011EB114A1550155315561559155C151C
:1001800062155F15651568156B15741577157A1569
:100190007D15711547154D15801583156E15441580
:1001A00019161C1627162C1633163C163F16441625
:1001B0004B1654164661696C656420746F206C6F31
:1001C0006164206D792041444320647269766572D0
:1001D0000D0A004661696C656420746F206F70655C
:1001E0006E2073656E736F72206472697665720D2E
:1001F0000A00554E4B4F574E0045787465726E613C
:100200006C2052657365740042726F776E204F7573
:100210007420446574656374004661696C6564208C
:10022000746F206372656174652053656D617068D9
:100230006F7265004661696C656420746F2063723B
:1002400065617465205369676E616C004B65726E01
:10025000656C2066756E6374696F6E206E6F7420B6
:10026000696D706C656D656E746564004465766972
:10027000636520447269766572204572726F720000
:100280005761746368646F67205265737461727438
:10029000005357205761746368646F672052657319
:1002A000746172740054696D6572204F7665726670
:1002B0006C6F7700556E68616E646C656420496E82
:1002C0007465727275707420566563746F72004C39
:1002D0006F7720566F6C7461676500457874726142
:1002E000205461736B20737461727465642C20698F
:1002F00073206E726B5F6366672E68206F6B3F00C2
:1003000049646C65206F72204B65726E656C20537A
:100310007461636B204F766572666C6F7700556E03
:100320006578706563746564205265737461727476
:10033000004475706C696361746564205461736B0B
:10034000204944005363686564756C6572204D698B
:10035000737365642057616B657570005461736BCE
:1003600020526573657276652056696F6C6174659D
:10037000640052657365727665204572726F7220F3
:10038000696E205363686564756C657200496E76AA
:10039000616C696420537461636B20506F696E7483
:1003A0006572005461736B20537461636B204F76E8
:1003B0006572666C6F7700537461636B207761734D
:1003C000206E6F7420646566696E656420617320B9
:1003D0006C6172676520656E6F7567682100546196
:1003E000736B20706572696F6420746F6F206C612D
:1003F0007267652E20506572696F64206D75737425
:10040000206265206C657373207468616E203631DC
:10041000207365636F6E64732E00293A20002A4EA4
:10042000524B204552524F5228000D0A535441431B
:100430004B2044554D500D0A004546476566670000
:10044000202B2D2E30313233343536373839680091
:1004500011241FBECFEFD1E4DEBFCDBF13E0A0E07B
:10046000B2E0E6EFFDE500E00BBF02C007900D92A1
:10047000AE39B107D9F716E0AEE9B3E001C01D927D
:10048000AC30B107E1F70E94EB290C94F92E0C94E3
:100490008326CF93DF93CDB7DEB72A970FB6F894B4
:1004A000DEBF0FBECDBF1F921F9287E592E09F93E4
:1004B0008F930E94C72C65E083E00E945624F82E9B
:1004C0000F900F900F900F908FEFF81204C083EDF4
:1004D00091E00E943B0F01E712E08AE0B82E96E11E
:1004E000C92E29E1D22E38E0E32E41E061E08F2DC4
:1004F0000E94F72442E0BE016F5F7F4F8F2D0E9464
:10050000DA2440E061E08F2D0E94F72442E0BE0132
:100510006D5F7F4F8F2D0E94DA2444E061E08F2DC4
:100520000E94F72442E0BE016B5F7F4F8F2D0E9437
:10053000DA2445E061E08F2D0E94F72442E0BE01FD
:10054000695F7F4F8F2D0E94DA2446E061E08F2D96
:100550000E94F72442E0BE01675F7F4F8F2D0E940B
:10056000DA248A858F9389858F9388858F938F81ED
:100570008F938E818F938D818F938C818F938B81BD
:100580008F938A818F9389818F931F921F921F93DC
:100590000F930E94C72C8A858F9389858F938885B6
:1005A0008F938F818F938E818F938D818F938C8189
:1005B0008F938B818F938A818F9389818F931F92E1
:1005C000BF921F930F930E94C72C8A858F938985B2
:1005D0008F9388858F938F818F938E818F938D8159
:1005E0008F938C818F938B818F938A818F93898155
:1005F0008F931F92CF921F930F930E94C72C0FB619
:10060000F894DEBF0FBECDBF8A858F9389858F9307
:1006100088858F938F818F938E818F938D818F9318
:100620008C818F938B818F938A818F9389818F9314
:100630001F92DF921F930F930E94C72C8A858F937E
:1006400089858F9388858F938F818F938E818F93E8
:100650008D818F938C818F938B818F938A818F93E0
:1006600089818F931F92EF921F930F930E94C72C43
:100670000E943E1C0FB6F894DEBF0FBECDBF35CF33
:1006800089E492E09093AC038093AB0340E850E0A0
:100690006DEC73E086EA93E00E94382981E0809354
:1006A000AE038093AD038093AF038093B0031092A9
:1006B000B1031092B2031092B3031092B40380E01E
:1006C00094E9A5E3B7E78093B5039093B603A093AD
:1006D000B703B093B8031092B9031092BA03109203
:1006E000BB031092BC0380E092ECABEEBBE08093C6
:1006F000BD039093BE03A093BF03B093C0031092B9
:10070000C1031092C2031092C3031092C40310924B
:10071000C5031092C6031092C7031092C80386EA5D
:1007200093E00C94AC1B63E087E098E00E943E24C9
:100730008F3F21F484EB91E00C943B0F089580915E
:10074000FC04813011F48FEF089581E08093FC0464
:1007500060FF18C0809124020E945C0F1092010576
:1007600080917C00807E80937C0090917C008091C1
:100770007C00807E892B80937C0088EE93E00E9431
:10078000312505C0862F8670F1F66770E1F281E0B1
:100790000895809124020E94BD0F1092FC040E94D3
:1007A0004208EAE7F0E080818F77808381E0089556
:1007B000613019F48091010508958FEF089561303B
:1007C00069F52C3069F42093010580917C00807ECE
:1007D00080937C0080917C0090917C00836014C0A9
:1007E0002E3020F081E00E94FA1418C020930105F9
:1007F00080917C00807E80937C0080917C00909131
:100800007C0020910105822B907E892B80937C00B7
:1008100088EC90E00E94312581E008958FEF0895E3
:10082000CF93DF93CDB7DEB766970FB6F894DEBFF0
:100830000FBECDBFAE014F5F5F4F66E170E08AEA49
:1008400090E00E944C08FE01329662ED74E09E0139
:10085000285E3F4FCF010197DC018C9190E0982FEB
:1008600088274081842BDB018D939D93BD013296B7
:10087000E217F30779F766960FB6F894DEBF0FBE5E
:10088000CDBFDF91CF910895EAE7F0E083E0808368
:1008900080818068808310920105ACE7B0E08C9184
:1008A000807E8C939C918C91807E892B8C9380810F
:1008B0008F7780830895CF93C091240261E08C2FBD
:1008C0000E9435118C2F0E945C0FC0910F0260E0D6
:1008D0008C2F0E9435118C2F0E94BD0FC0912502D4
:1008E00060E08C2F0E9435118C2F0E94BD0F80E09C
:1008F0000E9447120E9444040E9432088EEE0E9419
:100900002F080E9410041092FC0481E0CF910895FA
:1009100088EC90E00C94312580917A00806480937B
:100920007A0080917A0084FFFCCF0E948804809135
:1009300078002091790090E0922B08954F925F9279
:100940006F927F928F929F92AF92BF92CF92DF92DF
:10095000EF92FF921F93CF93DF9300D000D0CDB7DB
:10096000DEB7182F8090F8049090F904A090FA0454
:10097000B090FB0480EA881A8FE0980AA108B108B9
:100980008092E8049092E904A092EA04B092EB0409
:10099000A5019401C501B4010E94682B20E030E15B
:1009A00040E050E00E949A2B29833A834B835C837A
:1009B000C090D204D090D304EE24D7FCE094FE2C57
:1009C000F2E0CC0CDD1CEE1CFF1CFA95D1F7A091D7
:1009D000E004B091E1040E94602B20E038E040E0A8
:1009E00050E00E949A2B29013A01A091D404B091C1
:1009F000D504A50194010E94602B20E038E040E07E
:100A000050E00E949A2B420E531E641E751EC40CA9
:100A1000D51CE61CF71C012E04C0CC0CDD1CEE1C02
:100A2000FF1C0A94D2F7E2E0CE0ED11CE11CF11CAF
:100A3000A4E04A2E512C612C712CC701B601A301F0
:100A400092010E949A2B69017A0120931705309335
:100A500018054093190550931A05A091D604B0913A
:100A6000D704A50194010E94602B20E030E240E011
:100A700050E00E949A2B49015A01A091DE04B091E6
:100A8000DF0429813A814B815C810E94602B20E048
:100A900030E041E050E00E949A2B820E931EA41E8B
:100AA000B51EF2E08F0E911CA11CB11CC501B40152
:100AB000A30192010E949A2B209302053093030513
:100AC0004093040550930505A091D804B091D90432
:100AD00030584F4F5F4F0E94552B20E030E840E0E8
:100AE00050E00E949A2B49015A0120930605309349
:100AF0000705409308055093090520910F05309193
:100B0000100540911105509112052C193D094E090F
:100B10005F0960E573EC80E090E004C095958795EF
:100B2000779567951A95D2F70E94682B60930B050D
:100B300070930C0580930D0590930E0597FD09C0E9
:100B4000660F771F881F991FA50194010E94782BBB
:100B500008C0A50194010E94782B220F331F441F67
:100B6000551F20931305309314054093150550939A
:100B70001605C0901305D0901405E0901505F0906F
:100B80001605C701B60120E031E040E050E00E94C8
:100B90009A2BCA01B9010E94682B9B01AC01AEEDF2
:100BA000BBE00E94552B412C512C32016394A301D0
:100BB00092010E949A2B49015A012093FD0430931F
:100BC000FE044093FF0450930005A3E4B3EEA70195
:100BD00096010E94632BA30192010E949A2B2093FD
:100BE000F0043093F1044093F2045093F304C501F0
:100BF000B401620F731F841F951F6153714F8F4F94
:100C00009F4F20E130E040E050E00E949A2B2C0DF5
:100C10003D1D4E1D5F1D2093130530931405409319
:100C2000150550931605CA01B9010F900F900F904A
:100C30000F90DF91CF911F91FF90EF90DF90CF90B9
:100C4000BF90AF909F908F907F906F905F904F90EC
:100C50000895CF92DF92EF92FF928091DC04909101
:100C6000DD042091EC043091ED044091EE045091AC
:100C7000EF04281B390B41095109A091DA04B09106
:100C8000DB040E94552B20E030E840E050E00E9459
:100C90009A2B69017A012093FD043093FE0440935E
:100CA000FF04509300056091E4047091E5048827E7
:100CB00077FD8095982FBBE0660F771F881F991FDF
:100CC000BA95D1F72091E6043091E704442737FD27
:100CD0004095542F2C0D3D1D4E1D5F1D0E949A2BDB
:100CE0002093F0043093F1044093F2045093F30402
:100CF000C20ED31EE41EF51EC092F804D092F90471
:100D0000E092FA04F092FB04C701B601685F7F4FDE
:100D10008F4F9F4F20E130E040E050E00E949A2B3F
:100D20002093F4043093F5044093F6045093F704B1
:100D3000CA01B901FF90EF90DF90CF900895CF9353
:100D4000DF9300D01F92CDB7DEB78EE28B83AE016A
:100D50004D5F5F4F61E070E084EF90E00E946509B5
:100D600084E991E10E943125AE014F5F5F4F62E05F
:100D700070E086EF90E00E944C08898190E0982F07
:100D800088272A81822BA0E0B0E08093EC04909326
:100D9000ED04A093EE04B093EF040F900F900F902A
:100DA000DF91CF9108950E949F060C9429061F930E
:100DB000CF93DF9300D000D0CDB7DEB7182F982F98
:100DC0009295990F990F907C9C5C9C83AE014C5F2F
:100DD0005F4F61E070E084EF90E00E94650984E974
:100DE00091E10E943125AE014F5F5F4F63E070E0FB
:100DF00086EF90E00E944C088A81498150E060E0D3
:100E000070E0BA0155274427582B8B81480F511D9C
:100E1000611D711D28E030E0211B310904C075956A
:100E20006795579547952A95D2F740930F055093AC
:100E3000100560931105709312050F900F900F909D
:100E40000F90DF91CF911F910895CF93C82F0E94EB
:100E5000D7068C2FCF910C949E04AF92BF92CF9265
:100E6000DF92EF92FF920F931F93CF93DF931F9226
:100E7000CDB7DEB75A0180917A00806880937A00FE
:100E80008FEF820F823018F0243009F0B3C08091C8
:100E90000105883090F429830E948C042981223036
:100EA00021F4F5018083918321C0213009F065C0D0
:100EB000969587959695879521C08D3011F510915F
:100EC000250261E0812F29830E943511812F0E9424
:100ED000BD0F60E0812F0E9435112981223041F43D
:100EE000812F0E941910F5018083118281E07BC05F
:100EF000213009F042C0812F0E941910F501808332
:100F00003CC08C30E1F5C12CDD24D394E12CF12CD4
:100F100001E014E080917A00806480937A008091EF
:100F20007A0084FFFCCF80E290E029830E94312583
:100F3000809178003091790090E0932B298180177F
:100F4000910708F48C01E816F90608F47C01F1E039
:100F5000CF1AD108C114D104E9F6E01AF10A2230FF
:100F600021F4F501E082F182C1CF213031F4F69411
:100F7000E794F694E794F501E08280E034C08B308A
:100F8000E1F410920A057A99FECF7A9BFECF809108
:100F90000A058F5F80930A057A99F9CFF50180835E
:100FA00080910A0590E01182330F220B322F2283A9
:100FB000990F880B982F8383E0CF97EF980F92308B
:100FC000E0F62430B9F48A3019F40E94D30605C043
:100FD0000E94D30680E00E942507F501608371839B
:100FE0008283938383E090917A009F7790937A0035
:100FF0008F5F01C080E00F90DF91CF911F910F9123
:10100000FF90EF90DF90CF90BF90AF900895823027
:1010100099F038F4882369F08130C9F481E00C94A8
:101020009F03843089F058F0853089F485E00C9472
:101030002D0780E00C945B0482E00C94C9036130BE
:1010400061F480910105089584E00C94DF0360E071
:101050008CE00E94A91580E008958FEF0895809399
:101060001C05089582E08093B8001092B900E4E670
:10107000F0E080818F778083ECEBF0E0808184600A
:1010800080830895E4E6F0E080818083ECEBF0E07B
:1010900080818B7F808308959770990F20911C0524
:1010A000922B35E6F4EAA4EAE4E8B92FB1603150B6
:1010B00009F48DC0A093BC002091BC0027FFFCCF99
:1010C0002091B900287F20931B05203129F0283377
:1010D00089F3283009F07BC09093BB00E093BC00FB
:1010E0002091BC0027FFFCCF2091B900287F2093DE
:1010F0001B052032E1F22833E9F2283109F060C003
:101100008093BB00E093BC002091BC0027FFFCCF84
:101110002091B900287F20931B05203359F12833F3
:1011200049F2283209F04CC0F093BC002091BC0079
:1011300027FFFCCF2091B900287F20931B05203189
:1011400029F0283309F4B6CF2830D1F5B093BB008D
:10115000E093BC002091BC0027FFFCCF2091B90098
:10116000287F20931B05203441F0283419F02833C0
:1011700039F5A0CF20E030E025C0FA0194EC9F01C2
:10118000241B350B16161706ECF46130710509F4B3
:1011900094E89093BC008091BC0087FFFCCF8091C5
:1011A000B900887F80931B05803521F0883541F494
:1011B00060E070E08091BB00819361507109DFCFE6
:1011C0002FEF3FEF84E98093BC00C90108958FEFB2
:1011D0009FEF0895680F791F9C01276062177307BE
:1011E00018F0B9016F5F7F4F392F3770330F20919F
:1011F0001C05322BE5E6A4EAF4E8E15009F462C0EC
:10120000A093BC002091BC0027FFFCCF2091B90027
:10121000287F20931B05203129F0283389F32830BB
:1012200009F050C03093BB00F093BC002091BC008B
:1012300027FFFCCF2091B900287F20931B05203287
:10124000E1F22833E9F22831B1F58093BB00F09345
:10125000BC002091BC0027FFFCCF2091B900287F63
:1012600020931B05203359F0283351F2283219F509
:10127000681B790BFA0120E030E044E810C020E060
:1012800030E01BC08091BC0087FFFCCF8091B9008B
:10129000887F80931B05883271F42F5F3F4FCB010D
:1012A000821B930B1816190644F481918093BB009E
:1012B0004093BC00E7CF2FEF3FEF84E98093BC0061
:1012C000C90108958FEF9FEF0895CF92DF92EF92BB
:1012D000FF920F931F93CF93DF936C018B017A01E1
:1012E000C0E0D0E0A701B801C6010E94EA088F3F24
:1012F0002FEF920769F0C80ED91E081B190BE80ED4
:10130000F91EC80FD91F1016110664F3CE0102C0D2
:101310008FEF9FEFDF91CF911F910F91FF90EF9093
:10132000DF90CF90089580911B051F928F9380ECE2
:1013300092E09F938F930E94C72C0F900F900F9075
:101340000F900895909141019F719F31D9F380933F
:101350004201089581E080932305089510922305AA
:101360000895809141018F718F31D9F380914101AE
:101370008F71E1F08F30D1F0809141018F71883011
:1013800031F4809139018260809339010BC088E08B
:101390000E94A209809141018F718830D9F7F1CF65
:1013A0008F3021F0809141018F71D1F708958091A4
:1013B00041018F718F31D9F3809141018F7111F00B
:1013C0008F3051F4809139018D7F80933901809164
:1013D00041018F718830D9F70895E5E4F1E09081FB
:1013E000907F908390818F70892B80830895E7E5AB
:1013F000F1E080818D7F80830895E7E5F1E08081D1
:10140000826080830895EEE6F1E080818F7E8083A4
:101410000895EEE6F1E080818061808308958093F5
:1014200060019093610190932D0580932C050895A0
:101430009093270580932605E8E4F1E08081807E83
:1014400080838081682B608308959093A1038093AB
:10145000A003089590939F0380939E0308951F9384
:10146000CF93DF9370E27093440170EC7093450169
:1014700060626093480165EC6093490167EA60939C
:101480004B0160E860934C0120936001309361014F
:101490004093620150936301E6E4F1E0C081A081D2
:1014A00060811081C295C695C77070E4C79FE00146
:1014B00011241295169513701C2BA295A695A37056
:1014C00070E1A79FD00111241A2B62956695637075
:1014D000A4E06A9FB0011124162B10936D01608166
:1014E0007081729576957370706462956670672BE3
:1014F00060936E0110926C016FEF60934E019093B8
:1015000027058093260510922805109229055093EF
:101510002B0540932A0530932D0520932C0510921E
:101520002E0581E0809348051092670510923705DB
:1015300010922305DF91CF911F91089586E10C94BD
:10154000A20986E10C94A20988E00E94A2091092E7
:10155000670508953F924F925F926F927F928F92AC
:101560009F92AF92BF92CF92DF92EF92FF920F9332
:101570001F93CF93DF93EC013B01809148058111CC
:1015800002C08FEF0FC19E81809128058F5F8093ED
:10159000280580918101807E816090FB85F98F73A1
:1015A00080648093810188E8809382018091230583
:1015B000882361F08FEF809383018AEA9AEA9093FF
:1015C0008901809388018FEF9FEF10C080912805DB
:1015D00080938301209161018091600190E0922BC2
:1015E00090938901809388018881998190938701E4
:1015F00080938601209163018091620190E0922B9B
:1016000090938501809384014A81552747FD509529
:101610006B817C818AE891E00E94412C8A81855F00
:101620008093800180914101982F9F71392E8F7096
:101630009FEF980F9230B0F39FE1391699F398EF2E
:10164000930D923018F0863009F09BCF86E10E940E
:10165000A2098D8181110AC089E00E94A2098E81B0
:10166000882391F089E10E94A2090EC0809148016F
:101670008068809348018091410187FFFCCF809171
:10168000410186FF7ECFE8CF6114710499F18FE2AA
:1016900095E00E94F11D80912F0590913005A09159
:1016A0003105B09132058093490590934A05A09386
:1016B0004B05B0934C05D30120E432E44FE050E0F9
:1016C0000E94552B0091330510913405209135056A
:1016D00030913605600F711F821F931F60934D0577
:1016E00070934E0580934F059093500589E495E0E3
:1016F0000E94DB1E1092370582E00E94A209412C55
:10170000512C80913705811108C08FEF481A580A73
:1017100098EE49169DEF5906A1F76114710421F462
:101720008E8181112DC034C08FE295E00E94F11DA1
:1017300080902F0590903005A0903105B090320533
:10174000C0903305D0903405E0903505F090360513
:101750000091490510914A0520914B0530914C05A7
:1017600040914D0550914E0560914F057091500587
:1017700088E695E00E944D1E8F3F09F0BBCFD0CF89
:101780008091420182958695877011F0CFEF06C057
:1017900088EE48168DEF5806C9F3C1E0832D0E94EC
:1017A000A2098C2FDF91CF911F910F91FF90EF90A5
:1017B000DF90CF90BF90AF909F908F907F906F9071
:1017C0005F904F903F90089560E070E00C94AA0AFB
:1017D000CF93DF9380914805882321F180914101C7
:1017E000C82FCF718F709FEF980F9230B8F3CF3121
:1017F000A9F3C83011F08630A9F486E10E94A2094D
:10180000809148018068809348018091410187FF61
:10181000FCCFD09141018C2F0E94A209D6FB8827D2
:1018200080F901C08FEFDF91CF9108958091480535
:10183000882309F49FC080916705882309F498C024
:1018400080917B01E0912605F091270590E00297B9
:101850002481332727FD3095281739070CF48AC0D7
:10186000E0912605F0912705809182018083E09127
:101870002605F09127058091870190918801928338
:101880008183E0912605F091270580917B018B50A3
:101890008383A0912605B0912705E0912605F0915C
:1018A000270513969C91848189173CF0E0912605C9
:1018B000F0912705838187FF0DC010926705809105
:1018C0004C018F7780934C0180914C01806880930C
:1018D0004C0150C0A0912605B0912705E091260546
:1018E000F091270513964C91552747FD509569E8CF
:1018F00071E0858196810E94412CE0912605F0914E
:1019000027058091800185FB882780F98783E091F6
:101910002605F0912705809147018087E0912605F3
:10192000F091270580914601869586958695818759
:10193000E0912605F0912705809147018287E0918B
:101940002605F0912705A0917B01B0E0A058BE4F7D
:101950008C9183871092670580914C018F778093DB
:101960004C0180914C01806880934C0181E0089586
:1019700080E008958FEF08951F920F920FB60F9297
:1019800011248F9380E880934F018F910F900FBEA9
:101990000F901F9018951F920F920FB60F9211245F
:1019A0008F9381E08093370580E480934F018F917E
:1019B0000F900FBE0F901F9018951F920F920FB6A9
:1019C0000F9211248F9380E280934F018F910F909B
:1019D0000FBE0F901F9018951F920F920FB60F9287
:1019E00011248F9380E180934F018F910F900FBE50
:1019F0000F901F9018951F920F920FB60F921124FF
:101A00000BB60F922F933F934F935F936F937F93F8
:101A10008F939F93AF93BF93EF93FF9384E0809353
:101A20004F01E091A003F091A103309709F00995CF
:101A3000FF91EF91BF91AF919F918F917F916F91A6
:101A40005F914F913F912F910F900BBE0F900FBE62
:101A50000F901F9018951F920F920FB60F9211249E
:101A60008F9382E080934F018F910F900FBE0F9064
:101A70001F9018951F920F920FB60F9211248F93FB
:101A800081E080934F018F910F900FBE0F901F90B8
:101A90001895E9E4F1E09081907F908390818F70B8
:101AA000892B808308958FEF0895089508950895F0
:101AB0008FEF08958091210590912205089580E08F
:101AC0000895089581E0089581E0089581E00895E2
:101AD000089508950895089508950895089508951E
:101AE000E7E3F1E0808183608083989AA09A8DB1CA
:101AF000806E8DB98EB1806E8EB90895E7E3F1E006
:101B0000808183608083989AA0988DB1806E8DB912
:101B10008EB1806E8EB90895CF92DF92EF92FF92D0
:101B20000F931F93CF93DF93CDB7DEB727970FB6F1
:101B3000F894DEBF0FBECDBF0E944713E09126058B
:101B4000F0912705C080D38005811681E0840E9432
:101B5000160C18161CF087ED92E006C0F801F08014
:101B6000F11007C086EF92E00E94DF2C0E9449131B
:101B700032C0F5E0FF1204C08AE090E00E94D92C48
:101B8000C80101969F938F938E2D992787FD90957D
:101B90009F93EF921F92FF921F92CF9288E193E062
:101BA0009F938F930E94C72C1D830C83FA94F80196
:101BB000F082DB821E821F828FEF9FEF9A838983E0
:101BC0000E944913CE0101960E94E40B0FB6F894CF
:101BD000DEBF0FBECDBF27960FB6F894DEBF0FBE97
:101BE000CDBFDF91CF911F910F91FF90EF90DF90CC
:101BF000CF9008951F920F920FB60F9211240BB63B
:101C00000F922F933F934F935F936F937F938F9395
:101C10009F93AF93BF93EF93FF9380E090917B01ED
:101C2000891710F48F5FFACF8091460187FF04C0B7
:101C300081E08093670504C081E493E00E94DF2C7B
:101C400088E080934F018091460187FF05C0809115
:101C5000230581110E948C0DE0919E03F0919F035A
:101C6000309709F00995FF91EF91BF91AF919F9146
:101C70008F917F916F915F914F913F912F910F9035
:101C80000BBE0F900FBE0F901F901895E8E3F5E084
:101C9000DC018C9181938D9180933F0185E0E83444
:101CA000F807B9F780E110923E018150E1F780E832
:101CB00080933C0180913D0180FFFCCFE1E5F5E0A0
:101CC00080913F01819385E0E136F807C9F70895D7
:101CD000CF93662309F447C0262F2F7009F043C025
:101CE000E8E3F5E0219120933F0125E0E834F20795
:101CF000C9F7A0E070E0B0E220E1A29FA0011124AA
:101D00004617570774F5A11103C010923C0102C099
:101D1000B0933C0120E030E0480F591FFA01E20F78
:101D2000F31FE081E0933E012F5F3F4F20313105EB
:101D3000A9F720913C01206820933C0120913D01AE
:101D400020FFFCCF20E030E0C0913E01FA01E20F1D
:101D5000F31FC0832F5F3F4F20313105A9F7AF5FDD
:101D6000CBCF80E001C081E0CF9108950F931F9306
:101D7000CF93DF93613009F44FC0262F2F7009F005
:101D80004BC0E1E5F5E0219120933F0125E0E136EC
:101D9000F207C9F762956F70615008E06F3FD1F1AB
:101DA00000933C0120E16202A001112420E030E018
:101DB000FC01E40FF51FDF01A20FB31F7C917093AC
:101DC0003E012F5F3F4F20313105A9F720913C01A3
:101DD000206820933C0120913D0120FFFCCF405121
:101DE000510920E030E0480F591F10913E01DF01FA
:101DF000A20FB31F1C93662331F0EA01C20FD31F59
:101E0000788171277C932F5F3F4F2031310569F72F
:101E10006150C4CF80E001C081E0DF91CF911F917C
:101E20000F9108958091C00087FFFCCF8091C00082
:101E30008F778093C0008091C60008959091C00074
:101E400095FFFCCF9091C0009F7D9093C000809340
:101E5000C60008958FEF0895813031F48091C80055
:101E600087FD07C080E008958111FCCF8091C000FC
:101E7000F7CF81E00895CF93DF93FC012491EC012B
:101E80002196222351F06091040670910506822F5D
:101E900090E00E94952CCE01F0CFDF91CF91089574
:101EA00086E084B985B988EF8AB980EF8BB982E082
:101EB0008DB908950C94500F8F3F09F45CC0482FE2
:101EC000477050E04730510508F055C0FA01E0571F
:101ED000FF4F8695869586950C94182C92B121E03B
:101EE00030E0082E01C0220F0A94EAF7922B92B933
:101EF00040C095B121E030E0082E01C0220F0A94C5
:101F0000EAF7922B95B935C098B121E030E0082E60
:101F100001C0220F0A94EAF7922B98B92AC09BB10C
:101F200021E030E0082E01C0220F0A94EAF7922B3C
:101F30009BB91FC09EB121E030E0082E01C0220FE6
:101F40000A94EAF7922B9EB914C091B321E030E0D5
:101F5000082E01C0220F0A94EAF7922B91BB09C008
:101F600094B321E030E001C0220F8A95EAF7922B6A
:101F700094BB81E008958FEF08958F3F09F457C017
:101F8000482F477050E04730510508F050C0FA0123
:101F9000E956FF4F8695869586950C94182C92B13C
:101FA00021E030E0082E01C0220F0A94EAF72095C4
:101FB000292322B93AC095B121E030E0082E01C0B2
:101FC000220F0A94EAF72095292325B92EC098B14B
:101FD00021E030E0082E01C0220F0A94EAF7209594
:101FE000292328B922C09BB121E030E0082E01C08E
:101FF000220F0A94EAF7209529232BB916C09EB127
:1020000021E030E0082E01C0220F0A94EAF7209563
:1020100029232EB90AC091B321E030E001C0220F7C
:102020008A95EAF72095292321BB81E008958FEF57
:1020300008958F3F21F1482F477050E047305105F8
:10204000F0F4FA01E256FF4F8695869586950C943A
:10205000182C20B10BC023B109C026B107C029B18B
:1020600005C02CB103C02FB101C022B330E002C0C3
:10207000359527958A95E2F7822F817008958FEF25
:1020800008958F3F09F4EFC0482F477050E0473064
:10209000510508F0E8C0FA01EB55FF4F869586958B
:1020A00086950C94182C20B130E0082E02C035958E
:1020B00027950A94E2F792B120FD0AC021E030E0B2
:1020C000082E01C0220F0A94EAF7922B92B91EC083
:1020D00021E030E0082E01C0220F0A94EAF7209593
:1020E000292322B913C023B130E0082E02C0359550
:1020F00027950A94E2F795B120FD0AC021E030E06F
:1021000001C0220F8A95EAF7922B95B981E00895D4
:1021100021E030E0082E01C0220F0A94EAF7209552
:10212000292325B9F3CF26B130E0082E02C035951A
:1021300027950A94E2F798B120FD0AC021E030E02B
:10214000082E01C0220F0A94EAF7922B98B9DECF2D
:1021500021E030E0082E01C0220F0A94EAF7209512
:10216000292328B9D3CF29B130E0082E02C03595F4
:1021700027950A94E2F79BB120FD0AC021E030E0E8
:10218000082E01C0220F0A94EAF7922B9BB9BECF0A
:1021900021E030E0082E01C0220F0A94EAF72095D2
:1021A00029232BB9B3CF2CB130E0082E02C03595CE
:1021B00027950A94E2F79EB120FD0AC021E030E0A5
:1021C000082E01C0220F0A94EAF7922B9EB99ECFE7
:1021D00021E030E0082E01C0220F0A94EAF7209592
:1021E00029232EB993CF2FB130E0082E02C03595A8
:1021F00027950A94E2F791B320FD0AC021E030E070
:10220000082E01C0220F0A94EAF7922B91BB7ECFD1
:1022100021E030E0082E01C0220F0A94EAF7209551
:10222000292321BB73CF22B330E0082E02C035959D
:1022300027950A94E2F794B320FD0AC021E030E02C
:10224000082E01C0220F0A94EAF7922B94BB5ECFAE
:1022500021E030E0082E01C0220F0A94EAF7209511
:10226000292324BB53CF8FEF08958F3F09F4BEC0BD
:10227000482F477050E0611160C04730510508F0A9
:10228000B5C0FA01E455FF4F8695869586950C9466
:10229000182C91B121E030E0082E01C0220F0A94E1
:1022A000EAF72095292321B99FC094B121E030E0BD
:1022B000082E01C0220F0A94EAF72095292324B999
:1022C00093C097B121E030E0082E01C0220F0A949C
:1022D000EAF72095292327B987C09AB121E030E099
:1022E000082E01C0220F0A94EAF7209529232AB963
:1022F0007BC09DB121E030E0082E01C0220F0A947E
:10230000EAF7209529232DB96FC090B321E030E082
:10231000082E01C0220F0A94EAF72095292320BB3A
:1023200063C093B321E030E0082E01C0220F0A946D
:10233000EAF72095292323BB57C04730510508F001
:1023400055C0FA01ED54FF4F8695869586950C94FD
:10235000182C91B121E030E0082E01C0220F0A9420
:10236000EAF7922B91B940C094B121E030E0082EF9
:1023700001C0220F0A94EAF7922B94B935C097B1A5
:1023800021E030E0082E01C0220F0A94EAF7922BD8
:1023900097B92AC09AB121E030E0082E01C0220F7F
:1023A0000A94EAF7922B9AB91FC09DB121E030E060
:1023B000082E01C0220F0A94EAF7922B9DB914C08F
:1023C00090B321E030E0082E01C0220F0A94EAF712
:1023D000922B90BB09C093B321E030E001C0220FE3
:1023E0008A95EAF7922B93BB81E008958FEF0895C9
:1023F000811106C080B18695817091E0892708958A
:102400008FEF0895009711F483E20DC0813091059C
:1024100011F48BE208C08230910511F483E303C00C
:10242000039729F48BE30E94411081E008958FEF18
:102430000895009711F483E20DC08130910511F4E5
:102440008BE208C08230910511F483E303C0039747
:1024500029F48BE30E945C0F81E008958FEF0895CB
:10246000009711F483E20DC08130910511F48BE2E5
:1024700008C08230910511F483E303C0039729F467
:102480008BE30E94BD0F81E008958FEF08958823AC
:1024900019F085B78F7E02C085B7806185BF81E066
:1024A00008959091C80095FFFCCF8093CE000895C9
:1024B0009093C5008093C40086E08093C200E1EC55
:1024C000F0E080818B7F8083A0ECB0E08C91826013
:1024D0008C9380818861808308959093CD00809350
:1024E000CC0086E08093CA00E9ECF0E080818B7F2D
:1024F0008083A8ECB0E08C9182608C9380818861AD
:10250000808308950E94581262E17FE08EE19FE08F
:102510000E944A2C909305068093040662E17FE0B6
:102520008EE19FE00E944A2C90930306809302065E
:1025300008958091C80087FFFCCF8091C8008F77F5
:102540008093C8008091CE00089500000000000034
:10255000000001970097C9F708950C94992D0E94E7
:10256000A12D0895EF92FF920F931F93CF93DF93C6
:10257000EC0180E090E00E94992DF82E8B8381E0A1
:1025800090E00E94992DE82E8A8382E090E00E94DC
:10259000992D082F898383E090E00E94992D182FB0
:1025A000888384E090E00E94992D9E2D9F0D900FCE
:1025B000910F891302C081E001C08FEFDF91CF91AD
:1025C0001F910F91FF90EF900895CF93DF93EC014F
:1025D00085E090E00E94992D888381E0DF91CF9182
:1025E0000895FC01608186E090E00E94A12D81E0C9
:1025F0000895CF93DF93EC0186E090E00E94992D3F
:10260000888381E0DF91CF9108950F931F93CF933B
:10261000DF938C01C8E0D0E0CE010E94992DF80133
:1026200081938F012196C831D105B1F781E0DF9107
:10263000CF911F910F9108950F931F93CF93DF9325
:102640008C01C8E0D0E0F80161918F01CE010E94B9
:10265000A12D2196C831D105B1F781E0DF91CF914D
:102660001F910F910895CF93DF93EC0187E090E0E5
:102670000E94992D888381E0DF91CF910895FC011C
:10268000608187E090E00E94A12D81E00895F89498
:102690000895789408950E944713FFCFCF93DF9356
:1026A000CDB7DEB7A3970FB6F894DEBF0FBECDBF90
:1026B0000E945B178093D1058F3F21F460E08EE08C
:1026C0000E94A9150E94FC2680FF04C060E086E0FD
:1026D0000E94A9151092D4051092E2051092E1050E
:1026E0001092D3051092D2051092E3051092E005E6
:1026F0008FEF8093CA058093CC058093CB058093A0
:10270000CD058093CF058093CE0593E690937C050D
:1027100080937A059093A7058093A50529EE35E06F
:102720003093E8052093E70584EE95E09093EB0560
:102730008093EA054EEE55E05093ED054093EC058D
:102740003093F0052093EF051092E6051092E50511
:102750001092F2051092F1051092D7051092D6054D
:10276000909371058093700562E171E2CE0101964C
:102770000E94342940E850E062E574E0CE01019601
:102780000E94382985E58093520419861C861D868F
:102790001E861F86188A198A1A8A1B8A1C8A1D8A15
:1027A0001E8A1F8A188E198E1A8E1B8E1C8E1D8EE5
:1027B0001E8E1F8E18A219A21AA21BA281E0888762
:1027C00092E09A878B87CE0101960E94AC1BA3965C
:1027D0000FB6F894DEBF0FBECDBFDF91CF91089545
:1027E00060917A056F3F39F08091A505681303C0A9
:1027F00085E00E94A9156091A5056F3FE1F40E9454
:10280000A91A9BE28902F0011124EE58FA4F828541
:102810008093E305F093E205E093E105F093D3059F
:10282000E093D2058093D4050E94BC290E94A6297A
:102830000E94C02908C080917A056813E0CF85E026
:102840000E94A915DCCFFFCFAF92BF92CF92DF924B
:10285000EF92FF920F931F93CF93DF931F92CDB709
:10286000DEB75C016B017A01DC0119968C91199736
:10287000823021F08091D0058C9302C0F501108246
:102880008091D005823020F060E087E00E94A91599
:10289000D50119968C91823029F08091D0058F5FF7
:1028A0008093D0058091D005811103C081E0809391
:1028B000D005F50130812BE23203F0011124EE58EE
:1028C000FA4FD182C082D50118968C9118978287D1
:1028D0003C913203F0011124EE58FA4F83E08187D6
:1028E0003C913203F0011124EE58FA4F30870C91DD
:1028F0000203800111240E581A4FF8011582C501F8
:102900000B960E945F20D80191966D937D938D93D5
:102910009C939497F50183859485A585B685883326
:102920009948A144B10528F0D5016C9186E10E9437
:10293000A915F5010081112707FD1095C5014B96DA
:102940000E945F204BE2409FF001419FF00D112457
:10295000EE58FA4F658B768B878B908FD5012C9133
:10296000240360011124F601EE58FA4F6F01058926
:1029700016892789308D81A192A1A3A1B4A1080F46
:10298000191F2A1F3B1F018F128F238F348FC50100
:10299000439649830E945F20F60165A376A387A32F
:1029A00090A7D5012C9149812403F0011124EE5800
:1029B000FA4F85A196A1A7A1B0A5858F968FA78F65
:1029C000B0A381E090E092A781A7F382E28281E048
:1029D00084870F90DF91CF911F910F91FF90EF901F
:1029E000DF90CF90BF90AF9008950C94362185E68C
:1029F00090E00895E091E105F091E2058487089563
:102A0000E091E105F091E20584850895209151045B
:102A1000222341F0FB0120832091A403FC012083A9
:102A200081E0089580E0089580915104882309F49D
:102A300083C00E9447138EE194E00E943B0F809177
:102A4000A4031F928F938AE593E09F938F930E9434
:102A5000C72C8AE194E00E943B0F0F900F900F90DB
:102A60000F9080915104883110F0109251048091A0
:102A7000510490E0FC013197E631F10508F046C0C1
:102A8000E654FF4F0C94182C8EED93E041C087EB79
:102A900093E03EC083EA93E03BC08DE893E038C00A
:102AA00082E793E035C08CE593E032C084E493E0A4
:102AB0002FC081E393E02CC08EE193E029C080E039
:102AC00093E026C08BED92E023C08FEC92E020C013
:102AD00084EB92E01DC085EA92E01AC081E992E0A1
:102AE00017C080E892E014C08CE692E011C08CE43C
:102AF00092E00EC084E392E00BC089E192E008C04E
:102B000088E092E005C089EF91E002C082EF91E099
:102B10000E943B0F60910406709105068DE090E0E5
:102B20000E94952C60910406709105068AE090E061
:102B30000E94952C1092510480E0089580935104D6
:102B4000E091E105F091E20580858093A4030C9467
:102B50001415809351046093A4030C941415CF931F
:102B6000DF931F92CDB7DEB719828981843640F496
:102B700080ED97E00E94312589818F5F8983F5CFB1
:102B80000F90DF91CF91089581E090E00E94301284
:102B90000E94AF150E94AF150E94AF1581E090E032
:102BA0000E9419120C94AF1581E090E00E9430123F
:102BB0000E94AF1581E090E00E9419120C94AF15AD
:102BC000FF920F931F93CF93DF9300D01F92CDB747
:102BD000DEB71F928F938AE593E09F938F938E01C8
:102BE0000F5F1F4F1F930F930E940C2D0F900F909C
:102BF0000F900F900F900F90F12CF8010190002092
:102C0000E9F73197E01BF10B8F2D90E08E179F07AE
:102C100008F05CC0F801E80FF91F808190E0FC012A
:102C2000F097EA30F10508F049C0E053FF4F0C94EB
:102C3000182C0E94C41502C00E94D4150E94C4150D
:102C40000E94C4150E94C4150E94C41537C00E947A
:102C5000D4150E94D415F4CF0E94D4150E94D41527
:102C60000E94D415EFCF0E94D4150E94D4150E9463
:102C7000D4150E94D415E8CF0E94D41502C00E943A
:102C8000C4150E94D41504C00E94C4150E94C41526
:102C90000E94D41506C00E94C4150E94C4150E944B
:102CA000C4150E94D41508C00E94C4150E94C41502
:102CB0000E94C4150E94C4150E94D4150E94AF152D
:102CC0000E94AF150E94AF15F39497CF0F900F900D
:102CD0000F90DF91CF911F910F91FF9008956F9208
:102CE0007F928F929F92AF92BF92CF92DF92EF929C
:102CF000FF920F931F93CF93DF938AE294E00E9499
:102D00003B0FE091E105F091E2052085822F9927A4
:102D100087FD90959F932F938DE593E09F938F93DD
:102D20000E94C72CE091E105F091E205C281D381B8
:102D3000DF93CF9381E993E09F938F930E94C72CF9
:102D400088811F928F9386E693E09F938F930E94D2
:102D5000C72CE091E105F091E20581818F9380819C
:102D60008F9383E793E09F938F930E94C72C80916A
:102D7000E2058F938091E1058F938DE793E09F9318
:102D80008F930E94C72CC2E7D5E0EDB7FEB77496CB
:102D90000FB6F894FEBF0FBEEDBF00E010E08DE867
:102DA000682E83E0782E96E6892E93E0992E23E70D
:102DB000A22E23E0B22E3DE7C32E33E0D32EEA80CD
:102DC000FB80FF92EF921F930F937F926F920E946E
:102DD000C72CF70180811F928F939F928F920E9440
:102DE000C72C89818F9388818F93BF92AF920E9465
:102DF000C72CDF93CF93DF92CF920E94C72C0F5F37
:102E00001F4FAB96EDB7FEB772960FB6F894FEBFA4
:102E10000FBEEDBF0230110591F6DF91CF911F91EA
:102E20000F91FF90EF90DF90CF90BF90AF909F9069
:102E30008F907F906F900895CF93DF93E091E1059D
:102E4000F091E205C281D3818881853539F00E94F5
:102E50006F1681E00E949E1585E58883E091E1056B
:102E6000F091E205808191818115924438F00E94B1
:102E70006F1682E1DF91CF910C949E15DF91CF9177
:102E800008952BE28202F0011124EE58FA4FA2813C
:102E9000B3818C91853519F085E58C9308C08081CC
:102EA00091818115924428F082E10E949E158FEF56
:102EB000089581E008950F931F930091C903109125
:102EC000CA032091CB033091CC0380E090E0B9019C
:102ED000A801082E04C076956795579547950A94E2
:102EE000D2F740FD19C041E050E060E070E0082EEC
:102EF00004C0440F551F661F771F0A94D2F7402B5A
:102F0000512B622B732B4093C9035093CA036093D8
:102F1000CB037093CC0305C0019680329105B9F6BE
:102F20008FEF1F910F910895E091E105F091E20577
:102F300065857685878590890895CF92DF92EF9297
:102F4000FF920F931F93CF93DF931F92CDB7DEB7FE
:102F5000C12CD12C7601C394082E04C0CC0CDD1CEE
:102F6000EE1CFF1C0A94D2F74091C9035091CA038A
:102F70006091CB037091CC034C215D216E217F21A8
:102F8000452B462B472B09F463C089830E944713C6
:102F9000EBE7F5E0970186010095109520953095B7
:102FA00093E08981DF0111974C914F3F49F14481B2
:102FB0005581668177814C155D056E057F0541F46D
:102FC0001086118612861386DF0112971C92908359
:102FD0004481558166817781402351236223732385
:102FE00044835583668377834085518562857385E5
:102FF000402351236223732340875187628773875D
:10300000BB9645E0E13DF40769F64EEF5FEF6FEFE9
:103010007FEF04C0440F551F661F771F8A95D2F7B4
:103020008091C9039091CA03A091CB03B091CC03C6
:1030300084239523A623B7238093C9039093CA03BF
:10304000A093CB03B093CC030E94491381E001C04D
:103050008FEF0F90DF91CF911F910F91FF90EF9025
:10306000DF90CF9008950F931F9341E050E060E010
:1030700070E004C0440F551F661F771F8A95D2F772
:10308000E091E105F091E20585859685A785B089F7
:103090008A019B01082319232A233B23012B022B9E
:1030A000032BD1F04095509560957095842395231E
:1030B000A623B72385879687A787B08B81899289B6
:1030C000A389B48984239523A623B723818B928B6C
:1030D000A38BB48B81E001C08FEF1F910F910895F6
:1030E0004091C9035091CA036091CB037091CC0306
:1030F000082E04C076956795579547950A94D2F7A0
:1031000040FF1DC0E091E105F091E20541E050E093
:1031100060E070E004C0440F551F661F771F8A955A
:10312000D2F785859685A785B089842B952BA62B0C
:10313000B72B85879687A787B08B81E008958FEF9F
:103140000895CF92DF92EF92FF921F93CF93DF9378
:10315000C12CD12C7601C39404C0CC0CDD1CEE1C18
:10316000FF1C8A95D2F78091C9039091CA03A09160
:10317000CB03B091CC038C219D21AE21BF21892BA3
:103180008A2B8B2B11F481E044C00E944713E9E79E
:10319000F5E0CBE7D5E010E023E080818130B9F4A1
:1031A00082859385A485B5858C219D21AE21BF2183
:1031B000892B8A2B8B2B59F0288316861786108A29
:1031C000118A1082C286D386E486F58611E080815A
:1031D0008230A1F482859385A485B5858C159D05E3
:1031E000AE05BF0559F4288316861786108A118A02
:1031F0001082128613861486158611E0BB96AB9654
:1032000085E0EF3CF80749F60E944913111105C00B
:1032100082E00E94FA148FEF01C081E0DF91CF912C
:103220001F91FF90EF90DF90CF9008950F931F9321
:10323000E091E105F091E205058516852785308945
:103240000623172328233923012B022B032B19F1E3
:10325000618B728B838B948B21E02783DC01CB0104
:103260000090D10504C0B695A795979587950A94C7
:10327000D2F780FF03C00E94181D04C080E090E0D8
:103280000E94E81CE091E105F091E20561897289F4
:103290008389948903C060E070E0CB011F910F9196
:1032A00008959091E00591111DC09091CA059F3F2E
:1032B00031F09091CD059F3F21F421E003C020E043
:1032C00001C022E030E0F901EE0FFF1FE20FF31F13
:1032D000E653FA4F82838083618381E08093E00527
:1032E000CF01089580E090E0089525E08A3C9207A0
:1032F00029F08D5C954021F481E0089580E00895E7
:103300008FEF08950E9475198F3F11F481E002C07C
:10331000823021F40E94FA148FEF0895992787FDD7
:103320009095FC01EE0FFF1FE80FF91FE653FA4FCF
:1033300082810895EF92FF920F931F93CF93DF93B3
:103340001F92CDB7DEB70E9475198F3F11F481E04F
:1033500002C0823021F40E94FA148FEF40C08983AA
:103360000E9447138981E82EFF24E7FCF09487012F
:10337000000F111FD801AE0DBF1DA653BA4F1296F4
:103380009C91911116C0E091E105F091E2059781C1
:1033900092609783992787FD9095A92FB92F818BEC
:1033A000928BA38BB48B0E94491380E090E00E9423
:1033B000E81CF801EE0DFF1DE653FA4F82818150A3
:1033C0008283A091E105B091E20581811B968C93E7
:1033D0001B9781E014968C930E94491381E00F9013
:1033E000DF91CF911F910F91FF90EF9008950F9370
:1033F0001F93CF93DF931F92CDB7DEB70E9475194D
:103400008F3F11F481E002C0823021F40E94FA144F
:103410008FEF78C0282F332727FD30958901000FC3
:10342000111F020F131F06531A4FF80122819081BA
:1034300029170CF066C089830E944713F801928116
:103440009F5F9283E091E105F091E20514829091F3
:1034500079058981923041F50091830510918405A9
:103460002091850530918605482F552747FD5095B9
:10347000652F752F0417150726073707A9F493E062
:1034800090937B051092870510928805109289050C
:1034900010928A0510927905109283051092840586
:1034A00010928505109286059091A405923039F509
:1034B000992787FD9095A92FB92F4091AE0550917E
:1034C000AF056091B0057091B105481759076A07BB
:1034D0007B07A9F483E08093A6051092B2051092B1
:1034E000B3051092B4051092B5051092A405109280
:1034F000AE051092AF051092B0051092B1050E9472
:10350000491381E00F90DF91CF911F910F910895A2
:103510000E9475198F3F11F481E002C0823021F4BE
:103520000E94FA148FEF0895992787FD9095FC016A
:10353000EE0FFF1FE80FF91FE653FA4F8FEF80835E
:10354000828381838091E00581508093E00581E052
:103550000895E091D605F091D70580810895E09116
:10356000D605F091D705309721F00380F481E02D46
:10357000FACF0895CF92DF92EF92FF920F931F93AD
:10358000CF93DF93E0917005F0917105309709F4C6
:103590008AC04091D6055091D7054115510509F4CF
:1035A00046C0DA019BE2692F782F7603900111243F
:1035B0002E583A4F8901065F1F4F7901C4E0EC0E87
:1035C000F11C255F3F4F6C9170E0969FE001979F43
:1035D000D00D1124CE58DA4FDC80DD2029F0DB84B9
:1035E000E801C880DC1428F1E701D880DD2061F013
:1035F000969FE001979FD00D1124CE58DA4FDA84C0
:10360000E901C880DC14A8F0969FE001979FD00DD7
:103610001124CE58DA4F7A85E8016881761748F090
:1036200013960D90BC91A02D109769F602C0A0E0F2
:10363000B0E08083C381D481D0937105C0937005BD
:10364000A417B507B1F4109749F0B483A38312828D
:1036500011821296FC93EE93119706C01482138286
:1036600012821182FA83E983F093D705E093D6059D
:103670001AC011968D919C911297AC17BD0759F005
:1036800092838183B483A3831196CD91DC911297A9
:10369000FC83EB8304C0148213829283818312968D
:1036A000FC93EE931197DF91CF911F910F91FF90B3
:1036B000EF90DF90CF900895CF93DF93E091D60500
:1036C000F091D705309709F444C0992787FD90956C
:1036D000208130E02817390781F4A381B481B093A9
:1036E000D705A093D60512961C921E92119718C06A
:1036F0000380F481E02D309761F1208130E02817BC
:103700003907B1F7C181D281838194819C838B83F6
:10371000A381B481109721F01296DC93CE93119778
:10372000A0917005B0917105109739F4F09371056F
:10373000E0937005148213820AC0B483A3831296A7
:10374000FC93EE931197F0937105E093700512824C
:103750001182DF91CF910895EF92FF920F931F9303
:10376000CF93DF93EC014B815C8169817A818D81FC
:103770009E810E9457292F81222371F04B815C8109
:10378000E12CF12C00E010E020E030E0BC01CE01A3
:103790000E9424141F820CC0E8812BE2E202F00197
:1037A0001124EE58FA4F21852330B9F49183808398
:1037B000E8818BE2E802F0011124EE58FA4F4589C6
:1037C00056896789708D452B462B472B41F482E043
:1037D000818788810E94BA1A02C08FEF01C081E000
:1037E000DF91CF911F910F91FF90EF9008951F935C
:1037F000CF93DF93CDB7DEB728970FB6F894DEBF2F
:103800000FBECDBF29833A834B835C836D837E8358
:103810008F8398870E9447130E948026182FCE011D
:1038200001960E945F206330710598F0E091E105F8
:10383000F091E205212F30E0260F371FC901A0E0EB
:10384000B0E0858B968BA78BB08F0E94491381E0E7
:1038500001C08FEF28960FB6F894DEBF0FBECDBF24
:10386000DF91CF911F9108950E942929E091E105F0
:10387000F091E20585818111F7CF0895CF930E94E1
:103880001C170E944713E091E105F091E20581E0E9
:1038900090E092A781A781E085830E948026C82FAF
:1038A000883F88F40E941A262C2F30E02F5F3F4F6C
:1038B000482F50E02417350734F482E08C0F8093B2
:1038C00050040E941E260E9449130E94341C81E06D
:1038D000CF910895E091E105F091E20580850E9485
:1038E0005C1BE091E105F091E20584E081870E9494
:1038F0003E1C81E00895CF93DF93EC010E941C17DA
:10390000209711F4C1E0D0E00E944713E091E10557
:10391000F091E20581E08583D2A7C1A70E948026AD
:10392000C82F883F88F40E941A262C2F30E02F5F82
:103930003F4F482F50E02417350734F482E08C0FB6
:10394000809350040E941E260E9449130E94341C3A
:1039500081E0DF91CF910895FF920F931F93CF9352
:10396000DF938C010E944713E091E105F091E2059D
:1039700081E085830E948026F82EE091E105F09198
:10398000E205C82FD0E0AE01400F511F60E070E0AB
:10399000458B568B678B708F87EF8F1570F00E9469
:1039A0001A262196282F30E0C217D30734F482E07C
:1039B0008F0D809350040E941E260E9449130E947E
:1039C000341C81E0DF91CF911F910F91FF900895FA
:1039D000CF93DF93EC010E944713E091E105F09152
:1039E000E20521E02583CE01A0E0B0E0858B968B37
:1039F000A78BB08F0E948026C82F883F88F40E9432
:103A00001A262C2F30E02F5F3F4F482F50E024170D
:103A1000350734F482E08C0F809350040E941E26F8
:103A20000E9449130E94341C81E0DF91CF910895D8
:103A3000CF930E944713E091E105F091E20581E008
:103A4000858386830E948026C82F883F88F40E9441
:103A50001A262C2F30E02F5F3F4F482F50E02417BD
:103A6000350734F482E08C0F809350040E941E26A8
:103A70000E9449130E94341C81E0CF9108951F9346
:103A8000CF93DF93CDB7DEB728970FB6F894DEBF9C
:103A90000FBECDBF29833A834B835C836D837E83C6
:103AA0008F8398870E941C170E944713E091E105BD
:103AB000F091E20581E0858381E090E092A781A703
:103AC0000E948026182FCE0101960E945F20E0916F
:103AD000E105F091E205610F711D811D911D658B5E
:103AE000768B878B908F183F88F40E941A26212F9F
:103AF00030E02F5F3F4F482F50E02417350734F454
:103B000082E0810F809350040E941E260E94491378
:103B10000E94341C81E028960FB6F894DEBF0FBED9
:103B2000CDBFDF91CF911F9108958F929F92AF9259
:103B3000BF92CF92DF92EF92FF920F931F93CF939A
:103B4000DF93CDB7DEB760970FB6F894DEBF0FBE38
:103B5000CDBF29873A874B875C876D877E878F87A4
:103B6000988BCE0101960E94F11D89809A80AB80CE
:103B7000BC80CD80DE80EF80F88409851A852B8596
:103B80003C854D855E856F857889CE0109960E94BA
:103B90004D1E8F3F61F029853A854B855C856D858B
:103BA0007E858F8598890E943F1D81E001C08FEF3F
:103BB00060960FB6F894DEBF0FBECDBFDF91CF91F8
:103BC0001F910F91FF90EF90DF90CF90BF90AF903B
:103BD0009F908F900895E091E105F091E205808536
:103BE0000895CF92DF92EF92FF92CF93DF93EC0193
:103BF0001C821D821E821F824091D8055091D905DA
:103C00006091DA057091DB05488359836A837B8371
:103C1000C090DC05D090DD05E090DE05F090DF057A
:103C2000CC82DD82EE82FF820E948026A82FB0E047
:103C300023EB36EE4EE050E00E94552B6C0D7D1DBF
:103C40008E1D9F1D6C837D838E839F834C815D8140
:103C50006E817F8141158AEC58078AE968078BE3FA
:103C60007807A0F05A5C6A497B434C835D836E837E
:103C70007F83488159816A817B814F5F5F4F6F4F9E
:103C80007F4F488359836A837B83E0CFDF91CF9155
:103C9000FF90EF90DF90CF9008958F929F92AF9218
:103CA000BF92CF92DF92EF92FF920F931F93CF9329
:103CB000DF93CDB7DEB760970FB6F894DEBF0FBEC7
:103CC000CDBFFC0109831A832B833C834D835E8324
:103CD0006F83788789869A86AB86BC86CD86DE869A
:103CE000EF86F88A89809A80AB80BC800D811E8126
:103CF0002F813885C984DA84EB84FC844D855E8508
:103D00006F8578898C149D04AE04BF0408F43FC00D
:103D1000C814D904EA04FB0491F404171507260714
:103D20003707A8F1041B150B260B370B04831583EB
:103D300026833783108211821282138226C00417D1
:103D400015072607370788F481E0881A9108A1082B
:103D5000B1088C189D08AE08BF0880829182A282AB
:103D6000B38216532546344C08C08C189D08AE0803
:103D7000BF0880829182A282B382041B150B260B9E
:103D8000370B048315832683378381E001C08FEFCF
:103D900060960FB6F894DEBF0FBECDBFDF91CF9116
:103DA0001F910F91FF90EF90DF90CF90BF90AF9059
:103DB0009F908F900895FC014481558166817781A1
:103DC00041158AEC58078AE968078BE37807A0F069
:103DD0005A5C6A497B434483558366837783408179
:103DE0005181628173814F5F5F4F6F4F7F4F40837F
:103DF000518362837383E0CF08958F929F92AF9235
:103E0000BF92CF92DF92EF92FF920F931F93CF93C7
:103E1000DF93CDB7DEB760970FB6F894DEBF0FBE65
:103E2000CDBF09831A832B833C834D835E836F83CD
:103E3000788789869A86AB86BC86CD86DE86EF86B5
:103E4000F88A49855A856B857C8509811A812B8181
:103E50003C81400F511F621F731FFC01408351833F
:103E6000628373834D855E856F8578890D811E81A0
:103E70002F813885400F511F621F731F4483558364
:103E8000668377830E94DB1E81E060960FB6F8940C
:103E9000DEBF0FBECDBFDF91CF911F910F91FF907D
:103EA000EF90DF90CF90BF90AF909F908F9008954C
:103EB0006093D8057093D9058093DA059093DB055C
:103EC0002093DC053093DD054093DE055093DF053C
:103ED00008952F923F924F925F926F927F928F92AE
:103EE0009F92AF92BF92CF92DF92EF92FF920F9389
:103EF0001F93CF93DF93CDB7DEB762970FB6F894D9
:103F0000DEBF0FBECDBFDC014D905D906D907C900B
:103F1000139714966D917D918D919C9117974114F3
:103F200051046104710409F46CC0B2E44B165104ED
:103F30006104710408F06DC07B018C0120E030E069
:103F4000A9016983FA820B831C832D833E834F83EF
:103F50005887A0E0B0E0198A1A8A312C812CF0E051
:103F6000E0E0912C9D0149895A89632D782D8F2F8E
:103F70009E2FA980BA80CB80DC80ED80FE800F81EF
:103F800018850E941E2C222E39874A875B876C87F2
:103F90007D878E879F879D0149895A89632D782D5A
:103FA0008F2F9E2F36534546544C6F4F7F4F8F4F68
:103FB0009F4FD901498B5A8B362E872EF82FE92F28
:103FC000492D50E060E070E0441555056605770521
:103FD00010F49394C7CF83EBA82E96EEB92E2EE063
:103FE000C22ED12CE12CF12C00E010E0222D3985DD
:103FF0004A855B856C857D858E859F850E94B32B68
:1040000006C023EB36EE4EE050E00E94782BC9014B
:1040100002C080E090E062960FB6F894DEBF0FBE5B
:10402000CDBFDF91CF911F910F91FF90EF90DF9067
:10403000CF90BF90AF909F908F907F906F905F9048
:104040004F903F902F900895CF92DF92EF92FF9282
:10405000CF93DF93CDB7DEB728970FB6F894DEBFC6
:104060000FBECDBF6B017C013AE0F694E794D79484
:10407000C7943A95D1F7C982DA82EB82FC829B0120
:10408000AC0133704427552763EB76EE8EE090E069
:104090000E94682B6D837E838F8398872C2D3A81B5
:1040A0004B815C8128960FB6F894DEBF0FBECDBF62
:1040B000DF91CF91FF90EF90DF90CF9008952F92F6
:1040C0003F924F925F926F927F928F929F92AF92A8
:1040D000BF92CF92DF92EF92FF920F931F93CF93F5
:1040E000DF93CDB7DEB762970FB6F894DEBF0FBE91
:1040F000CDBFDC014D905D906D907C901397149630
:104100006D917D918D919C9117974114510461049B
:10411000710409F466C07B018C0120E030E0A90144
:104120006983FA820B831C832D833E834F835887D8
:10413000A0E0B0E0198A1A8A312C812CF0E0E0E08E
:10414000912C9D0149895A89632D782D8F2F9E2F9F
:10415000A980BA80CB80DC80ED80FE800F8118853D
:104160000E941E2C222E39874A875B876C877D87A9
:104170008E879F879D0149895A89632D782D8F2FBE
:104180009E2F36534546544C6F4F7F4F8F4F9F4F56
:10419000D901498B5A8B362E872EF82FE92F492DBE
:1041A00050E060E070E0441555056605770510F4B1
:1041B0009394C7CF43EBA42E56EEB52E6EE0C62ED9
:1041C000D12CE12CF12C00E010E0222D39854A851C
:1041D0005B856C857D858E859F850E94B32BCA018A
:1041E00007C023EB36EE4EE050E00E94782BCA0168
:1041F000B90162960FB6F894DEBF0FBECDBFDF9156
:10420000CF911F910F91FF90EF90DF90CF90BF90D3
:10421000AF909F908F907F906F905F904F903F9066
:104220002F900895C2E0D1E00E941C170E941A2628
:10423000843028F4D093D5050E94292908C08AE04B
:1042400090E00E943125C093D5050E941D298091E0
:104250005204853519F088E00E949E1580917E41B8
:10426000853511F388E00E949E15DECF2F923F9294
:104270004F925F926F927F928F929F92AF92BF9276
:10428000CF92DF92EF92FF920F931F93CF93DF9322
:10429000CDB7DEB729970FB6F894DEBF0FBECDBFFE
:1042A0000E944E250E9449130E946C250E9474258D
:1042B0009F838E838AEF0E941E26A0915004B0E057
:1042C00023EB36EE4EE050E00E94552B6B017C0153
:1042D0008091DC059091DD05A091DE05B091DF05B0
:1042E000C80ED91EEA1EFB1EC701B6010E94782B1C
:1042F0000091D8051091D9052091DA053091DB05A0
:10430000C61AD70AE80AF90A63EB462E66EE562E5D
:104310006EE0662E712C480159018FEF881A980AB9
:10432000A80AB80AC1149AECD9069AE9E9069BE3EF
:10433000F90698F02AECD21A2AE9E20A2BE3F20AEB
:10434000C701B601A30192010E94782BC61AD70AB1
:10435000E80AF90A95018401DECF0093D80510938D
:10436000D9052093DA053093DB05C092DC05D092A5
:10437000DD05E092DE05F092DF05E091E105F091C8
:10438000E2058581882339F18185843021F1878197
:10439000823029F0882341F08681811102C085E0B6
:1043A00001C083E0818714C083E081871782168271
:1043B00085899689A789B08D892B8A2B8B2B41F40F
:1043C000818D928DA38DB48D858B968BA78BB08FAD
:1043D00080850E945C1BE091E105F091E20585A1DA
:1043E00096A1A7A1B0A5892B8A2B8B2B09F444C0D9
:1043F0002085222309F440C081858430E9F1458D70
:10440000568D678D70A18091500490E0A0E0B0E0DF
:10441000481759076A077B0768F4622F82E00E94F9
:10442000A915E091E105F091E205158E168E178E23
:1044300010A208C0481B590B6A0B7B0B458F568F87
:10444000678F70A3E091E105F091E2051085458D3D
:10445000568D678D70A1452B462B472B69F4612F34
:1044600083E00E94A915E091E105F091E20583E067
:104470008187812F0E945C1B0AE715E03BE7232E12
:1044800035E0332E47E8A42E45E0B42EA9E7B5E089
:10449000BA83A983E8E7F5E0FC83EB8357E7852E31
:1044A00055E0952E20E63AEE398728871D82D801FF
:1044B0008C918F3F09F42AC1F40110828C918823DA
:1044C00009F46AC0D1018C91843009F465C0F5010A
:1044D000C080D180E280F3806091500470E080E081
:1044E00090E0C616D706E806F90648F0C61AD70ABD
:1044F000E80AF90AC082D182E282F38205C0F5019E
:104500001082118212821382D8015196CD90DD90D3
:10451000ED90FC905497C616D706E806F90650F0C1
:10452000C61AD70AE80AF90AF801C18AD28AE38AC8
:10453000F48A21C0D80159962D913D914D915C91FD
:104540005C97621773078407950760F469017A0125
:10455000C61AD70AE80AF90AF801C18AD28AE38A98
:10456000F48A09C00E94782BD80151966D937D93EF
:104570008D939C935497F80181899289A389B4897A
:10458000892B8A2B8B2B41F4818D928DA38DB48D39
:10459000818B928BA38BB48BD1018C91833009F0EA
:1045A000B5C0F50180819181A281B381892B8A2BCD
:1045B0008B2B09F096C0A981BA818C918823B9F020
:1045C000EB81FC818081882391F081E090E0A0E084
:1045D000B0E00090D10504C0880F991FAA1FBB1F2F
:1045E0000A94D2F7F80181879287A387B487A981BB
:1045F000BA811C92EB81FC811082D4011C92F501DE
:1046000084899589D8015D964D915D916D917C91DC
:104610009097F801458B568B678B708F019729F522
:10462000E2E0D101EC93F80181899289A389B489F0
:10463000F50180839183A283B383F801818D928DEC
:10464000A38DB48D892B8A2B8B2B59F42AEFC22E84
:10465000D12CE12CF12CD501CD92DD92ED92FC9282
:1046600013978D810E94BA1A3CC0D50154964D9083
:104670005C905597B1E04B1A5108612C712C618DFB
:10468000728D838D948DA30192010E94682BF50198
:104690006083718382839383D8015996CD90DD9096
:1046A000ED90FC905C97C701B6010E94682BF80161
:1046B000618B728B838B948BCD28CE28CF2859F4B5
:1046C0009AEFC92ED12CE12CF12CD501CD92DD929F
:1046D000ED92FC921397CC24C394D12CF501D58A8A
:1046E000C48AF50180819181A281B3810097A105DF
:1046F000B10561F0C884D984A60160E070E0841738
:104700009507A607B70710F4998788872D812F5F33
:104710002D83055D1F4F3BE2230E311C8BE2A80E5B
:10472000B11CA981BA819B96BA83A983EB81FC81D4
:10473000BB96FC83EB83FBE28F0E911C223009F0C9
:10474000B6CE0E94A91AF82E2BE28202F0011124A3
:10475000EE58FA4F82858093E305F093D305E093FA
:10476000D205FF2021F145A156A167A170A5452BD7
:10477000462B472BB1F0458D568D678D70A14A3F72
:1047800051056105710568F4C884D984860120E06B
:1047900030E0401751076207730748F5598748878B
:1047A00026C0288539852B3F310508F119C0288599
:1047B000398524303105D8F0235031092A3F31059D
:1047C00050F4398728872230310588F4A2E0B0E020
:1047D000B987A8870CC0288539852D3F310519F088
:1047E000AAEFB0E0F5CF27EF30E039872887809334
:1047F000D405F093E205E093E10538853093500449
:104800000E948026282F30E02F5F3F4FC884D98434
:104810002C153D0558F00E948026C82ED12C9601FB
:104820002E5F3F4F3987288720935004F110109254
:10483000D50588850E941E266CED75E08E819F81CE
:104840000E9486250E94B52929960FB6F894DEBFEE
:104850000FBECDBFDF91CF911F910F91FF90EF90D1
:10486000DF90CF90BF90AF909F908F907F906F9090
:104870005F904F903F902F900C94C0294091F40589
:10488000141694F054E0450290011124F901EB5004
:10489000FA4F6083F901E950FA4F918380834F5FAB
:1048A0004093F40581E008958FEF08950F931F93CF
:1048B000CF93DF93062F4091F405552747FD509580
:1048C00010E0E82FF0E0212F30E0241735078CF5B9
:1048D000E901CC0FDD1FCC0FDD1FDE01AB50BA4F5D
:1048E0008C91992787FD90958E179F0701F5F90107
:1048F000E750FA4F808181110EC081E08083FE0174
:10490000E950FA4F0190F081E02D20E040E050E0C6
:10491000602F80E00995C950DA4FE881F98120E0E5
:1049200040E050E0602F81E00995812F03C01F5FB8
:10493000CACF8FEFDF91CF911F910F910895E82F8C
:10494000F0E08091F405992787FD90958E179F07D9
:104950007CF0EE0FFF1FEE0FFF1FE950FA4F0190A2
:10496000F081E02D20E040E050E060E082E009943A
:1049700081E00E94FA148FEF0895242FE82FF0E0D1
:104980008091F405992787FD90958E179F076CF00D
:10499000EE0FFF1FEE0FFF1FE950FA4F0190F0815D
:1049A000E02DAB0160E086E0099481E00E94FA14FA
:1049B0008FEF0895242FE82FF0E08091F4059927D8
:1049C00087FD90958E179F076CF0EE0FFF1FEE0F7F
:1049D000FF1FE950FA4F0190F081E02DAB0160E03C
:1049E00085E0099481E00E94FA148FEF0895242F46
:1049F000E82FF0E08091F405992787FD90958E17B8
:104A00009F076CF0EE0FFF1FEE0FFF1FE950FA4FEC
:104A10000190F081E02D40E050E084E0099481E0D5
:104A20000E94FA148FEF0895E82FF0E08091F405CA
:104A3000992787FD90958E179F0774F0EE0FFF1F43
:104A4000EE0FFF1FE950FA4F0190F081E02D20E0BA
:104A500040E050E083E0099481E00E94FA148FEF77
:104A600008950000000000000000000000000000A9
:104A7000000000000000000000000197009789F787
:104A8000089510922101089589E0809321018DE815
:104A90009CE39093290180932801089510922501A9
:104AA000109224010895CF93DF9300D0CDB7DEB7E5
:104AB00080912401909125019A83898389819A812B
:104AC0000F900F90DF91CF9108951092810008957B
:104AD00081E080938100089583B5816083BD109249
:104AE0008500109284000895CF93DF9300D0CDB756
:104AF000DEB780918400909185009A8389838981B3
:104B00009A810F900F90DF91CF910895CF92DF920D
:104B1000EF92FF92CF93DF93EC01CC0FDD1FC937EB
:104B20008FEFD80710F0C0E0D0E06B01E12CF12C42
:104B3000CC0EDD1EE11CF11C81E0C816D104E80694
:104B4000F10440F081E0E81AF1080E947425C817CA
:104B5000D907D8F30E9474258C159D05D8F3DF91F1
:104B6000CF91FF90EF90DF90CF9008951092B10019
:104B7000E0E7F0E080818D7F808380818E7F80837D
:104B800008958093B2000895E0E7F0E080818360AB
:104B9000808383E08093B100089583B5826083BDF4
:104BA0001092B2001092A503109250040895CF9372
:104BB000DF938EEF8093500480E28093B600809163
:104BC00050048093B30083E087BB92E09093B000E1
:104BD0008093B10093B5926093BD87BB84BD83B5CC
:104BE000826083BD1092800081E0809381001092EA
:104BF00085001092840083B5826083BD83B5816097
:104C000083BD10922001C4E2D1E01982188283B5DD
:104C1000826083BD83B5816083BD0E94CD251982EA
:104C200018820E94C4250E9444251092A503DF919A
:104C3000CF9108958091B3008F5F08958150809344
:104C4000B3000895811102C0109271008FEF089592
:104C5000811106C0109295001092940081E0089591
:104C60008FEF0895811105C0809194009091950077
:104C7000089580E090E00895811105C082E080935E
:104C8000710081E008958FEF0895811135C0CB0147
:104C90000197059710F460934F041092900088E0FC
:104CA0008093910050939900409398003093A30310
:104CB0002093A20380914F04813021F480919100D0
:104CC000816011C0823021F48091910082600BC01C
:104CD000833021F480919100836005C0843031F4E9
:104CE0008091910084608093910008C0853031F4F8
:104CF000809191008560F7CF8FEF089581E008954E
:104D00008091B20008951F920F920FB60F92112456
:104D100060E08AE00E94A915FFCF0F920FB60F92B4
:104D20001F922F923F924F925F926F927F928F923B
:104D30009F92AF92BF92CF92DF92EF92FF920F932A
:104D40001F932F933F934F935F936F937F938F9313
:104D50009F93AF93BF93CF93DF93EF93FF93A09174
:104D6000E105B091E2050DB60D920EB60D921F92BF
:104D7000A0914D04B0914E041E90BEBFADBF0895EA
:104D80001F920F920FB60F9211240BB60F922F9312
:104D90003F934F935F936F937F938F939F93AF93C3
:104DA000BF93EF93FF93E091A203F091A303309799
:104DB00011F0099504C060E08AE00E94A915FF91F6
:104DC000EF91BF91AF919F918F917F916F915F9183
:104DD0004F913F912F910F900BBE0F900FBE0F90F0
:104DE0001F9018951F920F920FB60F9211240F90DB
:104DF0000FBE0F901F90189504B603FC02C080E010
:104E000001C080E104B602FE06C094B79B7F94BF48
:104E100004B600FE846004B601FE05C094B79D7F11
:104E200094BF8260089581110CC004B600FE04C0D6
:104E300094B79E7F94BF01C081E09091B000911122
:104E400081E00895811102C0E89A39C0813011F4DF
:104E5000E99A0895823011F4EA9A31C0833021F43E
:104E600080916B00816029C0843021F480916B00B7
:104E7000826023C0853021F480916B0084601DC066
:104E8000863021F480916B00886017C0873021F450
:104E900080916B00806111C0883021F480916B009B
:104EA00080620BC0893021F480916B00806405C062
:104EB0008A3039F480916B00806880936B0081E0C8
:104EC00008958FEF0895811102C0E89839C08130AC
:104ED00011F4E9980895823011F4E99831C08330D3
:104EE00021F480916B008E7F29C0843021F4809161
:104EF0006B008D7F23C0853021F480916B008B7F08
:104F00001DC0863021F480916B00877F17C08730E9
:104F100021F480916B008F7E11C0883021F4809144
:104F20006B008F7D0BC0893021F480916B008F7BEB
:104F300005C08A3039F480916B008F7780936B00C5
:104F400081E008958FEF0895811126C05093FD05EB
:104F50004093FC05611104C0809169008C7F3DC0C5
:104F6000613049F4809169008D7F80936900809160
:104F70006900816032C0623049F4809169008260CA
:104F800080936900809169008E7F27C0633039F576
:104F900080916900836021C0813049F55093FB0501
:104FA0004093FA05611104C080916900837F15C0A8
:104FB000613049F480916900877F80936900809116
:104FC000690084600AC0623061F480916900886081
:104FD00080936900809169008B7F8093690081E0F4
:104FE00008956330E1F7809169008C60F6CF8230DC
:104FF00031F55093FF054093FE05611104C0809187
:1050000069008F7CEACF613049F4809169008F7D1F
:1050100080936900809169008061DFCF623049F43C
:1050200080916900806280936900809169008F7E21
:10503000D4CF6330A1F6809169008063CECF8350D6
:10504000883050F4809168008160809368005093AC
:10505000010640930006C3CF8FEF08951F920F9271
:105060000FB60F9211240BB60F922F933F934F93CD
:105070005F936F937F938F939F93AF93BF93EF93C0
:10508000FF93E0910006F0910106309711F0099529
:1050900004C060E08AE00E94A915FF91EF91BF91E2
:1050A000AF919F918F917F916F915F914F913F91C0
:1050B0002F910F900BBE0F900FBE0F901F90189561
:1050C0001F920F920FB60F9211240BB60F922F93CF
:1050D0003F934F935F936F937F938F939F93AF9380
:1050E000BF93EF93FF93E091FC05F091FD0530979E
:1050F00011F0099504C060E08AE00E94A915FF91B3
:10510000EF91BF91AF919F918F917F916F915F913F
:105110004F913F912F910F900BBE0F900FBE0F90AC
:105120001F9018951F920F920FB60F9211240BB675
:105130000F922F933F934F935F936F937F938F9330
:105140009F93AF93BF93EF93FF93E091FA05F09194
:10515000FB05309711F0099504C060E08AE00E94D9
:10516000A915FF91EF91BF91AF919F918F917F9181
:105170006F915F914F913F912F910F900BBE0F90C8
:105180000FBE0F901F9018951F920F920FB60F929F
:1051900011240BB60F922F933F934F935F936F930E
:1051A0007F938F939F93AF93BF93EF93FF93E09180
:1051B000FE05F091FF05309711F0099504C060E0FD
:1051C0008AE00E94A915FF91EF91BF91AF919F9145
:1051D0008F917F916F915F914F913F912F910F90A0
:1051E0000BBE0F900FBE0F901F9018950E94471393
:1051F000A89584B7877F84BFE0E6F0E0808188616E
:10520000808310820C9449130E944713A89584B799
:10521000877F84BFE0E6F0E08081886180838DE055
:1052200080830C94491304B603FC02C081E0089506
:105230008FEF0895A8950895089583B7817F8660BC
:1052400083BF83B7816083BF889583B78E7F83BF19
:10525000089583B7817F83BF83B7816083BF8895BB
:1052600083B78E7F83BF0895FC017683658308959D
:10527000EF92FF920F931F93CF93DF93EC018B017B
:105280007A014032510518F481E10E949E15A70170
:1052900041505109400F511F5A8349831C830B838E
:1052A000DF91CF911F910F91FF90EF90089525E529
:1052B000FA012083FB0132979083FB0131978083B1
:1052C000FB01349711821082FB0136971182108204
:1052D000FB01389711821082FB013A9711821082EC
:1052E000FB013C9711821082FB013E9711821082D4
:1052F000FB01709711821082FB017297118210825C
:10530000FB01749711821082FB0176971182108243
:10531000FB01789711821082FB017A97118210822B
:10532000FB017C9711821082FB017E971182108213
:10533000FB01B09711821082FB01B297118210829B
:10534000CB018497FC0111821082089585E580933A
:105350007E41EEEFF1E4F0934E04E0934D0485EFCF
:1053600094E190838093FF41089585EF94E19093B9
:10537000FE418093FF4108950E94D7250C94491364
:10538000A091D205B091D305CD91CDBFDD91DEBF07
:10539000FF91EF91DF91CF91BF91AF919F918F914D
:1053A0007F916F915F914F913F912F911F910F913D
:1053B000FF90EF90DF90CF90BF90AF909F908F9035
:1053C0007F906F905F904F903F902F901F900F9025
:1053D0000FBE0F9018950E945A0F80E190E00E9436
:1053E000821283EB92E00E94DF2C0E944E1320E099
:1053F00030E0A90160E070E0CB010E94581F0E94DC
:1054000093030E9440030E94F01380E090E008950F
:105410006F927F929F92AF92BF92CF92DF92EF9264
:10542000FF920F931F93CF93DF93CDB7DEB72C97E7
:105430000FB6F894DEBF0FBECDBF8C017B013A01E1
:10544000FC0117821682838181FF19C1CE0101966A
:105450005C01F801D380F701D3FC2591D3FE2191A3
:105460007F01222309F407C1253249F4D3FC259199
:10547000D3FE21917F01253211F0912C1BC0B80180
:10548000822F90E00E94952C63013601E2CF222307
:1054900009F4F1C0622F70E080E494E02C870E9450
:1054A000362C2C85892B49F0F701D3FC2591D3FEAE
:1054B00021917F0197FEEBCF0CC0233221F4F92D0F
:1054C000F0619F2EF1CF2C3639F4292D2068922ED1
:1054D000EBCF222309F4CFC0622F70E089E394E080
:1054E0002C870E94362C2C85892B41F06301F4E037
:1054F000CF0ED11CB8018FE390E012C0233641F0EB
:10550000233789F0233521F5F92DF1609F2E0BC04B
:10551000630122E0C20ED11CB801F30180819181A8
:105520000E94952CB2CF630122E0C20ED11CF30180
:1055300060807180F30190FC859190FE81913F0124
:10554000882309F4A2CFB80190E00E94952CF2CFF5
:10555000243611F0293639F5630197FE09C0F4E0CD
:10556000CF0ED11CF30160817181828193810AC0C9
:10557000F2E0CF0ED11CF30160817181882777FDA5
:105580008095982FF92DFF7E9F2E97FF09C090954B
:105590008095709561957F4F8F4F9F4FF0649F2E40
:1055A0002AE030E038C02037A1F040F42835D1F0AF
:1055B0002F3609F060C028E030E019C0253719F017
:1055C000283751F058C0292D2F7E922E2AE030E046
:1055D0000EC0892D8061982E992D9462992E20E11C
:1055E00030E005C0E92DE4609E2E20E132E0630149
:1055F00097FE09C0F4E0CF0ED11CF30160817181E8
:105600008281938108C0F2E0CF0ED11CF30160814A
:10561000718180E090E0A5010E943B2D782E7A18E0
:1056200096FE05C0B8018DE290E00E94952C94FE94
:1056300016C0FE01E70DF11D8081803381F0B801B5
:1056400080E390E00E94952C92FE09C0292D2072E3
:10565000822F90E0B801885A9F4F0E94952C7A942F
:10566000F501E70DF11D8081B80190E00E94952CB5
:105670007110F5CF0ACFF8018681978102C08FEFB4
:105680009FEF2C960FB6F894DEBF0FBECDBFDF9113
:10569000CF911F910F91FF90EF90DF90CF90BF902F
:1056A000AF909F907F906F9008950E94272CA59FA8
:1056B000900DB49F900DA49F800D911D112408950D
:1056C000B7FF0C94552B0E94552B821B930B08950A
:1056D000DB018F939F930E94552BBF91AF91A29FA7
:1056E000800D911DA39F900DB29F900D11240895E0
:1056F000A1E21A2EAA1BBB1BFD010DC0AA1FBB1FD6
:10570000EE1FFF1FA217B307E407F50720F0A21B47
:10571000B30BE40BF50B661F771F881F991F1A94B4
:1057200069F760957095809590959B01AC01BD01DE
:10573000CF010895052E97FB1EF400940E94102CB3
:1057400057FD07D00E94782B07FC03D04EF40C9431
:10575000102C50954095309521953F4F4F4F5F4FFE
:105760000895689401C0E8948F929F92CF93DF933D
:105770000E94BF2BDF91CF919F908F900895882436
:105780009924F401E401B0E49F93AA279A158B04AD
:105790009C04ED05FE05CF05D007A10798F4AD2FB9
:1057A000DC2FCF2FFE2FE92D982C892E982F872FB5
:1057B000762F652F542F432F322F2227B85031F7E1
:1057C000BF9127C01B2EBF91BB27220F331F441F41
:1057D000551F661F771F881F991F881C991CEE1F75
:1057E000FF1FCC1FDD1FAA1FBB1F8A149B04EC05E3
:1057F000FD05CE05DF05A007B10748F08A189B0814
:10580000EC09FD09CE09DF09A00BB10B21601A9448
:10581000E1F62EF49401AF01BE01CD01000C089514
:1058200090958095709561957F4F8F4F9F4F08950C
:10583000EE0FFF1F0590F491E02D09942A0D3B1DFA
:105840004C1D5D1D6E1D7F1D801F911F0895A29F21
:10585000B001B39FC001A39F700D811D1124911D44
:10586000B29F700D811D1124911D0895FC010590BA
:10587000061621F00020D9F7C00108953197CF0115
:105880000895FB01DC0102C001900D92415050408F
:10589000D8F708950F931F93CF93DF93EC018B01FB
:1058A000009731F46115710519F480E090E038C07B
:1058B0006EE070E081E090E00E94AF2DFC01009767
:1058C000A1F380E883830115110571F01387028726
:1058D00081E883838091020690910306892B21F44D
:1058E000F0930306E09302062097C9F0D187C087A2
:1058F0008381826083838091040690910506892BC1
:1059000071F4F0930506E0930406809106069091E9
:105910000706892B21F4F0930706E0930606CF01D2
:10592000DF91CF911F910F9108950F931F93CF9304
:10593000DF93182F092FEB018B8181FD03C08FEFBF
:105940009FEF20C082FF10C04E815F812C813D817E
:10595000421753077CF4E881F9819F012F5F3F4F85
:1059600039832883108306C0E885F985812F09953E
:10597000892B29F72E813F812F5F3F4F3F832E8355
:10598000812F902FDF91CF911F910F910895CF9389
:10599000DF93CDB7DEB7FE01359661917191AF010E
:1059A00080910406909105060E94082ADF91CF910C
:1059B000089560910406709105060C94952C0F9340
:1059C0001F93CF93DF93E0910406F09105062381A6
:1059D00021FF1BC0EC0100E010E0899160910406FA
:1059E00070910506DB011896ED91FC9119978823BB
:1059F00031F00995892B89F30FEF1FEFEECF8AE085
:105A00000995892B11F4C80102C08FEF9FEFDF9138
:105A1000CF911F910F9108950F931F93CF93DF9311
:105A2000CDB7DEB72E970FB6F894DEBF0FBECDBF51
:105A30000D891E8986E08C831A8309838FEF9FE787
:105A40009E838D83AE01475E5F4F6F89788DCE0157
:105A500001960E94082AEF81F885E00FF11F10825D
:105A60002E960FB6F894DEBF0FBECDBFDF91CF915B
:105A70001F910F910895FA01AA27283051F1203182
:105A800081F1E8946F936E7F6E5F7F4F8F4F9F4FD2
:105A9000AF4FB1E03ED0B4E03CD0670F781F891F14
:105AA0009A1FA11D680F791F8A1F911DA11D6A0FE2
:105AB000711D811D911DA11D20D009F468943F9195
:105AC0002AE0269F11243019305D3193DEF6CF0194
:105AD0000895462F4770405D4193B3E00FD0C9F75A
