:100000000C941C020C946A210C949C210C94CE211B
:100010000C943B020C943B020C943B020C943B026C
:100020000C943B020C9438210C943B020C943B0240
:100030000C943B020C94971F0C943B020C94971F5A
:100040000C943B020C943B020C943B020C943B023C
:100050000C943B020C943B020C943B020C943B022C
:100060000C943B020C94FC070C943B020C943B0256
:100070000C943B020C943B020C943B020C943B020C
:100080000C94CA1F0C943B020C943B020C943B0250
:100090000C943B020C943B020C943B020C943B02EC
:1000A0000C943B020C943B020C943B020C943B02DC
:1000B0000C943B020C943B020C943B020C943B02CC
:1000C0000C943B020C943B020C943B020C943B02BC
:1000D0000C943B020C943B020C943B020C943B02AC
:1000E0000C943B020C941C060C940D060C94DD053C
:1000F0000C94CD060C94CE050C94BF050C94AD0564
:100100000C949E050C943B020C943B020C943B0215
:100110000C943B020C943B020C943B020C943B026B
:10012000DB08E808F50802090F091C0929094C0930
:100130005A096809760984099209A009C309C50901
:10014000C709C909CB09CD09CF09EE09110A350A3A
:10015000580A7B0A9E0AC10AFB0A080B150B220BE0
:100160002F0B3C0B490B620B6F0B7C0B890B960B17
:10017000A30BB00B490F4F0F520F550F580F5B0FCA
:10018000610F5E0F640F670F6A0F730F760F790FA1
:100190007C0F700F460F4C0F7F0F820F6D0F430FB8
:1001A00067106A1075107A1081108A108D109210E5
:1001B0009910A2107561727420727820736967209B
:1001C0006661696C65640D0A00554E4B4F574E00D1
:1001D00045787465726E616C205265736574004277
:1001E000726F776E204F7574204465746563740078
:1001F0004661696C656420746F2063726561746523
:100200002053656D6170686F7265004661696C6549
:100210006420746F20637265617465205369676E32
:10022000616C004B65726E656C2066756E637469F7
:100230006F6E206E6F7420696D706C656D656E7485
:100240006564004465766963652044726976657209
:10025000204572726F72005761746368646F672023
:1002600052657374617274005357205761746368E8
:10027000646F6720526573746172740054696D65B0
:1002800072204F766572666C6F7700556E68616E8E
:10029000646C656420496E74657272757074205662
:1002A0006563746F72004C6F7720566F6C74616772
:1002B00065004578747261205461736B20737461BA
:1002C000727465642C206973206E726B5F6366675D
:1002D0002E68206F6B3F0049646C65206F72204B65
:1002E00065726E656C20537461636B204F76657226
:1002F000666C6F7700556E65787065637465642011
:1003000052657374617274004475706C69636174D2
:100310006564205461736B204944005363686564CD
:10032000756C6572204D69737365642057616B65E8
:100330007570005461736B20526573657276652029
:1003400056696F6C61746564005265736572766599
:10035000204572726F7220696E2053636865647500
:100360006C657200496E76616C69642053746163D8
:100370006B20506F696E746572005461736B20530B
:100380007461636B204F766572666C6F770053748F
:1003900061636B20776173206E6F7420646566699A
:1003A0006E6564206173206C6172676520656E6F95
:1003B00075676821005461736B20706572696F64A2
:1003C00020746F6F206C617267652E2050657269B2
:1003D0006F64206D757374206265206C6573732083
:1003E0007468616E203631207365636F6E64732E9E
:1003F00000293A20002A4E524B204552524F522893
:10040000004E524B205265626F6F742E2E2E0D0AD5
:10041000000D0A535441434B2044554D500D0A00E2
:1004200045464765666700202B2D2E303132333428
:10043000353637383968000011241FBECFEFD1E4BC
:10044000DEBFCDBF13E0A0E0B2E0ECEBFFE400E0E4
:100450000BBF02C007900D92AA37B107D9F717E07A
:10046000AAE7B3E001C01D92A03AB107E1F70E94EC
:10047000E3220C94DC270C948D1F87E692E00C9409
:10048000B8258AE792E00E94B8250E94B0030C9438
:10049000AA038AEF94E09093F0038093EF0384E73C
:1004A0008093EE031092F1030E942B0D20E030E0C8
:1004B0004FEF5FEF6DE08AEE93E00E943A038EE823
:1004C00092E00E94B8258DE392E00E94300381E41F
:1004D00092E00E9435030E94AA030E946D16FBCF92
:1004E0000895CF93DF93C0E7D5E089E492E09E833F
:1004F0008D8340E051E066EF73E0CE010E9442221E
:1005000082E0888781E08F8389878A8781E090E015
:10051000A0E0B0E08B879C87AD87BE871F86188AD6
:10052000198A1A8A1B8A1C8A1D8A1E8A1F8A188E9B
:10053000198E1A8E1B8E1C8E1D8E1E8E1F8E18A25B
:1005400019A21AA2CE01DF91CF910C94DB159091E4
:1005500041019F719F31D9F38093420108958093A7
:100560007C03089581E080936C06089510926C06D8
:100570000895809141018F718F31D9F380914101AC
:100580008F71E1F08F30D1F0809141018F7188300F
:1005900031F4809139018260809339010BC088E089
:1005A0000E94A702809141018F718830D9F7F1CF65
:1005B0008F3021F0809141018F71D1F708958091A2
:1005C00041018F718F31D9F3809141018F7111F009
:1005D0008F3051F4809139018D7F80933901809162
:1005E00041018F718830D9F7089589E00C94A702F2
:1005F000E5E4F1E09081907F908390818F70982B5B
:1006000090830895E7E5F1E080818D7F80830895F0
:10061000E7E5F1E08081826080830895EEE6F1E015
:1006200080818F7E80830895EEE6F1E08081806195
:100630008083089580936001909361019093760682
:100640008093750608959093700680936F06E8E492
:10065000F1E08081807E80838081682B60830895B3
:100660009093800380937F03089590937E038093FB
:100670007D0308950F931F93CF93DF93FC01D9015E
:1006800080E28093440180EC809345016062609336
:10069000480185EC8093490187EA80934B0180E80B
:1006A00080934C0120936001B093610140936201FB
:1006B00050936301C6E4D1E0088188819881288144
:1006C000302F32953695377060E4369F80011124C3
:1006D000229526952370622F602B829586958370D4
:1006E00070E1879F90011124262B92959695937027
:1006F00084E0989FB0011124622B60936D01888182
:100700009881929596959370392F3064982F929591
:100710009670932B90936E0110926C018FEF8093E3
:100720004E01CFE6D6E0F983E8831A821B825D830F
:100730004C83BF83AE83188681E080938906109234
:10074000A0061092780610926C06DF91CF911F914F
:100750000F91089586E10C94A70286E10C94A702FC
:1007600088E00E94A7021092A00608950F931F939D
:10077000CF93DF93FC0180918906811102C08FEF36
:10078000ABC02681809171068F5F80937106909136
:100790008101907E916020FB95F99F739064909306
:1007A000810188E88093820180916C06882361F042
:1007B0008FEF809383018AEA9AEA9093890180936C
:1007C00088018FEF9FEF10C08091710680938301A5
:1007D000209161018091600190E0922B90938901BA
:1007E0008093880180819181909387018093860115
:1007F000209163018091620190E0922B909385019A
:10080000809384018F014281552747FD5095638174
:1008100074818AE891E00E940425F8018281855F55
:100820008093800180914101D82FDF719FEF9D0F50
:100830009230C0F3D131B1F3D231A1F3DF3191F372
:1008400098EF9D0F923020F08F70863009F097CF8F
:1008500086E10E94A702F801858181110BC089E021
:100860000E94A702F8018681882391F089E10E9405
:10087000A7020EC080914801806880934801809152
:10088000410187FFFCCF8091410186FF78CFE7CF00
:100890001092780682E00E94A70280E090E020910A
:1008A0007806211105C00196883EFDEF9F07B9F734
:1008B000F8012681222331F02091420122952695CC
:1008C000277029F4883E9D4F11F0C1E001C0CFEFA1
:1008D0008D2F0E94A7028C2FDF91CF911F910F9136
:1008E00008951092780682E00E94A70288EE9DEF9C
:1008F00020917806211104C00197D1F78FEF089558
:1009000081E00895CF93DF9380918906882341F198
:1009100080914101C82FCF719FEF9C0F9230C0F39F
:10092000C131B1F3C231A1F3CF3191F3C83019F025
:100930008F708630A9F486E10E94A7028091480159
:100940008068809348018091410187FFFCCFD0915E
:1009500041018C2F0E94A702D6FB882780F901C095
:100960008FEFDF91CF91089580918906882309F454
:10097000E3C08091A006882309F4DCC080917B014C
:10098000E0916F06F091700690E002972481332782
:1009900027FD3095281739070CF4CEC0E0916F067B
:1009A000F0917006809182018083E0916F06F09152
:1009B0007006809187019091880192838183E091F4
:1009C0006F06F091700680917B018B508383A0911C
:1009D0006F06B0917006E0916F06F0917006139665
:1009E0009C91848189173CF0E0916F06F09170062C
:1009F000838187FF0DC01092A00680914C018F77F4
:100A000080934C0180914C01806880934C0194C08C
:100A1000A0916F06B0917006E0916F06F09170069C
:100A200013964C91552747FD509569E871E08581F3
:100A300096810E94042580917C03882309F43EC09E
:100A4000E0916F06F091700683818031B9F5E091F5
:100A50006F06F09170066581768144E050E080E099
:100A600092E00E940D25892B49F5E0916F06F091E7
:100A700070066581768140E150E080E092E00E945E
:100A80000D25892BD9F49DE088E10FB6F894A8953F
:100A9000809360000FBE9093600080E090E00E9421
:100AA000F80B81E090E00E94F80B82E090E00E9459
:100AB000F80B83E090E00E94F80BFFCFE0916F0607
:100AC000F09170068091800185FB882780F98783EB
:100AD000E0916F06F0917006809147018087E09168
:100AE0006F06F091700680914601869586958695F1
:100AF0008187E0916F06F0917006809147018287AF
:100B0000A0916F06B0917006E0917B01F0E0E05893
:100B1000FE4F80811B968C931092A00680914C0111
:100B20008F7780934C0180914C01806880934C01B9
:100B300081E0089580E008958FEF08951F920F924D
:100B40000FB60F9211248F9380E880934F018F91FD
:100B50000F900FBE0F901F9018951F920F920FB617
:100B60000F9211248F9381E08093780680E4809324
:100B70004F018F910F900FBE0F901F9018951F92ED
:100B80000F920FB60F9211248F9380E280934F0142
:100B90008F910F900FBE0F901F9018951F920F927C
:100BA0000FB60F9211248F9380E180934F018F91A4
:100BB0000F900FBE0F901F9018951F920F920FB6B7
:100BC0000F9211240BB60F922F933F934F935F9385
:100BD0006F937F938F939F93AF93BF93EF93FF9305
:100BE00084E080934F01E0917F03F0918003309780
:100BF00009F00995FF91EF91BF91AF919F918F916E
:100C00007F916F915F914F913F912F910F900BBE0C
:100C10000F900FBE0F901F9018951F920F920FB656
:100C20000F9211248F9382E080934F018F910F9048
:100C30000FBE0F901F9018951F920F920FB60F9234
:100C400011248F9381E080934F018F910F900FBEFD
:100C50000F901F901895E9E4F1E09081907F9083C8
:100C600090818F70982B908308958FEF0895089549
:100C7000089508958FEF089580916A0690916B060C
:100C80000895089581E0089581E0089581E0089530
:100C9000089508950895089508950895089508956C
:100CA00098988DB1806E8DB98EB1806A8EB9089595
:100CB00098988DB1806E8DB98EB180668EB9089589
:100CC000CF92DF92EF92FF920F931F93CF93DF9318
:100CD000CDB7DEB727970FB6F894DEBF0FBECDBFF6
:100CE0000E94290DE0916F06F0917006C080D380BC
:100CF000E580F68000850E94B40418161CF082EB93
:100D000092E006C0F7011081111107C081ED92E059
:100D10000E94B8250E942B0D31C0153021F48AE0C5
:100D200090E00E94B225C70101969F938F93802F78
:100D3000992787FD90959F930F931F921F931F9262
:100D4000CF9283EF92E09F938F930E949E25FD8226
:100D5000EC821150F7011083DB821E821F828FEF1D
:100D60009FEF9A8389830E942B0DCE0101960E94EA
:100D7000B6030FB6F894DEBF0FBECDBF27960FB6F1
:100D8000F894DEBF0FBECDBFDF91CF911F910F91C1
:100D9000FF90EF90DF90CF9008951F920F920FB6C3
:100DA0000F9211240BB60F922F933F934F935F93A3
:100DB0006F937F938F939F93AF93BF93EF93FF9323
:100DC00080E090917B01891710F48F5FFACF8091BA
:100DD000460187FF04C081E08093A00604C08CE137
:100DE00093E00E94B82588E080934F0180914601EE
:100DF00087FF05C080916C0681110E946006E0911A
:100E00007D03F0917E03309709F00995FF91EF91F2
:100E1000BF91AF919F918F917F916F915F914F9112
:100E20003F912F910F900BBE0F900FBE0F901F9010
:100E30001895A9E7B6E0FC01409620812D932191F9
:100E400020933F01E817F907C1F780E110923E01B6
:100E50008150E1F780E880933C0180913D0180FF63
:100E6000FCCFEAE8F6E080E18E0F90913F0191938C
:100E70008E13FBCF0895CF93DF93DC01662309F433
:100E800045C0862F8F7009F041C0E9E7F6E090E198
:100E90009E0F219120933F019E13FBCF90E070E0C5
:100EA000E0E240E1949F90011124261737077CF57A
:100EB000911103C010923C0102C0E0933C0140E05C
:100EC00050E02A0F3B1FE901C40FD51FF881F093B2
:100ED0003E014F5F5F4F40315105A9F740913C0102
:100EE000406840933C0140913D0140FFFCCF40E011
:100EF00050E0F0913E01E901C40FD51FF8834F5F28
:100F00005F4F40315105A9F79F5FCBCF81E0DF9163
:100F1000CF9108950F931F93CF93DF93DC0161303E
:100F200009F458C0862F8F7009F054C0EAE8F6E043
:100F300090E19E0F219120933F019E13FBCF62957C
:100F40006F70615078E06F3F09F445C070933C01C9
:100F5000462F552747FD509520E030E0ED0190E108
:100F60006902C00DD11D1124FE01E20FF31F908113
:100F700090933E012F5F3F4F20313105A9F79091AB
:100F80003C01906890933C0190913D0190FFFCCF13
:100F90004150510994E0440F551F9A95E1F720E024
:100FA00030E090913E018E01020F131FF8019083F3
:100FB000662349F0F901E40FF51FEA0FFB1FE081FA
:100FC0009E27F80190832F5F3F4F2031310549F76D
:100FD0006150B9CF81E0DF91CF911F910F910895BA
:100FE0009091C00095FFFCCF9091C0009F7D9093A1
:100FF000C0008093C60008951F920F920FB60F9203
:1010000011240BB60F922F933F934F935F936F93DF
:101010007F938F939F93AF93BF93EF93FF930E9420
:10102000290D8091C00087FFFCCF8091C0008F7791
:101030008093C0002091C6008091E2039091E30369
:10104000FC01EE57FC4F208301968036910529F074
:101050009093E3038093E20304C01092E3031092A1
:10106000E203809181030E94EC128091C0008F778F
:101070008093C0000E942B0DFF91EF91BF91AF9123
:101080009F918F917F916F915F914F913F912F91A0
:101090000F900BBE0F900FBE0F901F9018958111EF
:1010A0000DC081E04091E4035091E5032091E203FB
:1010B0003091E3034217530751F408C0813031F4F3
:1010C0008091C800881F8827881F089580E00895B0
:1010D000809181038F3F19F48EE00E94E70F809189
:1010E00081030895CF93DF93FC012491EC012196B5
:1010F000222351F06091980770919907822F90E018
:101100000E946625CE01F0CFDF91CF910895209106
:10111000E4033091E5038091E2039091E303281703
:10112000390769F4809181030E94BA1260918103AA
:10113000772767FD7095872F972F0E945D136F3F6C
:1011400021F484EB91E00E9472082091E403309135
:10115000E503F901EE57FC4F80812F5F3F4F2036AA
:10116000310528F43093E5032093E40308951092A9
:10117000E5031092E403089586E084B985B988EF09
:101180008AB980EF8BB982E08DB908950C94BC08C0
:101190008F3F09F46CC0E82FE7704E2F50E04730C6
:1011A000510508F064C0FA01E057FF4F8695869517
:1011B00086950C94E12442B121E030E0B90102C0EF
:1011C000660F771F8A95E2F7CB01842B82B94DC059
:1011D00045B121E030E0B90102C0660F771F8A9562
:1011E000E2F7CB01842B85B940C048B121E030E063
:1011F000B90102C0660F771F8A95E2F7CB01842BF5
:1012000088B933C04BB121E030E0B90102C0660FAC
:10121000771F8A95E2F7CB01842B8BB926C04EB19C
:1012200021E030E0B90102C0660F771F8A95E2F72E
:10123000CB01842B8EB919C041B321E030E0B90154
:1012400002C0660F771F8A95E2F7CB01842B81BB22
:101250000CC044B321E030E0B90102C0660F771F33
:101260008A95E2F7CB01842B84BB81E008958FEF50
:1012700008958F3F09F473C0E82FE7704E2F50E0B8
:101280004730510508F06BC0FA01E956FF4F8695CB
:10129000869586950C94E12442B121E030E0B901B5
:1012A00002C0660F771F8A95E2F7CB0180958423F1
:1012B00082B953C045B121E030E0B90102C0660FE8
:1012C000771F8A95E2F7CB018095842385B945C0C5
:1012D00048B121E030E0B90102C0660F771F8A955E
:1012E000E2F7CB018095842388B937C04BB121E068
:1012F00030E0B90102C0660F771F8A95E2F7CB0193
:10130000809584238BB929C04EB121E030E0B9012A
:1013100002C0660F771F8A95E2F7CB018095842380
:101320008EB91BC041B321E030E0B90102C0660FA5
:10133000771F8A95E2F7CB018095842381BB0DC08E
:1013400044B321E030E0B90102C0660F771F8A95EF
:10135000E2F7CB018095842384BB81E008958FEF71
:1013600008958F3F31F1E82FE7704E2F50E047305E
:101370005105F8F4FA01E256FF4F282F26952695DD
:1013800026950C94E12490B10BC093B109C096B19D
:1013900007C099B105C09CB103C09FB101C092B311
:1013A000892F90E002C0959587952A95E2F7817084
:1013B00008958FEF08958F3F09F406C1E82FE77075
:1013C0004E2F50E04730510508F0FEC0FA01EB55B2
:1013D000FF4F8695869586950C94E12420B130E0E8
:1013E000082E02C0359527950A94E2F742B120FDF8
:1013F0000BC021E030E0B90102C0660F771F8A956B
:10140000E2F7CB01842B0BC021E030E0B90102C030
:10141000660F771F8A95E2F7CB018095842382B906
:1014200016C023B130E0082E02C0359527950A94E6
:10143000E2F745B120FD0DC021E030E0B90102C066
:10144000660F771F8A95E2F7CB01842B85B981E07F
:10145000089521E030E0B90102C0660F771F8A9538
:10146000E2F7CB0180958423F1CF26B130E0082E3E
:1014700002C0359527950A94E2F748B120FD0BC0CC
:1014800021E030E0B90102C0660F771F8A95E2F7CC
:10149000CB01842B0BC021E030E0B90102C0660F04
:1014A000771F8A95E2F7CB018095842388B9CFCF47
:1014B00029B130E0082E02C0359527950A94E2F74D
:1014C0004BB120FD0BC021E030E0B90102C0660F36
:1014D000771F8A95E2F7CB01842B0BC021E030E027
:1014E000B90102C0660F771F8A95E2F7CB0180959C
:1014F00084238BB9ACCF2CB130E0082E02C03595D7
:1015000027950A94E2F74EB120FD0BC021E030E0B0
:10151000B90102C0660F771F8A95E2F7CB01842BD1
:101520000BC021E030E0B90102C0660F771F8A9539
:10153000E2F7CB01809584238EB989CF2FB130E0BB
:10154000082E02C0359527950A94E2F741B320FD95
:101550000BC021E030E0B90102C0660F771F8A9509
:10156000E2F7CB01842B0BC021E030E0B90102C0CF
:10157000660F771F8A95E2F7CB018095842381BBA4
:1015800066CF22B330E0082E02C0359527950A9425
:10159000E2F744B320FD0BC021E030E0B90102C006
:1015A000660F771F8A95E2F7CB01842B0BC021E0F1
:1015B00030E0B90102C0660F771F8A95E2F7CB01D0
:1015C0008095842384BB43CF8FEF08958F3F09F428
:1015D000D5C0E82FE7704E2F50E0611167C047304B
:1015E000510508F0CBC0FA01E455FF4F869586956A
:1015F00086950C94E12441B121E030E0B90102C0AC
:10160000660F771F8A95E2F7CB018095842365C02A
:1016100044B121E030E0B90102C0660F771F8A951E
:10162000E2F7CB018095842365C047B121E030E02B
:10163000B90102C0660F771F8A95E2F7CB0180954A
:10164000842365C04AB121E030E0B90102C0660FD1
:10165000771F8A95E2F7CB018095842365C04DB151
:1016600021E030E0B90102C0660F771F8A95E2F7EA
:10167000CB018095842365C040B321E030E0B901FF
:1016800002C0660F771F8A95E2F7CB01809584230D
:1016900065C043B321E030E0B90102C0660F771F97
:1016A0008A95E2F7CB018095842365C047305105C8
:1016B00008F064C0FA01ED54FF4F86958695869533
:1016C0000C94E12441B121E030E0B90102C0660F81
:1016D000771F8A95E2F7CB01842B81B94DC044B1C5
:1016E00021E030E0B90102C0660F771F8A95E2F76A
:1016F000CB01842B84B940C047B121E030E0B9016F
:1017000002C0660F771F8A95E2F7CB01842B87B959
:1017100033C04AB121E030E0B90102C0660F771F43
:101720008A95E2F7CB01842B8AB926C04DB121E01E
:1017300030E0B90102C0660F771F8A95E2F7CB014E
:10174000842B8DB919C040B321E030E0B90102C04B
:10175000660F771F8A95E2F7CB01842B80BB0CC004
:1017600043B321E030E0B90102C0660F771F8A95CC
:10177000E2F7CB01842B83BB81E008958FEF0895BE
:10178000811106C080B18695817091E08927089506
:101790008FEF0895009711F483E20DC08130910519
:1017A00011F48BE208C08230910511F483E303C089
:1017B000039729F48BE30E94DB0981E008958FEF02
:1017C0000895009711F483E20DC08130910511F462
:1017D0008BE208C08230910511F483E303C00397C4
:1017E00029F48BE30E94C80881E008958FEF0895E3
:1017F000009711F483E20DC08130910511F48BE262
:1018000008C08230910511F483E303C0039729F4E3
:101810008BE30E94390981E008958FEF08958823B2
:1018200019F085B78F7E02C085B7806185BF81E0E2
:1018300008959091C80095FFFCCF8093CE00089545
:101840009093C5008093C40086E08093C200E1ECD1
:10185000F0E080818B7F8083A0ECB0E08C9182608F
:101860008C9380818861808308959093CD008093CC
:10187000CC0086E08093CA00E9ECF0E080818B7FA9
:101880008083A8ECB0E08C9182608C938081886129
:10189000808308950E94200C67E878E080EF97E04D
:1018A0000E941B25909399078093980767E878E03A
:1018B00080EF97E00E941B259093970780939607EF
:1018C0000E94AA11809381038F3F19F48EE00E9439
:1018D000E70F1092E5031092E4031092E3031092D5
:1018E000E2038091C10080688093C10008958091D7
:1018F000C80087FFFCCF8091C8008F778093C80015
:101900008091CE00089500000000000000000197C3
:10191000D1F708950C9476260E947E260895EF92C2
:10192000FF920F931F93CF93DF937C0180E090E0B1
:101930000E947626182FF701838381E090E00E94B1
:101940007626082FF701828382E090E00E947626B7
:10195000D82FF701818383E090E00E947626C82F7C
:10196000F701808384E090E00E947626100FD10F6B
:10197000CD0F8C1711F08FEF01C081E0DF91CF9177
:101980001F910F91FF90EF900895CF93DF93EC019B
:1019900085E090E00E947626888381E0DF91CF91F8
:1019A0000895FC01608186E090E00E947E2681E03F
:1019B0000895CF93DF93EC0186E090E00E947626B5
:1019C000888381E0DF91CF9108950F931F93CF9388
:1019D000DF938C01C0E0D0E0CE0108960E9476260D
:1019E000F80181938F012196C031D105A9F781E0DB
:1019F000DF91CF911F910F9108950F931F93CF9374
:101A0000DF938C01C0E0D0E0F80161918F01CE013D
:101A100008960E947E262196C031D105A9F781E063
:101A2000DF91CF911F910F910895CF93DF93EC0138
:101A300087E090E00E947626888381E0DF91CF9155
:101A40000895FC01608187E090E00E947E2681E09D
:101A50000895F8940895789408950E94290DFFCF71
:101A6000CF93DF93CDB7DEB7A3970FB6F894DEBF61
:101A70000FBECDBF0E94AA1180935B078F3F21F458
:101A800060E08EE00E94F40F0E94062080FF04C0F8
:101A900060E086E00E94F40F0E941D228F3F31F427
:101AA0000E94002260E080E10E94F40F0E940E225A
:101AB00010925E0710926C0710926B0710925D07F0
:101AC00010925C0710926D0710926A078FEF809357
:101AD0005107809353078093520780935407809354
:101AE0005607809355078093570780935907809333
:101AF000580793E69093AD068093AB069093D80673
:101B00008093D606909303078093010790932E0746
:101B100080932C078EE697E023E737E03093720737
:101B200020937107909375078093740748E757E0F7
:101B3000509377074093760730937A07209379077D
:101B40002DE737E030937C0720937B0750937F0786
:101B500040937E0742E857E0509381074093800707
:101B600030938407209383071092700710926F07B9
:101B700010928607109285071092610710926007F5
:101B80009093A2068093A1066EE97AE1CE010196B8
:101B90000E943E2240E850E066EE75E0CE010196DC
:101BA0000E94422285E58093E60519861C861D86E3
:101BB0001E861F86188A198A1A8A1B8A1C8A1D8A01
:101BC0001E8A1F8A188E198E1A8E1B8E1C8E1D8ED1
:101BD0001E8E1F8E18A219A21AA21BA281E088874E
:101BE00092E09A878B87CE0101960E94DB15A3961F
:101BF0000FB6F894DEBF0FBECDBFDF91CF91089531
:101C00000BEA16E0C0E0F801D080FFEFDF1222C03F
:101C1000CF5F055D1F4FC430B1F70E94CE142BE299
:101C20008202C0011124FC01ED55F94F8285809399
:101C30006D07F0936C07E0936B07F0935D07E093FB
:101C40005C0780935E070E94B4220E949E220E943D
:101C5000B82216C08BEAE82E86E0F82ED0E0CD1729
:101C600041F0F7018081D81204C06D2D85E00E94FB
:101C7000F40FDF5FFBE2EF0EF11CD43081F7C8CF29
:101C8000FFCFCF92DF92EF92FF920F931F93CF93EC
:101C9000DF93EC018B017A018985823021F08091FC
:101CA0005A07888301C0188280915A07843020F037
:101CB00060E087E00E94F40F8985823029F08091EE
:101CC0005A078F5F80935A0780915A07811103C08A
:101CD00081E080935A0738812BE23203F00111240E
:101CE000ED55F94F1183008388858287388132034F
:101CF000F0011124ED55F94F83E0818738813203DB
:101D0000F0011124ED55F94F30870881020380015D
:101D100011240D55194FF8011582CE010B960E9422
:101D2000341AF80161A372A383A394A38B859C85C5
:101D3000AD85BE8588339948A144B10520F06881FE
:101D400086E10E94F40FC880DD24C7FCD094CE0148
:101D50004B960E94341A1BE21C9DF0011D9DF00D54
:101D60001124ED55F94F658B768B878B908F2881E9
:101D70002103C00111249C012D55394F6901F9013E
:101D8000458956896789708D81A192A1A3A1B4A1CB
:101D9000840F951FA61FB71F818F928FA38FB48FBB
:101DA000CE0143960E94341AF60165A376A387A359
:101DB00090A728812103F0011124ED55F94F85A149
:101DC00096A1A7A1B0A5858F968FA78FB0A381E01C
:101DD00090E092A781A7F382E2828487DF91CF917E
:101DE0001F910F91FF90EF90DF90CF9008950C948A
:101DF000B81A85E690E00895E0916B07F0916C07C2
:101E000084870895E0916B07F0916C0784850895AD
:101E1000FC018091E505882331F0DB018C938091F2
:101E2000E803808381E008958091E505882309F423
:101E300083C085EF93E00E9472088091E8031F92AF
:101E40008F9385E393E09F938F930E949E2581EF6C
:101E500093E00E9472080F900F900F900F90809166
:101E6000E505883110F01092E505E091E5058E2F2B
:101E700090E0FC013197E631F10508F046C0E654E8
:101E8000FF4F0C94E12485EB93E041C08EE893E092
:101E90003EC08AE793E03BC084E693E038C089E423
:101EA00093E035C083E393E032C08BE193E02FC031
:101EB00088E093E02CC085EF92E029C087ED92E0A6
:101EC00026C082EB92E023C086EA92E020C08BE835
:101ED00092E01DC08CE792E01AC088E692E017C03D
:101EE00087E592E014C083E492E011C083E292E0BF
:101EF0000EC08BE092E00BC080EF91E008C08FED48
:101F000091E005C080ED91E002C089EC91E00E9473
:101F1000720860919807709199078DE090E00E9497
:101F2000662560919807709199078AE090E00E9479
:101F300066258091E505089580E0089513BC109210
:101F4000B60018BC17BC16BC15BC14BC1DBA1CBA14
:101F50001BBA10929B0010929A0010929900109256
:101F60009800109295001092940010929100109297
:101F7000900018BA109271001092B4001092B30041
:101F80001092B2001092B100E0EBF0E010821082EB
:101F900017BA109270008FEF84BF08950E94290D28
:101FA0000E9400228091E505803171F083518230DA
:101FB00058F00E949E0F81E094E00E9472080E94F7
:101FC0000E220E94290DFFCF1092E50508958093FF
:101FD000E505E0916B07F0916C0780858093E8033D
:101FE0000E94140F0C94CE0F8093E5056093E803D4
:101FF0000E94140F0C94CE0FCF93DF931F92CDB796
:10200000DEB719828981843640F480ED97E00E9422
:102010003C1E89818F5F8983F5CF0F90DF91CF912F
:10202000089581E090E00E94F80B0E94FC0F0E944E
:10203000FC0F0E94FC0F81E090E00E94E10B0C94E9
:10204000FC0F81E090E00E94F80B0E94FC0F81E001
:1020500090E00E94E10B0C94FC0FFF920F931F93F2
:10206000CF93DF9300D01F92CDB7DEB71F928F932F
:1020700085E393E09F938F938E010F5F1F4F1F9314
:102080000F930E94E8250F900F900F900F900F90E4
:102090000F90F12CF80101900020E9F73197E01B37
:1020A000F10B8F2D90E08E179F0708F05DC0F801AF
:1020B000E80FF91FE0818E2F90E0FC01F097EA30E5
:1020C000F10508F049C0E053FF4F0C94E1240E9451
:1020D000111002C00E9421100E9411100E941110C4
:1020E0000E9411100E94111037C00E9421100E94FE
:1020F0002110F4CF0E9421100E9421100E94211073
:10210000EFCF0E9421100E9421100E9421100E94F6
:102110002110E8CF0E94211002C00E9411100E94DD
:10212000211004C00E9411100E9411100E94211061
:1021300006C00E9411100E9411100E9411100E94EE
:10214000211008C00E9411100E9411100E9411104D
:102150000E9411100E9421100E94FC0F0E94FC0F8F
:102160000E94FC0FF39496CF0F900F900F90DF9189
:10217000CF911F910F91FF9008956F927F928F9250
:102180009F92AF92BF92CF92DF92EF92FF920F9306
:102190001F93CF93DF9381E194E00E947208E09156
:1021A0006B07F0916C078085282F332727FD30952A
:1021B0003F938F9388E393E09F938F930E949E2594
:1021C000E0916B07F0916C07C281D381DF93CF93CD
:1021D0008CE693E09F938F930E949E2588811F92A7
:1021E0008F9381E493E09F938F930E949E25E091CB
:1021F0006B07F0916C0781818F9380818F938EE4C0
:1022000093E09F938F930E949E2580916C078F93FC
:1022100080916B078F9388E593E09F938F930E9443
:102220009E25C3EAD6E0EDB7FEB774960FB6F894D4
:10223000FEBF0FBEEDBF00E010E088E6682E83E031
:10224000782E91E4892E93E0992E2EE4A22E23E09D
:10225000B22E38E5C32E33E0D32EEA80FB80FF9206
:10226000EF921F930F937F926F920E949E25F7012A
:1022700080811F928F939F928F920E949E258981C9
:102280008F9388818F93BF92AF920E949E25DF9398
:10229000CF93DF92CF920E949E250F5F1F4FAB9688
:1022A000EDB7FEB772960FB6F894FEBF0FBEEDBF46
:1022B0000430110591F6DF91CF911F910F91FF909E
:1022C000EF90DF90CF90BF90AF909F908F907F90D6
:1022D0006F900895CF93DF93E0916B07F0916C07B7
:1022E000C281D3818881853539F00E94BD1081E09B
:1022F0000E94E70F85E58883E0916B07F0916C07FA
:10230000808191818115924438F00E94BD1082E154
:10231000DF91CF910C94E70FDF91CF9108952BE2DD
:102320008202C0011124FC01ED55F94FA281B38155
:102330008C91853519F085E58C9308C08081918159
:102340008115924428F082E10E94E70F8FEF0895F3
:1023500081E008950F931F934091F6045091F70484
:102360006091F8047091F90480E090E08A019B018B
:10237000082E04C036952795179507950A94D2F72D
:1023800000FD19C001E010E020E030E0082E04C09C
:10239000000F111F221F331F0A94D2F7402B512B1D
:1023A000622B732B4093F6045093F7046093F80468
:1023B0007093F90405C0019680329105B9F68FEF4C
:1023C0001F910F910895E0916B07F0916C0765855F
:1023D0007685878590890895CF92DF92EF92FF925C
:1023E0000F931F93CF93DF93C12CD12C7601C3940D
:1023F000082E04C0CC0CDD1CEE1CFF1C0A94D2F786
:102400004091F6045091F7046091F8047091F9043A
:102410004C215D216E217F21452B462B472B09F452
:1024200060C0082F0E94290DECEAF6E0B701A60172
:10243000409550956095709513E0DF0111978C9150
:102440008F3F39F184819581A681B7818C159D05D7
:10245000AE05BF0551F410861186128613869F01C2
:1024600022503109E9011882108384239523A62381
:10247000B72384839583A683B78380859185A285BE
:10248000B38584239523A623B72380879187A287CA
:10249000B387BB96D7E0E835FD0779F68EEF9FEF5F
:1024A000AFEFBFEF04C0880F991FAA1FBB1F0A958B
:1024B000D2F74091F6045091F7046091F8047091BE
:1024C000F90484239523A623B7238093F6049093DD
:1024D000F704A093F804B093F9040E942B0D81E057
:1024E00001C08FEFDF91CF911F910F91FF90EF907F
:1024F000DF90CF9008950F931F9341E050E060E08C
:1025000070E08A019B0104C0000F111F221F331FBE
:102510008A95D2F7D901C801E0916B07F0916C0759
:10252000458556856785708904231523262337231F
:10253000012B022B032BD1F080959095A095B0959F
:10254000482359236A237B23458756876787708BE7
:10255000418952896389748984239523A623B723EB
:10256000818B928BA38BB48B81E001C08FEF1F9185
:102570000F910895282F4091F6045091F70460912F
:10258000F8047091F904082E04C076956795579564
:1025900047950A94D2F740FF1DC0E0916B07F09178
:1025A0006C0781E090E0A0E0B0E004C0880F991FC4
:1025B000AA1FBB1F2A95D2F7458556856785708966
:1025C000842B952BA62BB72B85879687A787B08B57
:1025D00081E008958FEF0895CF92DF92EF92FF92FE
:1025E000CF93C12CD12C7601C39404C0CC0CDD1C3C
:1025F000EE1CFF1C8A95D2F78091F6049091F704A7
:10260000A091F804B091F9048C219D21AE21BF2145
:10261000892B8A2B8B2B11F481E044C00E94290D59
:10262000EAEAF6E0ACEAB6E0C0E083E090819130FF
:10263000B9F442855385648575854C215D216E21F1
:102640007F21452B462B472B59F08C9316861786F6
:10265000108A118A1082C286D386E486F586C1E08C
:1026600090819230A1F442855385648575854C151F
:102670005D056E057F0559F48C9316861786108AC2
:10268000118A10821286138614861586C1E0BB96C5
:102690009B9697E0E635F90749F60E942B0DC1118C
:1026A00005C082E00E94FC0E8FEF01C081E0CF9157
:1026B000FF90EF90DF90CF9008950F931F93E091DC
:1026C0006B07F0916C0705851685278530890623F1
:1026D000172328233923011511052105310511F18F
:1026E000DC01CB01818B928BA38BB48B21E0278300
:1026F00000905B0704C0B695A795979587950A94B7
:10270000D2F780FF03C00E94431704C080E090E02E
:102710000E941417E0916B07F0916C0701891289F0
:1027200023893489C901B8011F910F9108959091AF
:102730006A07923018F5209151072F3F51F02091F0
:1027400054072F3F41F0209157072F3F31F4E2E02B
:1027500005C0E0E003C0E1E001C0E3E0F0E09F017C
:10276000220F331FE20FF31FEF5AF84F828380834B
:1027700061839F5F90936A07CF01089580E090E0A6
:10278000089527E08135920749F027E084359207C4
:1027900039F08755974031F482E0089580E008953C
:1027A00081E008958FEF08950E94C1138F3F11F4C7
:1027B00081E003C0833029F482E00E94FC0E8FEF99
:1027C0000895992787FD9095FC01EE0FFF1F8E0F4E
:1027D0009F1FFC01EF5AF84F82810895EF92FF92FC
:1027E0000F931F93CF93DF931F92CDB7DEB70E9455
:1027F000C1138F3F11F481E003C0833029F482E0DC
:102800000E94FC0E8FEF41C089830E94290D8981AF
:10281000E82EFF24E7FCF0948701000F111FF80158
:10282000EE0DFF1DEF5AF84F9281911116C0E09105
:102830006B07F0916C07978192609783992787FDCA
:102840009095A92FB92F818B928BA38BB48B0E946B
:102850002B0D80E090E00E9414170E0D1F1DD80173
:10286000AF5AB84F12968C911297815012968C9352
:102870001297E0916B07F0916C0711968C9183870A
:1028800081E084830E942B0D81E00F90DF91CF9136
:102890001F910F91FF90EF9008950F931F93CF9387
:1028A000DF931F92CDB7DEB70E94C1138F3F11F4A3
:1028B00081E003C0833029F482E00E94FC0E8FEF98
:1028C00044C0482F552747FD50959A01220F331FCA
:1028D000240F351F89010F5A184FF801228190816A
:1028E000291794F589830E94290DF80192819F5F31
:1028F0009283E0916B07F0916C071482EAEAF6E0AC
:102900008981992787FD9095A92FB92F23E03081E0
:10291000323099F442855385648575854817590787
:102920006A077B0751F4228316861786108A118A5C
:1029300010821286138614861586BB9637E0E6351C
:10294000F30729F70E942B0D81E00F90DF91CF91C3
:102950001F910F9108950E94C1138F3F11F481E0E0
:1029600003C0833029F482E00E94FC0E8FEF0895AB
:10297000992787FD9095FC01EE0FFF1F8E0F9F1F7B
:10298000FC01EF5AF84F8FEF80838283818380911F
:102990006A07815080936A0781E00895E09160079B
:1029A000F091610780810895E0916007F0916107DF
:1029B000309721F00380F481E02DFACF0895AF9293
:1029C000BF92CF92DF92EF92FF920F931F93CF931C
:1029D000DF93E091A106F091A206309709F490C030
:1029E00000916007109161070115110509F44CC0B1
:1029F000D8014BE2582F5403900111242D55394F23
:102A000079019AE0E90EF11C6901C4E0CC0ED11CF9
:102A10005901DBE0AD0EB11C2C9130E0429FB001BA
:102A2000439F700D11246D55794FEB019C819923C3
:102A300029F05B85E7019881591740F1E6019881FB
:102A4000992369F0429FB001439F700D11246D5589
:102A5000794FEB015A85E50198815917B8F0429FEB
:102A6000B001439F700D11249B012D55394FE90191
:102A70002A85E7019881291748F013960D90BC919B
:102A8000A02D109749F602C0A0E0B0E08083C3817A
:102A9000D481D093A206C093A106A017B107B1F4C8
:102AA000109749F0B483A383128211821296FC938B
:102AB000EE93119706C01482138212821182FA8358
:102AC000E983F0936107E09360071AC011968D9136
:102AD0009C911297AC17BD0759F092838183B48300
:102AE000A3831196CD91DC911297FC83EB8304C0F4
:102AF00014821382928381831296FC93EE93119732
:102B0000DF91CF911F910F91FF90EF90DF90CF90C9
:102B1000BF90AF900895CF93DF93E0916007F0915D
:102B20006107309709F444C0992787FD909520816B
:102B300030E02817390781F4A381B481B09361078D
:102B4000A093600712961C921E92119718C00380E2
:102B5000F481E02D309761F1208130E028173907AA
:102B6000B1F7C181D281838194819C838B83A381BE
:102B7000B481109721F01296DC93CE931197A09117
:102B8000A106B091A206109739F4F093A206E09343
:102B9000A106148213820AC0B483A3831296FC9305
:102BA000EE931197F093A206E093A1061282118290
:102BB000DF91CF910895EF92FF920F931F93CF93E0
:102BC000DF93EC014B815C8169817A818D819E81EB
:102BD0000E9460222F81222371F04B815C81E12CC5
:102BE000F12C00E010E020E030E0BC01CE010E94BA
:102BF000410E1F820CC0E8812BE2E202F001112499
:102C0000ED55F94F21852330B9F491838083E88114
:102C10008BE2E802F0011124ED55F94F8589968980
:102C2000A789B08D892B8A2B8B2B41F482E0818779
:102C300088810E94DF1402C08FEF01C081E0DF9124
:102C4000CF911F910F91FF90EF9008951F93CF9315
:102C5000DF93CDB7DEB728970FB6F894DEBF0FBE6F
:102C6000CDBF29833A834B835C836D837E838F83BF
:102C700098870E94290D0E948A1F182FCE01019665
:102C80000E94341A6330710598F0E0916B07F0915F
:102C90006C07212F30E0620F731FCB01A0E0B0E082
:102CA000858B968BA78BB08F0E942B0D81E001C086
:102CB0008FEF28960FB6F894DEBF0FBECDBFDF9121
:102CC000CF911F9108950E943322E0916B07F091FC
:102CD0006C0785818111F7CF0895CF930E946A1107
:102CE0000E94290DE0916B07F0916C0781E090E064
:102CF00092A781A785830E948A1FC82F883F80F4EE
:102D00000E94241F2C2F30E02F5F3F4F90E02817A8
:102D1000390734F482E08C0F8093E4050E94281F69
:102D20000E942B0D0E94631681E0CF910895E091DF
:102D30006B07F0916C0780850E948B15E0916B0703
:102D4000F0916C0784E081870E946D1681E0089500
:102D5000CF93DF93EC010E946A11209711F4C1E038
:102D6000D0E00E94290DE0916B07F0916C0781E0A3
:102D70008583D2A7C1A70E948A1FC82F883F80F4ED
:102D80000E94241F2C2F30E02F5F3F4F90E0281728
:102D9000390734F482E08C0F8093E4050E94281FE9
:102DA0000E942B0D0E94631681E0DF91CF91089560
:102DB000EF92FF920F931F93CF938C010E94290DE6
:102DC000E0916B07F0916C0781E085830E948A1F78
:102DD000C82FE0916B07F0916C07E82EF12CC7012A
:102DE000800F911FA0E0B0E0858B968BA78BB08FF2
:102DF000C83F78F40E94241F9FEFE91AF90A90E077
:102E0000E816F90634F482E08C0F8093E4050E9402
:102E1000281F0E942B0D0E94631681E0CF911F9105
:102E20000F91FF90EF900895CF93DF93EC010E94F4
:102E3000290DE0916B07F0916C0721E02583CE010D
:102E4000A0E0B0E0858B968BA78BB08F0E948A1F85
:102E5000C82F883F80F40E94241F2C2F30E02F5F62
:102E60003F4F90E02817390734F482E08C0F8093AD
:102E7000E4050E94281F0E942B0D0E94631681E02A
:102E8000DF91CF910895CF930E94290DE0916B07B8
:102E9000F0916C0781E0858386830E948A1FC82F8A
:102EA000883F80F40E94241F2C2F30E02F5F3F4F7B
:102EB00090E02817390734F482E08C0F8093E40502
:102EC0000E94281F0E942B0D0E94631681E0CF9163
:102ED00008951F93CF93DF93CDB7DEB728970FB632
:102EE000F894DEBF0FBECDBF29833A834B835C834A
:102EF0006D837E838F8398870E946A110E94290DBB
:102F0000E0916B07F0916C0781E0858381E090E0B0
:102F100092A781A70E948A1F182FCE0101960E94B6
:102F2000341AE0916B07F0916C07DC01CB01810F43
:102F3000911DA11DB11D858B968BA78BB08F183F5E
:102F400080F40E94241F212F30E02F5F3F4F90E03C
:102F50002817390734F482E0810F8093E4050E943A
:102F6000281F0E942B0D0E94631681E028960FB641
:102F7000F894DEBF0FBECDBFDF91CF911F910895B2
:102F80008F929F92AF92BF92CF92DF92EF92FF9279
:102F90000F931F93CF93DF93CDB7DEB760970FB634
:102FA000F894DEBF0FBECDBF29873A874B875C8779
:102FB0006D877E878F87988BCE0101960E941C18A3
:102FC00089809A80AB80BC80CD80DE80EF80F884E1
:102FD00009851A852B853C854D855E856F857889A9
:102FE000CE0109960E9479188F3F61F029853A85B4
:102FF0004B855C856D857E858F8598890E946917D4
:1030000081E001C08FEF60960FB6F894DEBF0FBE6F
:10301000CDBFDF91CF911F910F91FF90EF90DF9087
:10302000CF90BF90AF909F908F900895E0916B07E5
:10303000F0916C07808508950F931F93CF93DF93D2
:10304000EC011C821D821E821F828091620790917A
:103050006307A0916407B091650788839983AA8369
:10306000BB838091660790916707A0916807B09134
:1030700069078C839D83AE83BF830E948A1FA82F1C
:10308000B0E023EB36EE4EE050E00E9445240C8188
:103090001D812E813F81DC01CB01800F911FA21F7A
:1030A000B31F8C839D83AE83BF838C819D81AE8152
:1030B000BF8181152AEC92072AE9A2072BE3B20708
:1030C00098F09A5CAA49BB438C839D83AE83BF83EF
:1030D00088819981AA81BB810196A11DB11D888338
:1030E0009983AA83BB83E1CFDF91CF911F910F9189
:1030F00008958F929F92AF92BF92CF92DF92EF92FC
:10310000FF920F931F93CF93DF93CDB7DEB76097F6
:103110000FB6F894DEBF0FBECDBFFC0109831A8342
:103120002B833C834D835E836F83788789869A8661
:10313000AB86BC86CD86DE86EF86F88A09811A8149
:103140002B813C814D815E816F817885C984DA84D1
:10315000EB84FC848D859E85AF85B8890C151D0593
:103160002E053F05F0F1C016D106E206F30691F4F4
:10317000481759076A077B07A0F1481B590B6A0BD0
:103180007B0B44835583668377831082118212827E
:10319000138225C0481759076A077B0780F401503E
:1031A0001109210931090C191D092E093F09008354
:1031B00011832283338356536546744C08C00C191F
:1031C0001D092E093F090083118322833383481B85
:1031D000590B6A0B7B0B448355836683778381E0AD
:1031E00001C08FEF60960FB6F894DEBF0FBECDBF63
:1031F000DF91CF911F910F91FF90EF90DF90CF90D3
:10320000BF90AF909F908F900895FC0144815581AD
:103210006681778141158AEC58078AE968078BE354
:10322000780798F05A5C6A497B43448355836683E8
:10323000778380819181A281B3810196A11DB11D07
:1032400080839183A283B383E1CF08958F929F926D
:10325000AF92BF92CF92DF92EF92FF920F931F93A4
:10326000CF93DF93CDB7DEB760970FB6F894DEBF8C
:103270000FBECDBF09831A832B833C834D835E83AE
:103280006F83788789869A86AB86BC86CD86DE86F4
:10329000EF86F88A09851A852B853C8549815A81F4
:1032A0006B817C81400F511F621F731FFC014083A3
:1032B0005183628373830D851E852F8538894D81E7
:1032C0005E816F817885400F511F621F731F448399
:1032D0005583668377830E94051981E060960FB657
:1032E000F894DEBF0FBECDBFDF91CF911F910F913C
:1032F000FF90EF90DF90CF90BF90AF909F908F9016
:103300000895E2E6F7E060837183828393832483E8
:1033100035834683578308952F923F924F925F9251
:103320006F927F928F929F92AF92BF92CF92DF92D5
:10333000EF92FF920F931F93FC01C080D180E28037
:10334000F3806481758186819781C114D104E10481
:10335000F104C1F1F2E4CF16D104E104F104D0F597
:103360001B012C01612C712C4301E0E08E2F90E0B9
:10337000A0E0B0E08C159D05AE05BF0588F4910175
:10338000A201B301C40136534546544C6F4F7F4FE1
:103390008F4F9F4F19012A013B014C01EF5FE6CF90
:1033A00083EBA82E96EEB92E2EE0C22ED12CE12C66
:1033B000F12C00E010E09101A201B301C4010E94D0
:1033C000842406C023EB36EE4EE050E00E946024D9
:1033D000C90102C080E090E01F910F91FF90EF9033
:1033E000DF90CF90BF90AF909F908F907F906F9025
:1033F0005F904F903F902F900895CF92DF92EF9281
:10340000FF92CF93DF93CDB7DEB728970FB6F8942E
:10341000DEBF0FBECDBF6B017C012AE0F694E794BE
:10342000D794C7942A95D1F7C982DA82EB82FC82BD
:103430009B01AC0133704427552763EB76EE8EE099
:1034400090E00E9450242C2D3A814B815C8128967B
:103450000FB6F894DEBF0FBECDBFDF91CF91FF90C6
:10346000EF90DF90CF9008952F923F924F925F920E
:103470006F927F928F929F92AF92BF92CF92DF9284
:10348000EF92FF920F931F93FC01C080D180E280E6
:10349000F3806481758186819781C114D104E10430
:1034A000F10499F11B012C01612C712C4301E0E026
:1034B0008E2F90E0A0E0B0E08C159D05AE05BF0515
:1034C00088F49101A201B301C40136534546544C1E
:1034D0006F4F7F4F8F4F9F4F19012A013B014C01C6
:1034E000EF5FE6CF83EBA82E96EEB92E2EE0C22E2C
:1034F000D12CE12CF12C00E010E09101A201B301EC
:10350000C4010E948424CA0107C023EB36EE4EE0BA
:1035100050E00E946024CA01B9011F910F91FF90F1
:10352000EF90DF90CF90BF90AF909F908F907F9063
:103530006F905F904F903F902F900895C1E00E9450
:103540006A110E94241F843010F4C0935F070E9408
:1035500033228091E605853519F088E00E94E70F57
:1035600080913A41853559F388E00E94E70FE7CF13
:103570002F923F924F925F926F927F928F929F9283
:10358000AF92BF92CF92DF92EF92FF920F931F9371
:10359000CF93DF9300D01F92CDB7DEB70E942B0DE3
:1035A0008AEF0E94281F0E942422A091E405B0E027
:1035B00023EB36EE4EE050E00E9445240091660772
:1035C0001091670720916807309169076B017C01B2
:1035D000C00ED11EE21EF31EC701B60123EB36EE6C
:1035E0004EE050E00E94602426013701461A570A37
:1035F000680A790AD301C20100916207109163073A
:10360000209164073091650743EB442E46EE542E1B
:103610004EE0642E712C480159014FEF841A940A30
:10362000A40AB40A81155AEC95075AE9A5075BE389
:10363000B507C8F06C017D012AECD21A2AE9E20A2A
:103640002BE3F20AC701B601A30192010E94602494
:10365000A7019601261B370B480B590BDA01C9014C
:1036600095018401D8CF8093660790936707A09354
:103670006807B0936907009362071093630720936C
:10368000640730936507E0916B07F0916C078581C3
:10369000882339F18185843021F18781823029F0B6
:1036A000882341F08681811102C085E001C083E05A
:1036B000818714C083E08187178216828589968965
:1036C000A789B08D892B8A2B8B2B41F4818D928D0C
:1036D000A38DB48D858B968BA78BB08F80850E9430
:1036E0008B15E0916B07F0916C0785A196A1A7A1BE
:1036F000B0A5892B8A2B8B2B09F444C0208522236B
:1037000009F440C081858430E9F1858D968DA78DBF
:10371000B0A14091E40550E060E070E084179507A7
:10372000A607B70768F4622F82E00E94F40FE091C9
:103730006B07F0916C07158E168E178E10A208C0BD
:10374000841B950BA60BB70B858F968FA78FB0A305
:10375000E0916B07F0916C071085858D968DA78D94
:10376000B0A1892B8A2B8B2B69F4612F83E00E94F7
:10377000F40FE0916B07F0916C0783E08187812F54
:103780000E948B158CEA96E09B838A8300E61AEEF2
:10379000312C9AEFC92ED12CE12CF12C22E0222ED3
:1037A000812C912C54018394EA81FB813197808193
:1037B0008F3F09F4FFC0EA81FB8134971082EA81D0
:1037C000FB81F081F983882309F468C0F43009F49F
:1037D000F1C0EA81FB8144845584668477846091DA
:1037E000E40570E080E090E046165706680679062A
:1037F00048F0461A570A680A790A4486558666864A
:10380000778606C0EA81FB811486158616861786A0
:10381000EA81FB8140885188628873884616570682
:103820006806790648F0A3019201261B370B480B66
:10383000590BDA01C90113C0EA81FB81208D318D5A
:10384000428D538D621773078407950768F4290129
:103850003A01461A570A680A790AD301C201808BD5
:10386000918BA28BB38B08C00E946024EA81FB81FC
:10387000608B718B828B938BEA81FB81808991892C
:10388000A289B389892B8A2B8B2B41F4808D918D52
:10389000A28DB38D808B918BA28BB38BF981F3308A
:1038A00009F088C0EA81FB8184859585A685B78566
:1038B000892B8A2B8B2B09F06AC0DF0112978C9120
:1038C0009F01235031098823A9F0F90180818823C1
:1038D00089F0B501A40100905B0704C0440F551F97
:1038E000661F771F0A94D2F7EA81FB8140875187D0
:1038F000628773871C92F9011082EA81FB81A0A183
:10390000B1A1408C518C628C738C448D558D668D29
:10391000778DA130B105C9F4448B558B668B778BBD
:10392000208280899189A289B38984879587A68717
:10393000B78745284628472821F4C486D586E686D9
:10394000F786832D0E94DF1422C0EA81FB81448B1D
:10395000558B668B778B1197A30192010E944524AA
:103960006487758786879787608B718B828B938B33
:1039700045284628472821F4C486D586E686F7865A
:1039800044244394512CEA81FB8151A240A2EA8154
:10399000FB8184859585A685B7850097A105B1052E
:1039A00049F0A80160E070E084179507A607B70703
:1039B00008F48C0133942A813B81255D3F4F3B8382
:1039C0002A8334E03312F0CE0E94CE14F82E4BE25C
:1039D0008402F0011124ED55F94F228520936D07E3
:1039E000F0935D07E0935C078823D9F085A196A149
:1039F000A7A1B0A5892B8A2B8B2B99F0858D968D4D
:103A0000A78DB0A18A3F9105A105B10550F4A80189
:103A100060E070E084179507A607B70710F48C01E3
:103A200005C00B3F110510F00AEF10E020935E0770
:103A3000F0936C07E0936B070093E4050E948A1FE4
:103A4000282F30E02F5F3F4F2017310740F00E94B2
:103A50008A1F082F10E00E5F1F4F0093E405F1103E
:103A600010925F07802F0E94281F0E94AD220F90A6
:103A70000F900F90DF91CF911F910F91FF90EF90DA
:103A8000DF90CF90BF90AF909F908F907F906F907E
:103A90005F904F903F902F900C94B8229C01909192
:103AA0008807191674F084E09802F0011124E75792
:103AB000F84F6083338322839F5F9093880781E070
:103AC00008958FEF08950F931F93CF93DF93409145
:103AD0008807552747FD5095C0E090E02C2F30E037
:103AE000241735078CF58901000F111F000F111FD6
:103AF000D801A757B84FEC91FF27E7FDF095E817DD
:103B0000F90701F5D62FF901E357F84F80818111AC
:103B10000BC081E080831296ED91FC91139720E019
:103B200040E050E080E00995F801E757F84F028047
:103B3000F381E02D20E040E050E06D2F81E0099519
:103B40008C2F03C0CF5FCACF8FEFDF91CF911F9132
:103B50000F91089590E020918807332727FD309535
:103B60002817390784F0880F991F880F991FFC01C7
:103B7000E757F84F0280F381E02D20E040E050E06D
:103B800060E082E0099481E00E94FC0E8FEF0895CE
:103B9000242F90E0E0918807FF27E7FDF095E817D4
:103BA000F90774F0880F991F880F991FFC01E757D8
:103BB000F84F0280F381E02DAB0160E086E00994CC
:103BC00081E00E94FC0E8FEF0895242F90E0E09199
:103BD0008807FF27E7FDF095E817F90774F0880FCD
:103BE000991F880F991FFC01E757F84F0280F38156
:103BF000E02DAB0160E085E0099481E00E94FC0EBD
:103C00008FEF0895242F90E0E0918807FF27E7FDCC
:103C1000F095E817F90774F0880F991F880F991F1E
:103C2000FC01E757F84F0280F381E02D40E050E0BF
:103C300084E0099481E00E94FC0E8FEF089590E0EB
:103C400020918807332727FD3095281739077CF006
:103C5000880F991F880F991FFC01E757F84F0280C2
:103C6000F381E02D20E040E050E083E0099481E022
:103C70000E94FC0E8FEF089500000000000000007D
:103C80000000000000000000000000000000000034
:103C9000019791F7089510922101089589E080938A
:103CA00021018DE89CE390932901809328010895D8
:103CB00010922501109224010895CF93DF9300D034
:103CC000CDB7DEB780912401909125019A83898335
:103CD00089819A810F900F90DF91CF910895109272
:103CE0008100089581E080938100089583B581600B
:103CF00083BD10928500109284000895CF93DF93C6
:103D000000D0CDB7DEB780918400909185009A8372
:103D1000898389819A810F900F90DF91CF910895C7
:103D2000CF92DF92EF92FF92CF93DF93EC01CC0F13
:103D3000DD1FC9378FEFD80710F0C0E0D0E06B016E
:103D4000E12CF12CCC0EDD1EE11CF11C81E0C8162B
:103D5000D104E806F10440F081E0E81AF1080E947D
:103D60007E1EC817D907D8F30E947E1E8C159D05AC
:103D7000D8F3DF91CF91FF90EF90DF90CF9008952F
:103D80001092B100E0E7F0E080818D7F8083808138
:103D90008E7F808308958093B2000895E0E7F0E07D
:103DA00080818360808383E08093B100089583B530
:103DB000826083BD1092B2001092E9031092E40574
:103DC0000895CF93DF938EEF8093E40580E2809394
:103DD000B6008091E4058093B30083E087BB92E056
:103DE0009093B0008093B10093B5926093BD87BB70
:103DF00084BD83B5826083BD1092800081E0809392
:103E00008100109285001092840083B5826083BD8A
:103E100083B5816083BD10922001C4E2D1E0198294
:103E2000188283B5826083BD83B5816083BD0E94A3
:103E3000D71E198218820E94CE1E0E944E1E10921A
:103E4000E903DF91CF9108958091B3008F5F0895CA
:103E500081508093B3000895811102C010927100C7
:103E60008FEF0895811106C0109295001092940072
:103E700081E008958FEF0895811105C0809194002D
:103E800090919500089580E090E00895811105C01B
:103E900082E08093710081E008958FEF0895811191
:103EA00035C0CB010197059710F46093E30510929C
:103EB000900088E08093910050939900409398007F
:103EC0003093E7032093E6038091E305813021F4EA
:103ED00080919100816011C0823021F48091910025
:103EE00082600BC0833021F480919100836005C013
:103EF000843031F48091910084608093910008C0F7
:103F0000853031F4809191008560F7CF8FEF08956F
:103F100081E008958091B20008951F920F920FB62C
:103F20000F92112460E08AE00E94F40FFFCF0F92FD
:103F30000FB60F921F922F923F924F925F926F9205
:103F40007F928F929F92AF92BF92CF92DF92EF9229
:103F5000FF920F931F932F933F934F935F936F9312
:103F60007F938F939F93AF93BF93CF93DF93EF9301
:103F7000FF93A0916B07B0916C070DB60D920EB632
:103F80000D921F92A0916E05B0916F051E90BEBF5D
:103F9000ADBF08951F920F920FB60F9211240BB66A
:103FA0000F922F933F934F935F936F937F938F93D2
:103FB0009F93AF93BF93EF93FF93E091E603F0914C
:103FC000E703309711F0099504C060E08AE00E9491
:103FD000F40FFF91EF91BF91AF919F918F917F91DE
:103FE0006F915F914F913F912F910F900BBE0F906A
:103FF0000FBE0F901F9018951F920F920FB60F9241
:1040000011240F900FBE0F901F90189504B603FE59
:1040100002C080E101C080E004B602FE06C094B791
:104020009B7F94BF04B600FE846004B601FE05C009
:1040300094B79D7F94BF8260089581110CC004B62F
:1040400000FE04C094B79E7F94BF01C081E09091B0
:10405000B000911181E00895811102C0E89A39C041
:10406000813011F4E99A0895823011F4EA9A31C04E
:10407000833021F480916B00816029C0843021F469
:1040800080916B00826023C0853021F480916B00A9
:1040900084601DC0863021F480916B00886017C059
:1040A000873021F480916B00806111C0883021F449
:1040B00080916B0080620BC0893021F480916B008D
:1040C000806405C08A3039F480916B0080688093E9
:1040D0006B0081E008958FEF0895811102C0E89888
:1040E00039C0813011F4E9980895823011F4E998CB
:1040F00031C0833021F480916B008E7F29C08430E1
:1041000021F480916B008D7F23C0853021F4809154
:104110006B008B7F1DC0863021F480916B00877F00
:1041200017C0873021F480916B008F7E11C08830DA
:1041300021F480916B008F7D0BC0893021F4809138
:104140006B008F7B05C08A3039F480916B008F77CC
:1041500080936B0081E008958FEF0895811126C050
:104160005093910740939007611104C080916900BA
:104170008C7F3DC0613049F4809169008D7F8093D0
:10418000690080916900816032C0623049F4809199
:104190006900826080936900809169008E7F27C0EA
:1041A000633039F580916900836021C0813049F521
:1041B00050938F0740938E07611104C0809169006E
:1041C000837F15C0613049F480916900877F8093B7
:1041D00069008091690084600AC0623061F4809156
:1041E0006900886080936900809169008B7F80936B
:1041F000690081E008956330E1F7809169008C6087
:10420000F6CF823031F550939307409392076111B6
:1042100004C0809169008F7CEACF613049F48091BD
:1042200069008F7D80936900809169008061DFCF94
:10423000623049F4809169008062809369008091C6
:1042400069008F7ED4CF6330A1F6809169008063CE
:10425000CECF8350883050F4809168008160809385
:1042600068005093950740939407C3CF8FEF08954C
:104270001F920F920FB60F9211240BB60F922F932D
:104280003F934F935F936F937F938F939F93AF93DE
:10429000BF93EF93FF93E0919407F09195073097C8
:1042A00011F0099504C060E08AE00E94F40FFF91CC
:1042B000EF91BF91AF919F918F917F916F915F919E
:1042C0004F913F912F910F900BBE0F900FBE0F900B
:1042D0001F9018951F920F920FB60F9211240BB6D4
:1042E0000F922F933F934F935F936F937F938F938F
:1042F0009F93AF93BF93EF93FF93E0919007F0915B
:104300009107309711F0099504C060E08AE00E949F
:10431000F40FFF91EF91BF91AF919F918F917F919A
:104320006F915F914F913F912F910F900BBE0F9026
:104330000FBE0F901F9018951F920F920FB60F92FD
:1043400011240BB60F922F933F934F935F936F936C
:104350007F938F939F93AF93BF93EF93FF93E091DE
:104360008E07F0918F07309711F0099504C060E037
:104370008AE00E94F40FFF91EF91BF91AF919F915E
:104380008F917F916F915F914F913F912F910F90FE
:104390000BBE0F900FBE0F901F9018951F920F929B
:1043A0000FB60F9211240BB60F922F933F934F939A
:1043B0005F936F937F938F939F93AF93BF93EF938D
:1043C000FF93E0919207F0919307309711F00995D0
:1043D00004C060E08AE00E94F40FFF91EF91BF916A
:1043E000AF919F918F917F916F915F914F913F918D
:1043F0002F910F900BBE0F900FBE0F901F9018952E
:10440000A8959FB7F89484B7877F84BFE0E6F0E073
:1044100080818861808310829FBF08959FB7F89440
:10442000A89584B7877F84BFE0E6F0E0808188614B
:1044300080838DE080839FBF089504B603FE02C091
:104440008FEF089581E00895A8950895089583B7A2
:10445000817F866083BF83B7816083BF889583B780
:104460008E7F83BF089583B7817F83BF83B78160C9
:1044700083BF889583B78E7F83BF0895FC017683C1
:1044800065830895EF92FF920F931F93CF93DF936D
:104490008C017B01EA014032510518F481E10E9450
:1044A000E70F2197CE0DDF1DF801D283C183F4827F
:1044B000E382DF91CF911F910F91FF90EF900895CC
:1044C00025E5FA012083FB013297908331968083A2
:1044D00033971182108232971182108232971182A3
:1044E0001082329711821082329711821082329795
:1044F00011821082329711821082329711821082BB
:104500003297118210823297118210823297118273
:104510001082329711821082329711821082329764
:10452000118210823297118210823297118210828A
:10453000CB018497FC0111821082089585E5809358
:104540003A41EEEFF1E4F0936F05E0936E0587EFEB
:104550009EE090838093FF41089587EF9EE09093C3
:10456000FE418093FF4108950E94E11E0C942B0DA3
:10457000A0915C07B0915D07CD91CDBFDD91DEBF0D
:10458000FF91EF91DF91CF91BF91AF919F918F916B
:104590007F916F915F914F913F912F911F910F915B
:1045A000FF90EF90DF90CF90BF90AF909F908F9053
:1045B0007F906F905F904F903F902F901F900F9043
:1045C0000FBE0F9018950E94C60880E190E00E94EF
:1045D0004A0C85EA92E00E94B8250E94300D20E046
:1045E00030E0A90160E070E0CB010E9481190E94D7
:1045F00071020E94000E80E090E008956F927F9219
:104600008F929F92AF92BF92CF92DF92EF92FF92E2
:104610000F931F93CF93DF93CDB7DEB72C970FB6D1
:10462000F894DEBF0FBECDBF6C015B017A01FC01C7
:1046300017821682838181FF0EC1CE0101964C0143
:10464000F6010381F50103FD159103FF11915F014F
:10465000112309F4FCC0153249F403FD159103FF41
:1046600011915F01153211F020E01BC0B601812FBE
:1046700090E00E94662537017301E2CF112309F40F
:10468000E6C0612F70E087E294E02C870E94F92455
:104690002C85892B49F0F50103FD159103FF11913C
:1046A0005F0127FFEBCF09C0133229F01C3609F058
:1046B000D5C02068F0CF20E1EECF022F112309F4FE
:1046C000C6C0612F70E080E294E02C870E94F9243C
:1046D0002C85892B41F03701F4E06F0E711CB60177
:1046E0008FE390E011C0133639F0133781F01335A2
:1046F00019F5022F01600BC0370182E0680E711CB2
:10470000B601F701808191810E946625B5CF3701FE
:10471000F2E06F0E711CF701E080F180F70100FDFF
:10472000859100FF81917F01882309F4A5CFB6010F
:1047300090E00E946625F2CF143611F0193629F563
:10474000370127FF09C0F4E06F0E711CF70160818B
:104750007181828193810AC0F2E06F0E711CF701B2
:1047600060817181882777FD8095982F022F0F7EB9
:1047700097FF08C090958095709561957F4F8F4FFA
:104780009F4F00642AE030E033C0103799F040F4C6
:104790001835B1F01F3609F05AC028E030E014C0D7
:1047A000153719F0183741F052C0022F0F7E2AE05A
:1047B00030E00AC0022F0061046220E130E004C052
:1047C000022F046020E132E0370107FF09C0F4E066
:1047D0006F0E711CF701608171818281938108C025
:1047E000F2E06F0E711CF7016081718180E090E052
:1047F000A4010E941826182F181906FF05C0B6013B
:104800008DE290E00E94662504FF15C0FE01E10FD5
:10481000F11D8081803379F0B60180E390E00E9441
:10482000662502FF08C00072802F90E0B601885A0A
:104830009F4F0E9466251150F401E10FF11D808108
:10484000B60190E00E9466251111F5CF15CFF60153
:104850008681978105C08FEF9FEF02C0022F31CF75
:104860002C960FB6F894DEBF0FBECDBFDF91CF916F
:104870001F910F91FF90EF90DF90CF90BF90AF907E
:104880009F908F907F906F9008950E94EA24A59F3B
:10489000900DB49F900DA49F800D911D112408953B
:1048A000DB018F939F930E944524BF91AF91A29FFC
:1048B000800D911DA39F900DB29F900D112408951E
:1048C000A1E21A2EAA1BBB1BFD010DC0AA1FBB1F14
:1048D000EE1FFF1FA217B307E407F50720F0A21B86
:1048E000B30BE40BF50B661F771F881F991F1A94F3
:1048F00069F760957095809590959B01AC01BD011D
:10490000CF010895689401C0E8948F929F92CF934D
:10491000DF930E949024DF91CF919F908F90089514
:1049200088249924F401E401B0E49F93AA279A15FE
:104930008B049C04ED05FE05CF05D007A10798F474
:10494000AD2FDC2FCF2FFE2FE92D982C892E982FFD
:10495000872F762F652F542F432F322F2227B850C1
:1049600031F7BF9127C01B2EBF91BB27220F331FEA
:10497000441F551F661F771F881F991F881C991C8D
:10498000EE1FFF1FCC1FDD1FAA1FBB1F8A149B0435
:10499000EC05FD05CE05DF05A007B10748F08A1834
:1049A0009B08EC09FD09CE09DF09A00BB10B2160C2
:1049B0001A94E1F62EF49401AF01BE01CD01000C72
:1049C0000895EE0FFF1F0024001C0BBE0790F69108
:1049D000E02D0994A29FB001B39FC001A39F700D69
:1049E000811D1124911DB29F700D811D1124911DF7
:1049F0000895FC010590061621F00020D9F7C001AA
:104A000008953197CF010895FB01DC0102C00190A8
:104A10000D9241505040D8F70895FB01DC01415000
:104A2000504030F08D910190801919F40020B9F7B1
:104A3000881B990B08950F931F93CF93DF930097D3
:104A400031F46115710519F480E090E03AC08B01F2
:104A5000EC016EE070E081E090E00E948C26FC01A9
:104A6000009791F380E883830115110571F0138796
:104A7000028781E883838091960790919707892B1D
:104A800021F4F0939707E09396072097C9F0D18718
:104A9000C087838182608383809198079091990772
:104AA000892B71F4F0939907E093980780919A0706
:104AB00090919B07892B21F4F0939B07E0939A0731
:104AC000CF01DF91CF911F910F9108950F931F9305
:104AD000CF93DF93FB01238121FD03C08FEF9FEF75
:104AE00028C022FF16C04681578124813581421794
:104AF000530744F4A081B1819D012F5F3F4F318363
:104B000020838C93268137812F5F3F4F3783268305
:104B100010C0EB01092F182F0084F185E02D0995B5
:104B2000892BE1F68E819F8101969F838E83812F51
:104B3000902FDF91CF911F910F910895CF93DF9325
:104B4000CDB7DEB7AE014B5F5F4FFA016191719156
:104B5000AF0180919807909199070E94FE22DF9102
:104B6000CF91089560919807709199070C946625EC
:104B70000F931F93CF93DF93E0919807F0919907DC
:104B8000238121FF1BC08C01D0E0C0E0F80181919E
:104B90008F016091980770919907DB011896ED914C
:104BA000FC911997882331F00995892B79F3DFEF70
:104BB000CFEFECCF8AE00995892B19F08FEF9FEFAB
:104BC00002C08D2F9C2FDF91CF911F910F910895DF
:104BD0000F931F93CF93DF93CDB7DEB72E970FB60A
:104BE000F894DEBF0FBECDBF0D891E8986E08C8391
:104BF0001A8309838FEF9FE79E838D83AE01475E03
:104C00005F4F6F89788DCE0101960E94FE222F8121
:104C10003885F801E20FF31F10822E960FB6F89434
:104C2000DEBF0FBECDBFDF91CF911F910F910895D1
:104C3000FA01AA27283051F1203181F1E8946F93CD
:104C40006E7F6E5F7F4F8F4F9F4FAF4FB1E03ED073
:104C5000B4E03CD0670F781F891F9A1FA11D680F11
:104C6000791F8A1F911DA11D6A0F711D811D911D44
:104C7000A11D20D009F468943F912AE0269F1124B9
:104C80003019305D3193DEF6CF010895462F47701D
:104C9000405D4193B3E00FD0C9F7F6CF462F4F7078
:104CA000405D4A3318F0495D31FD4052419302D0D6
:104CB000A9F7EACFB4E0A69597958795779567957C
:104CC000BA95C9F700976105710508959B01AC017C
:104CD0000A2E06945795479537952795BA95C9F7A3
:104CE000620F731F841F951FA01D0895F999FECFB1
:104CF00092BD81BDF89A992780B50895262FF9991C
:104D0000FECF1FBA92BD81BD20BD0FB6F894FA9AAE
:104D1000F99A0FBE019608950F931F93CF93DF93D7
:104D2000869F8001879F100D969F100D1124C8014A
:104D30000E94A826EC01009729F0A80160E070E02D
:104D40000E94D527CE01DF91CF911F910F91089539
:104D5000CF93DF938230910510F482E090E0E091F0
:104D60009E07F0919F0720E030E0C0E0D0E0309750
:104D700011F14081518148175907C0F04817590770
:104D800061F482819381209719F09B838A832BC0E1
:104D900090939F0780939E0726C02115310519F037
:104DA0004217530718F49A01BE01DF01EF01028098
:104DB000F381E02DDCCF2115310509F1281B390BDA
:104DC0002430310590F412968D919C9113976115C2
:104DD000710521F0FB019383828304C090939F07A8
:104DE00080939E07FD01329644C0FD01E20FF31F40
:104DF00081939193225031092D933C933AC0209195
:104E00009C0730919D07232B41F420911202309191
:104E1000130230939D0720939C072091100230913C
:104E200011022115310541F42DB73EB7409114020E
:104E300050911502241B350BE0919C07F0919D07C2
:104E4000E217F307A0F42E1B3F0B2817390778F061
:104E5000AC014E5F5F4F2417350748F04E0F5F1FC0
:104E600050939D0740939C078193919302C0E0E08B
:104E7000F0E0CF01DF91CF9108950F931F93CF936F
:104E8000DF93009709F48CC0FC01329713821282E1
:104E900000919E0710919F070115110581F4208153
:104EA0003181820F931F20919C0730919D07281715
:104EB000390779F5F0939D07E0939C0771C0D801FD
:104EC00040E050E0AE17BF0750F412962D913C9190
:104ED0001397AD012115310509F1D901F3CF9D01DA
:104EE000DA013383228360817181860F971F8217D5
:104EF000930769F4EC0128813981260F371F2E5F53
:104F00003F4F318320838A819B8193838283452B0A
:104F100029F4F0939F07E0939E0742C01396FC93F9
:104F2000EE931297ED01499159919E01240F351F7F
:104F3000E217F30771F480819181840F951F029627
:104F400011969C938E938281938113969C938E935A
:104F50001297E0E0F0E0D80112968D919C911397A2
:104F6000009719F0F8018C01F6CF8D919C91980172
:104F70002E5F3F4F820F931F20919C0730919D071A
:104F80002817390769F4309729F410929F07109277
:104F90009E0702C01382128210939D0700939C0704
:104FA000DF91CF911F910F910895DC0101C06D93A6
:0C4FB00041505040E0F70895F894FFCF06
:104FBC004315A6D93D3182F18CA74FC5999704AC06
:104FCC000000A00720003D352D251D150D053D3594
:104FDC002D251D150D052E261E160E06FFFF0C0485
:104FEC003C342C241C140C043B332B231B130B3B85
:104FFC00332B231B130B03FFFFFFFFFFFFFFFF39B7
:10500C003129211911090119110901FFFFFFFFFFB6
:10501C00FFFFFFFFFFFFFF73746172746564207004
:10502C0061636B65742072780D0066696E697368D4
:10503C006564207061636B65742072780D00576134
:10504C006974696E6720666F72207061636B65743A
:10505C002E2E2E0D007374617274696E672E2E2EB7
:10506C000D0072665F72785F7061636B65745F6E62
:10507C006F6E626C6F636B206661696C65645D0D4D
:10508C00005061636B657420697320646F6E6520DA
:10509C00626F756E63696E672061726F756E6421E5
:1050AC000D0A005345513A2534750954544C3A2590
:1050BC00326409525353493A253464095061796C6E
:1050CC006F61643A205B25735D0D0A0052582065B0
:1050DC006E64206661696C656420636865636B73DC
:1050EC00756D210D002564006375723A20256420CE
:1050FC000063616E617279203D2025782000737405
:10510C006B203D20257820007463622061646472FA
:10511C00203D2025780D0A0025643A20626F7474B6
:0A512C006F6D203D20257820000063
:00000001FF
