:100000000C9428020C9493210C94C5210C94F72194
:100010000C9447020C9447020C9447020C9447023C
:100020000C9447020C9461210C9447020C944702F3
:100030000C9447020C94C01F0C9447020C94C01FF0
:100040000C9447020C9447020C9447020C9447020C
:100050000C9447020C9447020C9447020C944702FC
:100060000C9447020C9449080C9447020C944702E4
:100070000C9447020C9447020C9447020C944702DC
:100080000C94F31F0C9447020C9447020C94470203
:100090000C9447020C9447020C9447020C944702BC
:1000A0000C9447020C9447020C9447020C944702AC
:1000B0000C9447020C9447020C9447020C9447029C
:1000C0000C9447020C9447020C9447020C9447028C
:1000D0000C9447020C9447020C9447020C9447027C
:1000E0000C9447020C9469060C945A060C942A0648
:1000F0000C941A070C941B060C940C060C94FA052D
:100100000C94EB050C9447020C9447020C944702A4
:100110000C9447020C9447020C9447020C9447023B
:100120002809350942094F095C09690976099909C5
:10013000A709B509C309D109DF09ED09100A120A97
:10014000140A160A180A1A0A1C0A3B0A5E0A820ACC
:10015000A50AC80AEB0A0E0B480B550B620B6F0B76
:100160007C0B890B960BAF0BBC0BC90BD60BE30BAF
:10017000F00BFD0B7D0F830F860F890F8C0F8F0FF8
:10018000950F920F980F9B0F9E0FA70FAA0FAD0F01
:10019000B00FA40F7A0F800FB30FB60FA10F770F18
:1001A00084108710921097109E10A710AA10AF10FD
:1001B000B610BF107478206661696C656420647540
:1001C0006520746F20696E636F727265637420744A
:1001D0007278207374617475730D0A00756172749E
:1001E00020727820736967206661696C65640D0A06
:1001F00000554E4B4F574E0045787465726E616CDA
:100200002052657365740042726F776E204F75746B
:1002100020446574656374004661696C656420748C
:100220006F206372656174652053656D6170686FDE
:100230007265004661696C656420746F2063726545
:10024000617465205369676E616C004B65726E6501
:100250006C2066756E6374696F6E206E6F742069B2
:100260006D706C656D656E74656400446576696378
:100270006520447269766572204572726F7200570C
:1002800061746368646F672052657374617274008F
:100290005357205761746368646F672052657374A5
:1002A0006172740054696D6572204F766572666C78
:1002B0006F7700556E68616E646C656420496E747A
:1002C00065727275707420566563746F72004C6F3E
:1002D0007720566F6C746167650045787472612091
:1002E0005461736B20737461727465642C2069733C
:1002F000206E726B5F6366672E68206F6B3F0049EC
:10030000646C65206F72204B65726E656C2053744F
:1003100061636B204F766572666C6F7700556E6512
:1003200078706563746564205265737461727400DB
:100330004475706C696361746564205461736B20EB
:100340004944005363686564756C6572204D697338
:100350007365642057616B657570005461736B2021
:10036000526573657276652056696F6C6174656459
:100370000052657365727665204572726F722069EE
:100380006E205363686564756C657200496E7661B2
:100390006C696420537461636B20506F696E74657F
:1003A00072005461736B20537461636B204F7665E8
:1003B00072666C6F7700537461636B207761732092
:1003C0006E6F7420646566696E6564206173206C6D
:1003D0006172676520656E6F75676821005461738F
:1003E0006B20706572696F6420746F6F206C61722E
:1003F00067652E20506572696F64206D7573742077
:100400006265206C657373207468616E20363120DC
:100410007365636F6E64732E00293A20002A4E5272
:100420004B204552524F5228000D0A535441434B22
:100430002044554D500D0A0045464765666700202B
:100440002B2D2E30313233343536373839680000B1
:1004500011241FBECFEFD1E4DEBFCDBF13E0A0E07B
:10046000B2E0E0EAF0E500E00BBF02C007900D92B9
:10047000A23CB107D9F717E0A2ECB3E001C01D928E
:10048000A83CB107E1F70E940C230C944E280C9471
:10049000B61F87E692E00C942A268AE792E00E9433
:1004A0002A260E94D7030C94D10384EF94E0909302
:1004B000EA038093E90384E78093E8031092EB0357
:1004C0000E94780D20E030E04FEF5FEF6DE084EEAA
:1004D00093E00E9461038EE892E00E942A2689E45C
:1004E00092E00E9452038DE492E00E9457030E9422
:1004F000D1030E948A16FBCF0895CF93DF93CAE6FB
:10050000D5E085E592E09E838D8340E051E060EF89
:1005100073E0CE010E946B2282E0888781E08F83A6
:1005200089878A8781E090E0A0E0B0E08B879C8794
:10053000AD87BE871F86188A198A1A8A1B8A1C8A69
:100540001D8A1E8A1F8A188E198E1A8E1B8E1C8E6B
:100550001D8E1E8E1F8E18A219A21AA2CE01DF9127
:10056000CF910C94F815CF93C82F909141019F71B2
:100570009F31D9F3F894C23079F4E091C503F0913A
:10058000C603309749F0609184067091850680918A
:100590009C0690919D060995C09342017894CF9155
:1005A00008958093C403089581E0809366060895BA
:1005B000109266060895809141018F718F31D9F3B1
:1005C000809141018F71E1F08F30D1F08091410134
:1005D0008F71883031F480913901826080933901C4
:1005E0000BC088E00E94B302809141018F71883076
:1005F000D9F7F1CF8F3021F0809141018F71D1F780
:100600000895809141018F718F31D9F3809141011B
:100610008F7111F08F3051F4809139018D7F80936B
:100620003901809141018F718830D9F7089589E0AF
:100630000C94B302E5E4F1E09081907F9083908187
:100640008F70982B90830895E7E5F1E080818D7F8E
:1006500080830895E7E5F1E08081826080830895DA
:10066000EEE6F1E080818F7E80830895EEE6F1E092
:1006700080818061808308958093600190936101FF
:100680009093700680936F06089590936A06809306
:100690006906E8E4F1E08081807E80838081682BB8
:1006A000608308959093CA038093C903089590933B
:1006B000C8038093C70308959093C6038093C5032E
:1006C00008950F931F93CF93DF93FC01D90180E22C
:1006D0008093440180EC80934501606260934801FF
:1006E00085EC8093490187EA80934B0180E88093F1
:1006F0004C0120936001B0936101409362015093DB
:100700006301C6E4D1E00881888198812881302F77
:1007100032953695377060E4369F8001112422951A
:1007200026952370622F602B82958695837070E1E9
:10073000879F90011124262B92959695937084E0C3
:10074000989FB0011124622B60936D01888198817C
:10075000929596959370392F3064982F9295967054
:10076000932B90936E0110926C018FEF80934E014A
:10077000C9E6D6E0F983E8831A821B825D834C8345
:10078000BF83AE83188681E08093830610929E0615
:100790001092720610926606DF91CF911F910F9111
:1007A000089586E10C94B30286E10C94B30288E0CC
:1007B0000E94B30210929E0608951F93CF93DF9379
:1007C000EC0180918306882309F468C02E81809112
:1007D0006B068F5F80936B0690918101907E916094
:1007E00020FB95F99F7390649093810188E8809332
:1007F000820180916606882361F08FEF80938301E8
:100800008AEA9AEA90938901809388018FEF9FEF9B
:1008100010C080916B0680938301209161018091CB
:10082000600190E0922B90938901809388018881E8
:100830009981909387018093860120916301809133
:10084000620190E0922B90938501809384014A810C
:10085000552747FD50956B817C818AE891E00E9485
:1008600076258A81855F8093800180914101182FD0
:100870001F719FEF910F9230C0F31131B1F312311C
:10088000A1F31F3191F398EF910F923048F08F70E0
:10089000863031F084EB91E00E94BF088FEF55C0A5
:1008A00086E10E94B3028D8181110AC089E00E9415
:1008B000B3028E81882391F089E10E94B3020EC0B9
:1008C000809148018068809348018091410187FFB1
:1008D000FCCF8091410186FFE1CFE8CF8091C50335
:1008E0009091C603892B71F08A81992787FD909595
:1008F00090939D0680939C068AE891E090938506EC
:10090000809384061092720682E00E94B30280E017
:1009100090E020917206211105C00196883E2DEFCE
:100920009207B9F72E81222331F0209142012295BE
:100930002695277029F4883E9D4F11F0C1E001C033
:10094000CFEF812F0E94B3028C2FDF91CF911F91A7
:1009500008950E94DD0389EE9DEF2091720621111A
:1009600004C00197D1F78FEF089581E008951092A8
:10097000720682E00E94B30288EE9DEF209172061B
:10098000211104C00197D1F78FEF089581E00895F8
:10099000CF93DF9380918306882341F180914101B9
:1009A000C82FCF719FEF9C0F9230C0F3C131B1F3CC
:1009B000C231A1F3CF3191F3C83019F08F70863076
:1009C000A9F486E10E94B302809148018068809377
:1009D00048018091410187FFFCCFD09141018C2FCC
:1009E0000E94B302D6FB882780F901C08FEFDF9108
:1009F000CF91089580918306811103C082EB92E02C
:100A000052C080919E06882309F4E3C080917B0147
:100A1000E0916906F0916A0690E0029724813327FD
:100A200027FD3095281739071CF480EC92E03BC075
:100A3000E0916906F0916A06809182018083E091DD
:100A40006906F0916A0680918701909188019283EE
:100A50008183E0916906F0916A0680917B018B5059
:100A60008383A0916906B0916A06E0916906F091CE
:100A70006A0613969C91848189173CF0E09169067F
:100A8000F0916A06838187FF12C010929E068091C2
:100A90004C018F7780934C0180914C01806880934A
:100AA0004C0182ED92E00E942A268FEF0895A091DA
:100AB0006906B0916A06E0916906F0916A0613969C
:100AC0004C91552747FD509569E871E085819681E5
:100AD0000E9476258091C403882309F43EC0E091EA
:100AE0006906F0916A0683818031B9F5E091690663
:100AF000F0916A066581768144E050E080E092E002
:100B00000E947F25892B49F5E0916906F0916A06DC
:100B10006581768140E150E080E092E00E947F258F
:100B2000892BD9F49DE088E10FB6F894A8958093BD
:100B300060000FBE9093600080E090E00E94450C42
:100B400081E090E00E94450C82E090E00E94450C1C
:100B500083E090E00E94450CFFCFE0916906F091A0
:100B60006A068091800185FB882780F98783E09160
:100B70006906F0916A06809147018087E0916906D5
:100B8000F0916A06809146018695869586958187C3
:100B9000E0916906F0916A06809147018287A091F1
:100BA0006906B0916A06E0917B01F0E0E058FE4FE3
:100BB00080811B968C9310929E0680914C018F77BA
:100BC00080934C0180914C01806880934C0181E0BE
:100BD000089580E008951F920F920FB60F9211248E
:100BE0008F9380E880934F018F910F900FBE0F90ED
:100BF0001F9018951F920F920FB60F9211248F938A
:100C000081E08093720680E480934F018F910F9072
:100C10000FBE0F901F9018951F920F920FB60F9254
:100C200011248F9380E280934F018F910F900FBE1C
:100C30000F901F9018951F920F920FB60F921124CC
:100C40008F9380E180934F018F910F900FBE0F9093
:100C50001F9018951F920F920FB60F9211240BB68A
:100C60000F922F933F934F935F936F937F938F9345
:100C70009F93AF93BF93EF93FF9384E080934F01D3
:100C8000E091C903F091CA03309709F00995FF91EB
:100C9000EF91BF91AF919F918F917F916F915F91F4
:100CA0004F913F912F910F900BBE0F900FBE0F9061
:100CB0001F9018951F920F920FB60F9211248F93C9
:100CC00082E080934F018F910F900FBE0F901F9085
:100CD00018951F920F920FB60F9211248F9381E0F7
:100CE00080934F018F910F900FBE0F901F9018951A
:100CF000E9E4F1E09081907F908390818F70982B50
:100D0000908308958FEF08950895089508958FEFC3
:100D1000089580916406909165060895089581E094
:100D2000089581E0089581E0089508950895089553
:100D30000895089508950895089598988DB1806E46
:100D40008DB98EB1806A8EB9089598988DB1806EF4
:100D50008DB98EB180668EB90895CF92DF92EF92F1
:100D6000FF920F931F93CF93DF93CDB7DEB72797F3
:100D70000FB6F894DEBF0FBECDBF0E94760DE09196
:100D80006906F0916A06C080D380E580F680008510
:100D90000E94FA0418161CF08BEF92E006C0F701CF
:100DA0001081111107C08AE193E00E942A260E9457
:100DB000780D31C0153021F48AE090E00E9424269D
:100DC000C70101969F938F93802F992787FD909558
:100DD0009F930F931F921F931F92CF928CE393E0E8
:100DE0009F938F930E941026FD82EC821150F70191
:100DF0001083DB821E821F828FEF9FEF9A8389838D
:100E00000E94780DCE0101960E94DD030FB6F89482
:100E1000DEBF0FBECDBF27960FB6F894DEBF0FBE64
:100E2000CDBFDF91CF911F910F91FF90EF90DF9099
:100E3000CF9008951F920F920FB60F9211240BB608
:100E40000F922F933F934F935F936F937F938F9363
:100E50009F93AF93BF93EF93FF9380E090917B01BB
:100E6000891710F48F5FFACF8091460187FF04C085
:100E700081E080939E0604C085E693E00E942A26C6
:100E800088E080934F018091460187FF05C08091E3
:100E9000660681110E94AD06E091C703F091C80378
:100EA000309709F00995FF91EF91BF91AF919F9114
:100EB0008F917F916F915F914F913F912F910F9003
:100EC0000BBE0F900FBE0F901F901895A3E7B6E0D2
:100ED000FC01409620812D93219120933F01E8173A
:100EE000F907C1F780E110923E018150E1F780E8F7
:100EF00080933C0180913D0180FFFCCFE6E8F6E065
:100F000080E18E0F90913F0191938E13FBCF089556
:100F1000CF93DF93DC01662309F445C0862F8F70E1
:100F200009F041C0E3E7F6E090E19E0F21912093A4
:100F30003F019E13FBCF90E070E0E0E240E1949F20
:100F400090011124261737077CF5911103C01092E8
:100F50003C0102C0E0933C0140E050E02A0F3B1FFF
:100F6000E901C40FD51FF881F0933E014F5F5F4F39
:100F700040315105A9F740913C01406840933C0144
:100F800040913D0140FFFCCF40E050E0F0913E0138
:100F9000E901C40FD51FF8834F5F5F4F4031510502
:100FA000A9F79F5FCBCF81E0DF91CF9108950F9399
:100FB0001F93CF93DF93DC01613009F458C0862F73
:100FC0008F7009F054C0E6E8F6E090E19E0F2191A1
:100FD00020933F019E13FBCF62956F70615078E0C4
:100FE0006F3F09F445C070933C01462F552747FDDC
:100FF000509520E030E0ED0190E16902C00DD11D77
:101000001124FE01E20FF31F908190933E012F5FA8
:101010003F4F20313105A9F790913C0190689093A2
:101020003C0190913D0190FFFCCF4150510994E06B
:10103000440F551F9A95E1F720E030E090913E0172
:101040008E01020F131FF8019083662349F0F90106
:10105000E40FF51FEA0FFB1FE0819E27F801908344
:101060002F5F3F4F2031310549F76150B9CF81E003
:10107000DF91CF911F910F9108959091C00095FF3E
:10108000FCCF9091C0009F7D9093C0008093C600DC
:1010900008951F920F920FB60F9211240BB60F9264
:1010A0002F933F934F935F936F937F938F939F9370
:1010B000AF93BF93EF93FF930E94760D8091C00092
:1010C00087FFFCCF8091C0008F778093C000209174
:1010D000C6008091DC039091DD03FC01E453FC4FDA
:1010E000208301968031910529F09093DD03809350
:1010F000DC0304C01092DD031092DC038091CB036B
:101100000E9409138091C0008F778093C0000E94D5
:10111000780DFF91EF91BF91AF919F918F917F914A
:101120006F915F914F913F912F910F900BBE0F9058
:101130000FBE0F901F90189581110DC081E0409156
:10114000DE035091DF032091DC033091DD03421771
:10115000530751F408C0813031F48091C800881FD2
:101160008827881F089580E008958091CB038F3FE2
:1011700019F48EE00E94D20F8091CB030895CF9393
:10118000DF93FC012491EC012196222351F0609120
:10119000C0077091C107822F90E00E94D825CE0130
:1011A000F0CFDF91CF9108952091DE033091DF03DE
:1011B0008091DC039091DD032817390769F4809151
:1011C000CB030E94D7126091CB03772767FD709500
:1011D000872F972F0E947A136F3F21F48CED91E0B7
:1011E0000E94BF082091DE033091DF03F901E45330
:1011F000FC4F80812F5F3F4F2031310528F4309321
:10120000DF032093DE0308951092DF031092DE03C4
:10121000089586E084B985B988EF8AB980EF8BB9E3
:1012200082E08DB908950C9409098F3F09F46CC0D0
:10123000E82FE7704E2F50E04730510508F064C0AA
:10124000FA01E057FF4F8695869586950C940A25FE
:1012500042B121E030E0B90102C0660F771F8A95E4
:10126000E2F7CB01842B82B94DC045B121E030E0DB
:10127000B90102C0660F771F8A95E2F7CB01842B74
:1012800085B940C048B121E030E0B90102C0660F25
:10129000771F8A95E2F7CB01842B88B933C04BB115
:1012A00021E030E0B90102C0660F771F8A95E2F7AE
:1012B000CB01842B8BB926C04EB121E030E0B901BF
:1012C00002C0660F771F8A95E2F7CB01842B8EB997
:1012D00019C041B321E030E0B90102C0660F771FA9
:1012E0008A95E2F7CB01842B81BB0CC044B321E08B
:1012F00030E0B90102C0660F771F8A95E2F7CB0193
:10130000842B84BB81E008958FEF08958F3F09F40B
:1013100073C0E82FE7704E2F50E04730510508F0BA
:101320006BC0FA01E956FF4F8695869586950C9419
:101330000A2542B121E030E0B90102C0660F771FF3
:101340008A95E2F7CB018095842382B953C045B1D9
:1013500021E030E0B90102C0660F771F8A95E2F7FD
:10136000CB018095842385B945C048B121E030E0A8
:10137000B90102C0660F771F8A95E2F7CB0180950D
:10138000842388B937C04BB121E030E0B90102C0F5
:10139000660F771F8A95E2F7CB01809584238BB97E
:1013A00029C04EB121E030E0B90102C0660F771FBD
:1013B0008A95E2F7CB01809584238EB91BC041B397
:1013C00021E030E0B90102C0660F771F8A95E2F78D
:1013D000CB018095842381BB0DC044B321E030E074
:1013E000B90102C0660F771F8A95E2F7CB0180959D
:1013F000842384BB81E008958FEF08958F3F31F1FE
:10140000E82FE7704E2F50E047305105F8F4FA010D
:10141000E256FF4F282F2695269526950C940A25EF
:1014200090B10BC093B109C096B107C099B105C086
:101430009CB103C09FB101C092B3892F90E002C05C
:10144000959587952A95E2F7817008958FEF089515
:101450008F3F09F406C1E82FE7704E2F50E0473068
:10146000510508F0FEC0FA01EB55FF4F86958695B1
:1014700086950C940A2520B130E0082E02C03595DF
:1014800027950A94E2F742B120FD0BC021E030E03D
:10149000B90102C0660F771F8A95E2F7CB01842B52
:1014A0000BC021E030E0B90102C0660F771F8A95BA
:1014B000E2F7CB018095842382B916C023B130E0D6
:1014C000082E02C0359527950A94E2F745B120FD14
:1014D0000DC021E030E0B90102C0660F771F8A9588
:1014E000E2F7CB01842B85B981E0089521E030E05B
:1014F000B90102C0660F771F8A95E2F7CB0180958C
:101500008423F1CF26B130E0082E02C0359527950F
:101510000A94E2F748B120FD0BC021E030E0B901A8
:1015200002C0660F771F8A95E2F7CB01842B0BC0B0
:1015300021E030E0B90102C0660F771F8A95E2F71B
:10154000CB018095842388B9CFCF29B130E0082E14
:1015500002C0359527950A94E2F74BB120FD0BC0E8
:1015600021E030E0B90102C0660F771F8A95E2F7EB
:10157000CB01842B0BC021E030E0B90102C0660F23
:10158000771F8A95E2F7CB01809584238BB9ACCF86
:101590002CB130E0082E02C0359527950A94E2F769
:1015A0004EB120FD0BC021E030E0B90102C0660F52
:1015B000771F8A95E2F7CB01842B0BC021E030E046
:1015C000B90102C0660F771F8A95E2F7CB018095BB
:1015D00084238EB989CF2FB130E0082E02C0359513
:1015E00027950A94E2F741B320FD0BC021E030E0DB
:1015F000B90102C0660F771F8A95E2F7CB01842BF1
:101600000BC021E030E0B90102C0660F771F8A9558
:10161000E2F7CB018095842381BB66CF22B330E013
:10162000082E02C0359527950A94E2F744B320FDB1
:101630000BC021E030E0B90102C0660F771F8A9528
:10164000E2F7CB01842B0BC021E030E0B90102C0EE
:10165000660F771F8A95E2F7CB018095842384BBC0
:1016600043CF8FEF08958F3F09F4D5C0E82FE7707F
:101670004E2F50E0611167C04730510508F0CBC0D4
:10168000FA01E455FF4F8695869586950C940A25B8
:1016900041B121E030E0B90102C0660F771F8A95A1
:1016A000E2F7CB018095842365C044B121E030E0AE
:1016B000B90102C0660F771F8A95E2F7CB018095CA
:1016C000842365C047B121E030E0B90102C0660F54
:1016D000771F8A95E2F7CB018095842365C04AB1D4
:1016E00021E030E0B90102C0660F771F8A95E2F76A
:1016F000CB018095842365C04DB121E030E0B90174
:1017000002C0660F771F8A95E2F7CB01809584238C
:1017100065C040B321E030E0B90102C0660F771F19
:101720008A95E2F7CB018095842365C043B321E01D
:1017300030E0B90102C0660F771F8A95E2F7CB014E
:101740008095842365C04730510508F064C0FA01D4
:10175000ED54FF4F8695869586950C940A2541B1E8
:1017600021E030E0B90102C0660F771F8A95E2F7E9
:10177000CB01842B81B94DC044B121E030E0B901E7
:1017800002C0660F771F8A95E2F7CB01842B84B9DC
:1017900040C047B121E030E0B90102C0660F771FB9
:1017A0008A95E2F7CB01842B87B933C04AB121E097
:1017B00030E0B90102C0660F771F8A95E2F7CB01CE
:1017C000842B8AB926C04DB121E030E0B90102C0B6
:1017D000660F771F8A95E2F7CB01842B8DB919C06C
:1017E00040B321E030E0B90102C0660F771F8A954F
:1017F000E2F7CB01842B80BB0CC043B321E030E087
:10180000B90102C0660F771F8A95E2F7CB01842BDE
:1018100083BB81E008958FEF0895811106C080B1E8
:101820008695817091E0892708958FEF089500973C
:1018300011F483E20DC08130910511F48BE208C0F0
:101840008230910511F483E303C0039729F48BE3FD
:101850000E94280A81E008958FEF0895009711F4FF
:1018600083E20DC08130910511F48BE208C0823013
:10187000910511F483E303C0039729F48BE30E94DD
:10188000150981E008958FEF0895009711F483E220
:101890000DC08130910511F48BE208C082309105B2
:1018A00011F483E303C0039729F48BE30E948609B4
:1018B00081E008958FEF0895882319F085B78F7E12
:1018C00002C085B7806185BF81E008959091C8000E
:1018D00095FFFCCF8093CE0008959093C500809330
:1018E000C40086E08093C200E1ECF0E080818B7F51
:1018F0008083A0ECB0E08C9182608C9380818861C1
:10190000808308959093CD008093CC0086E08093EF
:10191000CA00E9ECF0E080818B7F8083A8ECB0E026
:101920008C9182608C9380818861808308950E946D
:101930006D0C64ED78E08DE398E00E948D25909326
:10194000C1078093C00764ED78E08DE398E00E94C2
:101950008D259093BF078093BE070E94C711809387
:10196000CB038F3F19F48EE00E94D20F1092DF0359
:101970001092DE031092DD031092DC038091C1000F
:1019800080688093C10008958091C80087FFFCCFD4
:101990008091C8008F778093C8008091CE00089511
:1019A00000000000000000000197D1F708950C949A
:1019B000E8260E94F0260895EF92FF920F931F935E
:1019C000CF93DF937C0180E090E00E94E826182FFF
:1019D000F701838381E090E00E94E826082FF70159
:1019E000828382E090E00E94E826D82FF70181836D
:1019F00083E090E00E94E826C82FF701808384E00E
:101A000090E00E94E826100FD10FCD0F8C1711F037
:101A10008FEF01C081E0DF91CF911F910F91FF9077
:101A2000EF900895CF93DF93EC0185E090E00E9462
:101A3000E826888381E0DF91CF910895FC016081E1
:101A400086E090E00E94F02681E00895CF93DF9336
:101A5000EC0186E090E00E94E826888381E0DF9137
:101A6000CF9108950F931F93CF93DF938C01C0E024
:101A7000D0E0CE0108960E94E826F80181938F01FC
:101A80002196C031D105A9F781E0DF91CF911F9157
:101A90000F9108950F931F93CF93DF938C01C0E0B4
:101AA000D0E0F80161918F01CE0108960E94F026E6
:101AB0002196C031D105A9F781E0DF91CF911F9127
:101AC0000F910895CF93DF93EC0187E090E00E949F
:101AD000E826888381E0DF91CF910895FC01608141
:101AE00087E090E00E94F02681E00895F894089540
:101AF000789408950E94760DFFCF1F93CF93DF93C4
:101B0000CDB7DEB7A3970FB6F894DEBF0FBECDBF3B
:101B10000E94C711809384078F3F21F460E08EE01C
:101B20000E94E00F0E942F20182F80FF04C060E069
:101B300086E00E94E00F11FF04C060E084E10E9493
:101B4000E00F12FF04C060E083E10E94E00F1092FA
:101B500087071092950710929407109286071092AB
:101B6000850710929607109293078FEF80937A075C
:101B700080937C0780937B0780937D0780937F070A
:101B800080937E07809380078093820780938107EC
:101B900080E090E033E62FEFFC01EF55F94F3287FC
:101BA00020878B96873D9105B9F7E7E9F7E0CF01EC
:101BB000059694838383F783E683FC0187E0E03B0B
:101BC000F807A9F710929907109298071092B40796
:101BD0001092B30710928A071092890787E997E05D
:101BE0009093A00680939F0669EA7BE1CE0101965F
:101BF0000E94672240E850E060EE75E0CE01019659
:101C00000E946B2285E58093E00519861C861D865F
:101C10001E861F86188A198A1A8A1B8A1C8A1D8AA0
:101C20001E8A1F8A188E198E1A8E1B8E1C8E1D8E70
:101C30001E8E1F8E18A219A21AA21BA281E08887ED
:101C400092E09A878B87CE0101960E94F815A396A1
:101C50000FB6F894DEBF0FBECDBFDF91CF911F91BD
:101C6000089509EA16E0C0E0F801D080FFEFDF1226
:101C700022C0CF5F055D1F4FC530B1F70E94EB1446
:101C80002BE28202C0011124FC01EF55F94F82853D
:101C900080939607F0939507E0939407F093860757
:101CA000E0938507809387070E94DD220E94C72268
:101CB0000E94E12216C089EAE82E86E0F82ED0E0E4
:101CC000CD1741F0F7018081D81204C06D2D85E059
:101CD0000E94E00FDF5FFBE2EF0EF11CD53081F7D1
:101CE000C8CFFFCFCF92DF92EF92FF920F931F9357
:101CF000CF93DF93EC018B017A018985823021F04B
:101D000080918307888301C0188280918307853082
:101D100020F060E087E00E94E00F8985823029F0A2
:101D2000809183078F5F8093830780918307811160
:101D300003C081E08093830738812BE23203F001F6
:101D40001124EF55F94F11830083888582873881EC
:101D50003203F0011124EF55F94F83E08187388178
:101D60003203F0011124EF55F94F30870881020347
:101D7000800111240F55194FF8011582CE010B96E1
:101D80000E943F1BF80161A372A383A394A38B85D8
:101D90009C85AD85BE8588339948A144B10520F066
:101DA000688186E10E94E00FC880DD24C7FCD094E2
:101DB000CE014B960E943F1B1BE21C9DF0011D9D16
:101DC000F00D1124EF55F94F658B768B878B908F33
:101DD00028812103C00111249C012F55394F69012D
:101DE000F901458956896789708D81A192A1A3A1C6
:101DF000B4A1840F951FA61FB71F818F928FA38F49
:101E0000B48FCE0143960E943F1BF60165A376A3D3
:101E100087A390A728812103F0011124EF55F94FE2
:101E200085A196A1A7A1B0A5858F968FA78FB0A3F6
:101E300081E090E092A781A7F382E2828487DF911C
:101E4000CF911F910F91FF90EF90DF90CF90089569
:101E50000C94C31B85E690E00895E0919407F091FF
:101E6000950784870895E0919407F09195078485FC
:101E70000895FC018091DF05882331F0DB018C930C
:101E80008091E203808381E008951092DF05089538
:101E90008091DF05882309F483C08DE194E00E94DE
:101EA000BF088091E2031F928F938EE793E09F9388
:101EB0008F930E94102689E194E00E94BF080F9042
:101EC0000F900F900F908091DF05883110F01092E5
:101ED000DF05E091DF058E2F90E0FC013197E631C0
:101EE000F10508F046C0E654FF4F0C940A258DED2D
:101EF00093E041C086EB93E03EC082EA93E03BC0B2
:101F00008CE893E038C081E793E035C08BE593E03F
:101F100032C083E493E02FC080E393E02CC08DE1D6
:101F200093E029C08FEF92E026C08AED92E023C0B3
:101F30008EEC92E020C083EB92E01DC084EA92E038
:101F40001AC080E992E017C08FE792E014C08BE6D8
:101F500092E011C08BE492E00EC083E392E00BC0EC
:101F600088E192E008C087E092E005C088EF91E048
:101F700002C081EF91E00E94BF086091C00770919C
:101F8000C1078DE090E00E94D8256091C007709154
:101F9000C1078AE090E00E94D8258091DF0508956E
:101FA00080E008958093DF05E0919407F091950714
:101FB00080858093E2030E94480F1092DF05089508
:101FC0008093DF056093E2030E94480F1092DF05C3
:101FD000089513BC1092B60018BC17BC16BC15BCF3
:101FE00014BC1DBA1CBA1BBA10929B0010929A0026
:101FF00010929900109298001092950010929400FF
:10200000109291001092900018BA109271001092E4
:10201000B4001092B3001092B2001092B100E0EB45
:10202000F0E01082108217BA109270008FEF84BF18
:102030000895CF93DF931F92CDB7DEB719828981C0
:10204000843640F480ED97E00E94661E89818F5FA0
:102050008983F5CF0F90DF91CF91089581E090E0D3
:102060000E94450C0E9419100E9419100E9419101C
:1020700081E090E00E942E0C0C94191081E090E019
:102080000E94450C0E94191081E090E00E942E0CE5
:102090000C941910FF920F931F93CF93DF9300D0EE
:1020A0001F92CDB7DEB71F928F938EE793E09F9379
:1020B0008F938E010F5F1F4F1F930F930E945A261D
:1020C0000F900F900F900F900F900F90F12CF80140
:1020D00001900020E9F73197E01BF10B8F2D90E084
:1020E0008E179F0708F05DC0F801E80FF91FE08127
:1020F0008E2F90E0FC01F097EA30F10508F049C01E
:10210000E053FF4F0C940A250E942E1002C00E943B
:102110003E100E942E100E942E100E942E100E942F
:102120002E1037C00E943E100E943E10F4CF0E9435
:102130003E100E943E100E943E10EFCF0E943E10C3
:102140000E943E100E943E100E943E10E8CF0E9466
:102150003E1002C00E942E100E943E1004C00E9439
:102160002E100E942E100E943E1006C00E942E10BB
:102170000E942E100E942E100E943E1008C00E9445
:102180002E100E942E100E942E100E942E100E94CF
:102190003E100E9419100E9419100E941910F39409
:1021A00096CF0F900F900F90DF91CF911F910F91CD
:1021B000FF9008956F927F928F929F92AF92BF92FD
:1021C000CF92DF92EF92FF920F931F93CF93DF9303
:1021D00089E294E00E94BF08E0919407F09195078E
:1021E0008085282F332727FD30953F938F9381E8F3
:1021F00093E09F938F930E941026E0919407F091B3
:102200009507C281D381DF93CF9385EB93E09F93B2
:102210008F930E94102688811F928F938AE893E003
:102220009F938F930E941026E0919407F091950759
:1022300081818F9380818F9387E993E09F938F9320
:102240000E941026809195078F93809194078F9319
:1022500081EA93E09F938F930E941026C1EAD6E013
:10226000EDB7FEB774960FB6F894FEBF0FBEEDBF84
:1022700000E010E081EB682E83E0782E9AE8892E4A
:1022800093E0992E27E9A22E23E0B22E31EAC32E45
:1022900033E0D32EEA80FB80FF92EF921F930F93DF
:1022A0007F926F920E941026F70180811F928F9378
:1022B0009F928F920E94102689818F9388818F939D
:1022C000BF92AF920E941026DF93CF93DF92CF92FE
:1022D0000E9410260F5F1F4FAB96EDB7FEB77296A8
:1022E0000FB6F894FEBF0FBEEDBF0530110591F695
:1022F000DF91CF911F910F91FF90EF90DF90CF90E2
:10230000BF90AF909F908F907F906F900895CF93E4
:10231000DF93E0919407F0919507C281D381888182
:10232000853539F00E94DA1081E00E94D20F85E5F0
:102330008883E0919407F0919507808191818115C0
:10234000924438F00E94DA1082E1DF91CF910C9430
:10235000D20FDF91CF9108952BE28202C0011124A8
:10236000FC01EF55F94FA281B3818C91853519F0AD
:1023700085E58C9308C0808191818115924428F075
:1023800082E10E94D20F8FEF089581E008950F93AC
:102390001F934091F0045091F1046091F204709108
:1023A000F30480E090E08A019B01082E04C036957A
:1023B0002795179507950A94D2F700FD19C001E0FB
:1023C00010E020E030E0082E04C0000F111F221F93
:1023D000331F0A94D2F7402B512B622B732B40935F
:1023E000F0045093F1046093F2047093F30405C079
:1023F000019680329105B9F68FEF1F910F910895E4
:10240000E0919407F0919507658576858785908999
:102410000895CF92DF92EF92FF920F931F93CF9385
:10242000DF93C12CD12C7601C394082E04C0CC0CB0
:10243000DD1CEE1CFF1C0A94D2F74091F004509171
:10244000F1046091F2047091F3044C215D216E213E
:102450007F21452B462B472B09F460C0082F0E9493
:10246000760DEAEAF6E0B701A60140955095609531
:10247000709513E0DF0111978C918F3F39F18481C2
:102480009581A681B7818C159D05AE05BF0551F4D8
:1024900010861186128613869F0122503109E901A8
:1024A0001882108384239523A623B72384839583DE
:1024B000A683B78380859185A285B38584239523E0
:1024C000A623B72380879187A287B387BB96D7E0DF
:1024D000E138FD0779F68EEF9FEFAFEFBFEF04C055
:1024E000880F991FAA1FBB1F0A95D2F74091F004CD
:1024F0005091F1046091F2047091F30484239523C8
:10250000A623B7238093F0049093F104A093F204E0
:10251000B093F3040E94780D81E001C08FEFDF914A
:10252000CF911F910F91FF90EF90DF90CF90089582
:102530000F931F9341E050E060E070E08A019B013F
:1025400004C0000F111F221F331F8A95D2F7D90133
:10255000C801E0919407F0919507458556856785F8
:1025600070890423152326233723012B022B032BE9
:10257000D1F080959095A095B095482359236A2372
:102580007B23458756876787708B4189528963898A
:10259000748984239523A623B723818B928BA38BE5
:1025A000B48B81E001C08FEF1F910F910895282F08
:1025B0004091F0045091F1046091F2047091F304A1
:1025C000082E04C076956795579547950A94D2F7DB
:1025D00040FF1DC0E0919407F091950781E090E0E5
:1025E000A0E0B0E004C0880F991FAA1FBB1F2A9566
:1025F000D2F74585568567857089842B952BA62B48
:10260000B72B85879687A787B08B81E008958FEFDA
:102610000895CF92DF92EF92FF92CF93C12CD12CED
:102620007601C39404C0CC0CDD1CEE1CFF1C8A9503
:10263000D2F78091F0049091F104A091F204B0914E
:10264000F3048C219D21AE21BF21892B8A2B8B2B5A
:1026500011F481E044C00E94760DE8EAF6E0AAEAAF
:10266000B6E0C0E083E090819130B9F442855385B3
:10267000648575854C215D216E217F21452B462B7C
:10268000472B59F08C9316861786108A118A108270
:10269000C286D386E486F586C1E090819230A1F4AB
:1026A00042855385648575854C155D056E057F05EE
:1026B00059F48C9316861786108A118A1082128616
:1026C000138614861586C1E0BB969B9697E0EF377C
:1026D000F90749F60E94780DC11105C082E00E94F9
:1026E0002D0F8FEF01C081E0CF91FF90EF90DF9031
:1026F000CF9008950F931F93E0919407F091950761
:102700000585168527853089062317232823392335
:10271000011511052105310511F1DC01CB01818B7A
:10272000928BA38BB48B21E027830090840704C095
:10273000B695A795979587950A94D2F780FF03C021
:102740000E94601704C080E090E00E943117E09181
:102750009407F09195070189128923893489C90169
:10276000B8011F910F91089590919307923018F539
:1027700020917A072F3F51F020917D072F3F41F0A4
:10278000209180072F3F31F4E2E005C0E0E003C074
:10279000E1E001C0E3E0F0E09F01220F331FE20F10
:1027A000F31FE658F84F8283808361839F5F909385
:1027B0009307CF01089580E090E0089527E08A37DD
:1027C000920749F027E08D37920739F080589740FB
:1027D00031F482E0089580E0089581E008958FEF5C
:1027E00008950E94DE138F3F11F481E003C083300F
:1027F00029F482E00E942D0F8FEF0895992787FD1D
:102800009095FC01EE0FFF1F8E0F9F1FFC01E658F5
:10281000F84F82810895EF92FF920F931F93CF9309
:10282000DF931F92CDB7DEB70E94DE138F3F11F406
:1028300081E003C0833029F482E00E942D0F8FEFE6
:1028400041C089830E94760D8981E82EFF24E7FC30
:10285000F0948701000F111FF801EE0DFF1DE658DF
:10286000F84F9281911116C0E0919407F09195076D
:10287000978192609783992787FD9095A92FB92F0B
:10288000818B928BA38BB48B0E94780D80E090E0BB
:102890000E9431170E0D1F1DD801A658B84F129671
:1028A0008C911297815012968C931297E091940715
:1028B000F091950711968C91838781E084830E9423
:1028C000780D81E00F90DF91CF911F910F91FF90D4
:1028D000EF9008950F931F93CF93DF931F92CDB77F
:1028E000DEB70E94DE138F3F11F481E003C0833016
:1028F00029F482E00E942D0F8FEF44C0482F552706
:1029000047FD50959A01220F331F240F351F89016F
:102910000658184FF80122819081291794F5898370
:102920000E94760DF80192819F5F9283E091940757
:10293000F09195071482E8EAF6E08981992787FDEE
:102940009095A92FB92F23E03081323099F4428538
:10295000538564857585481759076A077B0751F4C5
:10296000228316861786108A118A10821286138691
:1029700014861586BB9637E0EF37F30729F70E94D8
:10298000780D81E00F90DF91CF911F910F91089505
:102990000E94DE138F3F11F481E003C0833029F4DD
:1029A00082E00E942D0F8FEF0895992787FD909563
:1029B000FC01EE0FFF1F8E0F9F1FFC01E658F84F22
:1029C0008FEF8083828381838091930781508093EE
:1029D000930781E00895E0918907F0918A0780814B
:1029E0000895E0918907F0918A07309721F00380DC
:1029F000F481E02DFACF0895AF92BF92CF92DF928B
:102A0000EF92FF920F931F93CF93DF93E0919F0676
:102A1000F091A006309709F490C0009189071091B9
:102A20008A070115110509F44CC0D8014BE2582F53
:102A30005403900111242F55394F79019AE0E90E82
:102A4000F11C6901C4E0CC0ED11C5901DBE0AD0ED4
:102A5000B11C2C9130E0429FB001439F700D1124B6
:102A60006F55794FEB019C81992329F05B85E70134
:102A70009881591740F1E6019881992369F0429FA6
:102A8000B001439F700D11246F55794FEB015A85AA
:102A9000E50198815917B8F0429FB001439F700D2E
:102AA00011249B012F55394FE9012A85E7019881AF
:102AB000291748F013960D90BC91A02D109749F658
:102AC00002C0A0E0B0E08083C381D481D093A0068F
:102AD000C0939F06A017B107B1F4109749F0B483D3
:102AE000A383128211821296FC93EE93119706C073
:102AF0001482138212821182FA83E983F0938A0787
:102B0000E09389071AC011968D919C911297AC178A
:102B1000BD0759F092838183B483A3831196CD912D
:102B2000DC911297FC83EB8304C01482138292839E
:102B300081831296FC93EE931197DF91CF911F91B1
:102B40000F91FF90EF90DF90CF90BF90AF900895DE
:102B5000CF93DF93E0918907F0918A07309709F4CA
:102B600044C0992787FD9095208130E028173907C8
:102B700081F4A381B481B0938A07A0938907129648
:102B80001C921E92119718C00380F481E02D30979B
:102B900061F1208130E028173907B1F7C181D28176
:102BA000838194819C838B83A381B481109721F0CE
:102BB0001296DC93CE931197A0919F06B091A00638
:102BC000109739F4F093A006E0939F0614821382C5
:102BD0000AC0B483A3831296FC93EE931197F093EB
:102BE000A006E0939F0612821182DF91CF91089593
:102BF000EF92FF920F931F93CF93DF93EC014B81E2
:102C00005C8169817A818D819E810E9489222F81D8
:102C1000222371F04B815C81E12CF12C00E010E06B
:102C200020E030E0BC01CE010E94720E1F820CC079
:102C3000E8812BE2E202F0011124EF55F94F2185E2
:102C40002330B9F491838083E8818BE2E802F001BC
:102C50001124EF55F94F85899689A789B08D892B65
:102C60008A2B8B2B41F482E0818788810E94FC149F
:102C700002C08FEF01C081E0DF91CF911F910F91D2
:102C8000FF90EF9008951F93CF93DF93CDB7DEB7FA
:102C900028970FB6F894DEBF0FBECDBF29833A83C5
:102CA0004B835C836D837E838F8398870E94760D30
:102CB0000E94B31F182FCE0101960E943F1B633064
:102CC000710598F0E0919407F0919507212F30E07D
:102CD000620F731FCB01A0E0B0E0858B968BA78BB2
:102CE000B08F0E94780D81E001C08FEF28960FB65B
:102CF000F894DEBF0FBECDBFDF91CF911F91089535
:102D00000E945C22E0919407F091950785818111E2
:102D1000F7CF0895CF930E9487110E94760DE0911E
:102D20009407F091950781E090E092A781A78583B1
:102D30000E94B31FC82F883F80F40E944E1F2C2F83
:102D400030E02F5F3F4F90E02817390734F482E0DE
:102D50008C0F8093DE050E94521F0E94780D0E9406
:102D6000801681E0CF910895E0919407F091950746
:102D700080850E94A815E0919407F091950784E062
:102D800081870E948A1681E00895CF93DF93EC013A
:102D90000E948711209711F4C1E0D0E00E94760DC7
:102DA000E0919407F091950781E08583D2A7C1A7B0
:102DB0000E94B31FC82F883F80F40E944E1F2C2F03
:102DC00030E02F5F3F4F90E02817390734F482E05E
:102DD0008C0F8093DE050E94521F0E94780D0E9486
:102DE000801681E0DF91CF910895EF92FF920F93CB
:102DF0001F93CF938C010E94760DE0919407F09180
:102E0000950781E085830E94B31FC82FE091940746
:102E1000F0919507E82EF12CC701800F911FA0E0DB
:102E2000B0E0858B968BA78BB08FC83F78F40E945B
:102E30004E1F9FEFE91AF90A90E0E816F90634F4FC
:102E400082E08C0F8093DE050E94521F0E94780D55
:102E50000E94801681E0CF911F910F91FF90EF901B
:102E60000895CF93DF93EC010E94760DE0919407D3
:102E7000F091950721E02583CE01A0E0B0E0858B9D
:102E8000968BA78BB08F0E94B31FC82F883F80F40A
:102E90000E944E1F2C2F30E02F5F3F4F90E02817ED
:102EA000390734F482E08C0F8093DE050E94521FB4
:102EB0000E94780D0E94801681E0DF91CF910895E5
:102EC000CF930E94760DE0919407F091950781E0F1
:102ED000858386830E94B31FC82F883F80F40E9499
:102EE0004E1F2C2F30E02F5F3F4F90E028173907FF
:102EF00034F482E08C0F8093DE050E94521F0E9402
:102F0000780D0E94801681E0CF9108951F93CF9392
:102F1000DF93CDB7DEB728970FB6F894DEBF0FBEAC
:102F2000CDBF29833A834B835C836D837E838F83FC
:102F300098870E9487110E94760DE0919407F09186
:102F4000950781E0858381E090E092A781A70E94A8
:102F5000B31F182FCE0101960E943F1BE0919407EA
:102F6000F0919507DC01CB01810F911DA11DB11DD1
:102F7000858B968BA78BB08F183F80F40E944E1FD5
:102F8000212F30E02F5F3F4F90E02817390734F4AE
:102F900082E0810F8093DE050E94521F0E94780D0F
:102FA0000E94801681E028960FB6F894DEBF0FBE0F
:102FB000CDBFDF91CF911F9108958F929F92AF92D5
:102FC000BF92CF92DF92EF92FF920F931F93CF9316
:102FD000DF93CDB7DEB760970FB6F894DEBF0FBEB4
:102FE000CDBF29873A874B875C876D877E878F8720
:102FF000988BCE0101960E94271989809A80AB8018
:10300000BC80CD80DE80EF80F88409851A852B8511
:103010003C854D855E856F857889CE0109960E9435
:1030200084198F3F61F029853A854B855C856D85D4
:103030007E858F8598890E94861781E001C08FEF79
:1030400060960FB6F894DEBF0FBECDBFDF91CF9173
:103050001F910F91FF90EF90DF90CF90BF90AF90B6
:103060009F908F900895E0919407F0919507808547
:1030700008952F923F924F925F926F927F928F921C
:103080009F92AF92BF92CF92DF92EF92FF920F93F7
:103090001F93CF93DF93CDB7DEB72F970FB6F8947A
:1030A000DEBF0FBECDBFE0912401F0912501FA876C
:1030B000E987E091B2002E2F30E040E050E060E080
:1030C00070E080E090E006E00E941325AE2EB12C67
:1030D000C12CD12CE12CF12C00E010E00E945325F2
:1030E00001E00E94132500E00E94532559016A0166
:1030F0007B01F82F192F05E00E9413250F2F0E9446
:10310000532502E00E941325AE2EB12CC12CD12CE8
:10311000E12CF12C00E010E00E944A2559016A01DF
:103120007B01E82F192F06E00E9413250E2F0E9425
:103130005325F9014F875C87B62FA72F8D879E8770
:1031400029853A851901412C512CA20160E070E0DB
:1031500080E090E006E00E94132551016201E12C1D
:10316000F12C00E010E00E94532559016A017B0117
:103170008C019F014F855C856B2F7A2F8D859E85F5
:103180000E944A2579018A014B016C01EBE8F7E0C6
:10319000208131814281538160E07AEC8AE99BE3AE
:1031A0000E9479244480558066807780460E571EA1
:1031B000681E791EA301920149823A834B835C8386
:1031C0009701A801B401C601A980BA80CB80DC8038
:1031D000E12CF12C00E010E00E944A252901E42FA7
:1031E000752EB62FA72F682E392E49855A859A013C
:1031F00040E050E060E070E080E090E001E00E949C
:103200002E2559016A017B018C0192014E2F572D09
:103210006B2F7A2F862D932D0E9453252F960FB654
:10322000F894DEBF0FBECDBFDF91CF911F910F91FC
:10323000FF90EF90DF90CF90BF90AF909F908F90D6
:103240007F906F905F904F903F902F9008950F93D5
:103250001F93CF93DF93EC011C821D821E821F827D
:1032600080918B0790918C07A0918D07B0918E076C
:1032700088839983AA83BB8380918F07909190075D
:10328000A0919107B09192078C839D83AE83BF83F9
:103290000E94B31FA82FB0E023EB36EE4EE050E0C3
:1032A0000E946E240C811D812E813F81DC01CB01A7
:1032B000800F911FA21FB31F8C839D83AE83BF839A
:1032C0008C819D81AE81BF8181152AEC92072AE90C
:1032D000A2072BE3B20798F09A5CAA49BB438C8300
:1032E0009D83AE83BF8388819981AA81BB8101962A
:1032F000A11DB11D88839983AA83BB83E1CFDF9190
:10330000CF911F910F9108958F929F92AF92BF928C
:10331000CF92DF92EF92FF920F931F93CF93DF93A1
:10332000CDB7DEB760970FB6F894DEBF0FBECDBF46
:10333000FC0109831A832B833C834D835E836F8357
:10334000788789869A86AB86BC86CD86DE86EF86B0
:10335000F88A09811A812B813C814D815E816F81C0
:103360007885C984DA84EB84FC848D859E85AF855D
:10337000B8890C151D052E053F05F0F1C016D106C4
:10338000E206F30691F4481759076A077B07A0F194
:10339000481B590B6A0B7B0B4483558366837783E9
:1033A000108211821282138225C0481759076A07BA
:1033B0007B0780F401501109210931090C191D09FD
:1033C0002E093F09008311832283338356536546B8
:1033D000744C08C00C191D092E093F090083118384
:1033E00022833383481B590B6A0B7B0B4483558321
:1033F0006683778381E001C08FEF60960FB6F89403
:10340000DEBF0FBECDBFDF91CF911F910F91FF9017
:10341000EF90DF90CF90BF90AF909F908F900895E6
:10342000FC01448155816681778141158AEC5807FA
:103430008AE968078BE3780798F05A5C6A497B430E
:10344000448355836683778380819181A281B38190
:103450000196A11DB11D80839183A283B383E1CF27
:1034600008958F929F92AF92BF92CF92DF92EF9288
:10347000FF920F931F93CF93DF93CDB7DEB7609783
:103480000FB6F894DEBF0FBECDBF09831A832B831E
:103490003C834D835E836F83788789869A86AB866B
:1034A000BC86CD86DE86EF86F88A09851A852B854F
:1034B0003C8549815A816B817C81400F511F621F7D
:1034C000731FFC0140835183628373830D851E85C6
:1034D0002F8538894D815E816F817885400F511F1E
:1034E000621F731F44835583668377830E94101A7B
:1034F00081E060960FB6F894DEBF0FBECDBFDF91BE
:10350000CF911F910F91FF90EF90DF90CF90BF90E0
:10351000AF909F908F900895EBE8F7E06083718300
:1035200082839383248335834683578308952F9220
:103530003F924F925F926F927F928F929F92AF9243
:10354000BF92CF92DF92EF92FF920F931F93FC01F5
:10355000C080D180E280F38064817581868197810B
:10356000C114D104E104F104C1F1F2E4CF16D10495
:10357000E104F104D0F51B012C01612C712C4301F5
:10358000E0E08E2F90E0A0E0B0E08C159D05AE0548
:10359000BF0588F49101A201B301C4013653454629
:1035A000544C6F4F7F4F8F4F9F4F19012A013B01A2
:1035B0004C01EF5FE6CF83EBA82E96EEB92E2EE0FE
:1035C000C22ED12CE12CF12C00E010E09101A201DF
:1035D000B301C4010E94AD2406C023EB36EE4EE0D9
:1035E00050E00E948924C90102C080E090E01F9150
:1035F0000F91FF90EF90DF90CF90BF90AF909F9092
:103600008F907F906F905F904F903F902F90089594
:10361000CF92DF92EF92FF92CF93DF93CDB7DEB7D9
:1036200028970FB6F894DEBF0FBECDBF6B017C01AB
:103630002AE0F694E794D794C7942A95D1F7C982E3
:10364000DA82EB82FC829B01AC0133704427552760
:1036500063EB76EE8EE090E00E9479242C2D3A8187
:103660004B815C8128960FB6F894DEBF0FBECDBFAC
:10367000DF91CF91FF90EF90DF90CF9008952F9240
:103680003F924F925F926F927F928F929F92AF92F2
:10369000BF92CF92DF92EF92FF920F931F93FC01A4
:1036A000C080D180E280F3806481758186819781BA
:1036B000C114D104E104F10499F11B012C01612C26
:1036C000712C4301E0E08E2F90E0A0E0B0E08C157B
:1036D0009D05AE05BF0588F49101A201B301C401A7
:1036E00036534546544C6F4F7F4F8F4F9F4F1901B4
:1036F0002A013B014C01EF5FE6CF83EBA82E96EE4B
:10370000B92E2EE0C22ED12CE12CF12C00E010E0DD
:103710009101A201B301C4010E94AD24CA0107C0F6
:1037200023EB36EE4EE050E00E948924CA01B90135
:103730001F910F91FF90EF90DF90CF90BF90AF90CF
:103740009F908F907F906F905F904F903F902F90C1
:103750000895C1E00E9487110E944E1F843010F42A
:10376000C09388070E945C228091E005853519F09E
:1037700088E00E94D20F80917E41853559F388E020
:103780000E94D20FE7CF2F923F924F925F926F929B
:103790007F928F929F92AF92BF92CF92DF92EF92E1
:1037A000FF920F931F93CF93DF9300D000D01F920F
:1037B000CDB7DEB70E94821E0E94A01E0E94A81EE6
:1037C0009B838A838AEF0E94521FA091DE05B0E09E
:1037D00023EB36EE4EE050E00E946E2400918F07FE
:1037E0001091900720919107309192076B017C0115
:1037F000C00ED11EE21EF31EC701B60123EB36EE4A
:103800004EE050E00E94892426013701461A570AEB
:10381000680A790AD301C20100918B0710918C07C5
:1038200020918D0730918E0743EB842E46EE942E27
:103830004EE0A42EB12C680179014FEFC41AD40ACE
:10384000E40AF40A81155AEC95075AE9A5075BE3E7
:10385000B507C8F02C013D012AEC521A2AE9620A88
:103860002BE3720AC301B201A50194010E948924CD
:10387000A3019201261B370B480B590BDA01C90132
:1038800097018601D8CF80938F0790939007A093DC
:103890009107B093920700938B0710938C072093A6
:1038A0008D0730938E07E0919407F09195078581FD
:1038B000882339F18185843021F18781823029F094
:1038C000882341F08681811102C085E001C083E038
:1038D000818714C083E08187178216828589968943
:1038E000A789B08D892B8A2B8B2B41F4818D928DEA
:1038F000A38DB48D858B968BA78BB08F80850E940E
:10390000A815E0919407F091950785A196A1A7A12C
:10391000B0A5892B8A2B8B2B09F444C02085222348
:1039200009F440C081858430E9F1858D968DA78D9D
:10393000B0A14091DE0550E060E070E0841795078B
:10394000A607B70768F4622F82E00E94E00FE091BB
:103950009407F0919507158E168E178E10A208C049
:10396000841B950BA60BB70B858F968FA78FB0A3E3
:10397000E0919407F09195071085858D968DA78D20
:10398000B0A1892B8A2B8B2B69F4612F83E00E94D5
:10399000E00FE0919407F091950783E08187812FF4
:1039A0000E94A8158AEA96E09D838C8300E61AEEB1
:1039B000312C9AEFC92ED12CE12CF12C22E0222EB1
:1039C000812C912C54018394EC81FD81319780816D
:1039D0008F3F09F4FFC0EC81FD8134971082EC81A8
:1039E000FD81F081F983882309F468C0F43009F47B
:1039F000F1C0EC81FD8144845584668477846091B4
:103A0000DE0570E080E090E046165706680679060D
:103A100048F0461A570A680A790A44865586668627
:103A2000778606C0EC81FD8114861586168617867A
:103A3000EC81FD814088518862887388461657065C
:103A40006806790648F0A3019201261B370B480B44
:103A5000590BDA01C90113C0EC81FD81208D318D34
:103A6000428D538D621773078407950768F4290107
:103A70003A01461A570A680A790AD301C201808BB3
:103A8000918BA28BB38B08C00E948924EC81FD81AD
:103A9000608B718B828B938BEC81FD818089918906
:103AA000A289B389892B8A2B8B2B41F4808D918D30
:103AB000A28DB38D808B918BA28BB38BF981F33068
:103AC00009F088C0EC81FD8184859585A685B78540
:103AD000892B8A2B8B2B09F06AC0DF0112978C91FE
:103AE0009F01235031098823A9F0F901808188239F
:103AF00089F0B501A4010090840704C0440F551F4C
:103B0000661F771F0A94D2F7EC81FD8140875187A9
:103B1000628773871C92F9011082EC81FD81A0A15C
:103B2000B1A1408C518C628C738C448D558D668D07
:103B3000778DA130B105C9F4448B558B668B778B9B
:103B4000208280899189A289B38984879587A687F5
:103B5000B78745284628472821F4C486D586E686B7
:103B6000F786832D0E94FC1422C0EC81FD81448BDA
:103B7000558B668B778B1197A30192010E946E245F
:103B80006487758786879787608B718B828B938B11
:103B900045284628472821F4C486D586E686F78638
:103BA00044244394512CEC81FD8151A240A2EC812C
:103BB000FD8184859585A685B7850097A105B1050A
:103BC00049F0A80160E070E084179507A607B707E1
:103BD00008F48C0133942C813D81255D3F4F3D835A
:103BE0002C8335E03312F0CE0E94EB14F82E4BE21A
:103BF0008402F0011124EF55F94F22852093960796
:103C0000F0938607E09385078823D9F085A196A1D4
:103C1000A7A1B0A5892B8A2B8B2B99F0858D968D2A
:103C2000A78DB0A18A3F9105A105B10550F4A80167
:103C300060E070E084179507A607B70710F48C01C1
:103C400005C00B3F110510F00AEF10E02093870725
:103C5000F0939507E09394070093DE050E94B31F4D
:103C6000282F30E02F5F3F4F2017310740F00E9490
:103C7000B31F082F10E00E5F1F4F0093DE05F110F9
:103C800010928807802F0E94521F6CED75E08A8188
:103C90009B810E94BA1E0E94D6220F900F900F9017
:103CA0000F900F90DF91CF911F910F91FF90EF90A8
:103CB000DF90CF90BF90AF909F908F907F906F904C
:103CC0005F904F903F902F900C94E12200000000F5
:103CD00000000000000000000000000000000000E4
:103CE00000000000019791F70895109221010895B6
:103CF00089E0809321018DE89CE3909329018093D2
:103D00002801089510922501109224010895CF935F
:103D1000DF9300D0CDB7DEB78091240190912501CB
:103D20009A83898389819A810F900F90DF91CF9137
:103D3000089510928100089581E080938100089594
:103D400083B5816083BD1092850010928400089530
:103D5000CF93DF9300D0CDB7DEB7809184009091F0
:103D600085009A83898389819A810F900F90DF91D2
:103D7000CF910895CF92DF92EF92FF92CF93DF938E
:103D8000EC01CC0FDD1FC9378FEFD80710F0C0E072
:103D9000D0E06B01E12CF12CCC0EDD1EE11CF11CFE
:103DA00081E0C816D104E806F10440F081E0E81A89
:103DB000F1080E94A81EC817D907D8F30E94A81EB0
:103DC0008C159D05D8F3DF91CF91FF90EF90DF9098
:103DD000CF9008951092B100E0E7F0E080818D7FF0
:103DE000808380818E7F808308958093B2000895C0
:103DF000E0E7F0E080818360808383E08093B1001E
:103E0000089583B5826083BD1092B2001092E303DF
:103E10001092DE050895CF93DF938EEF8093DE0539
:103E200080E28093B6008091DE058093B30083E04A
:103E300087BB92E09093B0008093B10093B59260FD
:103E400093BD87BB84BD83B5826083BD1092800023
:103E500081E080938100109285001092840083B5E8
:103E6000826083BD83B5816083BD10922001C4E26E
:103E7000D1E01982188283B5826083BD83B58160E9
:103E800083BD0E94011F198218820E94F81E0E94A1
:103E9000781E1092E303DF91CF9108958091B300D3
:103EA0008F5F089581508093B3000895811102C0FF
:103EB000109271008FEF0895811106C01092950045
:103EC0001092940081E008958FEF0895811105C04C
:103ED0008091940090919500089580E090E008957D
:103EE000811105C082E08093710081E008958FEF19
:103EF0000895811134C0CB010197059710F46093A8
:103F0000DD0510929000109291005093990040931B
:103F100098003093E1032093E0038091DD05813028
:103F200021F480919100816011C0823021F4809150
:103F3000910082600BC0833021F4809191008360F6
:103F400005C0843031F480919100846080939100A9
:103F500008C0853031F4809191008560F7CF8FEFF4
:103F6000089581E008958091B20008951F920F9204
:103F70000FB60F92112460E08AE00E94E00FFFCF9D
:103F80000F920FB60F921F922F923F924F925F9215
:103F90006F927F928F929F92AF92BF92CF92DF9259
:103FA000EF92FF920F931F932F933F934F935F9343
:103FB0006F937F938F939F93AF93BF93CF93DF9331
:103FC000EF93FF93A0919407B09195070DB60D92D2
:103FD0000EB60D921F92A0916805B09169051E90D2
:103FE000BEBFADBF08951F920F920FB60F9211245E
:103FF0000BB60F922F933F934F935F936F937F93E3
:104000008F939F93AF93BF93EF93FF93E091E00360
:10401000F091E103309711F0099504C060E08AE067
:104020000E94E00FFF91EF91BF91AF919F918F910F
:104030007F916F915F914F913F912F910F900BBEA8
:104040000F900FBE0F901F9018951F920F920FB6F2
:104050000F9211240F900FBE0F901F90189504B669
:1040600003FE02C080E101C080E004B602FE06C08B
:1040700094B79B7F94BF04B600FE846004B601FE33
:1040800005C094B79D7F94BF8260089581110CC0D4
:1040900004B600FE04C094B79E7F94BF01C081E0C7
:1040A0009091B000911181E00895811102C0E89AC9
:1040B00039C0813011F4E99A0895823011F4EA9AF6
:1040C00031C0833021F480916B00816029C084303D
:1040D00021F480916B00826023C0853021F48091AF
:1040E0006B0084601DC0863021F480916B00886075
:1040F00017C0873021F480916B00806111C0883037
:1041000021F480916B0080620BC0893021F4809192
:104110006B00806405C08A3039F480916B00806840
:1041200080936B0081E008958FEF0895811102C0A4
:10413000E89839C0813011F4E9980895823011F47B
:10414000E99831C0833021F480916B008E7F29C0C3
:10415000843021F480916B008D7F23C0853021F461
:1041600080916B008B7F1DC0863021F480916B00A5
:10417000877F17C0873021F480916B008F7E11C03C
:10418000883021F480916B008F7D0BC0893021F441
:1041900080916B008F7B05C08A3039F480916B0071
:1041A0008F7780936B0081E008958FEF08958111E0
:1041B00026C05093B9074093B807611104C080919D
:1041C00069008C7F3DC0613049F4809169008D7F2A
:1041D0008093690080916900816032C0623049F447
:1041E00080916900826080936900809169008E7F70
:1041F00027C0633039F580916900836021C0813028
:1042000049F55093B7074093B607611104C08091F8
:104210006900837F15C0613049F480916900877F10
:10422000809369008091690084600AC0623061F403
:1042300080916900886080936900809169008B7F1C
:104240008093690081E008956330E1F7809169000F
:104250008C60F6CF823031F55093BB074093BA079C
:10426000611104C0809169008F7CEACF613049F40C
:10427000809169008F7D80936900809169008061E1
:10428000DFCF623049F480916900806280936900D9
:10429000809169008F7ED4CF6330A1F68091690050
:1042A0008063CECF8350883050F480916800816065
:1042B000809368005093BD074093BC07C3CF8FEF36
:1042C00008951F920F920FB60F9211240BB60F9202
:1042D0002F933F934F935F936F937F938F939F930E
:1042E000AF93BF93EF93FF93E091BC07F091BD07AD
:1042F000309711F0099504C060E08AE00E94E00F59
:10430000FF91EF91BF91AF919F918F917F916F91AD
:104310005F914F913F912F910F900BBE0F900FBE69
:104320000F901F9018951F920F920FB60F921124A5
:104330000BB60F922F933F934F935F936F937F939F
:104340008F939F93AF93BF93EF93FF93E091B80741
:10435000F091B907309711F0099504C060E08AE048
:104360000E94E00FFF91EF91BF91AF919F918F91CC
:104370007F916F915F914F913F912F910F900BBE65
:104380000F900FBE0F901F9018951F920F920FB6AF
:104390000F9211240BB60F922F933F934F935F937D
:1043A0006F937F938F939F93AF93BF93EF93FF93FD
:1043B000E091B607F091B707309711F0099504C066
:1043C00060E08AE00E94E00FFF91EF91BF91AF9112
:1043D0009F918F917F916F915F914F913F912F911D
:1043E0000F900BBE0F900FBE0F901F9018951F924D
:1043F0000F920FB60F9211240BB60F922F933F938B
:104400004F935F936F937F938F939F93AF93BF93DC
:10441000EF93FF93E091BA07F091BB07309711F04B
:10442000099504C060E08AE00E94E00FFF91EF91DF
:10443000BF91AF919F918F917F916F915F914F91BC
:104440003F912F910F900BBE0F900FBE0F901F90BA
:104450001895A8959FB7F89484B7877F84BFE0E646
:10446000F0E080818861808310829FBF08959FB7AC
:10447000F894A89584B7877F84BFE0E6F0E0808158
:10448000886180838DE080839FBF089504B603FE1A
:1044900002C08FEF089581E00895A89508950895CA
:1044A00083B7817F866083BF83B7816083BF889530
:1044B00083B78E7F83BF089583B7817F83BF83B720
:1044C000816083BF889583B78E7F83BF0895FC0189
:1044D000768365830895EF92FF920F931F93CF9396
:1044E000DF938C017B01EA014032510518F481E130
:1044F0000E94D20F2197CE0DDF1DF801D283C18318
:10450000F482E382DF91CF911F910F91FF90EF90A2
:10451000089525E5FA012083FB01329790833196B7
:1045200080833397118210823297118210823297E2
:10453000118210823297118210823297118210827A
:104540003297118210823297118210823297118233
:104550001082329711821082329711821082329724
:10456000118210823297118210823297118210824A
:104570003297118210823297118210823297118203
:104580001082CB018497FC0111821082089585E589
:1045900080937E41EEEFF1E4F0936905E0936805C6
:1045A00088E29FE090838093FF41089588E29FE036
:1045B0009093FE418093FF4108950E940B1F0C943D
:1045C000780DA0918507B0918607CD91CDBFDD9183
:1045D000DEBFFF91EF91DF91CF91BF91AF919F919E
:1045E0008F917F916F915F914F913F912F911F918B
:1045F0000F91FF90EF90DF90CF90BF90AF909F9082
:104600008F907F906F905F904F903F902F901F9072
:104610000F900FBE0F9018950E94130980E190E053
:104620000E94970C85EA92E00E942A260E947D0D46
:1046300020E030E0A90160E070E0CB010E948C1A1C
:104640000E947D020E94310E80E090E008956F92FA
:104650007F928F929F92AF92BF92CF92DF92EF9212
:10466000FF920F931F93CF93DF93CDB7DEB72C97B5
:104670000FB6F894DEBF0FBECDBF6C015B017A01AF
:10468000FC0117821682838181FF0EC1CE01019643
:104690004C01F6010381F50103FD159103FF119112
:1046A0005F01112309F4FCC0153249F403FD159193
:1046B00003FF11915F01153211F020E01BC0B6011C
:1046C000812F90E00E94D82537017301E2CF11239A
:1046D00009F4E6C0612F70E08FE394E02C870E941C
:1046E0006B252C85892B49F0F50103FD159103FFFE
:1046F00011915F0127FFEBCF09C0133229F01C365F
:1047000009F0D5C02068F0CF20E1EECF022F1123B1
:1047100009F4C6C0612F70E088E394E02C870E9402
:104720006B252C85892B41F03701F4E06F0E711C4D
:10473000B6018FE390E011C0133639F0133781F0E2
:10474000133519F5022F01600BC0370182E0680EA6
:10475000711CB601F701808191810E94D825B5CFE7
:104760003701F2E06F0E711CF701E080F180F70174
:1047700000FD859100FF81917F01882309F4A5CF79
:10478000B60190E00E94D825F2CF143611F0193608
:1047900029F5370127FF09C0F4E06F0E711CF701FE
:1047A00060817181828193810AC0F2E06F0E711C79
:1047B000F70160817181882777FD8095982F022FFE
:1047C0000F7E97FF08C090958095709561957F4FFB
:1047D0008F4F9F4F00642AE030E033C0103799F0CC
:1047E00040F41835B1F01F3609F05AC028E030E027
:1047F00014C0153719F0183741F052C0022F0F7E40
:104800002AE030E00AC0022F0061046220E130E0BB
:1048100004C0022F046020E132E0370107FF09C025
:10482000F4E06F0E711CF7016081718182819381C8
:1048300008C0F2E06F0E711CF7016081718180E0A9
:1048400090E0A4010E948A26182F181906FF05C0BF
:10485000B6018DE290E00E94D82504FF15C0FE014C
:10486000E10FF11D8081803379F0B60180E390E0A3
:104870000E94D82502FF08C00072802F90E0B60188
:10488000885A9F4F0E94D8251150F401E10FF11D65
:104890008081B60190E00E94D8251111F5CF15CF87
:1048A000F6018681978105C08FEF9FEF02C0022F2E
:1048B00031CF2C960FB6F894DEBF0FBECDBFDF917F
:1048C000CF911F910F91FF90EF90DF90CF90BF900D
:1048D000AF909F908F907F906F9008950E945C257D
:1048E000A59F900DB49F900DA49F800D911D112444
:1048F0000895DB018F939F930E946E24BF91AF9127
:10490000A29F800D911DA39F900DB29F900D112429
:104910000895A1E21A2EAA1BBB1BFD010DC0AA1F00
:10492000BB1FEE1FFF1FA217B307E407F50720F018
:10493000A21BB30BE40BF50B661F771F881F991F93
:104940001A9469F760957095809590959B01AC01DC
:10495000BD01CF010895689401C0E8948F929F92A1
:10496000CF93DF930E94B924DF91CF919F908F90D6
:10497000089588249924F401E401B0E49F93AA27C0
:104980009A158B049C04ED05FE05CF05D007A10701
:1049900098F4AD2FDC2FCF2FFE2FE92D982C892EE8
:1049A000982F872F762F652F542F432F322F2227B2
:1049B000B85031F7BF9127C01B2EBF91BB27220FE4
:1049C000331F441F551F661F771F881F991F881CA0
:1049D000991CEE1FFF1FCC1FDD1FAA1FBB1F8A14CF
:1049E0009B04EC05FD05CE05DF05A007B10748F0E7
:1049F0008A189B08EC09FD09CE09DF09A00BB10B51
:104A000021601A94E1F62EF49401AF01BE01CD01AC
:104A1000000C0895EE0FFF1F0024001C0BBE079032
:104A2000F691E02D09940F93083090F0982F872F7E
:104A3000762F652F542F432F322F22270850F4CF83
:104A4000220F331F441F551F661F771F881F991F92
:104A50000A95B2F70F91089597FB10F81694000885
:104A60000F93083098F00850232F342F452F562FDE
:104A7000672F782F892F902DF4CF059497958795E0
:104A80007795679557954795379527950A95AAF78E
:104A90000F9108952A0D3B1D4C1D5D1D6E1D7F1D40
:104AA000801F911F08952A193B094C095D096E0961
:104AB0007F09800B910B0895A29FB001B39FC001A5
:104AC000A39F700D811D1124911DB29F700D811D3A
:104AD0001124911D0895FC010590061621F0002077
:104AE000D9F7C00108953197CF010895FB01DC018A
:104AF00002C001900D9241505040D8F70895FB013B
:104B0000DC014150504030F08D910190801919F432
:104B10000020B9F7881B990B08950F931F93CF932B
:104B2000DF93009731F46115710519F480E090E08E
:104B30003AC08B01EC016EE070E081E090E00E94F1
:104B4000FE26FC01009791F380E88383011511058F
:104B500071F01387028781E883838091BE0790916B
:104B6000BF07892B21F4F093BF07E093BE0720977E
:104B7000C9F0D187C0878381826083838091C00719
:104B80009091C107892B71F4F093C107E093C0079E
:104B90008091C2079091C307892B21F4F093C3073A
:104BA000E093C207CF01DF91CF911F910F9108953C
:104BB0000F931F93CF93DF93FB01238121FD03C04C
:104BC0008FEF9FEF28C022FF16C0468157812481B6
:104BD00035814217530744F4A081B1819D012F5FB5
:104BE0003F4F318320838C93268137812F5F3F4F46
:104BF0003783268310C0EB01092F182F0084F1851D
:104C0000E02D0995892BE1F68E819F8101969F8386
:104C10008E83812F902FDF91CF911F910F91089557
:104C2000CF93DF93CDB7DEB7AE014B5F5F4FFA0195
:104C300061917191AF018091C0079091C1070E946D
:104C40002723DF91CF9108956091C0077091C1072C
:104C50000C94D8250F931F93CF93DF93E091C00757
:104C6000F091C107238121FF1BC08C01D0E0C0E07F
:104C7000F80181918F016091C0077091C107DB013C
:104C80001896ED91FC911997882331F00995892B9D
:104C900079F3DFEFCFEFECCF8AE00995892B19F09C
:104CA0008FEF9FEF02C08D2F9C2FDF91CF911F912F
:104CB0000F9108950F931F93CF93DF93CDB7DEB776
:104CC0002E970FB6F894DEBF0FBECDBF0D891E899B
:104CD00086E08C831A8309838FEF9FE79E838D8301
:104CE000AE01475E5F4F6F89788DCE0101960E94BD
:104CF00027232F813885F801E20FF31F10822E96AB
:104D00000FB6F894DEBF0FBECDBFDF91CF911F91DC
:104D10000F910895FA01AA27283051F1203181F12D
:104D2000E8946F936E7F6E5F7F4F8F4F9F4FAF4FB3
:104D3000B1E03ED0B4E03CD0670F781F891F9A1FC6
:104D4000A11D680F791F8A1F911DA11D6A0F711D7A
:104D5000811D911DA11D20D009F468943F912AE086
:104D6000269F11243019305D3193DEF6CF0108956E
:104D7000462F4770405D4193B3E00FD0C9F7F6CF9F
:104D8000462F4F70405D4A3318F0495D31FD405267
:104D9000419302D0A9F7EACFB4E0A69597958795FD
:104DA00077956795BA95C9F70097610571050895DC
:104DB0009B01AC010A2E0694579547953795279588
:104DC000BA95C9F7620F731F841F951FA01D089520
:104DD000F999FECF92BD81BDF89A992780B50895C3
:104DE000262FF999FECF1FBA92BD81BD20BD0FB607
:104DF000F894FA9AF99A0FBE019608950F931F93AB
:104E0000CF93DF93869F8001879F100D969F100D93
:104E10001124C8010E941A27EC01009729F0A8016B
:104E200060E070E00E944728CE01DF91CF911F9192
:104E30000F910895CF93DF938230910510F482E0B3
:104E400090E0E091C607F091C70720E030E0C0E0B5
:104E5000D0E0309711F14081518148175907C0F0D7
:104E60004817590761F482819381209719F09B8339
:104E70008A832BC09093C7078093C60726C021154D
:104E8000310519F04217530718F49A01BE01DF01EA
:104E9000EF010280F381E02DDCCF2115310509F10E
:104EA000281B390B2430310590F412968D919C917A
:104EB00013976115710521F0FB019383828304C070
:104EC0009093C7078093C607FD01329644C0FD0149
:104ED000E20FF31F81939193225031092D933C935C
:104EE0003AC02091C4073091C507232B41F420918B
:104EF0001202309113023093C5072093C40720910A
:104F00001002309111022115310541F42DB73EB741
:104F10004091140250911502241B350BE091C407F7
:104F2000F091C507E217F307A0F42E1B3F0B2817DB
:104F3000390778F0AC014E5F5F4F2417350748F012
:104F40004E0F5F1F5093C5074093C4078193919301
:104F500002C0E0E0F0E0CF01DF91CF9108950F9320
:104F60001F93CF93DF93009709F48CC0FC01329715
:104F7000138212820091C6071091C707011511050F
:104F800081F420813181820F931F2091C4073091D9
:104F9000C5072817390779F5F093C507E093C407CB
:104FA00071C0D80140E050E0AE17BF0750F4129630
:104FB0002D913C911397AD012115310509F1D901CE
:104FC000F3CF9D01DA013383228360817181860FE3
:104FD000971F8217930769F4EC0128813981260F06
:104FE000371F2E5F3F4F318320838A819B819383BC
:104FF0008283452B29F4F093C707E093C60742C08C
:105000001396FC93EE931297ED01499159919E01ED
:10501000240F351FE217F30771F480819181840F0B
:10502000951F029611969C938E938281938113967D
:105030009C938E931297E0E0F0E0D80112968D9148
:105040009C911397009719F0F8018C01F6CF8D9180
:105050009C9198012E5F3F4F820F931F2091C407B0
:105060003091C5072817390769F4309729F4109251
:10507000C7071092C60702C0138212821093C50799
:105080000093C407DF91CF911F910F910895DC0128
:1050900001C06D9341505040E0F70895F894FFCF60
:1050A0004315A6D93D3182F18CA74FC5999704AC21
:1050B0000000C80720003D352D251D150D053D3587
:1050C0002D251D150D052E261E160E06FFFF0C04A0
:1050D0003C342C241C140C043B332B231B130B3BA0
:1050E000332B231B130B03FFFFFFFFFFFFFFFF39D2
:1050F0003129211911090119110901FFFFFFFFFFD2
:10510000FFFFFFFFFFFFFF7374617274656420701F
:1051100061636B65742072780D0066696E697368EF
:105120006564207061636B65742072780D0057614F
:105130006974696E6720666F72207061636B657455
:105140002E2E2E0D007374617274696E672E2E2ED2
:105150000D007266206E6F742072656164790D00B7
:105160006C656E67746820746F6F20677265617418
:105170000D00696E636F7272656374206C656E6793
:1051800074682073657474696E6720696E20726636
:105190002073657474696E67730D0072665F727850
:1051A0005F7061636B65745F6E6F6E626C6F636B73
:1051B000206661696C65645D0D005061636B6574A8
:1051C00020697320646F6E6520626F756E63696E0F
:1051D000672061726F756E64210D0A005345513A64
:1051E0002534750954544C3A2532640952535349B5
:1051F0003A253464095061796C6F61643A205B250B
:10520000735D0D0A00525820656E64206661696CFA
:10521000656420636865636B73756D210D0025649B
:10522000006375723A202564200063616E617279B3
:10523000203D202578200073746B203D20257820A8
:10524000007463622061646472203D2025780D0A39
:105250000025643A20626F74746F6D203D202578BC
:0252600020002C
:00000001FF
