:100000000C941D020C942E260C9460260C949226BF
:100010000C943C020C943C020C943C020C943C0268
:100020000C943C020C94FC250C943C020C943C0275
:100030000C943C020C945B240C943C020C945B24C6
:100040000C943C020C943C020C943C020C943C0238
:100050000C943C020C943C020C943C020C943C0228
:100060000C943C020C943C020C943C020C943C0218
:100070000C943C020C943C020C943C020C943C0208
:100080000C948E240C943C020C943C020C943C0284
:100090000C943C020C943C020C943C020C943C02E8
:1000A0000C943C020C943C020C943C020C943C02D8
:1000B0000C943C020C943C020C943C020C943C02C8
:1000C0000C943C020C943C020C943C020C943C02B8
:1000D0000C943C020C943C020C943C020C943C02A8
:1000E0000C943C020C94930A0C94840A0C94540AC9
:1000F0000C94440B0C94450A0C94360A0C94240A74
:100100000C94150A0C943C020C943C020C943C0296
:100110000C943C020C943C020C943C020C943C0267
:10012000C40CD10CDE0CEB0CF80C050D120D350DCA
:10013000430D510D5F0D6D0D7B0D890DAC0DAE0D99
:10014000B00DB20DB40DB60DB80DD70DFA0D1E0ED3
:10015000410E640E870EAA0EE40EF10EFE0E0B0F7A
:10016000180F250F320F4B0F580F650F720F7F0FAF
:100170008C0F990FE712ED12F012F312F612F9122A
:10018000FF12FC1202130513081311131413171393
:100190001A130E13E412EA121D1320130B13E112AB
:1001A000EE13F113FC130114081411141414191490
:1001B000201429147478206661696C656420647564
:1001C0006520746F20696E636F727265637420744A
:1001D0007278207374617475730D0A00554E4B4F1D
:1001E000574E0045787465726E616C205265736578
:1001F000740042726F776E204F7574204465746589
:100200006374004661696C656420746F2063726575
:100210006174652053656D6170686F726500466139
:10022000696C656420746F20637265617465205326
:1002300069676E616C004B65726E656C2066756EE9
:100240006374696F6E206E6F7420696D706C656D7C
:10025000656E7465640044657669636520447269FF
:10026000766572204572726F7200576174636864BC
:100270006F67205265737461727400535720576121
:10028000746368646F67205265737461727400549C
:10029000696D6572204F766572666C6F7700556E7A
:1002A00068616E646C656420496E74657272757005
:1002B0007420566563746F72004C6F7720566F6CB4
:1002C00074616765004578747261205461736B20B6
:1002D000737461727465642C206973206E726B5F35
:1002E0006366672E68206F6B3F0049646C65206F02
:1002F00072204B65726E656C20537461636B204F86
:10030000766572666C6F7700556E6578706563749C
:1003100065642052657374617274004475706C6911
:100320006361746564205461736B204944005363B6
:10033000686564756C6572204D69737365642057D8
:10034000616B657570005461736B205265736572E3
:1003500076652056696F6C617465640052657365DB
:10036000727665204572726F7220696E20536368E1
:100370006564756C657200496E76616C69642053C2
:100380007461636B20506F696E74657200546173A1
:100390006B20537461636B204F766572666C6F7768
:1003A00000537461636B20776173206E6F742064F7
:1003B0006566696E6564206173206C617267652093
:1003C000656E6F75676821005461736B207065728C
:1003D000696F6420746F6F206C617267652E2050A6
:1003E0006572696F64206D757374206265206C6539
:1003F0007373207468616E203631207365636F6E8D
:1004000064732E00293A20002A4E524B2045525246
:100410004F5228000D0A535441434B2044554D5030
:100420000D0A0045464765666700202B2D2E3031AA
:100430003233343536373839680011241FBECFEFD8
:10044000D1E4DEBFCDBF14E0A0E0B2E0EEE3FBE517
:1004500000E00BBF02C007900D92AA32B107D9F796
:1004600018E0AAE2B4E001C01D92A630B107E1F79E
:100470000E94A7270C949D2D0C9451242F923F92FB
:100480004F925F926F927F928F929F92AF92BF92A4
:10049000CF92DF92EF92FF920F931F93CF93DF9350
:1004A00000D0CDB7DEB78C01FC01F181F983FC01EE
:1004B000F281FA83FC01738064800E94FE04F801DB
:1004C0004080512CE4E3AE2EF8E0BF2EC12CD12C9D
:1004D000E12CF12C00E010E00E94DF29AAE0AA2E16
:1004E000B12C0E94DD2942165306A1F080912A0406
:1004F00090912B04A0912C04B0912D040196A11D84
:10050000B11D80932A0490932B04A0932C04B093E4
:100510002D0413C080912E0490912F04A0913004DB
:10052000B09131040196A11DB11D80932E049093CA
:100530002F04A0933004B093310420902A0430900B
:100540002B0440902C0450902D04C0902E04D09089
:100550002F04E0903004F0903104520141018C0CE2
:100560009D1CAE1CBF1CC501B4012AE030E040E078
:1005700050E00E94C629672B682B692B39F56F92D2
:100580007F92FA81FF9389818F935F924F923F927E
:100590002F92FF92EF92DF92CF92A4E6B0E0A701F4
:1005A00096010E948929A50194010E94C6295F93A2
:1005B0004F933F932F9387E692E09F938F930E94F0
:1005C0005F2B0FB6F894DEBF0FBECDBF81E090E089
:1005D0000F900F90DF91CF911F910F91FF90EF90AF
:1005E000DF90CF90BF90AF909F908F907F906F9053
:1005F0005F904F903F902F900C94B30F0E94AF0CE0
:100600008FEC90E00E9433108AE992E00E94792BEF
:1006100080E090E00E94CA0F81E090E00E94CA0F43
:1006200082E090E00E94CA0F83E090E00E94CA0F2F
:1006300020E030E0A90160E070E0CB010E941C1EC8
:100640008EE00E949C040E94DE0480E090E0089509
:10065000CF92DF92FF920F931F93CF93DF93F89483
:10066000F0901C0700911D0710911E07D0911F07E5
:10067000C0912007B0912107F0912207E091230754
:10068000C0909400D09095002F2D302F412F5D2FDA
:100690006C2F7B2F8F2F9E2FA1E00E948D2AA5E724
:1006A000CA16AFE3DA0698F0E0919400F091950055
:1006B000E457FF43F0939500E0939400F22E032F4C
:1006C000142FD52FC62FB72FF82FE92FD9CFF0929F
:1006D0001C0700931D0710931E07D0931F07C0939C
:1006E0002007B0932107F0932207E0932307789423
:1006F000DF91CF911F910F91FF90DF90CF900895E0
:1007000082E090E00E94E10F81E080930A07089563
:100710000F931F93CF93DF938C01EB010E94A01DD9
:10072000CE010E94A01DF801408151816281738138
:1007300088819981AA81BB8184179507A607B7078D
:1007400000F1481759076A077B07E8F0481759076F
:100750006A077B07D1F404811581268137814C819A
:100760005D816E817F8181E04017510762077307C9
:1007700068F0041715072607370708F080E0819511
:1007800005C081E003C08FEF01C080E0DF91CF9111
:100790001F910F9108959093BB048093BA0408951C
:1007A0008091BA049091BB040895803220F40E9495
:1007B000440781E008958FEF08951092B6041092D7
:1007C000B7041092B8041092B90408956091B60469
:1007D0007091B7048091B8049091B90408950F9373
:1007E0001F93CF93DF931F92CDB7DEB78C0183E0C9
:1007F00090E069830E94E10FE4E2F7E01483038351
:1008000069816283CF010E94D30883E090E00F905A
:10081000DF91CF911F910F910C94CA0F0C94860712
:100820000F931F93CF93DF93CDB7DEB760970FB6CB
:10083000F894DEBF0FBECDBF81E090E0A0E0B0E055
:1008400089879A87AB87BC8782E090E0A0E0B0E020
:1008500089839A83AB83BC83BE016F5F7F4FCE01D8
:1008600009960E948803082FBE01675F7F4FCE0163
:1008700001960E94880311E0813019F40F3F09F4BA
:1008800010E081E090E0A0E0B0E089839A83AB8340
:10089000BC838EE190E0A0E0B0E08D879E87AF87BB
:1008A000B88B8FE190E0A0E0B0E08D839E83AF83B2
:1008B000B887BE016F5F7F4FCE0109960E94880303
:1008C0008F3F09F011E0BE01675F7F4FCE010196B7
:1008D0000E948803813009F011E08EE190E0A0E0F1
:1008E000B0E08D839E83AF83B887BE016F5F7F4F7B
:1008F000CE0109960E948803811111E0BE01675F55
:100900007F4FCE0101960E948803811102C01123FE
:1009100041F086E093E00E94792B81E090E00E9414
:100920009D2D60960FB6F894DEBF0FBECDBFDF9150
:10093000CF911F910F910895CF93C82F0E9410045B
:1009400084E790E09093BB048093BA041092B604BD
:100950001092B7041092B8041092B904EEEFF6E0CA
:1009600083E394E09683858384E784831782E4E2BB
:10097000F7E016821182108215828EEA95E00E94BD
:100980007C0780E893E00E9481070E942B0720E00B
:1009900030E04FEF5FEF6C2F8EEF96E00E948B07F9
:1009A0000E940011C093B50481E08093B30480934A
:1009B0000B07CF91089580930B07089510921C07A1
:1009C00010921D0710921E0710921F071092200709
:1009D00010922107109222071092230728E233E099
:1009E00044E75FE361E070E080E00E94142481301E
:1009F00019F480E00C940B248FEF08952F923F920E
:100A00004F925F926F927F928F929F92AF92BF921E
:100A1000CF92DF92EF92FF920F931F93CF93DF93CA
:100A2000CDB7DEB729970FB6F894DEBF0FBECDBFA6
:100A3000F8944090940050909500612C712C809017
:100A40001C0790901D07E0911E0730901F07B09182
:100A50002007A091210720902207F091230720E092
:100A6000809194009091950085379F4360F080912C
:100A700094009091950084579F43909395008093A4
:100A800094002F5FEDCF30E040E050E060E070E098
:100A900080E090E05401CE2ED32CEB2EFA2E022DC6
:100AA0001F2F0E94842A20931C0730931D07409318
:100AB0001E0750931F0760932007709321078093B0
:100AC000220790932307789484E076946794579450
:100AD00047948A95D1F7A301920149823A834B83C7
:100AE0005C8394014E2F532D6B2F7A2F822D9F2FD5
:100AF00006E00E944D2A022D0E94992A01E00E94E0
:100B00004D2A022D0E94992A03E00E944D2A590184
:100B10006A017B018C0129813A814B815C8160E013
:100B200070E080E090E00E94842A29960FB6F89445
:100B3000DEBF0FBECDBFDF91CF911F910F91FF9010
:100B4000EF90DF90CF90BF90AF909F908F907F906D
:100B50006F905F904F903F902F9008950E94FE04F9
:100B600020930C0730930D0740930E0750930F0707
:100B700060931007709311078093120790931307E7
:100B800008954F925F926F927F928F929F92AF9251
:100B9000BF92CF92DF92EF92FF920F931F93CF936A
:100BA000DF93182FEB014A0182E090E00E94E10FF1
:100BB00081E08093B40410920A07812F90E0909313
:100BC000BB048093BA0490921707809216070E9484
:100BD00000110E94FB072097A9F10E94FE04A88043
:100BE000B980CA80DB80EC80FD800E811F810E946D
:100BF000842AE901942E852E762E672E582E492EB2
:100C0000E0910A07E11122C00E94FE045E01C92C96
:100C1000D82CE72CF62C052D142D0E94A22A81F346
:100C200078F3DF91CF911F910F91FF90EF90DF90BC
:100C3000CF90BF90AF909F908F907F906F905F907C
:100C40004F90089580910A078823E1F30E942409B8
:100C50000E9401080E94FE1080910107992787FDDC
:100C600090959093BB048093BA04E0911607F0919D
:100C70001707309799F000910C0710910D072091FC
:100C80000E0730910F0740911007509111076091A6
:100C900012077091130783E394E0099582E090E0D6
:100CA0000E94CA0F80910B07882371F083E090E0C7
:100CB0000E94E10F6091BA0483E394E00E94EF0385
:100CC00083E090E00E94CA0FDF91CF911F910F91B6
:100CD000FF90EF90DF90CF90BF90AF909F908F905C
:100CE0007F906F905F904F900C9400114F925F92A5
:100CF0006F927F928F929F92AF92BF92CF92DF922C
:100D0000EF92FF920F931F93CF93DF9329013A0144
:100D1000D62FC72F4C01F89488EEA82E93E0B92E59
:100D2000C12CD12CE12CF12C00E010E0C4010E9478
:100D3000DF2920931C0730931D0740931E07509313
:100D40001F076093200770932107809322079093D9
:100D500023079201A3016D2F7C2FC4010E94DD297E
:100D6000490124E0880C991C2A95E1F7909295009E
:100D7000809294007894DF91CF911F910F91FF9012
:100D8000EF90DF90CF90BF90AF909F908F907F902B
:100D90006F905F904F90089510921C0710921D075E
:100DA00010921E0710921F07109220071092210721
:100DB00010922207109223070895CF93C82F909185
:100DC00041019F719F31D9F3F894C23079F4E091D9
:100DD000BD04F091BE04309749F060914F077091C7
:100DE000500780916707909168070995C093420169
:100DF0007894CF9108958093BC04089581E0809306
:100E000031070895109231070895809141018F7143
:100E10008F31D9F3809141018F71E1F08F30D1F0A2
:100E2000809141018F71883031F480913901826065
:100E3000809339010BC088E00E94DD06809141015A
:100E40008F718830D9F7F1CF8F3021F08091410137
:100E50008F71D1F70895809141018F718F31D9F34E
:100E6000809141018F7111F08F3051F480913901DF
:100E70008D7F80933901809141018F718830D9F73E
:100E8000089589E00C94DD06E5E4F1E09081907F1F
:100E9000908390818F70982B90830895E7E5F1E01F
:100EA00080818D7F80830895E7E5F1E08081826015
:100EB00080830895EEE6F1E080818F7E808308953F
:100EC000EEE6F1E080818061808308958093600187
:100ED0009093610190933B0780933A070895909314
:100EE000350780933407E8E4F1E08081807E8083D9
:100EF0008081682B608308959093C2048093C1041D
:100F000008959093C0048093BF0408959093BE0405
:100F10008093BD0408950F931F93CF93DF93FC013B
:100F2000D90180E28093440180EC809345016062A6
:100F30006093480185EC8093490187EA80934B01D7
:100F400080E880934C0120936001B093610140934D
:100F5000620150936301C6E4D1E0088188819881E1
:100F60002881302F32953695377060E4369F8001A6
:100F70001124229526952370622F602B82958695E9
:100F8000837070E1879F90011124262B929596958E
:100F9000937084E0989FB0011124622B60936D01DF
:100FA00088819881929596959370392F3064982F07
:100FB00092959670932B90936E0110926C018FEF27
:100FC00080934E01C4E3D7E0F983E8831A821B8241
:100FD0005D834C83BF83AE83188681E080934E0788
:100FE0001092690710923D0710923107DF91CF915F
:100FF0001F910F91089586E10C94DD0686E10C9413
:10100000DD0688E00E94DD061092690708951F93AF
:10101000CF93DF93EC0180914E07882309F468C0D9
:101020002E81809136078F5F8093360790918101E2
:10103000907E916020FB95F99F739064909381015D
:1010400088E88093820180913107882361F08FEFD7
:10105000809383018AEA9AEA9093890180938801B8
:101060008FEF9FEF10C0809136078093830120910E
:1010700061018091600190E0922B909389018093AF
:1010800088018881998190938701809386012091BE
:1010900063018091620190E0922B9093850180938F
:1010A00084014A81552747FD50956B817C818AE8F0
:1010B00091E00E94C52A8A81855F8093800180919A
:1010C0004101182F1F719FEF910F9230C0F3113122
:1010D000B1F31231A1F31F3191F398EF910F9230D8
:1010E00048F08F70863031F084EB91E00E94900CD4
:1010F0008FEF55C086E10E94DD068D8181110AC007
:1011000089E00E94DD068E81882391F089E10E94AA
:10111000DD060EC08091480180688093480180916F
:10112000410187FFFCCF8091410186FFE1CFE8CFED
:101130008091BD049091BE04892B71F08A8199271A
:1011400087FD909590936807809367078AE891E000
:101150009093500780934F0710923D0782E00E94C2
:10116000DD0680E090E020913D07211105C0019649
:10117000883E2DEF9207B9F72E81222331F020917E
:10118000420122952695277029F4883E9D4F11F043
:10119000C1E001C0CFEF812F0E94DD068C2FDF91CF
:1011A000CF911F9108950E94070889EE9DEF20912D
:1011B0003D07211104C00197D1F78FEF089581E019
:1011C000089510923D0782E00E94DD0688EE9DEFB3
:1011D00020913D07211104C00197D1F78FEF0895A9
:1011E00081E00895CF93DF9380914E07882341F1EA
:1011F00080914101C82FCF719FEF9C0F9230C0F3B7
:10120000C131B1F3C231A1F3CF3191F3C83019F03C
:101210008F708630A9F486E10E94DD068091480136
:101220008068809348018091410187FFFCCFD09175
:1012300041018C2F0E94DD06D6FB882780F901C072
:101240008FEFDF91CF91089580914E07811103C0F8
:101250008AE193E052C080916907882309F4E3C0D2
:1012600080917B01E0913407F091350790E002977F
:101270002481332727FD3095281739071CF488E28D
:1012800093E03BC0E0913407F091350780918201F3
:101290008083E0913407F091350780918701909128
:1012A000880192838183E0913407F0913507809122
:1012B0007B018B508383A0913407B0913507E09177
:1012C0003407F091350713969C91848189173CF07F
:1012D000E0913407F0913507838187FF12C01092A7
:1012E000690780914C018F7780934C0180914C016C
:1012F000806880934C018AE393E00E94792B8FEF02
:101300000895A0913407B0913507E0913407F0912A
:10131000350713964C91552747FD509569E871E0C4
:10132000858196810E94C52A8091BC04882309F496
:101330003EC0E0913407F091350783818031B9F5E3
:10134000E0913407F09135076581768144E050E003
:1013500080E092E00E94CE2A892B49F5E091340783
:10136000F09135076581768140E150E080E092E0C0
:101370000E94CE2A892BD9F49DE088E10FB6F8941B
:10138000A895809360000FBE9093600080E090E08D
:101390000E94E10F81E090E00E94E10F82E090E086
:1013A0000E94E10F83E090E00E94E10FFFCFE09107
:1013B0003407F09135078091800185FB882780F9FB
:1013C0008783E0913407F09135078091470180874A
:1013D000E0913407F0913507809146018695869516
:1013E00086958187E0913407F09135078091470118
:1013F0008287A0913407B0913507E0917B01F0E03E
:10140000E058FE4F80811B968C9310926907809163
:101410004C018F7780934C0180914C0180688093C0
:101420004C0181E0089580E008951F920F920FB65D
:101430000F9211248F9380E880934F018F910F902A
:101440000FBE0F901F9018951F920F920FB60F921C
:1014500011248F9381E080933D0780E480934F01B6
:101460008F910F900FBE0F901F9018951F920F92A3
:101470000FB60F9211248F9380E280934F018F91CA
:101480000F900FBE0F901F9018951F920F920FB6DE
:101490000F9211248F9380E180934F018F910F90D1
:1014A0000FBE0F901F9018951F920F920FB60F92BC
:1014B00011240BB60F922F933F934F935F936F932B
:1014C0007F938F939F93AF93BF93EF93FF9384E0AA
:1014D00080934F01E091C104F091C204309709F06C
:1014E0000995FF91EF91BF91AF919F918F917F915E
:1014F0006F915F914F913F912F910F900BBE0F9085
:101500000FBE0F901F9018951F920F920FB60F925B
:1015100011248F9382E080934F018F910F900FBE23
:101520000F901F9018951F920F920FB60F921124D3
:101530008F9381E080934F018F910F900FBE0F909A
:101540001F901895E9E4F1E09081907F908390815D
:101550008F70982B908308958FEF089508950895C4
:1015600008958FEF089580912F0790913007089587
:10157000089581E0089581E0089581E00895089537
:1015800008950895089508950895089508959898E0
:101590008DB1806E8DB98EB1806A8EB9089598989C
:1015A0008DB1806E8DB98EB180668EB90895CF925F
:1015B000DF92EF92FF920F931F93CF93DF93CDB7FC
:1015C000DEB727970FB6F894DEBF0FBECDBF0E94DF
:1015D000FE10E0913407F0913507C080D380E5809C
:1015E000F68000850E94240918161CF083E693E01B
:1015F00006C0F7011081111107C082E893E00E9434
:10160000792B0E94001131C0153021F48AE090E05E
:101610000E94732BC70101969F938F93802F992768
:1016200087FD90959F930F931F921F931F92CF92C8
:1016300084EA93E09F938F930E945F2BFD82EC825C
:101640001150F7011083DB821E821F828FEF9FEF04
:101650009A8389830E940011CE0101960E94070897
:101660000FB6F894DEBF0FBECDBF27960FB6F89425
:10167000DEBF0FBECDBFDF91CF911F910F91FF90C5
:10168000EF90DF90CF9008951F920F920FB60F92B8
:1016900011240BB60F922F933F934F935F936F9349
:1016A0007F938F939F93AF93BF93EF93FF9380E0CC
:1016B00090917B01891710F48F5FFACF80914601DA
:1016C00087FF04C081E08093690704C08DEC93E03C
:1016D0000E94792B88E080934F018091460187FF1B
:1016E00005C08091310781110E94D70AE091BF04A3
:1016F000F091C004309709F00995FF91EF91BF91E7
:10170000AF919F918F917F916F915F914F913F9199
:101710002F910F900BBE0F900FBE0F901F9018953A
:10172000AEE3B7E0FC01409620812D9321912093F8
:101730003F01E817F907C1F780E110923E0181509F
:10174000E1F780E880933C0180913D0180FFFCCF70
:10175000E1E5F7E080E18E0F90913F0191938E13C8
:10176000FBCF0895CF93DF93DC01662309F445C0D6
:10177000862F8F7009F041C0EEE3F7E090E19E0FF5
:10178000219120933F019E13FBCF90E070E0E0E2B7
:1017900040E1949F90011124261737077CF59111A1
:1017A00003C010923C0102C0E0933C0140E050E0D5
:1017B0002A0F3B1FE901C40FD51FF881F0933E01AA
:1017C0004F5F5F4F40315105A9F740913C014068A0
:1017D00040933C0140913D0140FFFCCF40E050E090
:1017E000F0913E01E901C40FD51FF8834F5F5F4FB1
:1017F00040315105A9F79F5FCBCF81E0DF91CF91B9
:1018000008950F931F93CF93DF93DC01613009F4A8
:1018100058C0862F8F7009F054C0E1E5F7E090E1E1
:101820009E0F219120933F019E13FBCF62956F7015
:10183000615078E06F3F09F445C070933C01462F3A
:10184000552747FD509520E030E0ED0190E1690219
:10185000C00DD11D1124FE01E20FF31F9081909362
:101860003E012F5F3F4F20313105A9F790913C0198
:10187000906890933C0190913D0190FFFCCF4150C6
:10188000510994E0440F551F9A95E1F720E030E0AC
:1018900090913E018E01020F131FF8019083662381
:1018A00049F0F901E40FF51FEA0FFB1FE0819E27C5
:1018B000F80190832F5F3F4F2031310549F7615088
:1018C000B9CF81E0DF91CF911F910F910895809161
:1018D000C00087FFFCCF8091C0008F778093C0004D
:1018E0008091C60008959091C00095FFFCCF909123
:1018F000C0009F7D9093C0008093C60008958FEF35
:101900000895813019F48091C80004C0811106C087
:101910008091C000881F8827881F089580E008955F
:10192000CF93DF93FC012491EC012196222351F007
:101930006091FE077091FF07822F90E00E94272B95
:10194000CE01F0CFDF91CF91089586E084B985B9BB
:1019500088EF8AB980EF8BB982E08DB908950C9435
:10196000A50C8F3F09F46CC0E82FE7704E2F50E0B4
:101970004730510508F064C0FA01E057FF4F8695E3
:10198000869586950C94442A42B121E030E0B90155
:1019900002C0660F771F8A95E2F7CB01842B82B9CC
:1019A0004DC045B121E030E0B90102C0660F771F9C
:1019B0008A95E2F7CB01842B85B940C048B121E07C
:1019C00030E0B90102C0660F771F8A95E2F7CB01BC
:1019D000842B88B933C04BB121E030E0B90102C09B
:1019E000660F771F8A95E2F7CB01842B8BB926C04F
:1019F0004EB121E030E0B90102C0660F771F8A9531
:101A0000E2F7CB01842B8EB919C041B321E030E05D
:101A1000B90102C0660F771F8A95E2F7CB01842BCC
:101A200081BB0CC044B321E030E0B90102C0660FB5
:101A3000771F8A95E2F7CB01842B84BB81E0089560
:101A40008FEF08958F3F09F473C0E82FE7704E2F92
:101A500050E04730510508F06BC0FA01E956FF4FDE
:101A60008695869586950C94442A42B121E030E013
:101A7000B90102C0660F771F8A95E2F7CB01809506
:101A8000842382B953C045B121E030E0B90102C0DE
:101A9000660F771F8A95E2F7CB018095842385B97D
:101AA00045C048B121E030E0B90102C0660F771FA0
:101AB0008A95E2F7CB018095842388B937C04BB172
:101AC00021E030E0B90102C0660F771F8A95E2F786
:101AD000CB01809584238BB929C04EB121E030E041
:101AE000B90102C0660F771F8A95E2F7CB01809596
:101AF00084238EB91BC041B321E030E0B90102C09C
:101B0000660F771F8A95E2F7CB018095842381BB0E
:101B10000DC044B321E030E0B90102C0660F771F69
:101B20008A95E2F7CB018095842384BB81E00895F8
:101B30008FEF08958F3F31F1E82FE7704E2F50E07F
:101B400047305105F8F4FA01E256FF4F282F269549
:101B5000269526950C94442A90B10BC093B109C0E8
:101B600096B107C099B105C09CB103C09FB101C037
:101B700092B3892F90E002C0959587952A95E2F758
:101B8000817008958FEF08958F3F09F406C1E82F03
:101B9000E7704E2F50E04730510508F0FEC0FA01C3
:101BA000EB55FF4F8695869586950C94442A20B177
:101BB00030E0082E02C0359527950A94E2F742B12D
:101BC00020FD0BC021E030E0B90102C0660F771F95
:101BD0008A95E2F7CB01842B0BC021E030E0B901FC
:101BE00002C0660F771F8A95E2F7CB0180958423A8
:101BF00082B916C023B130E0082E02C03595279572
:101C00000A94E2F745B120FD0DC021E030E0B901B2
:101C100002C0660F771F8A95E2F7CB01842B85B946
:101C200081E0089521E030E0B90102C0660F771F1E
:101C30008A95E2F7CB0180958423F1CF26B130E07D
:101C4000082E02C0359527950A94E2F748B120FD89
:101C50000BC021E030E0B90102C0660F771F8A9502
:101C6000E2F7CB01842B0BC021E030E0B90102C0C8
:101C7000660F771F8A95E2F7CB018095842388B998
:101C8000CFCF29B130E0082E02C0359527950A94B0
:101C9000E2F74BB120FD0BC021E030E0B90102C0FA
:101CA000660F771F8A95E2F7CB01842B0BC021E0EA
:101CB00030E0B90102C0660F771F8A95E2F7CB01C9
:101CC000809584238BB9ACCF2CB130E0082E02C0B4
:101CD000359527950A94E2F74EB120FD0BC021E01F
:101CE00030E0B90102C0660F771F8A95E2F7CB0199
:101CF000842B0BC021E030E0B90102C0660F771FD2
:101D00008A95E2F7CB01809584238EB989CF2FB1D4
:101D100030E0082E02C0359527950A94E2F741B3CA
:101D200020FD0BC021E030E0B90102C0660F771F33
:101D30008A95E2F7CB01842B0BC021E030E0B9019A
:101D400002C0660F771F8A95E2F7CB018095842346
:101D500081BB66CF22B330E0082E02C035952795AF
:101D60000A94E2F744B320FD0BC021E030E0B90152
:101D700002C0660F771F8A95E2F7CB01842B0BC058
:101D800021E030E0B90102C0660F771F8A95E2F7C3
:101D9000CB018095842384BB43CF8FEF08958F3F81
:101DA00009F4D5C0E82FE7704E2F50E0611167C0ED
:101DB0004730510508F0CBC0FA01E455FF4F869536
:101DC000869586950C94442A41B121E030E0B90112
:101DD00002C0660F771F8A95E2F7CB0180958423B6
:101DE00065C044B121E030E0B90102C0660F771F41
:101DF0008A95E2F7CB018095842365C047B121E045
:101E000030E0B90102C0660F771F8A95E2F7CB0177
:101E10008095842365C04AB121E030E0B90102C059
:101E2000660F771F8A95E2F7CB018095842365C002
:101E30004DB121E030E0B90102C0660F771F8A95ED
:101E4000E2F7CB018095842365C040B321E030E008
:101E5000B90102C0660F771F8A95E2F7CB01809522
:101E6000842365C043B321E030E0B90102C0660FAE
:101E7000771F8A95E2F7CB018095842365C04730B0
:101E8000510508F064C0FA01ED54FF4F8695869520
:101E900086950C94442A41B121E030E0B90102C09A
:101EA000660F771F8A95E2F7CB01842B81B94DC06D
:101EB00044B121E030E0B90102C0660F771F8A9576
:101EC000E2F7CB01842B84B940C047B121E030E078
:101ED000B90102C0660F771F8A95E2F7CB01842B08
:101EE00087B933C04AB121E030E0B90102C0660FC2
:101EF000771F8A95E2F7CB01842B8AB926C04DB1B2
:101F000021E030E0B90102C0660F771F8A95E2F741
:101F1000CB01842B8DB919C040B321E030E0B90169
:101F200002C0660F771F8A95E2F7CB01842B80BB36
:101F30000CC043B321E030E0B90102C0660F771F47
:101F40008A95E2F7CB01842B83BB81E008958FEF64
:101F50000895811106C080B18695817091E089272E
:101F600008958FEF0895009711F483E20DC081303A
:101F7000910511F48BE208C08230910511F483E3DE
:101F800003C0039729F48BE30E94C40D81E00895F8
:101F90008FEF0895009711F483E20DC08130910511
:101FA00011F48BE208C08230910511F483E303C081
:101FB000039729F48BE30E94B10C81E008958FEF21
:101FC0000895009711F483E20DC08130910511F45A
:101FD0008BE208C08230910511F483E303C00397BC
:101FE00029F48BE30E94220D81E008958FEF08957C
:101FF000882319F085B78F7E02C085B7806185BFC1
:1020000081E008959091C80095FFFCCF8093CE00A9
:1020100008959093C5008093C40086E08093C20029
:10202000E1ECF0E080818B7F8083A0ECB0E08C91CC
:1020300082608C9380818861808308959093CD0025
:102040008093CC0086E08093CA00E9ECF0E08081C8
:102050008B7F8083A8ECB0E08C9182608C93808130
:10206000886180830895CF93DF930E94091067E60B
:102070007CE083E79CE00E94DC2ACCEFD7E09B83E6
:102080008A8367E67CE083E79CE00E94DC2A9983F0
:102090008883DF91CF9108958091C80087FFFCCF9E
:1020A0008091C8008F778093C8008091CE000895FA
:1020B00000000000000000000197D1F708950C9483
:1020C000372C0E943F2C0895EF92FF920F931F939D
:1020D000CF93DF937C0180E090E00E94372C182F93
:1020E000F701838381E090E00E94372C082FF701ED
:1020F000828382E090E00E94372CD82FF701818301
:1021000083E090E00E94372CC82FF701808384E0A1
:1021100090E00E94372C100FD10FCD0F8C1711F0CB
:102120008FEF01C081E0DF91CF911F910F91FF9060
:10213000EF900895CF93DF93EC0185E090E00E944B
:10214000372C888381E0DF91CF910895FC01608175
:1021500086E090E00E943F2C81E00895CF93DF93CA
:10216000EC0186E090E00E94372C888381E0DF91CB
:10217000CF9108950F931F93CF93DF938C01C0E00D
:10218000D0E0CE0108960E94372CF80181938F0190
:102190002196C031D105A9F781E0DF91CF911F9140
:1021A0000F9108950F931F93CF93DF938C01C0E09D
:1021B000D0E0F80161918F01CE0108960E943F2C7A
:1021C0002196C031D105A9F781E0DF91CF911F9110
:1021D0000F910895CF93DF93EC0187E090E00E9488
:1021E000372C888381E0DF91CF910895FC016081D5
:1021F00087E090E00E943F2C81E00895F8940895D4
:10220000789408950E94FE10FFCFCF93DF93CDB74F
:10221000DEB7A3970FB6F894DEBF0FBECDBF0E9406
:1022200032158093CB078F3F21F460E08EE00E944F
:102230004A130E94CA2480FF04C060E086E00E9426
:102240004A131092CE071092DC071092DB0710920F
:10225000CD071092CC071092DD071092DA078FEFAE
:102260008093C4078093C6078093C5078093C707F0
:102270008093C9078093C80793E69093760780936D
:1022800074079093A10780939F078EED97E023EE4C
:1022900037E03093E2072093E1079093E5078093BE
:1022A000E40748EE57E05093E7074093E607309382
:1022B000EA072093E9071092E0071092DF071092D7
:1022C000EC071092EB071092D1071092D007909371
:1022D0006B0780936A0769E37FE1CE0101960E9454
:1022E000022740E850E06EE776E0CE0101960E94BA
:1022F000062785E580937E0619861C861D861E8628
:102300001F86188A198A1A8A1B8A1C8A1D8A1E8AA5
:102310001F8A188E198E1A8E1B8E1C8E1D8E1E8E75
:102320001F8E18A219A21AA21BA281E0888792E030
:102330009A878B87CE0101960E948819A3960FB6C3
:10234000F894DEBF0FBECDBFDF91CF9108956091AD
:1023500074076F3F39F080919F07681303C085E0D1
:102360000E944A1360919F076F3FE9F40E947B1817
:102370002BE28202C0011124FC01E459F84F82854E
:102380008093DD07F093DC07E093DB07F093CD0744
:10239000E093CC078093CE070E9478270E946227A3
:1023A0000E947C2708C0809174076813DFCF85E006
:1023B0000E944A13DBCFFFCFCF92DF92EF92FF92C2
:1023C0000F931F93CF93DF93EC018B017A018985E3
:1023D000823021F08091CA07888301C018828091E1
:1023E000CA07823020F060E087E00E944A138985A6
:1023F000823029F08091CA078F5F8093CA0780914D
:10240000CA07811103C081E08093CA0738812BE29B
:102410003203F0011124E459F84F118300838885B9
:10242000828738813203F0011124E459F84F83E0A8
:10243000818738813203F0011124E459F84F308745
:1024400008810203800111240459184FF8011582F4
:10245000CE010B960E94CF1EF80161A372A383A345
:1024600094A38B859C85AD85BE8588339948A1440E
:10247000B10520F0688186E10E944A13C880DD24FE
:10248000C7FCD094CE014B960E94CF1E1BE21C9D30
:10249000F0011D9DF00D1124E459F84F658B768BEA
:1024A000878B908F28812103C00111249C0124591E
:1024B000384F6901F901458956896789708D81A175
:1024C00092A1A3A1B4A1840F951FA61FB71F818F4E
:1024D000928FA38FB48FCE0143960E94CF1EF60138
:1024E00065A376A387A390A728812103F001112477
:1024F000E459F84F85A196A1A7A1B0A5858F968F25
:10250000A78FB0A381E090E092A781A7F382E28237
:102510008487DF91CF911F910F91FF90EF90DF9013
:10252000CF9008950C945D1F85E690E00895E091AA
:10253000DB07F091DC0784870895E091DB07F091D9
:10254000DC0784850895FC0180917D06882331F0A5
:10255000DB018C938091C604808381E00895109202
:102560007D06089580917D06882309F483C088E064
:1025700094E00E94900C8091C6041F928F9386EE87
:1025800093E09F938F930E945F2B84E094E00E94DE
:10259000900C0F900F900F900F9080917D068831D6
:1025A00010F010927D06E0917D068E2F90E0FC01E8
:1025B0003197E631F10508F046C0E654FF4F0C9420
:1025C000442A88EC93E041C081EA93E03EC08DE864
:1025D00093E03BC087E793E038C08CE593E035C0DB
:1025E00086E493E032C08EE293E02FC08BE193E06B
:1025F0002CC088E093E029C08AEE92E026C085ECEA
:1026000092E023C089EB92E020C08EE992E01DC0E9
:102610008FE892E01AC08BE792E017C08AE692E05A
:1026200014C086E592E011C086E392E00EC08EE110
:1026300092E00BC083E092E008C082EF91E005C019
:1026400083EE91E002C08CED91E00E94900C6091CD
:10265000FE077091FF078DE090E00E94272B6091AC
:10266000FE077091FF078AE090E00E94272B80917F
:102670007D06089580E0089580937D06E091DB0754
:10268000F091DC0780858093C6040E94B2121092FC
:102690007D06089580937D066093C6040E94B21261
:1026A00010927D06089513BC1092B60018BC17BC9A
:1026B00016BC15BC14BC1DBA1CBA1BBA10929B00E8
:1026C00010929A0010929900109298001092950022
:1026D00010929400109291001092900018BA1092EB
:1026E00071001092B4001092B3001092B2001092D8
:1026F000B100E0EBF0E01082108217BA1092700087
:102700008FEF84BF0895CF93DF931F92CDB7DEB7CD
:1027100019828981843640F480ED97E00E9401237C
:1027200089818F5F8983F5CF0F90DF91CF910895D5
:1027300081E090E00E94E10F0E9483130E948313C6
:102740000E94831381E090E00E94CA0F0C948313CF
:1027500081E090E00E94E10F0E94831381E090E00D
:102760000E94CA0F0C948313FF920F931F93CF9371
:10277000DF9300D01F92CDB7DEB71F928F9386EE06
:1027800093E09F938F938E010F5F1F4F1F930F93C3
:102790000E94A92B0F900F900F900F900F900F9009
:1027A000F12CF80101900020E9F73197E01BF10BC3
:1027B0008F2D90E08E179F0708F05DC0F801E80F9D
:1027C000F91FE0818E2F90E0FC01F097EA30F105CF
:1027D00008F049C0E053FF4F0C94442A0E9498131C
:1027E00002C00E94A8130E9498130E9498130E948E
:1027F00098130E94981337C00E94A8130E94A81330
:10280000F4CF0E94A8130E94A8130E94A813EFCF30
:102810000E94A8130E94A8130E94A8130E94A81344
:10282000E8CF0E94A81302C00E9498130E94A81328
:1028300004C00E9498130E9498130E94A81306C017
:102840000E9498130E9498130E9498130E94A81344
:1028500008C00E9498130E9498130E9498130E9427
:1028600098130E94A8130E9483130E9483130E944E
:102870008313F39496CF0F900F900F90DF91CF9129
:102880001F910F91FF9008956F927F928F929F9268
:10289000AF92BF92CF92DF92EF92FF920F931F936E
:1028A000CF93DF9384E194E00E94900CE091DB07EA
:1028B000F091DC078085282F332727FD30953F9343
:1028C0008F9389EE93E09F938F930E945F2BE0910B
:1028D000DB07F091DC07C281D381DF93CF938DE1D9
:1028E00094E09F938F930E945F2B88811F928F9318
:1028F00082EF93E09F938F930E945F2BE091DB0721
:10290000F091DC0781818F9380818F938FEF93E02B
:102910009F938F930E945F2B8091DC078F93809110
:10292000DB078F9389E094E09F938F930E945F2B46
:10293000CCE6D7E0EDB7FEB774960FB6F894FEBFBD
:102940000FBEEDBF00E010E089E1682E84E0782E34
:1029500092EF892E93E0992E2FEFA22E23E0B22E34
:1029600039E0C32E34E0D32EEA80FB80FF92EF9251
:102970001F930F937F926F920E945F2BF7018081CC
:102980001F928F939F928F920E945F2B89818F93CA
:1029900088818F93BF92AF920E945F2BDF93CF937A
:1029A000DF92CF920E945F2BAB96EDB7FEB7729687
:1029B0000FB6F894FEBF0FBEEDBF0130110519F040
:1029C00001E010E0D1CFDF91CF911F910F91FF90E7
:1029D000EF90DF90CF90BF90AF909F908F907F90BF
:1029E0006F900895CF93DF93E091DB07F091DC07C0
:1029F000C281D3818881853539F00E94441481E0F9
:102A00000E943C1385E58883E091DB07F091DC07A9
:102A1000808191818115924438F00E94441482E1B2
:102A2000DF91CF910C943C13DF91CF9108952BE26D
:102A30008202C0011124FC01E459F84FA281B38144
:102A40008C91853519F085E58C9308C08081918142
:102A50008115924428F082E10E943C138FEF089583
:102A600081E008950F931F934091D4055091D505AF
:102A70006091D6057091D70580E090E08A019B01B6
:102A8000082E04C036952795179507950A94D2F716
:102A900000FD19C001E010E020E030E0082E04C085
:102AA000000F111F221F331F0A94D2F7402B512B06
:102AB000622B732B4093D4055093D5056093D605B4
:102AC0007093D70505C0019680329105B9F68FEF56
:102AD0001F910F910895E091DB07F091DC07658568
:102AE0007685878590890895CF92DF92EF92FF9245
:102AF0000F931F93CF93DF93C12CD12C7601C394F6
:102B0000082E04C0CC0CDD1CEE1CFF1C0A94D2F76E
:102B10004091D4055091D5056091D6057091D705A7
:102B20004C215D216E217F21452B462B472B09F43B
:102B300060C0082F0E94FE10E5E7F7E0B701A6018C
:102B4000409550956095709513E0DF0111978C9139
:102B50008F3F39F184819581A681B7818C159D05C0
:102B6000AE05BF0551F410861186128613869F01AB
:102B700022503109E9011882108384239523A6236A
:102B8000B72384839583A683B78380859185A285A7
:102B9000B38584239523A623B72380879187A287B3
:102BA000B387BB96D7E0EB3CFD0779F68EEF9FEF3E
:102BB000AFEFBFEF04C0880F991FAA1FBB1F0A9574
:102BC000D2F74091D4055091D5056091D60570910A
:102BD000D70584239523A623B7238093D405909308
:102BE000D505A093D605B093D7050E94001181E0CA
:102BF00001C08FEFDF91CF911F910F91FF90EF9068
:102C0000DF90CF9008950F931F9341E050E060E074
:102C100070E08A019B0104C0000F111F221F331FA7
:102C20008A95D2F7D901C801E091DB07F091DC0762
:102C30004585568567857089042315232623372308
:102C4000012B022B032BD1F080959095A095B09588
:102C5000482359236A237B23458756876787708BD0
:102C6000418952896389748984239523A623B723D4
:102C7000818B928BA38BB48B81E001C08FEF1F916E
:102C80000F910895282F4091D4055091D50560915A
:102C9000D6057091D705082E04C07695679557958F
:102CA00047950A94D2F740FF1DC0E091DB07F091F1
:102CB000DC0781E090E0A0E0B0E004C0880F991F3D
:102CC000AA1FBB1F2A95D2F745855685678570894F
:102CD000842B952BA62BB72B85879687A787B08B40
:102CE00081E008958FEF0895CF92DF92EF92FF92E7
:102CF000CF93C12CD12C7601C39404C0CC0CDD1C25
:102D0000EE1CFF1C8A95D2F78091D4059091D505D1
:102D1000A091D605B091D7058C219D21AE21BF2170
:102D2000892B8A2B8B2B11F481E044C00E94FE106A
:102D3000E3E7F7E0A5E7B7E0C0E083E090819130FA
:102D4000B9F442855385648575854C215D216E21DA
:102D50007F21452B462B472B59F08C9316861786DF
:102D6000108A118A1082C286D386E486F586C1E075
:102D700090819230A1F442855385648575854C1508
:102D80005D056E057F0559F48C9316861786108AAB
:102D9000118A10821286138614861586C1E0BB96AE
:102DA0009B9697E0E93CF90749F60E940011C11192
:102DB00005C082E00E9497128FEF01C081E0CF91A1
:102DC000FF90EF90DF90CF9008950F931F93E091C5
:102DD000DB07F091DC0705851685278530890623FA
:102DE000172328233923011511052105310511F178
:102DF000DC01CB01818B928BA38BB48B21E02783E9
:102E00000090CB0704C0B695A795979587950A942F
:102E1000D2F780FF03C00E94F01A04C080E090E067
:102E20000E94C11AE091DB07F091DC070189128949
:102E300023893489C901B8011F910F910895909198
:102E4000DA0791111DC09091C4079F3F31F0909116
:102E5000C7079F3F21F0E2E003C0E0E001C0E1E0EE
:102E6000F0E09F01220F331FE20FF31FEC53F84FE6
:102E700082838083618381E08093DA07CF010895A4
:102E800080E090E0089527E0843C920729F0875C79
:102E9000974021F481E0089580E008958FEF089530
:102EA0000E9443178F3F11F481E002C0823021F469
:102EB0000E9497128FEF0895992787FD9095FC0146
:102EC000EE0FFF1F8E0F9F1FFC01EC53F84F828106
:102ED0000895EF92FF920F931F93CF93DF931F926A
:102EE000CDB7DEB70E9443178F3F11F481E002C0D7
:102EF000823021F40E9497128FEF41C089830E9493
:102F0000FE108981E82EFF24E7FCF0948701000F72
:102F1000111FF801EE0DFF1DEC53F84F9281911136
:102F200016C0E091DB07F091DC07978192609783F0
:102F3000992787FD9095A92FB92F818B928BA38B11
:102F4000B48B0E94001180E090E00E94C11A0E0D27
:102F50001F1DD801AC53B84F12968C911297815017
:102F600012968C931297E091DB07F091DC07119693
:102F70008C91838781E084830E94001181E00F900F
:102F8000DF91CF911F910F91FF90EF9008950F93D4
:102F90001F93CF93DF931F92CDB7DEB70E944317E5
:102FA0008F3F11F481E002C0823021F40E94971219
:102FB0008FEF79C0482F552747FD50959A01220F72
:102FC000331F240F351F89010C53184FF80122813C
:102FD000908129170CF066C089830E94FE10F801C9
:102FE00092819F5F9283E091DB07F091DC0714826E
:102FF000909173078981923041F500917D0710917E
:103000007E0720917F0730918007482F552747FD85
:103010005095652F752F0417150726073707A9F454
:1030200093E0909375071092810710928207109297
:103030008307109284071092730710927D071092F5
:103040007E0710927F071092800790919E07923022
:1030500039F5992787FD9095A92FB92F4091A80799
:103060005091A9076091AA077091AB0748175907BB
:103070006A077B07A9F483E08093A0071092AC074E
:103080001092AD071092AE071092AF0710929E07F4
:103090001092A8071092A9071092AA071092AB07E6
:1030A0000E94001181E00F90DF91CF911F910F914D
:1030B00008950E9443178F3F11F481E002C08230CF
:1030C00021F40E9497128FEF0895992787FD90951C
:1030D000FC01EE0FFF1F8E0F9F1FFC01EC53F84FFA
:1030E0008FEF8083828381838091DA078150809380
:1030F000DA0781E00895E091D007F091D10780814F
:103100000895E091D007F091D107309721F0038026
:10311000F481E02DFACF0895AF92BF92CF92DF9263
:10312000EF92FF920F931F93CF93DF93E0916A0783
:10313000F0916B07309709F490C00091D00710917F
:10314000D1070115110509F44CC0D8014BE2582FE5
:103150005403900111242459384F79019AE0E90E63
:10316000F11C6901C4E0CC0ED11C5901DBE0AD0EAD
:10317000B11C2C9130E0429FB001439F700D11248F
:103180006459784FEB019C81992329F05B85E70115
:103190009881591740F1E6019881992369F0429F7F
:1031A000B001439F700D11246459784FEB015A858B
:1031B000E50198815917B8F0429FB001439F700D07
:1031C00011249B012459384FE9012A85E701988190
:1031D000291748F013960D90BC91A02D109749F631
:1031E00002C0A0E0B0E08083C381D481D0936B079C
:1031F000C0936A07A017B107B1F4109749F0B483E0
:10320000A383128211821296FC93EE93119706C04B
:103210001482138212821182FA83E983F093D10718
:10322000E093D0071AC011968D919C911297AC171C
:10323000BD0759F092838183B483A3831196CD9106
:10324000DC911297FC83EB8304C014821382928377
:1032500081831296FC93EE931197DF91CF911F918A
:103260000F91FF90EF90DF90CF90BF90AF900895B7
:10327000CF93DF93E091D007F091D107309709F415
:1032800044C0992787FD9095208130E028173907A1
:1032900081F4A381B481B093D107A093D007129693
:1032A0001C921E92119718C00380F481E02D309774
:1032B00061F1208130E028173907B1F7C181D2814F
:1032C000838194819C838B83A381B481109721F0A7
:1032D0001296DC93CE931197A0916A07B0916B0779
:1032E000109739F4F0936B07E0936A071482138206
:1032F0000AC0B483A3831296FC93EE931197F093C4
:103300006B07E0936A0712821182DF91CF910895D3
:10331000EF92FF920F931F93CF93DF93EC014B81BA
:103320005C8169817A818D819E810E9424272F8111
:10333000222371F04B815C81E12CF12C00E010E044
:1033400020E030E0BC01CE010E94DC111F820CC0E5
:10335000E8812BE2E202F0011124E459F84F2185C3
:103360002330B9F491838083E8818BE2E802F00195
:103370001124E459F84F85899689A789B08D892B46
:103380008A2B8B2B41F482E0818788810E948C18E4
:1033900002C08FEF01C081E0DF91CF911F910F91AB
:1033A000FF90EF9008951F93CF93DF93CDB7DEB7D3
:1033B00028970FB6F894DEBF0FBECDBF29833A839E
:1033C0004B835C836D837E838F8398870E94FE107E
:1033D0000E944E24182FCE0101960E94CF1E63300A
:1033E000710598F0E091DB07F091DC07212F30E0C8
:1033F000620F731FCB01A0E0B0E0858B968BA78B8B
:10340000B08F0E94001181E001C08FEF28960FB6A7
:10341000F894DEBF0FBECDBFDF91CF911F9108950D
:103420000E94F726E091DB07F091DC07858181118E
:10343000F7CF0895CF930E94F2140E94FE10E091FE
:10344000DB07F091DC0781E090E092A781A78583FC
:103450000E944E24C82F883F80F40E94E9232C2F1D
:1034600030E02F5F3F4F90E02817390734F482E0B7
:103470008C0F80937C060E94ED230E9400110E9415
:10348000101A81E0CF910895E091DB07F091DC07FD
:1034900080850E943819E091DB07F091DC0784E019
:1034A00081870E941A1A81E00895CF93DF93EC017F
:1034B0000E94F214209711F4C1E0D0E00E94FE10A7
:1034C000E091DB07F091DC0781E08583D2A7C1A7FB
:1034D0000E944E24C82F883F80F40E94E9232C2F9D
:1034E00030E02F5F3F4F90E02817390734F482E037
:1034F0008C0F80937C060E94ED230E9400110E9495
:10350000101A81E0DF91CF910895EF92FF920F930F
:103510001F93CF938C010E94FE10E091DB07F09186
:10352000DC0781E085830E944E24C82FE091DB07F1
:10353000F091DC07E82EF12CC701800F911FA0E06D
:10354000B0E0858B968BA78BB08FC83F78F40E9434
:10355000E9239FEFE91AF90A90E0E816F90634F436
:1035600082E08C0F80937C060E94ED230E94001164
:103570000E94101A81E0CF911F910F91FF90EF9060
:103580000895CF93DF93EC010E94FE10E091DB07DA
:10359000F091DC0721E02583CE01A0E0B0E0858B2F
:1035A000968BA78BB08F0E944E24C82F883F80F443
:1035B0000E94E9232C2F30E02F5F3F4F90E0281727
:1035C000390734F482E08C0F80937C060E94ED234F
:1035D0000E9400110E94101A81E0DF91CF9108959E
:1035E000CF930E94FE10E091DB07F091DC0781E0B1
:1035F000858386830E944E24C82F883F80F40E94D2
:10360000E9232C2F30E02F5F3F4F90E02817390738
:1036100034F482E08C0F80937C060E94ED230E949C
:1036200000110E94101A81E0CF9108951F93CF934B
:10363000DF93CDB7DEB728970FB6F894DEBF0FBE85
:10364000CDBF29833A834B835C836D837E838F83D5
:1036500098870E94F2140E94FE10E091DB07F0911F
:10366000DC0781E0858381E090E092A781A70E943A
:103670004E24182FCE0101960E94CF1EE091DB0749
:10368000F091DC07DC01CB01810F911DA11DB11D63
:10369000858B968BA78BB08F183F80F40E94E9230F
:1036A000212F30E02F5F3F4F90E02817390734F487
:1036B00082E0810F80937C060E94ED230E9400111E
:1036C0000E94101A81E028960FB6F894DEBF0FBE54
:1036D000CDBFDF91CF911F9108958F929F92AF92AE
:1036E000BF92CF92DF92EF92FF920F931F93CF93EF
:1036F000DF93CDB7DEB760970FB6F894DEBF0FBE8D
:10370000CDBF29873A874B875C876D877E878F87F8
:10371000988BCE0101960E94B71C89809A80AB805D
:10372000BC80CD80DE80EF80F88409851A852B85EA
:103730003C854D855E856F857889CE0109960E940E
:10374000141D8F3F61F029853A854B855C856D8519
:103750007E858F8598890E94161B81E001C08FEFBE
:1037600060960FB6F894DEBF0FBECDBFDF91CF914C
:103770001F910F91FF90EF90DF90CF90BF90AF908F
:103780009F908F900895E091DB07F091DC07808592
:1037900008952F923F924F925F926F927F928F92F5
:1037A0009F92AF92BF92CF92DF92EF92FF920F93D0
:1037B0001F93CF93DF93CDB7DEB72F970FB6F89453
:1037C000DEBF0FBECDBFE0912401F0912501FA8745
:1037D000E987E091B2002E2F30E040E050E060E059
:1037E00070E080E090E006E00E944D2AAE2EB12C01
:1037F000C12CD12CE12CF12C00E010E00E94992A80
:1038000001E00E944D2A00E00E94992A59016A01B4
:103810007B01F82F192F05E00E944D2A0F2F0E94DF
:10382000992A02E00E944D2AAE2EB12CC12CD12C37
:10383000E12CF12C00E010E00E94842A59016A0179
:103840007B01E82F192F06E00E944D2A0E2F0E94BF
:10385000992AF9014F875C87B62FA72F8D879E87FE
:1038600029853A851901412C512CA20160E070E0B4
:1038700080E090E006E00E944D2A51016201E12CB7
:10388000F12C00E010E00E94992A59016A017B01A5
:103890008C019F014F855C856B2F7A2F8D859E85CE
:1038A0000E94842A79018A014B016C01E2EDF7E064
:1038B000208131814281538160E07AEC8AE99BE387
:1038C0000E9494294480558066807780460E571E5A
:1038D000681E791EA301920149823A834B835C835F
:1038E0009701A801B401C601A980BA80CB80DC8011
:1038F000E12CF12C00E010E00E94842A2901E42F41
:10390000752EB62FA72F682E392E49855A859A0114
:1039100040E050E060E070E080E090E001E00E9474
:10392000682A59016A017B018C0192014E2F572DA3
:103930006B2F7A2F862D932D0E94992A2F960FB6E2
:10394000F894DEBF0FBECDBFDF91CF911F910F91D5
:10395000FF90EF90DF90CF90BF90AF909F908F90AF
:103960007F906F905F904F903F902F9008950F93AE
:103970001F93CF93DF93EC011C821D821E821F8256
:103980008091D2079091D307A091D407B091D50729
:1039900088839983AA83BB838091D6079091D707A8
:1039A000A091D807B091D9078C839D83AE83BF8344
:1039B0000E944E24A82FB0E023EB36EE4EE050E0FC
:1039C0000E9489290C811D812E813F81DC01CB0160
:1039D000800F911FA21FB31F8C839D83AE83BF8373
:1039E0008C819D81AE81BF8181152AEC92072AE9E5
:1039F000A2072BE3B20798F09A5CAA49BB438C83D9
:103A00009D83AE83BF8388819981AA81BB81019602
:103A1000A11DB11D88839983AA83BB83E1CFDF9168
:103A2000CF911F910F9108958F929F92AF92BF9265
:103A3000CF92DF92EF92FF920F931F93CF93DF937A
:103A4000CDB7DEB760970FB6F894DEBF0FBECDBF1F
:103A5000FC0109831A832B833C834D835E836F8330
:103A6000788789869A86AB86BC86CD86DE86EF8689
:103A7000F88A09811A812B813C814D815E816F8199
:103A80007885C984DA84EB84FC848D859E85AF8536
:103A9000B8890C151D052E053F05F0F1C016D1069D
:103AA000E206F30691F4481759076A077B07A0F16D
:103AB000481B590B6A0B7B0B4483558366837783C2
:103AC000108211821282138225C0481759076A0793
:103AD0007B0780F401501109210931090C191D09D6
:103AE0002E093F0900831183228333835653654691
:103AF000744C08C00C191D092E093F09008311835D
:103B000022833383481B590B6A0B7B0B44835583F9
:103B10006683778381E001C08FEF60960FB6F894DB
:103B2000DEBF0FBECDBFDF91CF911F910F91FF90F0
:103B3000EF90DF90CF90BF90AF909F908F900895BF
:103B4000FC01448155816681778141158AEC5807D3
:103B50008AE968078BE3780798F05A5C6A497B43E7
:103B6000448355836683778380819181A281B38169
:103B70000196A11DB11D80839183A283B383E1CF00
:103B800008958F929F92AF92BF92CF92DF92EF9261
:103B9000FF920F931F93CF93DF93CDB7DEB760975C
:103BA0000FB6F894DEBF0FBECDBF09831A832B83F7
:103BB0003C834D835E836F83788789869A86AB8644
:103BC000BC86CD86DE86EF86F88A09851A852B8528
:103BD0003C8549815A816B817C81400F511F621F56
:103BE000731FFC0140835183628373830D851E859F
:103BF0002F8538894D815E816F817885400F511FF7
:103C0000621F731F44835583668377830E94A01DC0
:103C100081E060960FB6F894DEBF0FBECDBFDF9196
:103C2000CF911F910F91FF90EF90DF90CF90BF90B9
:103C3000AF909F908F900895E2EDF7E060837183DD
:103C400082839383248335834683578308952F92F9
:103C50003F924F925F926F927F928F929F92AF921C
:103C6000BF92CF92DF92EF92FF920F931F93FC01CE
:103C7000C080D180E280F3806481758186819781E4
:103C8000C114D104E104F104C1F1F2E4CF16D1046E
:103C9000E104F104D0F51B012C01612C712C4301CE
:103CA000E0E08E2F90E0A0E0B0E08C159D05AE0521
:103CB000BF0588F49101A201B301C4013653454602
:103CC000544C6F4F7F4F8F4F9F4F19012A013B017B
:103CD0004C01EF5FE6CF83EBA82E96EEB92E2EE0D7
:103CE000C22ED12CE12CF12C00E010E09101A201B8
:103CF000B301C4010E94DF2906C023EB36EE4EE07B
:103D000050E00E94A429C90102C080E090E01F9108
:103D10000F91FF90EF90DF90CF90BF90AF909F906A
:103D20008F907F906F905F904F903F902F9008956D
:103D3000CF92DF92EF92FF92CF93DF93CDB7DEB7B2
:103D400028970FB6F894DEBF0FBECDBF6B017C0184
:103D50002AE0F694E794D794C7942A95D1F7C982BC
:103D6000DA82EB82FC829B01AC0133704427552739
:103D700063EB76EE8EE090E00E9494292C2D3A8140
:103D80004B815C8128960FB6F894DEBF0FBECDBF85
:103D9000DF91CF91FF90EF90DF90CF9008952F9219
:103DA0003F924F925F926F927F928F929F92AF92CB
:103DB000BF92CF92DF92EF92FF920F931F93FC017D
:103DC000C080D180E280F380648175818681978193
:103DD000C114D104E104F10499F11B012C01612CFF
:103DE000712C4301E0E08E2F90E0A0E0B0E08C1554
:103DF0009D05AE05BF0588F49101A201B301C40180
:103E000036534546544C6F4F7F4F8F4F9F4F19018C
:103E10002A013B014C01EF5FE6CF83EBA82E96EE23
:103E2000B92E2EE0C22ED12CE12CF12C00E010E0B6
:103E30009101A201B301C4010E94DF29CA0107C098
:103E400023EB36EE4EE050E00E94A429CA01B901EE
:103E50001F910F91FF90EF90DF90CF90BF90AF90A8
:103E60009F908F907F906F905F904F903F902F909A
:103E70000895C2E0D1E00E94F2140E94E923843048
:103E800028F4D093CF070E94F72608C08AE090E07C
:103E90000E940123C093CF070E94EB2680917E06EB
:103EA000853519F088E00E943C1380917E4185356C
:103EB00011F388E00E943C13DECF2F923F924F9285
:103EC0005F926F927F928F929F92AF92BF92CF92AA
:103ED000DF92EF92FF920F931F93CF93DF9300D067
:103EE00000D0CDB7DEB70E941D230E943B230E9465
:103EF00043231C018AEF0E94ED23A0917C06B0E0D1
:103F000023EB36EE4EE050E00E9489290091D6075F
:103F10001091D7072091D8073091D9076B017C0108
:103F2000C00ED11EE21EF31EC701B60123EB36EE12
:103F30004EE050E00E94A42926013701461A570A94
:103F4000680A790AD301C2010091D2071091D30700
:103F50002091D4073091D50743EB842E46EE942E62
:103F60004EE0A42EB12C680179014FEFC41AD40A97
:103F7000E40AF40A81155AEC95075AE9A5075BE3B0
:103F8000B507C8F02C013D012AEC521A2AE9620A51
:103F90002BE3720AC301B201A50194010E94A42976
:103FA000A3019201261B370B480B590BDA01C901FB
:103FB00097018601D8CF8093D6079093D707A09317
:103FC000D807B093D9070093D2071093D307209353
:103FD000D4073093D507E091DB07F091DC078581AA
:103FE000882339F18185843021F18781823029F05D
:103FF000882341F08681811102C085E001C083E001
:10400000818714C083E0818717821682858996890B
:10401000A789B08D892B8A2B8B2B41F4818D928DB2
:10402000A38DB48D858B968BA78BB08F80850E94D6
:104030003819E091DB07F091DC0785A196A1A7A1D3
:10404000B0A5892B8A2B8B2B09F444C02085222311
:1040500009F440C081858430E9F1858D968DA78D66
:10406000B0A140917C0650E060E070E084179507B5
:10407000A607B70768F4622F82E00E944A13E09116
:10408000DB07F091DC07158E168E178E10A208C084
:10409000841B950BA60BB70B858F968FA78FB0A3AC
:1040A000E091DB07F091DC071085858D968DA78D5B
:1040B000B0A1892B8A2B8B2B69F4612F83E00E949E
:1040C0004A13E091DB07F091DC0783E08187812FC1
:1040D0000E94381985E797E09C838B8300E61AEEEF
:1040E00019829AEFC92ED12CE12CF12C812C912C24
:1040F00054018394EB81FC81319780818F3F09F4D7
:1041000000C1EB81FC8134971082EB81FC81F0814E
:10411000FA83882309F468C0F43009F4F2C0EB8113
:10412000FC81448455846684778460917C0670E0C9
:1041300080E090E0461657066806790648F0461A71
:10414000570A680A790A448655866686778606C0C5
:10415000EB81FC811486158616861786EB81FC811F
:104160004088518862887388461657066806790623
:1041700048F0A3019201261B370B480B590BDA01BB
:10418000C90113C0EB81FC81208D318D428D538D8F
:10419000621773078407950768F429013A01461AE4
:1041A000570A680A790AD301C201808B918BA28BCE
:1041B000B38B08C00E94A429EB81FC81608B718BBA
:1041C000828B938BEB81FC8180899189A289B38951
:1041D000892B8A2B8B2B41F4808D918DA28DB38DF1
:1041E000808B918BA28BB38BFA81F33009F089C05D
:1041F000EB81FC8184859585A685B785892B8A2BE3
:104200008B2B09F06BC0DF0112978C919F0123501B
:1042100031098823A9F0F9018081882389F0B5014B
:10422000A4010090CB0704C0440F551F661F771FE1
:104230000A94D2F7EB81FC814087518762877387AC
:104240001C92F9011082EB81FC81A0A1B1A1408CEC
:10425000518C628C738C448D558D668D778DA13019
:10426000B105D1F4448B558B668B778B22E020838C
:1042700080899189A289B38984879587A687B78722
:1042800045284628472821F4C486D586E686F78641
:1042900089810E948C1822C0EB81FC81448B558B54
:1042A000668B778B1197A30192010E9489296487FD
:1042B000758786879787608B718B828B938B452858
:1042C0004628472821F4C486D586E686F786442406
:1042D0004394512CEB81FC8151A240A2EB81FC81E3
:1042E00084859585A685B7850097A105B10549F018
:1042F000A80160E070E084179507A607B70708F4E7
:104300008C012B813C81255D3F4F3C832B83398180
:10431000313019F091E09983EDCE0E947B18F82E90
:104320004BE28402F0011124E459F84F22852093D6
:10433000DD07F093CD07E093CC078823F9F085A142
:1043400096A1A7A1B0A5892B8A2B8B2B99F0858DDF
:10435000968DA78DB0A18A3F9105A105B10550F4B6
:10436000A80160E070E084179507A607B707E8F496
:104370008C011BC00B3F1105C0F012C004301105A9
:10438000A0F0C80103978A3F910538F48C01823070
:10439000910558F402E010E008C00D3F110519F036
:1043A0000AEF10E002C007EF10E02093CE07F09371
:1043B000DC07E093DB0700937C060E944E24282F45
:1043C00030E02F5F3F4F2017310740F00E944E240E
:1043D000082F10E00E5F1F4F00937C06F110109223
:1043E000CF07802F0E94ED236CED75E0C1010E9484
:1043F00055230E9471270F900F900F900F90DF911F
:10440000CF911F910F91FF90EF90DF90CF90BF90D1
:10441000AF909F908F907F906F905F904F903F9064
:104420002F900C947C279C019091EE07191674F044
:1044300084E09802F0011124E151F84F6083338346
:1044400022839F5F9093EE0781E008958FEF089598
:104450000F931F93CF93DF934091EE07552747FDAE
:104460005095C0E090E02C2F30E0241735078CF5F4
:104470008901000F111F000F111FD801A151B84F62
:10448000EC91FF27E7FDF095E817F90701F5D62F26
:10449000F901ED50F84F808181110BC081E08083DC
:1044A0001296ED91FC91139720E040E050E080E0FF
:1044B0000995F801E151F84F0280F381E02D20E0E9
:1044C00040E050E06D2F81E009958C2F03C0CF5F55
:1044D000CACF8FEFDF91CF911F910F91089590E098
:1044E0002091EE07332727FD30952817390784F0F0
:1044F000880F991F880F991FFC01E151F84F028026
:10450000F381E02D20E040E050E060E082E009949B
:1045100081E00E9497128FEF0895242F90E0E091A0
:10452000EE07FF27E7FDF095E817F90774F0880F0D
:10453000991F880F991FFC01E151F84F0280F38108
:10454000E02DAB0160E086E0099481E00E949712C3
:104550008FEF0895242F90E0E091EE07FF27E7FD0D
:10456000F095E817F90774F0880F991F880F991FC5
:10457000FC01E151F84F0280F381E02DAB0160E0D6
:1045800085E0099481E00E9497128FEF0895242F0F
:1045900090E0E091EE07FF27E7FDF095E817F907B7
:1045A00074F0880F991F880F991FFC01E151F84F93
:1045B0000280F381E02D40E050E084E0099481E046
:1045C0000E9497128FEF089590E02091EE07332715
:1045D00027FD3095281739077CF0880F991F880F21
:1045E000991FFC01E151F84F0280F381E02D20E09A
:1045F00040E050E083E0099481E00E9497128FEF41
:10460000089500000000000000000000000000000D
:1046100000000000000000000000019791F70895DD
:1046200010922101089589E0809321018DE89CE397
:1046300090932901809328010895109225011092EA
:1046400024010895CF93DF9300D0CDB7DEB78091DA
:104650002401909125019A83898389819A810F9001
:104660000F90DF91CF91089510928100089581E01D
:1046700080938100089583B5816083BD1092850089
:10468000109284000895CF93DF9300D0CDB7DEB7AA
:1046900080918400909185009A83898389819A8191
:1046A0000F900F90DF91CF910895CF92DF92EF920C
:1046B000FF92CF93DF93EC01CC0FDD1FC9378FEF53
:1046C000D80710F0C0E0D0E06B01E12CF12CCC0E4B
:1046D000DD1EE11CF11C81E0C816D104E806F104DE
:1046E00040F081E0E81AF1080E944323C817D90777
:1046F000D8F30E9443238C159D05D8F3DF91CF9109
:10470000FF90EF90DF90CF9008951092B100E0E716
:10471000F0E080818D7F808380818E7F808308950B
:104720008093B2000895E0E7F0E0808183608083A9
:1047300083E08093B100089583B5826083BD1092B9
:10474000B2001092C70510927C060895CF93DF93B4
:104750008EEF80937C0680E28093B60080917C0689
:104760008093B30083E087BB92E09093B000809386
:10477000B10093B5926093BD87BB84BD83B5826061
:1047800083BD1092800081E08093810010928500AB
:104790001092840083B5826083BD83B5816083BD40
:1047A00010922001C4E2D1E01982188283B58260A0
:1047B00083BD83B5816083BD0E949C2319821882CA
:1047C0000E9493230E9413231092C705DF91CF917B
:1047D00008958091B3008F5F089581508093B30056
:1047E0000895811102C0109271008FEF0895811118
:1047F00006C0109295001092940081E008958FEF0A
:104800000895811105C080919400909195000895BC
:1048100080E090E00895811105C082E080937100EE
:1048200081E008958FEF0895811134C0CB01019785
:10483000059710F460937B061092900010929100FF
:1048400050939900409398003093C4042093C3047C
:1048500080917B06813021F480919100816011C0AC
:10486000823021F48091910082600BC0833021F46A
:1048700080919100836005C0843031F48091910073
:1048800084608093910008C0853031F4809191005C
:104890008560F7CF8FEF089581E008958091B20091
:1048A00008951F920F920FB60F92112460E08AE0D4
:1048B0000E944A13FFCF0F920FB60F921F922F92B2
:1048C0003F924F925F926F927F928F929F92AF92A0
:1048D000BF92CF92DF92EF92FF920F931F932F938D
:1048E0003F934F935F936F937F938F939F93AF9378
:1048F000BF93CF93DF93EF93FF93A091DB07B0912A
:10490000DC070DB60D920EB60D921F92A09179069E
:10491000B0917A061E90BEBFADBF08951F920F9250
:104920000FB60F9211240BB60F922F933F934F9314
:104930005F936F937F938F939F93AF93BF93EF9307
:10494000FF93E091C304F091C404309711F00995EE
:1049500004C060E08AE00E944A13FF91EF91BF918A
:10496000AF919F918F917F916F915F914F913F9107
:104970002F910F900BBE0F900FBE0F901F901895A8
:104980001F920F920FB60F9211240F900FBE0F902F
:104990001F90189504B603FE02C080E101C080E0BC
:1049A00004B602FE06C094B79B7F94BF04B600FE17
:1049B000846004B601FE05C094B79D7F94BF8260F9
:1049C000089581110CC004B600FE04C094B79E7F08
:1049D00094BF01C081E09091B000911181E00895F1
:1049E000811102C0E89A39C0813011F4E99A089522
:1049F000823011F4EA9A31C0833021F480916B0047
:104A0000816029C0843021F480916B00826023C0D2
:104A1000853021F480916B0084601DC0863021F4C4
:104A200080916B00886017C0873021F480916B0003
:104A3000806111C0883021F480916B0080620BC0CE
:104A4000893021F480916B00806405C08A3039F48C
:104A500080916B00806880936B0081E008958FEFF8
:104A60000895811102C0E89839C0813011F4E998A5
:104A70000895823011F4E99831C0833021F4809197
:104A80006B008E7F29C0843021F480916B008D7F74
:104A900023C0853021F480916B008B7F1DC0863050
:104AA00021F480916B00877F17C0873021F48091BB
:104AB0006B008F7E11C0883021F480916B008F7D58
:104AC0000BC0893021F480916B008F7B05C08A3048
:104AD00039F480916B008F7780936B0081E00895AB
:104AE0008FEF0895811126C05093F7074093F60782
:104AF000611104C0809169008C7F3DC0613049F430
:104B0000809169008D7F8093690080916900816048
:104B100032C0623049F480916900826080936900FC
:104B2000809169008E7F27C0633039F580916900DC
:104B3000836021C0813049F55093F5074093F40715
:104B4000611104C080916900837F15C0613049F410
:104B500080916900877F80936900809169008460FB
:104B60000AC0623061F480916900886080936900B6
:104B7000809169008B7F8093690081E008956330A4
:104B8000E1F7809169008C60F6CF823031F5509367
:104B9000F9074093F807611104C0809169008F7C88
:104BA000EACF613049F4809169008F7D809369007C
:104BB000809169008061DFCF623049F480916900A3
:104BC000806280936900809169008F7ED4CF6330CA
:104BD000A1F6809169008063CECF8350883050F475
:104BE000809168008160809368005093FB07409338
:104BF000FA07C3CF8FEF08951F920F920FB60F924F
:104C000011240BB60F922F933F934F935F936F93A3
:104C10007F938F939F93AF93BF93EF93FF93E09115
:104C2000FA07F091FB07309711F0099504C060E096
:104C30008AE00E944A13FF91EF91BF91AF919F913B
:104C40008F917F916F915F914F913F912F910F9035
:104C50000BBE0F900FBE0F901F9018951F920F92D2
:104C60000FB60F9211240BB60F922F933F934F93D1
:104C70005F936F937F938F939F93AF93BF93EF93C4
:104C8000FF93E091F607F091F707309711F009953F
:104C900004C060E08AE00E944A13FF91EF91BF9147
:104CA000AF919F918F917F916F915F914F913F91C4
:104CB0002F910F900BBE0F900FBE0F901F90189565
:104CC0001F920F920FB60F9211240BB60F922F93D3
:104CD0003F934F935F936F937F938F939F93AF9384
:104CE000BF93EF93FF93E091F407F091F5073097AE
:104CF00011F0099504C060E08AE00E944A13FF9118
:104D0000EF91BF91AF919F918F917F916F915F9143
:104D10004F913F912F910F900BBE0F900FBE0F90B0
:104D20001F9018951F920F920FB60F9211240BB679
:104D30000F922F933F934F935F936F937F938F9334
:104D40009F93AF93BF93EF93FF93E091F807F09198
:104D5000F907309711F0099504C060E08AE00E94DD
:104D60004A13FF91EF91BF91AF919F918F917F91E6
:104D70006F915F914F913F912F910F900BBE0F90CC
:104D80000FBE0F901F901895A8959FB7F89484B701
:104D9000877F84BFE0E6F0E08081886180831082B5
:104DA0009FBF08959FB7F894A89584B7877F84BF65
:104DB000E0E6F0E08081886180838DE080839FBFA2
:104DC000089504B603FE02C08FEF089581E00895B0
:104DD000A8950895089583B7817F866083BF83B7C0
:104DE000816083BF889583B78E7F83BF089583B723
:104DF000817F83BF83B7816083BF889583B78E7FB0
:104E000083BF0895FC01768365830895EF92FF9236
:104E10000F931F93CF93DF938C017B01EA01403204
:104E2000510518F481E10E943C132197CE0DDF1D3E
:104E3000F801D283C183F482E382DF91CF911F9185
:104E40000F91FF90EF90089525E5FA012083FB0173
:104E500032979083319680833397118210823297F4
:104E60001182108232971182108232971182108241
:104E700032971182108232971182108232971182FA
:104E800010823297118210823297118210823297EB
:104E90001182108232971182108232971182108211
:104EA00032971182108232971182108232971182CA
:104EB0001082329711821082CB018497FC011182FB
:104EC0001082089585E580937E41EEEFF1E4F09342
:104ED0007A06E093790682E992E190838093FF411C
:104EE000089582E992E19093FE418093FF410895F5
:104EF0000E94A6230C940011A091CC07B091CD077D
:104F0000CD91CDBFDD91DEBFFF91EF91DF91CF91CC
:104F1000BF91AF919F918F917F916F915F914F91D1
:104F20003F912F911F910F91FF90EF90DF90CF90C5
:104F3000BF90AF909F908F907F906F905F904F90B9
:104F40003F902F901F900F900FBE0F901895CF930A
:104F5000DF93CDB7DEB76A970FB6F894DEBF0FBE0A
:104F6000CDBF0E94AF0C8FEC90E00E9433100E94E6
:104F700005118AE992E00E94792B80E090E00E947E
:104F8000CA0F81E090E00E94CA0F82E090E00E9488
:104F9000CA0F83E090E00E94CA0F20E030E0A90130
:104FA00060E070E0CB010E941C1E8EE00E949C0419
:104FB0000E94DE048091320489838BEA92E00E9491
:104FC000792B0E94FE04C901BA012A839B834C837A
:104FD0007D837F934F939F932F9389811F928F930C
:104FE0008BEC92E09F938F930E945F2B8AEE92E06E
:104FF0000E94792B65E0CE0101960E94EF0380E0CC
:105000000E94DB0484E3898B88E08A8B1B8A1C8ADC
:105010001D8A1E8A1F8A188E0FB6F894DEBF0FBE37
:10502000CDBF0E94FE04E4E3AE2EF8E0BF2EC12CFB
:10503000D12CE12CF12C00E010E00E94DF29AAE045
:10504000AA2EB12C0E94DD293A8F298F898D9A8D45
:10505000892B59F40E94FE042A833B834C835D8391
:1050600065E0CE0101960E94EF03898D9A8D892B10
:10507000C1F24EE352E0BE016F5E7F4F8AE00E94B4
:10508000C105CFCF6F927F928F929F92AF92BF92C6
:10509000CF92DF92EF92FF920F931F93CF93DF9304
:1050A000CDB7DEB72C970FB6F894DEBF0FBECDBFDD
:1050B0006C015B017A01FC0117821682838181FFFA
:1050C0000EC1CE0101964C01F6010381F50103FDED
:1050D000159103FF11915F01112309F4FCC01532F2
:1050E00049F403FD159103FF11915F01153211F091
:1050F00020E01BC0B601812F90E00E94272B3701D2
:105100007301E2CF112309F4E6C0612F70E08AE257
:1051100094E02C870E94BA2A2C85892B49F0F5014E
:1051200003FD159103FF11915F0127FFEBCF09C02C
:10513000133229F01C3609F0D5C02068F0CF20E1E9
:10514000EECF022F112309F4C6C0612F70E083E275
:1051500094E02C870E94BA2A2C85892B41F03701D4
:10516000F4E06F0E711CB6018FE390E011C01336AE
:1051700039F0133781F0133519F5022F01600BC098
:10518000370182E0680E711CB601F70180819181C0
:105190000E94272BB5CF3701F2E06F0E711CF7018B
:1051A000E080F180F70100FD859100FF81917F0192
:1051B000882309F4A5CFB60190E00E94272BF2CFF7
:1051C000143611F0193629F5370127FF09C0F4E02C
:1051D0006F0E711CF70160817181828193810AC019
:1051E000F2E06F0E711CF70160817181882777FDF5
:1051F0008095982F022F0F7E97FF08C0909580957D
:10520000709561957F4F8F4F9F4F00642AE030E08B
:1052100033C0103799F040F41835B1F01F3609F05B
:105220005AC028E030E014C0153719F0183741F0A3
:1052300052C0022F0F7E2AE030E00AC0022F006128
:10524000046220E130E004C0022F046020E132E07B
:10525000370107FF09C0F4E06F0E711CF701608190
:1052600071818281938108C0F2E06F0E711CF70199
:105270006081718180E090E0A4010E94D92B182FF9
:10528000181906FF05C0B6018DE290E00E94272B99
:1052900004FF15C0FE01E10FF11D8081803379F01C
:1052A000B60180E390E00E94272B02FF08C0007245
:1052B000802F90E0B601885A9F4F0E94272B1150F3
:1052C000F401E10FF11D8081B60190E00E94272BCF
:1052D0001111F5CF15CFF6018681978105C08FEFAB
:1052E0009FEF02C0022F31CF2C960FB6F894DEBF8D
:1052F0000FBECDBFDF91CF911F910F91FF90EF9027
:10530000DF90CF90BF90AF909F908F907F906F90E5
:1053100008950E94AB2AA59F900DB49F900DA49F65
:10532000800D911D11240895DB018F939F930E949E
:105330008929BF91AF91A29F800D911DA39F900DD0
:10534000B29F900D11240895A1E21A2EAA1BBB1B37
:10535000FD010DC0AA1FBB1FEE1FFF1FA217B30741
:10536000E407F50720F0A21BB30BE40BF50B661F57
:10537000771F881F991F1A9469F76095709580951B
:1053800090959B01AC01BD01CF010895052E97FBBF
:105390001EF400940E943C2A57FD07D00E94A429C5
:1053A00007FC03D04EF40C943C2A50954095309560
:1053B00021953F4F4F4F5F4F0895689401C0E89487
:1053C0008F929F92CF93DF930E94EB29DF91CF9131
:1053D0009F908F90089588249924F401E401B0E40B
:1053E0009F93AA279A158B049C04ED05FE05CF0513
:1053F000D007A10798F4AD2FDC2FCF2FFE2FE92D7A
:10540000982C892E982F872F762F652F542F432F76
:10541000322F2227B85031F7BF9127C01B2EBF91E2
:10542000BB27220F331F441F551F661F771F881F7E
:10543000991F881C991CEE1FFF1FCC1FDD1FAA1F80
:10544000BB1F8A149B04EC05FD05CE05DF05A007F4
:10545000B10748F08A189B08EC09FD09CE09DF095D
:10546000A00BB10B21601A94E1F62EF49401AF0168
:10547000BE01CD01000C08959095809570956195C1
:105480007F4F8F4F9F4F0895EE0FFF1F0024001C8A
:105490000BBE0790F691E02D09940F93083090F021
:1054A000982F872F762F652F542F432F322F2227A7
:1054B0000850F4CF220F331F441F551F661F771F5C
:1054C000881F991F0A95B2F70F91089597FB10F85E
:1054D000169400080F93083098F00850232F342FAB
:1054E000452F562F672F782F892F902DF4CF0594B5
:1054F000979587957795679557954795379527950C
:105500000A95AAF70F9108952A0D3B1D4C1D5D1DAC
:105510006E1D7F1D801F911F08950024A7FD00941C
:105520002A0F301D401D501D601D701D801D901DD7
:1055300008952A193B094C095D096E097F09800B02
:10554000910B08952A153B054C055D056E057F05F9
:10555000800791070895A29FB001B39FC001A39F48
:10556000700D811D1124911DB29F700D811D11249C
:10557000911D0895FC010590061621F00020D9F731
:10558000C00108953197CF010895FB01DC0102C0ED
:1055900001900D9241505040D8F70895FB01DC0175
:1055A0004150504030F08D910190801919F4002045
:1055B000B9F7881B990B08950F931F93CF93DF932F
:1055C000009731F46115710519F480E090E03AC05C
:1055D0008B01EC016EE070E081E090E00E944D2CC8
:1055E000FC01009791F380E883830115110571F0A8
:1055F0001387028781E883838091FC079091FD07E0
:10560000892B21F4F093FD07E093FC072097C9F064
:10561000D187C0878381826083838091FE079091C8
:10562000FF07892B71F4F093FF07E093FE07809149
:10563000000890910108892B21F4F0930108E09370
:105640000008CF01DF91CF911F910F9108950F9323
:105650001F93CF93DF93FB01238121FD03C08FEFC5
:105660009FEF28C022FF16C04681578124813581D3
:105670004217530744F4A081B1819D012F5F3F4F32
:10568000318320838C93268137812F5F3F4F37836F
:10569000268310C0EB01092F182F0084F185E02D1F
:1056A0000995892BE1F68E819F8101969F838E83D8
:1056B000812F902FDF91CF911F910F910895CF935C
:1056C000DF93CDB7DEB7AE014B5F5F4FFA0161915B
:1056D0007191AF018091FE079091FF070E944228CF
:1056E000DF91CF9108956091FE077091FF070C94B0
:1056F000272B0F931F93CF93DF93E091FE07F09139
:10570000FF07238121FF1BC08C01D0E0C0E0F8011E
:1057100081918F016091FE077091FF07DB01189660
:10572000ED91FC911997882331F00995892B79F334
:10573000DFEFCFEFECCF8AE00995892B19F08FEFDF
:105740009FEF02C08D2F9C2FDF91CF911F910F9162
:1057500008950F931F93CF93DF93CDB7DEB72E97A6
:105760000FB6F894DEBF0FBECDBF0D891E8986E04F
:105770008C831A8309838FEF9FE79E838D83AE010D
:10578000475E5F4F6F89788DCE0101960E94422857
:105790002F813885F801E20FF31F10822E960FB685
:1057A000F894DEBF0FBECDBFDF91CF911F910F9157
:1057B0000895FA01AA27283051F1203181F1E894A7
:1057C0006F936E7F6E5F7F4F8F4F9F4FAF4FB1E0F4
:1057D0003ED0B4E03CD0670F781F891F9A1FA11DEF
:1057E000680F791F8A1F911DA11D6A0F711D811DF0
:1057F000911DA11D20D009F468943F912AE0269FB5
:1058000011243019305D3193DEF6CF010895462F13
:105810004770405D4193B3E00FD0C9F7F6CF462FF4
:105820004F70405D4A3318F0495D31FD405241935D
:1058300002D0A9F7EACFB4E0A6959795879577951A
:105840006795BA95C9F700976105710508959B01A1
:10585000AC010A2E06945795479537952795BA952A
:10586000C9F7620F731F841F951FA01D0895F99932
:10587000FECF92BD81BDF89A992780B50895262F55
:10588000F999FECF1FBA92BD81BD20BD0FB6F89425
:10589000FA9AF99A0FBE019608950F931F93CF932A
:1058A000DF93869F8001879F100D969F100D112416
:1058B000C8010E94692CEC01009729F0A80160E062
:1058C00070E00E94962DCE01DF91CF911F910F9134
:1058D0000895CF93DF938230910510F482E090E039
:1058E000E0910408F091050820E030E0C0E0D0E04D
:1058F000309711F14081518148175907C0F048177E
:10590000590761F482819381209719F09B838A83E0
:105910002BC0909305088093040826C021153105FB
:1059200019F04217530718F49A01BE01DF01EF0185
:105930000280F381E02DDCCF2115310509F1281B10
:10594000390B2430310590F412968D919C91139768
:105950006115710521F0FB019383828304C090934C
:10596000050880930408FD01329644C0FD01E20F52
:10597000F31F81939193225031092D933C933AC0A8
:105980002091020830910308232B41F42091120248
:1059900030911302309303082093020820911002E3
:1059A000309111022115310541F42DB73EB74091D8
:1059B000140250911502241B350BE0910208F0915E
:1059C0000308E217F307A0F42E1B3F0B2817390733
:1059D00078F0AC014E5F5F4F2417350748F04E0F4B
:1059E0005F1F50930308409302088193919302C074
:1059F000E0E0F0E0CF01DF91CF9108950F931F9386
:105A0000CF93DF93009709F48CC0FC013297138287
:105A1000128200910408109105080115110581F406
:105A200020813181820F931F209102083091030859
:105A30002817390779F5F0930308E093020871C03D
:105A4000D80140E050E0AE17BF0750F412962D91F8
:105A50003C911397AD012115310509F1D901F3CF1F
:105A60009D01DA013383228360817181860F971F44
:105A70008217930769F4EC0128813981260F371FBB
:105A80002E5F3F4F318320838A819B819383828362
:105A9000452B29F4F0930508E093040842C01396BF
:105AA000FC93EE931297ED01499159919E01240FB9
:105AB000351FE217F30771F480819181840F951FE0
:105AC000029611969C938E938281938113969C9358
:105AD0008E931297E0E0F0E0D80112968D919C91A0
